{
  "address": "0x8cB693D7cfeA0Bddc5BB32d61cdaAbA0E6a9074f",
  "abi": [
    {
      "anonymous": false,
      "inputs": [
        {
          "indexed": false,
          "internalType": "uint256",
          "name": "amount",
          "type": "uint256"
        }
      ],
      "name": "EsZebraIssued",
      "type": "event"
    },
    {
      "anonymous": false,
      "inputs": [
        {
          "indexed": false,
          "internalType": "address",
          "name": "to",
          "type": "address"
        },
        {
          "indexed": false,
          "internalType": "uint256",
          "name": "amount",
          "type": "uint256"
        }
      ],
      "name": "EsZebraSent",
      "type": "event"
    },
    {
      "anonymous": false,
      "inputs": [
        {
          "indexed": false,
          "internalType": "uint8",
          "name": "version",
          "type": "uint8"
        }
      ],
      "name": "Initialized",
      "type": "event"
    },
    {
      "anonymous": false,
      "inputs": [
        {
          "indexed": false,
          "internalType": "uint256",
          "name": "_rewardPerSec",
          "type": "uint256"
        }
      ],
      "name": "RewardPerSecUpdated",
      "type": "event"
    },
    {
      "inputs": [],
      "name": "EsZebra",
      "outputs": [
        {
          "internalType": "contract IEsZebra",
          "name": "",
          "type": "address"
        }
      ],
      "stateMutability": "view",
      "type": "function"
    },
    {
      "inputs": [],
      "name": "ZebraCore",
      "outputs": [
        {
          "internalType": "contract IZebraCore",
          "name": "",
          "type": "address"
        }
      ],
      "stateMutability": "view",
      "type": "function"
    },
    {
      "inputs": [],
      "name": "duration",
      "outputs": [
        {
          "internalType": "uint64",
          "name": "",
          "type": "uint64"
        }
      ],
      "stateMutability": "view",
      "type": "function"
    },
    {
      "inputs": [],
      "name": "guardian",
      "outputs": [
        {
          "internalType": "address",
          "name": "",
          "type": "address"
        }
      ],
      "stateMutability": "view",
      "type": "function"
    },
    {
      "inputs": [
        {
          "internalType": "contract IZebraCore",
          "name": "_zebraCore",
          "type": "address"
        },
        {
          "internalType": "address",
          "name": "_EsZebra",
          "type": "address"
        },
        {
          "internalType": "address",
          "name": "_stabilityPool",
          "type": "address"
        }
      ],
      "name": "initialize",
      "outputs": [],
      "stateMutability": "nonpayable",
      "type": "function"
    },
    {
      "inputs": [],
      "name": "issueEsZebra",
      "outputs": [
        {
          "internalType": "uint256",
          "name": "",
          "type": "uint256"
        }
      ],
      "stateMutability": "nonpayable",
      "type": "function"
    },
    {
      "inputs": [],
      "name": "lastTimeRewardApplicable",
      "outputs": [
        {
          "internalType": "uint64",
          "name": "",
          "type": "uint64"
        }
      ],
      "stateMutability": "view",
      "type": "function"
    },
    {
      "inputs": [],
      "name": "lastUpdatedTime",
      "outputs": [
        {
          "internalType": "uint64",
          "name": "",
          "type": "uint64"
        }
      ],
      "stateMutability": "view",
      "type": "function"
    },
    {
      "inputs": [],
      "name": "owner",
      "outputs": [
        {
          "internalType": "address",
          "name": "",
          "type": "address"
        }
      ],
      "stateMutability": "view",
      "type": "function"
    },
    {
      "inputs": [],
      "name": "pendingIssues",
      "outputs": [
        {
          "internalType": "uint256",
          "name": "pending",
          "type": "uint256"
        }
      ],
      "stateMutability": "view",
      "type": "function"
    },
    {
      "inputs": [],
      "name": "pendingReward",
      "outputs": [
        {
          "internalType": "uint256",
          "name": "pending",
          "type": "uint256"
        }
      ],
      "stateMutability": "view",
      "type": "function"
    },
    {
      "inputs": [],
      "name": "rewardEndTime",
      "outputs": [
        {
          "internalType": "uint64",
          "name": "",
          "type": "uint64"
        }
      ],
      "stateMutability": "view",
      "type": "function"
    },
    {
      "inputs": [],
      "name": "rewardPerSec",
      "outputs": [
        {
          "internalType": "uint256",
          "name": "",
          "type": "uint256"
        }
      ],
      "stateMutability": "view",
      "type": "function"
    },
    {
      "inputs": [],
      "name": "rewardStored",
      "outputs": [
        {
          "internalType": "uint256",
          "name": "",
          "type": "uint256"
        }
      ],
      "stateMutability": "view",
      "type": "function"
    },
    {
      "inputs": [
        {
          "internalType": "address",
          "name": "to",
          "type": "address"
        },
        {
          "internalType": "uint256",
          "name": "amount",
          "type": "uint256"
        }
      ],
      "name": "sendEsZebra",
      "outputs": [],
      "stateMutability": "nonpayable",
      "type": "function"
    },
    {
      "inputs": [
        {
          "internalType": "uint64",
          "name": "_rewardEndTime",
          "type": "uint64"
        }
      ],
      "name": "setRewardEndTime",
      "outputs": [],
      "stateMutability": "nonpayable",
      "type": "function"
    },
    {
      "inputs": [
        {
          "internalType": "uint128",
          "name": "_rewardPerSec",
          "type": "uint128"
        }
      ],
      "name": "setRewardPerSec",
      "outputs": [],
      "stateMutability": "nonpayable",
      "type": "function"
    },
    {
      "inputs": [],
      "name": "stabilitypool",
      "outputs": [
        {
          "internalType": "address",
          "name": "",
          "type": "address"
        }
      ],
      "stateMutability": "view",
      "type": "function"
    },
    {
      "inputs": [
        {
          "internalType": "uint128",
          "name": "_rewardPerSec",
          "type": "uint128"
        },
        {
          "internalType": "uint64",
          "name": "_duration",
          "type": "uint64"
        }
      ],
      "name": "startUp",
      "outputs": [],
      "stateMutability": "nonpayable",
      "type": "function"
    }
  ],
  "transactionHash": "0x4f5681e675e0aadc130ba450167d56f60d843fce27d856ecd7f898835df3ed87",
  "args": [],
  "numDeployments": 1,
  "solcInputHash": "b91301f1a84b6c2e358640cd7d231682",
  "bytecode": "0x608060405234801561001057600080fd5b50610ff9806100206000396000f3fe608060405234801561001057600080fd5b50600436106101515760003560e01c80634f4d8b82116100cd578063bf85689511610081578063dde1053111610066578063dde105311461029d578063df50b939146102a5578063f75d6f31146102b857600080fd5b8063bf8568951461026f578063c0c53b8b1461028a57600080fd5b80635ea54325116100b25780635ea543251461024c57806380faa57d1461025f5780638da5cb5b1461026757600080fd5b80634f4d8b82146102315780634f977d871461024457600080fd5b806337e9f64a11610124578063450eccf111610109578063450eccf11461020b578063452a9320146102205780634f41e95d1461022857600080fd5b806337e9f64a146101e25780634367ac7c1461020257600080fd5b806302b9c808146101565780630fb5a6b414610186578063137ee36e146101b35780632fbea014146101c9575b600080fd5b600254610169906001600160a01b031681565b6040516001600160a01b0390911681526020015b60405180910390f35b60035461019a9067ffffffffffffffff1681565b60405167ffffffffffffffff909116815260200161017d565b6101bb6102cb565b60405190815260200161017d565b600054610169906201000090046001600160a01b031681565b60035461019a9068010000000000000000900467ffffffffffffffff1681565b6101bb60055481565b61021e610219366004610dcb565b6102e7565b005b610169610433565b6101bb60045481565b600154610169906001600160a01b031681565b6101bb6104ab565b61021e61025a366004610dfe565b610548565b61019a61069f565b6101696106c6565b60025461019a90600160a01b900467ffffffffffffffff1681565b61021e610298366004610e31565b61071a565b6101bb6108d3565b61021e6102b3366004610e7c565b610a8b565b61021e6102c6366004610ea8565b610bba565b60006005546102d86104ab565b6102e29190610f0a565b905090565b6102ef6106c6565b6001600160a01b0316336001600160a01b0316146103545760405162461bcd60e51b815260206004820152600a60248201527f4f6e6c79206f776e65720000000000000000000000000000000000000000000060448201526064015b60405180910390fd5b6000600454116103cc5760405162461bcd60e51b815260206004820152602760248201527f436f6d6d756e69747949737375616e63653a20696e76616c696420726577617260448201527f6450657253656300000000000000000000000000000000000000000000000000606482015260840161034b565b6103d46104ab565b600560008282546103e59190610f0a565b90915550506fffffffffffffffffffffffffffffffff811660045561040861069f565b600260146101000a81548167ffffffffffffffff021916908367ffffffffffffffff16021790555050565b60008060029054906101000a90046001600160a01b03166001600160a01b031663452a93206040518163ffffffff1660e01b8152600401602060405180830381865afa158015610487573d6000803e3d6000fd5b505050506040513d601f19601f820116820180604052508101906102e29190610f1d565b600254600090600160a01b900467ffffffffffffffff1681036104ce5750600090565b600254600160a01b900467ffffffffffffffff166104ea61069f565b67ffffffffffffffff16036104ff5750600090565b600254600090600160a01b900467ffffffffffffffff1661051e61069f565b6105289190610f41565b67ffffffffffffffff169050600454816105429190610f69565b91505090565b6105506106c6565b6001600160a01b0316336001600160a01b0316146105b05760405162461bcd60e51b815260206004820152600a60248201527f4f6e6c79206f776e657200000000000000000000000000000000000000000000604482015260640161034b565b600354426801000000000000000090910467ffffffffffffffff161161063e5760405162461bcd60e51b815260206004820152602860248201527f436f6d6d756e69747949737375616e63653a20696e76616c696420726577617260448201527f64456e6454696d65000000000000000000000000000000000000000000000000606482015260840161034b565b6106466104ab565b600560008282546106579190610f0a565b9091555050600380547fffffffffffffffffffffffffffffffff0000000000000000ffffffffffffffff166801000000000000000067ffffffffffffffff8416021790556104085b6003546000906102e290429068010000000000000000900467ffffffffffffffff16610d0a565b60008060029054906101000a90046001600160a01b03166001600160a01b0316638da5cb5b6040518163ffffffff1660e01b8152600401602060405180830381865afa158015610487573d6000803e3d6000fd5b600054610100900460ff161580801561073a5750600054600160ff909116105b806107545750303b158015610754575060005460ff166001145b6107c65760405162461bcd60e51b815260206004820152602e60248201527f496e697469616c697a61626c653a20636f6e747261637420697320616c72656160448201527f647920696e697469616c697a6564000000000000000000000000000000000000606482015260840161034b565b600080547fffffffffffffffffffffffffffffffffffffffffffffffffffffffffffffff001660011790558015610807576000805461ff0019166101001790555b600080547fffffffffffffffffffff0000000000000000000000000000000000000000ffff16620100006001600160a01b03871602179055600180546001600160a01b038086167fffffffffffffffffffffffff000000000000000000000000000000000000000092831617909255600280549285169290911691909117905580156108cd576000805461ff0019169055604051600181527f7f26b83ff96e1f2b6a682f133852f6798a09c465da95921460cefb38474024989060200160405180910390a15b50505050565b60006108dd610d24565b60035467ffffffffffffffff166000036108f75750600090565b60035468010000000000000000900467ffffffffffffffff166000036109575760035461092e9067ffffffffffffffff1642610f80565b600360086101000a81548167ffffffffffffffff021916908367ffffffffffffffff1602179055505b600254600160a01b900467ffffffffffffffff166000036109c15761097a61069f565b6002805467ffffffffffffffff92909216600160a01b027fffffffff0000000000000000ffffffffffffffffffffffffffffffffffffffff90921691909117905550600090565b6109c961069f565b60025467ffffffffffffffff918216600160a01b909104909116036109ee5750600090565b60006109f86102cb565b9050600554600014610a0a5760006005555b610a1261069f565b6002805467ffffffffffffffff92909216600160a01b027fffffffff0000000000000000ffffffffffffffffffffffffffffffffffffffff9092169190911790556040518181527fbbe9a3207e716471507c506937e8e2c9f511ec4248ee8fb9d6d7538622c2970f9060200160405180910390a1919050565b610a93610d24565b60008111610ae35760405162461bcd60e51b815260206004820152601e60248201527f436f6d6d756e69747949737375616e63653a207a65726f20616d6f756e740000604482015260640161034b565b6001546040517fa9059cbb0000000000000000000000000000000000000000000000000000000081526001600160a01b038481166004830152602482018490529091169063a9059cbb906044016020604051808303816000875af1158015610b4f573d6000803e3d6000fd5b505050506040513d601f19601f82011682018060405250810190610b739190610fa1565b50604080516001600160a01b0384168152602081018390527f59b8b3e9c931a2d4ed7f0f01b34f3ece56ccb950a8a41c69049ca11540bc684a910160405180910390a15050565b610bc26106c6565b6001600160a01b0316336001600160a01b031614610c225760405162461bcd60e51b815260206004820152600a60248201527f4f6e6c79206f776e657200000000000000000000000000000000000000000000604482015260640161034b565b600454158015610c48575060035468010000000000000000900467ffffffffffffffff16155b610cba5760405162461bcd60e51b815260206004820152602260248201527f436f6d6d756e69747949737375616e63653a20416c726561647920737461727460448201527f6564000000000000000000000000000000000000000000000000000000000000606482015260840161034b565b600380547fffffffffffffffffffffffffffffffffffffffffffffffff00000000000000001667ffffffffffffffff929092169190911790556fffffffffffffffffffffffffffffffff16600455565b6000818310610d195781610d1b565b825b90505b92915050565b6002546001600160a01b03163314610da45760405162461bcd60e51b815260206004820152602f60248201527f436f6d6d756e69747949737375616e63653a2043616c6c6572206973206e6f7460448201527f2053746162696c69747920506f6f6c0000000000000000000000000000000000606482015260840161034b565b565b80356fffffffffffffffffffffffffffffffff81168114610dc657600080fd5b919050565b600060208284031215610ddd57600080fd5b610d1b82610da6565b803567ffffffffffffffff81168114610dc657600080fd5b600060208284031215610e1057600080fd5b610d1b82610de6565b6001600160a01b0381168114610e2e57600080fd5b50565b600080600060608486031215610e4657600080fd5b8335610e5181610e19565b92506020840135610e6181610e19565b91506040840135610e7181610e19565b809150509250925092565b60008060408385031215610e8f57600080fd5b8235610e9a81610e19565b946020939093013593505050565b60008060408385031215610ebb57600080fd5b610ec483610da6565b9150610ed260208401610de6565b90509250929050565b7f4e487b7100000000000000000000000000000000000000000000000000000000600052601160045260246000fd5b80820180821115610d1e57610d1e610edb565b600060208284031215610f2f57600080fd5b8151610f3a81610e19565b9392505050565b67ffffffffffffffff828116828216039080821115610f6257610f62610edb565b5092915050565b8082028115828204841417610d1e57610d1e610edb565b67ffffffffffffffff818116838216019080821115610f6257610f62610edb565b600060208284031215610fb357600080fd5b81518015158114610f3a57600080fdfea2646970667358221220823da0e18dddd6baab1a0ed0651f227d327a4a19a66af361b38887062356606964736f6c63430008130033",
  "devdoc": {
    "events": {
      "Initialized(uint8)": {
        "details": "Triggered when the contract has been initialized or reinitialized."
      }
    },
    "kind": "dev",
    "methods": {},
    "version": 1
  },
  "userdoc": {
    "kind": "user",
    "methods": {},
    "version": 1
  },
  "storageLayout": {
    "storage": [
      {
        "astId": 6,
        "contract": "contracts/core/CommunityIssuance.sol:CommunityIssuance",
        "label": "_initialized",
        "offset": 0,
        "slot": "0",
        "type": "t_uint8"
      },
      {
        "astId": 9,
        "contract": "contracts/core/CommunityIssuance.sol:CommunityIssuance",
        "label": "_initializing",
        "offset": 1,
        "slot": "0",
        "type": "t_bool"
      },
      {
        "astId": 24511,
        "contract": "contracts/core/CommunityIssuance.sol:CommunityIssuance",
        "label": "ZebraCore",
        "offset": 2,
        "slot": "0",
        "type": "t_contract(IZebraCore)37932"
      },
      {
        "astId": 11914,
        "contract": "contracts/core/CommunityIssuance.sol:CommunityIssuance",
        "label": "EsZebra",
        "offset": 0,
        "slot": "1",
        "type": "t_contract(IEsZebra)36329"
      },
      {
        "astId": 11916,
        "contract": "contracts/core/CommunityIssuance.sol:CommunityIssuance",
        "label": "stabilitypool",
        "offset": 0,
        "slot": "2",
        "type": "t_address"
      },
      {
        "astId": 11918,
        "contract": "contracts/core/CommunityIssuance.sol:CommunityIssuance",
        "label": "lastUpdatedTime",
        "offset": 20,
        "slot": "2",
        "type": "t_uint64"
      },
      {
        "astId": 11920,
        "contract": "contracts/core/CommunityIssuance.sol:CommunityIssuance",
        "label": "duration",
        "offset": 0,
        "slot": "3",
        "type": "t_uint64"
      },
      {
        "astId": 11922,
        "contract": "contracts/core/CommunityIssuance.sol:CommunityIssuance",
        "label": "rewardEndTime",
        "offset": 8,
        "slot": "3",
        "type": "t_uint64"
      },
      {
        "astId": 11924,
        "contract": "contracts/core/CommunityIssuance.sol:CommunityIssuance",
        "label": "rewardPerSec",
        "offset": 0,
        "slot": "4",
        "type": "t_uint256"
      },
      {
        "astId": 11926,
        "contract": "contracts/core/CommunityIssuance.sol:CommunityIssuance",
        "label": "rewardStored",
        "offset": 0,
        "slot": "5",
        "type": "t_uint256"
      }
    ],
    "types": {
      "t_address": {
        "encoding": "inplace",
        "label": "address",
        "numberOfBytes": "20"
      },
      "t_bool": {
        "encoding": "inplace",
        "label": "bool",
        "numberOfBytes": "1"
      },
      "t_contract(IEsZebra)36329": {
        "encoding": "inplace",
        "label": "contract IEsZebra",
        "numberOfBytes": "20"
      },
      "t_contract(IZebraCore)37932": {
        "encoding": "inplace",
        "label": "contract IZebraCore",
        "numberOfBytes": "20"
      },
      "t_uint256": {
        "encoding": "inplace",
        "label": "uint256",
        "numberOfBytes": "32"
      },
      "t_uint64": {
        "encoding": "inplace",
        "label": "uint64",
        "numberOfBytes": "8"
      },
      "t_uint8": {
        "encoding": "inplace",
        "label": "uint8",
        "numberOfBytes": "1"
      }
    }
  }
}