{
  "address": "0xf46ac87832148D483c20EEC2B54773693E04cB7B",
  "abi": [
    {
      "inputs": [
        {
          "internalType": "contract IZebraCore",
          "name": "_zebraCore",
          "type": "address"
        },
        {
          "internalType": "address",
          "name": "_zebra",
          "type": "address"
        },
        {
          "internalType": "address",
          "name": "_vest",
          "type": "address"
        }
      ],
      "stateMutability": "nonpayable",
      "type": "constructor"
    },
    {
      "anonymous": false,
      "inputs": [
        {
          "indexed": true,
          "internalType": "address",
          "name": "owner",
          "type": "address"
        },
        {
          "indexed": true,
          "internalType": "address",
          "name": "spender",
          "type": "address"
        },
        {
          "indexed": false,
          "internalType": "uint256",
          "name": "value",
          "type": "uint256"
        }
      ],
      "name": "Approval",
      "type": "event"
    },
    {
      "anonymous": false,
      "inputs": [
        {
          "indexed": false,
          "internalType": "address",
          "name": "receiver",
          "type": "address"
        },
        {
          "indexed": false,
          "internalType": "bool",
          "name": "enabled",
          "type": "bool"
        }
      ],
      "name": "ReceiverUpdated",
      "type": "event"
    },
    {
      "anonymous": false,
      "inputs": [
        {
          "indexed": false,
          "internalType": "address",
          "name": "sender",
          "type": "address"
        },
        {
          "indexed": false,
          "internalType": "bool",
          "name": "enabled",
          "type": "bool"
        }
      ],
      "name": "SenderUpdated",
      "type": "event"
    },
    {
      "anonymous": false,
      "inputs": [
        {
          "indexed": true,
          "internalType": "address",
          "name": "from",
          "type": "address"
        },
        {
          "indexed": true,
          "internalType": "address",
          "name": "to",
          "type": "address"
        },
        {
          "indexed": false,
          "internalType": "uint256",
          "name": "value",
          "type": "uint256"
        }
      ],
      "name": "Transfer",
      "type": "event"
    },
    {
      "inputs": [],
      "name": "ZebraCore",
      "outputs": [
        {
          "internalType": "contract IZebraCore",
          "name": "",
          "type": "address"
        }
      ],
      "stateMutability": "view",
      "type": "function"
    },
    {
      "inputs": [
        {
          "internalType": "address",
          "name": "owner",
          "type": "address"
        },
        {
          "internalType": "address",
          "name": "spender",
          "type": "address"
        }
      ],
      "name": "allowance",
      "outputs": [
        {
          "internalType": "uint256",
          "name": "",
          "type": "uint256"
        }
      ],
      "stateMutability": "view",
      "type": "function"
    },
    {
      "inputs": [
        {
          "internalType": "address",
          "name": "spender",
          "type": "address"
        },
        {
          "internalType": "uint256",
          "name": "amount",
          "type": "uint256"
        }
      ],
      "name": "approve",
      "outputs": [
        {
          "internalType": "bool",
          "name": "",
          "type": "bool"
        }
      ],
      "stateMutability": "nonpayable",
      "type": "function"
    },
    {
      "inputs": [
        {
          "internalType": "address[]",
          "name": "_callers",
          "type": "address[]"
        },
        {
          "internalType": "bool[]",
          "name": "_enables",
          "type": "bool[]"
        }
      ],
      "name": "authAll",
      "outputs": [],
      "stateMutability": "nonpayable",
      "type": "function"
    },
    {
      "inputs": [
        {
          "internalType": "address[]",
          "name": "_receivers",
          "type": "address[]"
        },
        {
          "internalType": "bool[]",
          "name": "_enables",
          "type": "bool[]"
        }
      ],
      "name": "authReceivers",
      "outputs": [],
      "stateMutability": "nonpayable",
      "type": "function"
    },
    {
      "inputs": [
        {
          "internalType": "address[]",
          "name": "_senders",
          "type": "address[]"
        },
        {
          "internalType": "bool[]",
          "name": "_enables",
          "type": "bool[]"
        }
      ],
      "name": "authSenders",
      "outputs": [],
      "stateMutability": "nonpayable",
      "type": "function"
    },
    {
      "inputs": [
        {
          "internalType": "address",
          "name": "account",
          "type": "address"
        }
      ],
      "name": "balanceOf",
      "outputs": [
        {
          "internalType": "uint256",
          "name": "",
          "type": "uint256"
        }
      ],
      "stateMutability": "view",
      "type": "function"
    },
    {
      "inputs": [
        {
          "internalType": "uint256",
          "name": "amount",
          "type": "uint256"
        }
      ],
      "name": "burn",
      "outputs": [],
      "stateMutability": "nonpayable",
      "type": "function"
    },
    {
      "inputs": [
        {
          "internalType": "address",
          "name": "account",
          "type": "address"
        },
        {
          "internalType": "uint256",
          "name": "amount",
          "type": "uint256"
        }
      ],
      "name": "burnFrom",
      "outputs": [],
      "stateMutability": "nonpayable",
      "type": "function"
    },
    {
      "inputs": [
        {
          "internalType": "address",
          "name": "account",
          "type": "address"
        },
        {
          "internalType": "uint256",
          "name": "amount",
          "type": "uint256"
        }
      ],
      "name": "burnFromZebra",
      "outputs": [],
      "stateMutability": "nonpayable",
      "type": "function"
    },
    {
      "inputs": [],
      "name": "decimals",
      "outputs": [
        {
          "internalType": "uint8",
          "name": "",
          "type": "uint8"
        }
      ],
      "stateMutability": "view",
      "type": "function"
    },
    {
      "inputs": [
        {
          "internalType": "address",
          "name": "spender",
          "type": "address"
        },
        {
          "internalType": "uint256",
          "name": "subtractedValue",
          "type": "uint256"
        }
      ],
      "name": "decreaseAllowance",
      "outputs": [
        {
          "internalType": "bool",
          "name": "",
          "type": "bool"
        }
      ],
      "stateMutability": "nonpayable",
      "type": "function"
    },
    {
      "inputs": [],
      "name": "guardian",
      "outputs": [
        {
          "internalType": "address",
          "name": "",
          "type": "address"
        }
      ],
      "stateMutability": "view",
      "type": "function"
    },
    {
      "inputs": [
        {
          "internalType": "address",
          "name": "spender",
          "type": "address"
        },
        {
          "internalType": "uint256",
          "name": "addedValue",
          "type": "uint256"
        }
      ],
      "name": "increaseAllowance",
      "outputs": [
        {
          "internalType": "bool",
          "name": "",
          "type": "bool"
        }
      ],
      "stateMutability": "nonpayable",
      "type": "function"
    },
    {
      "inputs": [
        {
          "internalType": "address",
          "name": "account",
          "type": "address"
        },
        {
          "internalType": "uint256",
          "name": "amount",
          "type": "uint256"
        }
      ],
      "name": "mint",
      "outputs": [],
      "stateMutability": "nonpayable",
      "type": "function"
    },
    {
      "inputs": [],
      "name": "name",
      "outputs": [
        {
          "internalType": "string",
          "name": "",
          "type": "string"
        }
      ],
      "stateMutability": "view",
      "type": "function"
    },
    {
      "inputs": [],
      "name": "owner",
      "outputs": [
        {
          "internalType": "address",
          "name": "",
          "type": "address"
        }
      ],
      "stateMutability": "view",
      "type": "function"
    },
    {
      "inputs": [
        {
          "internalType": "address",
          "name": "",
          "type": "address"
        }
      ],
      "name": "receivers",
      "outputs": [
        {
          "internalType": "bool",
          "name": "",
          "type": "bool"
        }
      ],
      "stateMutability": "view",
      "type": "function"
    },
    {
      "inputs": [
        {
          "internalType": "address",
          "name": "from",
          "type": "address"
        },
        {
          "internalType": "uint256",
          "name": "amount",
          "type": "uint256"
        }
      ],
      "name": "sendToken",
      "outputs": [],
      "stateMutability": "nonpayable",
      "type": "function"
    },
    {
      "inputs": [
        {
          "internalType": "address",
          "name": "",
          "type": "address"
        }
      ],
      "name": "senders",
      "outputs": [
        {
          "internalType": "bool",
          "name": "",
          "type": "bool"
        }
      ],
      "stateMutability": "view",
      "type": "function"
    },
    {
      "inputs": [],
      "name": "symbol",
      "outputs": [
        {
          "internalType": "string",
          "name": "",
          "type": "string"
        }
      ],
      "stateMutability": "view",
      "type": "function"
    },
    {
      "inputs": [],
      "name": "totalSupply",
      "outputs": [
        {
          "internalType": "uint256",
          "name": "",
          "type": "uint256"
        }
      ],
      "stateMutability": "view",
      "type": "function"
    },
    {
      "inputs": [
        {
          "internalType": "address",
          "name": "to",
          "type": "address"
        },
        {
          "internalType": "uint256",
          "name": "amount",
          "type": "uint256"
        }
      ],
      "name": "transfer",
      "outputs": [
        {
          "internalType": "bool",
          "name": "",
          "type": "bool"
        }
      ],
      "stateMutability": "nonpayable",
      "type": "function"
    },
    {
      "inputs": [
        {
          "internalType": "address",
          "name": "from",
          "type": "address"
        },
        {
          "internalType": "address",
          "name": "to",
          "type": "address"
        },
        {
          "internalType": "uint256",
          "name": "amount",
          "type": "uint256"
        }
      ],
      "name": "transferFrom",
      "outputs": [
        {
          "internalType": "bool",
          "name": "",
          "type": "bool"
        }
      ],
      "stateMutability": "pure",
      "type": "function"
    },
    {
      "inputs": [],
      "name": "vest",
      "outputs": [
        {
          "internalType": "address",
          "name": "",
          "type": "address"
        }
      ],
      "stateMutability": "view",
      "type": "function"
    },
    {
      "inputs": [],
      "name": "zebra",
      "outputs": [
        {
          "internalType": "contract IZebra",
          "name": "",
          "type": "address"
        }
      ],
      "stateMutability": "view",
      "type": "function"
    }
  ],
  "transactionHash": "0xdd14e021f0fff3cee057b1873e07ce0fc4092deefac7d71d972573849007a127",
  "args": [
    "0xB4CEF4682eD12E609624f494aca5c3418C838462",
    "0xf7C7b429913B4e0f4Fe7E5a71f2b77Fd6bab32A9",
    "0x73a0ac93800a3454b356be973479cb2513db19fa"
  ],
  "numDeployments": 1,
  "solcInputHash": "b91301f1a84b6c2e358640cd7d231682",
  "bytecode": "0x60a06040523480156200001157600080fd5b5060405162001a3b38038062001a3b8339810160408190526200003491620001cf565b826040518060400160405280600c81526020016b457363726f77205a6562726160a01b8152506040518060400160405280600781526020016665735a6562726160c81b81525081600390816200008b9190620002c8565b5060046200009a8282620002c8565b5050506001600160a01b03908116608052600680546001600160a01b03199081168584161790915560078054909116918316919091179055620000df816001620000f5565b620000ec81600162000159565b50505062000394565b6001600160a01b038216600081815260086020908152604091829020805460ff19168515159081179091558251938452908301527f626c27c1d088fd70034e681d579a5efd004c3d47a56d3ee07ad256ac7301433391015b60405180910390a15050565b6001600160a01b038216600081815260096020908152604091829020805460ff19168515159081179091558251938452908301527fcbbdaed189204940adb91789132412df184a928e046bb7fa67d95fd521aeda9191016200014d565b6001600160a01b0381168114620001cc57600080fd5b50565b600080600060608486031215620001e557600080fd5b8351620001f281620001b6565b60208501519093506200020581620001b6565b60408501519092506200021881620001b6565b809150509250925092565b634e487b7160e01b600052604160045260246000fd5b600181811c908216806200024e57607f821691505b6020821081036200026f57634e487b7160e01b600052602260045260246000fd5b50919050565b601f821115620002c357600081815260208120601f850160051c810160208610156200029e5750805b601f850160051c820191505b81811015620002bf57828155600101620002aa565b5050505b505050565b81516001600160401b03811115620002e457620002e462000223565b620002fc81620002f5845462000239565b8462000275565b602080601f8311600181146200033457600084156200031b5750858301515b600019600386901b1c1916600185901b178555620002bf565b600085815260208120601f198616915b82811015620003655788860151825594840194600190910190840162000344565b5085821015620003845787850151600019600388901b60f8161c191681555b5050505050600190811b01905550565b60805161167d620003be6000396000818161028101528181610606015261070b015261167d6000f3fe608060405234801561001057600080fd5b50600436106101ae5760003560e01c8063452a9320116100ee57806395d89b4111610097578063a9059cbb11610071578063a9059cbb146103ae578063c253d469146103c1578063dd62ed3e146103d4578063ddd81ff01461040d57600080fd5b806395d89b4114610370578063982fb9d814610378578063a457c2d71461039b57600080fd5b806379cc6790116100c857806379cc6790146103425780637bdb8e7f146103555780638da5cb5b1461036857600080fd5b8063452a9320146102fe578063458efde31461030657806370a082311461031957600080fd5b806323b872dd1161015b578063395093511161013557806339509351146102b257806340c10f19146102c5578063412664ae146102d857806342966c68146102eb57600080fd5b806323b872dd146102695780632fbea0141461027c578063313ce567146102a357600080fd5b80630cb8150f1161018c5780630cb8150f1461021f578063153a91a61461024257806318160ddd1461025757600080fd5b806306fdde03146101b3578063095ea7b3146101d15780630b2e9d1e146101f4575b600080fd5b6101bb610420565b6040516101c891906112aa565b60405180910390f35b6101e46101df36600461130d565b6104b2565b60405190151581526020016101c8565b600654610207906001600160a01b031681565b6040516001600160a01b0390911681526020016101c8565b6101e461022d366004611339565b60096020526000908152604090205460ff1681565b610255610250366004611442565b6104cc565b005b6002545b6040519081526020016101c8565b6101e4610277366004611504565b610547565b6102077f000000000000000000000000000000000000000000000000000000000000000081565b604051601281526020016101c8565b6101e46102c036600461130d565b610592565b6102556102d336600461130d565b6105d1565b6102556102e636600461130d565b6105e3565b6102556102f9366004611545565b6105f6565b610207610602565b600754610207906001600160a01b031681565b61025b610327366004611339565b6001600160a01b031660009081526020819052604090205490565b61025561035036600461130d565b61068b565b610255610363366004611442565b610695565b610207610707565b6101bb610767565b6101e4610386366004611339565b60086020526000908152604090205460ff1681565b6101e46103a936600461130d565b610776565b6101e46103bc36600461130d565b61082b565b6102556103cf36600461130d565b610849565b61025b6103e236600461155e565b6001600160a01b03918216600090815260016020908152604080832093909416825291909152205490565b61025561041b366004611442565b61085b565b60606003805461042f90611597565b80601f016020809104026020016040519081016040528092919081815260200182805461045b90611597565b80156104a85780601f1061047d576101008083540402835291602001916104a8565b820191906000526020600020905b81548152906001019060200180831161048b57829003601f168201915b5050505050905090565b6000336104c08185856108cd565b60019150505b92915050565b6104d4610707565b6001600160a01b0316336001600160a01b0316146105395760405162461bcd60e51b815260206004820152600a60248201527f4f6e6c79206f776e65720000000000000000000000000000000000000000000060448201526064015b60405180910390fd5b6105438282610a25565b5050565b60405162461bcd60e51b815260206004820152601460248201527f45735a656272613a206e6f7420616c6c6f7765640000000000000000000000006044820152600090606401610530565b3360008181526001602090815260408083206001600160a01b03871684529091528120549091906104c090829086906105cc9087906115e7565b6108cd565b6105d9610b21565b6105438282610b7d565b6105eb610c3c565b610543823383610c9b565b6105ff81610e8a565b50565b60007f00000000000000000000000000000000000000000000000000000000000000006001600160a01b031663452a93206040518163ffffffff1660e01b8152600401602060405180830381865afa158015610662573d6000803e3d6000fd5b505050506040513d601f19601f8201168201806040525081019061068691906115fa565b905090565b6105438282610e94565b61069d610707565b6001600160a01b0316336001600160a01b0316146106fd5760405162461bcd60e51b815260206004820152600a60248201527f4f6e6c79206f776e6572000000000000000000000000000000000000000000006044820152606401610530565b6105438282610e9f565b60007f00000000000000000000000000000000000000000000000000000000000000006001600160a01b0316638da5cb5b6040518163ffffffff1660e01b8152600401602060405180830381865afa158015610662573d6000803e3d6000fd5b60606004805461042f90611597565b3360008181526001602090815260408083206001600160a01b0387168452909152812054909190838110156108135760405162461bcd60e51b815260206004820152602560248201527f45524332303a2064656372656173656420616c6c6f77616e63652062656c6f7760448201527f207a65726f0000000000000000000000000000000000000000000000000000006064820152608401610530565b61082082868684036108cd565b506001949350505050565b6000610835610f96565b610840338484610c9b565b50600192915050565b610851610b21565b6105438282610ff5565b610863610707565b6001600160a01b0316336001600160a01b0316146108c35760405162461bcd60e51b815260206004820152600a60248201527f4f6e6c79206f776e6572000000000000000000000000000000000000000000006044820152606401610530565b6106fd8282610a25565b6001600160a01b0383166109485760405162461bcd60e51b8152602060048201526024808201527f45524332303a20617070726f76652066726f6d20746865207a65726f2061646460448201527f72657373000000000000000000000000000000000000000000000000000000006064820152608401610530565b6001600160a01b0382166109c45760405162461bcd60e51b815260206004820152602260248201527f45524332303a20617070726f766520746f20746865207a65726f20616464726560448201527f73730000000000000000000000000000000000000000000000000000000000006064820152608401610530565b6001600160a01b0383811660008181526001602090815260408083209487168084529482529182902085905590518481527f8c5be1e5ebec7d5bd14f71427d1e84f3dd0314c0f7b2291e5b200ac8c7c3b925910160405180910390a3505050565b8051825114610ac25760405162461bcd60e51b815260206004820152604160248201527f45735a656272613a206e756d626572206f662073656e64657273206d7573742060448201527f626520657175616c20746f20746865206e756d626572206f6620656e61626c6560648201527f7300000000000000000000000000000000000000000000000000000000000000608482015260a401610530565b60005b8251811015610b1c57610b0a838281518110610ae357610ae3611617565b6020026020010151838381518110610afd57610afd611617565b602002602001015161115e565b80610b148161162d565b915050610ac5565b505050565b6006546001600160a01b03163314610b7b5760405162461bcd60e51b815260206004820152601c60248201527f45735a656272613a2043616c6c6572206973206e6f74205a65627261000000006044820152606401610530565b565b6001600160a01b038216610bd35760405162461bcd60e51b815260206004820152601f60248201527f45524332303a206d696e7420746f20746865207a65726f2061646472657373006044820152606401610530565b8060026000828254610be591906115e7565b90915550506001600160a01b038216600081815260208181526040808320805486019055518481527fddf252ad1be2c89b69c2b068fc378daa952ba7f163c4a11628f55a4df523b3ef910160405180910390a35050565b3360009081526009602052604090205460ff16610b7b5760405162461bcd60e51b815260206004820152601960248201527f45735a656272613a20696e76616c6964207265636569766572000000000000006044820152606401610530565b6001600160a01b038316610d175760405162461bcd60e51b815260206004820152602560248201527f45524332303a207472616e736665722066726f6d20746865207a65726f20616460448201527f64726573730000000000000000000000000000000000000000000000000000006064820152608401610530565b6001600160a01b038216610d935760405162461bcd60e51b815260206004820152602360248201527f45524332303a207472616e7366657220746f20746865207a65726f206164647260448201527f65737300000000000000000000000000000000000000000000000000000000006064820152608401610530565b6001600160a01b03831660009081526020819052604090205481811015610e225760405162461bcd60e51b815260206004820152602660248201527f45524332303a207472616e7366657220616d6f756e742065786365656473206260448201527f616c616e636500000000000000000000000000000000000000000000000000006064820152608401610530565b6001600160a01b03848116600081815260208181526040808320878703905593871680835291849020805487019055925185815290927fddf252ad1be2c89b69c2b068fc378daa952ba7f163c4a11628f55a4df523b3ef910160405180910390a35b50505050565b6105ff3382610ff5565b6108518233836111c2565b8051825114610f3c5760405162461bcd60e51b815260206004820152604360248201527f45735a656272613a206e756d626572206f6620726563656976657273206d757360448201527f7420626520657175616c20746f20746865206e756d626572206f6620656e616260648201527f6c65730000000000000000000000000000000000000000000000000000000000608482015260a401610530565b60005b8251811015610b1c57610f84838281518110610f5d57610f5d611617565b6020026020010151838381518110610f7757610f77611617565b602002602001015161124e565b80610f8e8161162d565b915050610f3f565b3360009081526008602052604090205460ff16610b7b5760405162461bcd60e51b815260206004820152601760248201527f45735a656272613a20696e76616c69642073656e6465720000000000000000006044820152606401610530565b6001600160a01b0382166110715760405162461bcd60e51b815260206004820152602160248201527f45524332303a206275726e2066726f6d20746865207a65726f2061646472657360448201527f73000000000000000000000000000000000000000000000000000000000000006064820152608401610530565b6001600160a01b038216600090815260208190526040902054818110156111005760405162461bcd60e51b815260206004820152602260248201527f45524332303a206275726e20616d6f756e7420657863656564732062616c616e60448201527f63650000000000000000000000000000000000000000000000000000000000006064820152608401610530565b6001600160a01b0383166000818152602081815260408083208686039055600280548790039055518581529192917fddf252ad1be2c89b69c2b068fc378daa952ba7f163c4a11628f55a4df523b3ef910160405180910390a3505050565b6001600160a01b038216600081815260086020908152604091829020805460ff19168515159081179091558251938452908301527f626c27c1d088fd70034e681d579a5efd004c3d47a56d3ee07ad256ac7301433391015b60405180910390a15050565b6001600160a01b038381166000908152600160209081526040808320938616835292905220546000198114610e8457818110156112415760405162461bcd60e51b815260206004820152601d60248201527f45524332303a20696e73756666696369656e7420616c6c6f77616e63650000006044820152606401610530565b610e8484848484036108cd565b6001600160a01b038216600081815260096020908152604091829020805460ff19168515159081179091558251938452908301527fcbbdaed189204940adb91789132412df184a928e046bb7fa67d95fd521aeda9191016111b6565b600060208083528351808285015260005b818110156112d7578581018301518582016040015282016112bb565b506000604082860101526040601f19601f8301168501019250505092915050565b6001600160a01b03811681146105ff57600080fd5b6000806040838503121561132057600080fd5b823561132b816112f8565b946020939093013593505050565b60006020828403121561134b57600080fd5b8135611356816112f8565b9392505050565b634e487b7160e01b600052604160045260246000fd5b604051601f8201601f1916810167ffffffffffffffff8111828210171561139c5761139c61135d565b604052919050565b600067ffffffffffffffff8211156113be576113be61135d565b5060051b60200190565b600082601f8301126113d957600080fd5b813560206113ee6113e9836113a4565b611373565b82815260059290921b8401810191818101908684111561140d57600080fd5b8286015b84811015611437578035801515811461142a5760008081fd5b8352918301918301611411565b509695505050505050565b6000806040838503121561145557600080fd5b823567ffffffffffffffff8082111561146d57600080fd5b818501915085601f83011261148157600080fd5b813560206114916113e9836113a4565b82815260059290921b840181019181810190898411156114b057600080fd5b948201945b838610156114d75785356114c8816112f8565b825294820194908201906114b5565b965050860135925050808211156114ed57600080fd5b506114fa858286016113c8565b9150509250929050565b60008060006060848603121561151957600080fd5b8335611524816112f8565b92506020840135611534816112f8565b929592945050506040919091013590565b60006020828403121561155757600080fd5b5035919050565b6000806040838503121561157157600080fd5b823561157c816112f8565b9150602083013561158c816112f8565b809150509250929050565b600181811c908216806115ab57607f821691505b6020821081036115cb57634e487b7160e01b600052602260045260246000fd5b50919050565b634e487b7160e01b600052601160045260246000fd5b808201808211156104c6576104c66115d1565b60006020828403121561160c57600080fd5b8151611356816112f8565b634e487b7160e01b600052603260045260246000fd5b60006000198203611640576116406115d1565b506001019056fea26469706673582212208bb49a7a5dd3ddfaa69cf0e2eb623dc9a7a037e69a32779922e24b5186dbe4ba64736f6c63430008130033",
  "devdoc": {
    "events": {
      "Approval(address,address,uint256)": {
        "details": "Emitted when the allowance of a `spender` for an `owner` is set by a call to {approve}. `value` is the new allowance."
      },
      "Transfer(address,address,uint256)": {
        "details": "Emitted when `value` tokens are moved from one account (`from`) to another (`to`). Note that `value` may be zero."
      }
    },
    "kind": "dev",
    "methods": {
      "allowance(address,address)": {
        "details": "See {IERC20-allowance}."
      },
      "approve(address,uint256)": {
        "details": "See {IERC20-approve}. NOTE: If `amount` is the maximum `uint256`, the allowance is not updated on `transferFrom`. This is semantically equivalent to an infinite approval. Requirements: - `spender` cannot be the zero address."
      },
      "balanceOf(address)": {
        "details": "See {IERC20-balanceOf}."
      },
      "decimals()": {
        "details": "Returns the number of decimals used to get its user representation. For example, if `decimals` equals `2`, a balance of `505` tokens should be displayed to a user as `5.05` (`505 / 10 ** 2`). Tokens usually opt for a value of 18, imitating the relationship between Ether and Wei. This is the default value returned by this function, unless it's overridden. NOTE: This information is only used for _display_ purposes: it in no way affects any of the arithmetic of the contract, including {IERC20-balanceOf} and {IERC20-transfer}."
      },
      "decreaseAllowance(address,uint256)": {
        "details": "Atomically decreases the allowance granted to `spender` by the caller. This is an alternative to {approve} that can be used as a mitigation for problems described in {IERC20-approve}. Emits an {Approval} event indicating the updated allowance. Requirements: - `spender` cannot be the zero address. - `spender` must have allowance for the caller of at least `subtractedValue`."
      },
      "increaseAllowance(address,uint256)": {
        "details": "Atomically increases the allowance granted to `spender` by the caller. This is an alternative to {approve} that can be used as a mitigation for problems described in {IERC20-approve}. Emits an {Approval} event indicating the updated allowance. Requirements: - `spender` cannot be the zero address."
      },
      "name()": {
        "details": "Returns the name of the token."
      },
      "symbol()": {
        "details": "Returns the symbol of the token, usually a shorter version of the name."
      },
      "totalSupply()": {
        "details": "See {IERC20-totalSupply}."
      }
    },
    "version": 1
  },
  "userdoc": {
    "kind": "user",
    "methods": {},
    "version": 1
  },
  "storageLayout": {
    "storage": [
      {
        "astId": 1683,
        "contract": "contracts/core/EsZebra.sol:EsZebra",
        "label": "_balances",
        "offset": 0,
        "slot": "0",
        "type": "t_mapping(t_address,t_uint256)"
      },
      {
        "astId": 1689,
        "contract": "contracts/core/EsZebra.sol:EsZebra",
        "label": "_allowances",
        "offset": 0,
        "slot": "1",
        "type": "t_mapping(t_address,t_mapping(t_address,t_uint256))"
      },
      {
        "astId": 1691,
        "contract": "contracts/core/EsZebra.sol:EsZebra",
        "label": "_totalSupply",
        "offset": 0,
        "slot": "2",
        "type": "t_uint256"
      },
      {
        "astId": 1693,
        "contract": "contracts/core/EsZebra.sol:EsZebra",
        "label": "_name",
        "offset": 0,
        "slot": "3",
        "type": "t_string_storage"
      },
      {
        "astId": 1695,
        "contract": "contracts/core/EsZebra.sol:EsZebra",
        "label": "_symbol",
        "offset": 0,
        "slot": "4",
        "type": "t_string_storage"
      },
      {
        "astId": 12239,
        "contract": "contracts/core/EsZebra.sol:EsZebra",
        "label": "deployer",
        "offset": 0,
        "slot": "5",
        "type": "t_address"
      },
      {
        "astId": 12242,
        "contract": "contracts/core/EsZebra.sol:EsZebra",
        "label": "zebra",
        "offset": 0,
        "slot": "6",
        "type": "t_contract(IZebra)37799"
      },
      {
        "astId": 12244,
        "contract": "contracts/core/EsZebra.sol:EsZebra",
        "label": "vest",
        "offset": 0,
        "slot": "7",
        "type": "t_address"
      },
      {
        "astId": 12248,
        "contract": "contracts/core/EsZebra.sol:EsZebra",
        "label": "senders",
        "offset": 0,
        "slot": "8",
        "type": "t_mapping(t_address,t_bool)"
      },
      {
        "astId": 12252,
        "contract": "contracts/core/EsZebra.sol:EsZebra",
        "label": "receivers",
        "offset": 0,
        "slot": "9",
        "type": "t_mapping(t_address,t_bool)"
      }
    ],
    "types": {
      "t_address": {
        "encoding": "inplace",
        "label": "address",
        "numberOfBytes": "20"
      },
      "t_bool": {
        "encoding": "inplace",
        "label": "bool",
        "numberOfBytes": "1"
      },
      "t_contract(IZebra)37799": {
        "encoding": "inplace",
        "label": "contract IZebra",
        "numberOfBytes": "20"
      },
      "t_mapping(t_address,t_bool)": {
        "encoding": "mapping",
        "key": "t_address",
        "label": "mapping(address => bool)",
        "numberOfBytes": "32",
        "value": "t_bool"
      },
      "t_mapping(t_address,t_mapping(t_address,t_uint256))": {
        "encoding": "mapping",
        "key": "t_address",
        "label": "mapping(address => mapping(address => uint256))",
        "numberOfBytes": "32",
        "value": "t_mapping(t_address,t_uint256)"
      },
      "t_mapping(t_address,t_uint256)": {
        "encoding": "mapping",
        "key": "t_address",
        "label": "mapping(address => uint256)",
        "numberOfBytes": "32",
        "value": "t_uint256"
      },
      "t_string_storage": {
        "encoding": "bytes",
        "label": "string",
        "numberOfBytes": "32"
      },
      "t_uint256": {
        "encoding": "inplace",
        "label": "uint256",
        "numberOfBytes": "32"
      }
    }
  }
}