{
  "address": "0x7bcB4d14dd48aA5cB66965F1C9F2F41203ACf67C",
  "abi": [
    {
      "inputs": [
        {
          "internalType": "contract IZebraCore",
          "name": "_ZebraCore",
          "type": "address"
        },
        {
          "internalType": "contract IZebraUSD",
          "name": "_ZebraUSD",
          "type": "address"
        },
        {
          "internalType": "contract IStabilityPool",
          "name": "_stabilityPool",
          "type": "address"
        },
        {
          "internalType": "contract IBorrowerOperations",
          "name": "_borrowerOperations",
          "type": "address"
        },
        {
          "internalType": "address",
          "name": "_sortedTroves",
          "type": "address"
        },
        {
          "internalType": "address",
          "name": "_troveManager",
          "type": "address"
        },
        {
          "internalType": "contract ILiquidationManager",
          "name": "_liquidationManager",
          "type": "address"
        }
      ],
      "stateMutability": "nonpayable",
      "type": "constructor"
    },
    {
      "anonymous": false,
      "inputs": [
        {
          "indexed": false,
          "internalType": "contract IERC20",
          "name": "collateral",
          "type": "address"
        },
        {
          "indexed": false,
          "internalType": "address",
          "name": "priceFeed",
          "type": "address"
        },
        {
          "indexed": false,
          "internalType": "address",
          "name": "troveManager",
          "type": "address"
        },
        {
          "indexed": false,
          "internalType": "address",
          "name": "sortedTroves",
          "type": "address"
        }
      ],
      "name": "NewDeployment",
      "type": "event"
    },
    {
      "inputs": [],
      "name": "ZebraCore",
      "outputs": [
        {
          "internalType": "contract IZebraCore",
          "name": "",
          "type": "address"
        }
      ],
      "stateMutability": "view",
      "type": "function"
    },
    {
      "inputs": [],
      "name": "ZebraUSD",
      "outputs": [
        {
          "internalType": "contract IZebraUSD",
          "name": "",
          "type": "address"
        }
      ],
      "stateMutability": "view",
      "type": "function"
    },
    {
      "inputs": [],
      "name": "borrowerOperations",
      "outputs": [
        {
          "internalType": "contract IBorrowerOperations",
          "name": "",
          "type": "address"
        }
      ],
      "stateMutability": "view",
      "type": "function"
    },
    {
      "inputs": [
        {
          "internalType": "contract IERC20",
          "name": "collateral",
          "type": "address"
        },
        {
          "internalType": "address",
          "name": "priceFeed",
          "type": "address"
        },
        {
          "internalType": "address",
          "name": "customTroveManagerImpl",
          "type": "address"
        },
        {
          "internalType": "address",
          "name": "customSortedTrovesImpl",
          "type": "address"
        },
        {
          "components": [
            {
              "internalType": "uint256",
              "name": "minuteDecayFactor",
              "type": "uint256"
            },
            {
              "internalType": "uint256",
              "name": "redemptionFeeFloor",
              "type": "uint256"
            },
            {
              "internalType": "uint256",
              "name": "maxRedemptionFee",
              "type": "uint256"
            },
            {
              "internalType": "uint256",
              "name": "borrowingFeeFloor",
              "type": "uint256"
            },
            {
              "internalType": "uint256",
              "name": "maxBorrowingFee",
              "type": "uint256"
            },
            {
              "internalType": "uint256",
              "name": "maxDebt",
              "type": "uint256"
            },
            {
              "internalType": "uint256",
              "name": "MCR",
              "type": "uint256"
            },
            {
              "internalType": "uint32",
              "name": "interestRate",
              "type": "uint32"
            }
          ],
          "internalType": "struct Factory.DeploymentParams",
          "name": "params",
          "type": "tuple"
        }
      ],
      "name": "deployNewInstance",
      "outputs": [],
      "stateMutability": "nonpayable",
      "type": "function"
    },
    {
      "inputs": [],
      "name": "guardian",
      "outputs": [
        {
          "internalType": "address",
          "name": "",
          "type": "address"
        }
      ],
      "stateMutability": "view",
      "type": "function"
    },
    {
      "inputs": [],
      "name": "liquidationManager",
      "outputs": [
        {
          "internalType": "contract ILiquidationManager",
          "name": "",
          "type": "address"
        }
      ],
      "stateMutability": "view",
      "type": "function"
    },
    {
      "inputs": [],
      "name": "owner",
      "outputs": [
        {
          "internalType": "address",
          "name": "",
          "type": "address"
        }
      ],
      "stateMutability": "view",
      "type": "function"
    },
    {
      "inputs": [
        {
          "internalType": "address",
          "name": "_troveManagerImpl",
          "type": "address"
        },
        {
          "internalType": "address",
          "name": "_sortedTrovesImpl",
          "type": "address"
        }
      ],
      "name": "setImplementations",
      "outputs": [],
      "stateMutability": "nonpayable",
      "type": "function"
    },
    {
      "inputs": [],
      "name": "sortedTrovesImpl",
      "outputs": [
        {
          "internalType": "address",
          "name": "",
          "type": "address"
        }
      ],
      "stateMutability": "view",
      "type": "function"
    },
    {
      "inputs": [],
      "name": "stabilityPool",
      "outputs": [
        {
          "internalType": "contract IStabilityPool",
          "name": "",
          "type": "address"
        }
      ],
      "stateMutability": "view",
      "type": "function"
    },
    {
      "inputs": [],
      "name": "troveManagerCount",
      "outputs": [
        {
          "internalType": "uint256",
          "name": "",
          "type": "uint256"
        }
      ],
      "stateMutability": "view",
      "type": "function"
    },
    {
      "inputs": [],
      "name": "troveManagerImpl",
      "outputs": [
        {
          "internalType": "address",
          "name": "",
          "type": "address"
        }
      ],
      "stateMutability": "view",
      "type": "function"
    },
    {
      "inputs": [
        {
          "internalType": "uint256",
          "name": "",
          "type": "uint256"
        }
      ],
      "name": "troveManagers",
      "outputs": [
        {
          "internalType": "address",
          "name": "",
          "type": "address"
        }
      ],
      "stateMutability": "view",
      "type": "function"
    }
  ],
  "transactionHash": "0x3e99f3b0803ca309f8c9b1f2f7de4b9e2b2fab7d470011757f26c326c031e73c",
  "args": [
    "0xB4CEF4682eD12E609624f494aca5c3418C838462",
    "0x5d8dc3b34d7b07bb09495c480ad629900c0a2e02",
    "0x3060ee28b58b2bb9b79f00dacf6b4b4b515cfdd5",
    "0x05cf5dc3db0b5eac9d5bd536b0a2cc6805e7122d",
    "0x733ceb99718953b8d23f1aa3ba725f3b8352b217",
    "0x7bfc684c57aab7d5b25a56f311989106335aef0f",
    "0x14931893ffada01017c1b859600c7b7e068e5bd4"
  ],
  "numDeployments": 1,
  "solcInputHash": "b91301f1a84b6c2e358640cd7d231682",
  "bytecode": "0x6101206040523480156200001257600080fd5b5060405162000eec38038062000eec8339810160408190526200003591620000a0565b6001600160a01b0396871660805294861660a05292851660c05290841661010052600080549185166001600160a01b031992831617905560018054928516929091169190911790551660e0526200014b565b6001600160a01b03811681146200009d57600080fd5b50565b600080600080600080600060e0888a031215620000bc57600080fd5b8751620000c98162000087565b6020890151909750620000dc8162000087565b6040890151909650620000ef8162000087565b6060890151909550620001028162000087565b6080890151909450620001158162000087565b60a0890151909350620001288162000087565b60c08901519092506200013b8162000087565b8091505092959891949750929550565b60805160a05160c05160e05161010051610d33620001b9600039600081816101e101526108cc01526000818161012d015261079c01526000818160e9015261070a0152600081816101a901526108300152600081816101540152818161027401526103b00152610d336000f3fe608060405234801561001057600080fd5b50600436106100df5760003560e01c8063626021991161008c57806385bff3411161006657806385bff341146102035780638da5cb5b14610218578063a50e511014610220578063e22136ae1461023357600080fd5b806362602199146101a4578063679df0d9146101cb57806377553ad4146101dc57600080fd5b80633b707478116100bd5780633b7074781461017657806344bb420514610189578063452a93201461019c57600080fd5b8063048c661d146100e45780631ef3a04c146101285780632fbea0141461014f575b600080fd5b61010b7f000000000000000000000000000000000000000000000000000000000000000081565b6040516001600160a01b0390911681526020015b60405180910390f35b61010b7f000000000000000000000000000000000000000000000000000000000000000081565b61010b7f000000000000000000000000000000000000000000000000000000000000000081565b61010b610184366004610aff565b610246565b60005461010b906001600160a01b031681565b61010b610270565b61010b7f000000000000000000000000000000000000000000000000000000000000000081565b60025460405190815260200161011f565b61010b7f000000000000000000000000000000000000000000000000000000000000000081565b610216610211366004610b30565b6102f9565b005b61010b6103ac565b61021661022e366004610b82565b61040c565b60015461010b906001600160a01b031681565b6002818154811061025657600080fd5b6000918252602090912001546001600160a01b0316905081565b60007f00000000000000000000000000000000000000000000000000000000000000006001600160a01b031663452a93206040518163ffffffff1660e01b8152600401602060405180830381865afa1580156102d0573d6000803e3d6000fd5b505050506040513d601f19601f820116820180604052508101906102f49190610cc0565b905090565b6103016103ac565b6001600160a01b0316336001600160a01b0316146103665760405162461bcd60e51b815260206004820152600a60248201527f4f6e6c79206f776e65720000000000000000000000000000000000000000000060448201526064015b60405180910390fd5b600180546001600160a01b039384167fffffffffffffffffffffffff00000000000000000000000000000000000000009182161790915560008054929093169116179055565b60007f00000000000000000000000000000000000000000000000000000000000000006001600160a01b0316638da5cb5b6040518163ffffffff1660e01b8152600401602060405180830381865afa1580156102d0573d6000803e3d6000fd5b6104146103ac565b6001600160a01b0316336001600160a01b0316146104745760405162461bcd60e51b815260206004820152600a60248201527f4f6e6c79206f776e657200000000000000000000000000000000000000000000604482015260640161035d565b60006001600160a01b0384161561048b5783610498565b6001546001600160a01b03165b905060006104c26001600160a01b0383166bffffffffffffffffffffffff1960608a901b16610a5c565b600280546001810182556000919091527f405787fa12a823e0f2b7631cc41b3ba8828b3321ca811111fa75cd3aa3bb5ace0180547fffffffffffffffffffffffff0000000000000000000000000000000000000000166001600160a01b038381169190911790915590915084161561053a5783610547565b6000546001600160a01b03165b915060006105716001600160a01b0384166bffffffffffffffffffffffff19606085901b16610a5c565b6040517f363bf9640000000000000000000000000000000000000000000000000000000081526001600160a01b03898116600483015280831660248301528a811660448301529192509083169063363bf96490606401600060405180830381600087803b1580156105e157600080fd5b505af11580156105f5573d6000803e3d6000fd5b50506040517f81d3c4350000000000000000000000000000000000000000000000000000000081526001600160a01b038581166004830152841692506381d3c4359150602401600060405180830381600087803b15801561065557600080fd5b505af1158015610669573d6000803e3d6000fd5b50505050816001600160a01b0316630fdb11cf6040518163ffffffff1660e01b81526004016020604051808303816000875af11580156106ad573d6000803e3d6000fd5b505050506040513d601f19601f820116820180604052508101906106d19190610ce4565b506040517f11be0de50000000000000000000000000000000000000000000000000000000081526001600160a01b0389811660048301527f000000000000000000000000000000000000000000000000000000000000000016906311be0de590602401600060405180830381600087803b15801561074e57600080fd5b505af1158015610762573d6000803e3d6000fd5b50506040517f17dd676d0000000000000000000000000000000000000000000000000000000081526001600160a01b0385811660048301527f00000000000000000000000000000000000000000000000000000000000000001692506317dd676d9150602401600060405180830381600087803b1580156107e257600080fd5b505af11580156107f6573d6000803e3d6000fd5b50506040517f17dd676d0000000000000000000000000000000000000000000000000000000081526001600160a01b0385811660048301527f00000000000000000000000000000000000000000000000000000000000000001692506317dd676d9150602401600060405180830381600087803b15801561087657600080fd5b505af115801561088a573d6000803e3d6000fd5b50506040517f778c5c640000000000000000000000000000000000000000000000000000000081526001600160a01b0385811660048301528b811660248301527f000000000000000000000000000000000000000000000000000000000000000016925063778c5c649150604401600060405180830381600087803b15801561091257600080fd5b505af1158015610926573d6000803e3d6000fd5b50508551602087015160408089015160608a015160808b015160a08c015160c08d015160e08e015195517f84de387f0000000000000000000000000000000000000000000000000000000081526001600160a01b038d169a506384de387f99506109cc98979690600401978852602088019690965260408701949094526060860192909252608085015260a084015260c083015263ffffffff1660e08201526101000190565b600060405180830381600087803b1580156109e657600080fd5b505af11580156109fa573d6000803e3d6000fd5b5050604080516001600160a01b038c811682528b81166020830152868116828401528516606082015290517f49d89791026fa3ea04294a3105fde8a3c3d62de8ceeb5cf79f78098a1dd711aa9350908190036080019150a15050505050505050565b6000763d602d80600a3d3981f3363d3d373d3d3d363d730000008360601b60e81c176000526e5af43d82803e903d91602b57fd5bf38360781b1760205281603760096000f590506001600160a01b038116610af95760405162461bcd60e51b815260206004820152601760248201527f455243313136373a2063726561746532206661696c6564000000000000000000604482015260640161035d565b92915050565b600060208284031215610b1157600080fd5b5035919050565b6001600160a01b0381168114610b2d57600080fd5b50565b60008060408385031215610b4357600080fd5b8235610b4e81610b18565b91506020830135610b5e81610b18565b809150509250929050565b803563ffffffff81168114610b7d57600080fd5b919050565b6000806000806000858703610180811215610b9c57600080fd5b8635610ba781610b18565b95506020870135610bb781610b18565b94506040870135610bc781610b18565b93506060870135610bd781610b18565b92506101007fffffffffffffffffffffffffffffffffffffffffffffffffffffffffffffff808201811315610c0b57600080fd5b604051915080820182811067ffffffffffffffff82111715610c56577f4e487b7100000000000000000000000000000000000000000000000000000000600052604160045260246000fd5b80604052506080880135825260a0880135602083015260c0880135604083015260e088013560608301528088013560808301525061012087013560a082015261014087013560c0820152610cad6101608801610b69565b60e0820152809150509295509295909350565b600060208284031215610cd257600080fd5b8151610cdd81610b18565b9392505050565b600060208284031215610cf657600080fd5b505191905056fea2646970667358221220683630021daed36c15fb306edc91bd08ce1dd609e5fb6c05684216a9017011b064736f6c63430008130033",
  "devdoc": {
    "kind": "dev",
    "methods": {
      "deployNewInstance(address,address,address,address,(uint256,uint256,uint256,uint256,uint256,uint256,uint256,uint32))": {
        "details": "* When using the default `PriceFeed`, ensure it is configured correctly prior to calling this function. After calling this function, the owner should also call `Vault.registerReceiver` to enable Zebra emissions on the newly deployed `TroveManager`",
        "params": {
          "collateral": "Collateral token to use in new deployment",
          "customSortedTrovesImpl": "Custom `SortedTroves` implementation to clone from. Leave as `address(0)` to use the default.",
          "customTroveManagerImpl": "Custom `TroveManager` implementation to clone from. Leave as `address(0)` to use the default.",
          "params": "Struct of initial parameters to be set on the new trove manager",
          "priceFeed": "Custom `PriceFeed` deployment. Leave as `address(0)` to use the default."
        }
      }
    },
    "title": "Zebra Trove Factory",
    "version": 1
  },
  "userdoc": {
    "kind": "user",
    "methods": {
      "deployNewInstance(address,address,address,address,(uint256,uint256,uint256,uint256,uint256,uint256,uint256,uint32))": {
        "notice": "Deploy new instances of `TroveManager` and `SortedTroves`, adding a new collateral type to the system."
      }
    },
    "notice": "Deploys cloned pairs of `TroveManager` and `SortedTroves` in order to add new collateral types within the system.",
    "version": 1
  },
  "storageLayout": {
    "storage": [
      {
        "astId": 12667,
        "contract": "contracts/core/Factory.sol:Factory",
        "label": "sortedTrovesImpl",
        "offset": 0,
        "slot": "0",
        "type": "t_address"
      },
      {
        "astId": 12669,
        "contract": "contracts/core/Factory.sol:Factory",
        "label": "troveManagerImpl",
        "offset": 0,
        "slot": "1",
        "type": "t_address"
      },
      {
        "astId": 12672,
        "contract": "contracts/core/Factory.sol:Factory",
        "label": "troveManagers",
        "offset": 0,
        "slot": "2",
        "type": "t_array(t_address)dyn_storage"
      }
    ],
    "types": {
      "t_address": {
        "encoding": "inplace",
        "label": "address",
        "numberOfBytes": "20"
      },
      "t_array(t_address)dyn_storage": {
        "base": "t_address",
        "encoding": "dynamic_array",
        "label": "address[]",
        "numberOfBytes": "32"
      }
    }
  }
}