{
  "address": "n",
  "abi": [
    {
      "anonymous": false,
      "inputs": [
        {
          "indexed": false,
          "internalType": "uint8",
          "name": "version",
          "type": "uint8"
        }
      ],
      "name": "Initialized",
      "type": "event"
    },
    {
      "inputs": [],
      "name": "ZebraCore",
      "outputs": [
        {
          "internalType": "contract IZebraCore",
          "name": "",
          "type": "address"
        }
      ],
      "stateMutability": "view",
      "type": "function"
    },
    {
      "inputs": [],
      "name": "guardian",
      "outputs": [
        {
          "internalType": "address",
          "name": "",
          "type": "address"
        }
      ],
      "stateMutability": "view",
      "type": "function"
    },
    {
      "inputs": [
        {
          "internalType": "contract IZebraCore",
          "name": "_zebraCore",
          "type": "address"
        }
      ],
      "name": "initialize",
      "outputs": [],
      "stateMutability": "nonpayable",
      "type": "function"
    },
    {
      "inputs": [],
      "name": "owner",
      "outputs": [
        {
          "internalType": "address",
          "name": "",
          "type": "address"
        }
      ],
      "stateMutability": "view",
      "type": "function"
    },
    {
      "inputs": [
        {
          "internalType": "contract IZebraCore",
          "name": "_zebraCore",
          "type": "address"
        }
      ],
      "name": "setCore",
      "outputs": [],
      "stateMutability": "nonpayable",
      "type": "function"
    },
    {
      "inputs": [
        {
          "internalType": "address",
          "name": "to",
          "type": "address"
        },
        {
          "internalType": "contract IERC20",
          "name": "coin",
          "type": "address"
        },
        {
          "internalType": "uint256",
          "name": "value",
          "type": "uint256"
        }
      ],
      "name": "withdraw",
      "outputs": [],
      "stateMutability": "nonpayable",
      "type": "function"
    }
  ],
  "transactionHash": "0x9fc702fafd066d43b4316872c29567f1c330794726e2c9bdf406f2f65f7b5f66",
  "args": [],
  "numDeployments": 1,
  "solcInputHash": "07ce743338eabdd00a37c9338a957246",
  "bytecode": "0x608060405234801561001057600080fd5b506106d9806100206000396000f3fe608060405234801561001057600080fd5b50600436106100725760003560e01c80638da5cb5b116100505780638da5cb5b146100c9578063c4d66de8146100d1578063d9caed12146100e457600080fd5b80632fbea01414610077578063452a9320146100ac57806380009630146100b4575b600080fd5b600054610090906201000090046001600160a01b031681565b6040516001600160a01b03909116815260200160405180910390f35b6100906100f7565b6100c76100c23660046105ff565b610174565b005b610090610256565b6100c76100df3660046105ff565b6102aa565b6100c76100f2366004610623565b610419565b60008060029054906101000a90046001600160a01b03166001600160a01b031663452a93206040518163ffffffff1660e01b8152600401602060405180830381865afa15801561014b573d6000803e3d6000fd5b505050506040513d601f19601f8201168201806040525081019061016f9190610664565b905090565b7fb53127684a568b3173ae13b9f8a6016e243e63b6e8ee1178d6a717850b5d6103546001600160a01b031633146102185760405162461bcd60e51b815260206004820152602560248201527f41646d696e577261707065723a2063616c6c6572206973206e6f74207468652060448201527f61646d696e00000000000000000000000000000000000000000000000000000060648201526084015b60405180910390fd5b600080547fffffffffffffffffffff0000000000000000000000000000000000000000ffff16620100006001600160a01b0384160217905550565b50565b60008060029054906101000a90046001600160a01b03166001600160a01b0316638da5cb5b6040518163ffffffff1660e01b8152600401602060405180830381865afa15801561014b573d6000803e3d6000fd5b600054610100900460ff16158080156102ca5750600054600160ff909116105b806102e45750303b1580156102e4575060005460ff166001145b6103565760405162461bcd60e51b815260206004820152602e60248201527f496e697469616c697a61626c653a20636f6e747261637420697320616c72656160448201527f647920696e697469616c697a6564000000000000000000000000000000000000606482015260840161020f565b600080547fffffffffffffffffffffffffffffffffffffffffffffffffffffffffffffff001660011790558015610397576000805461ff0019166101001790555b600080547fffffffffffffffffffff0000000000000000000000000000000000000000ffff16620100006001600160a01b038516021790558015610415576000805461ff0019169055604051600181527f7f26b83ff96e1f2b6a682f133852f6798a09c465da95921460cefb38474024989060200160405180910390a15b5050565b610421610256565b6001600160a01b0316336001600160a01b0316146104815760405162461bcd60e51b815260206004820152600a60248201527f4f6e6c79206f776e657200000000000000000000000000000000000000000000604482015260640161020f565b6001600160a01b03821661055e576000836001600160a01b03168260405160006040518083038185875af1925050503d80600081146104dc576040519150601f19603f3d011682016040523d82523d6000602084013e6104e1565b606091505b50509050806105585760405162461bcd60e51b815260206004820152602160248201527f46656552656365697665723a207769746864726177207a657461206661696c6560448201527f6400000000000000000000000000000000000000000000000000000000000000606482015260840161020f565b50505050565b6040517fa9059cbb0000000000000000000000000000000000000000000000000000000081526001600160a01b0384811660048301526024820183905283169063a9059cbb906044016020604051808303816000875af11580156105c6573d6000803e3d6000fd5b505050506040513d601f19601f820116820180604052508101906105589190610681565b6001600160a01b038116811461025357600080fd5b60006020828403121561061157600080fd5b813561061c816105ea565b9392505050565b60008060006060848603121561063857600080fd5b8335610643816105ea565b92506020840135610653816105ea565b929592945050506040919091013590565b60006020828403121561067657600080fd5b815161061c816105ea565b60006020828403121561069357600080fd5b8151801515811461061c57600080fdfea2646970667358221220c31708547b1f91f6ec3bce7cace35dd59dd4ba253d306d982a2a9d608cc4de2d64736f6c63430008130033",
  "devdoc": {
    "events": {
      "Initialized(uint8)": {
        "details": "Triggered when the contract has been initialized or reinitialized."
      }
    },
    "kind": "dev",
    "methods": {},
    "version": 1
  },
  "userdoc": {
    "kind": "user",
    "methods": {},
    "version": 1
  },
  "storageLayout": {
    "storage": [
      {
        "astId": 6,
        "contract": "contracts/core/FeeReceiver.sol:FeeReceiver",
        "label": "_initialized",
        "offset": 0,
        "slot": "0",
        "type": "t_uint8"
      },
      {
        "astId": 9,
        "contract": "contracts/core/FeeReceiver.sol:FeeReceiver",
        "label": "_initializing",
        "offset": 1,
        "slot": "0",
        "type": "t_bool"
      },
      {
        "astId": 778,
        "contract": "contracts/core/FeeReceiver.sol:FeeReceiver",
        "label": "ZebraCore",
        "offset": 2,
        "slot": "0",
        "type": "t_contract(IZebraCore)946"
      }
    ],
    "types": {
      "t_bool": {
        "encoding": "inplace",
        "label": "bool",
        "numberOfBytes": "1"
      },
      "t_contract(IZebraCore)946": {
        "encoding": "inplace",
        "label": "contract IZebraCore",
        "numberOfBytes": "20"
      },
      "t_uint8": {
        "encoding": "inplace",
        "label": "uint8",
        "numberOfBytes": "1"
      }
    }
  }
}