{
  "address": "0xFd6eBeA7dFf8b851133338ca0daa8e4Da0BA7F30",
  "abi": [
    {
      "inputs": [
        {
          "internalType": "address",
          "name": "_borrowerOperationsAddress",
          "type": "address"
        },
        {
          "internalType": "address",
          "name": "_multiTroveGetter",
          "type": "address"
        },
        {
          "internalType": "uint256",
          "name": "_gasCompensation",
          "type": "uint256"
        }
      ],
      "stateMutability": "nonpayable",
      "type": "constructor"
    },
    {
      "inputs": [],
      "name": "CCR",
      "outputs": [
        {
          "internalType": "uint256",
          "name": "",
          "type": "uint256"
        }
      ],
      "stateMutability": "view",
      "type": "function"
    },
    {
      "inputs": [],
      "name": "DEBT_GAS_COMPENSATION",
      "outputs": [
        {
          "internalType": "uint256",
          "name": "",
          "type": "uint256"
        }
      ],
      "stateMutability": "view",
      "type": "function"
    },
    {
      "inputs": [],
      "name": "DECIMAL_PRECISION",
      "outputs": [
        {
          "internalType": "uint256",
          "name": "",
          "type": "uint256"
        }
      ],
      "stateMutability": "view",
      "type": "function"
    },
    {
      "inputs": [],
      "name": "PERCENT_DIVISOR",
      "outputs": [
        {
          "internalType": "uint256",
          "name": "",
          "type": "uint256"
        }
      ],
      "stateMutability": "view",
      "type": "function"
    },
    {
      "inputs": [],
      "name": "borrowerOperations",
      "outputs": [
        {
          "internalType": "contract IBorrowerOperations",
          "name": "",
          "type": "address"
        }
      ],
      "stateMutability": "view",
      "type": "function"
    },
    {
      "inputs": [
        {
          "internalType": "uint256",
          "name": "_coll",
          "type": "uint256"
        },
        {
          "internalType": "uint256",
          "name": "_debt",
          "type": "uint256"
        },
        {
          "internalType": "uint256",
          "name": "_price",
          "type": "uint256"
        }
      ],
      "name": "computeCR",
      "outputs": [
        {
          "internalType": "uint256",
          "name": "",
          "type": "uint256"
        }
      ],
      "stateMutability": "pure",
      "type": "function"
    },
    {
      "inputs": [
        {
          "internalType": "uint256",
          "name": "_coll",
          "type": "uint256"
        },
        {
          "internalType": "uint256",
          "name": "_debt",
          "type": "uint256"
        }
      ],
      "name": "computeNominalCR",
      "outputs": [
        {
          "internalType": "uint256",
          "name": "",
          "type": "uint256"
        }
      ],
      "stateMutability": "pure",
      "type": "function"
    },
    {
      "inputs": [
        {
          "components": [
            {
              "internalType": "contract ITroveManager",
              "name": "troveManager",
              "type": "address"
            },
            {
              "internalType": "uint256",
              "name": "redeemAmount",
              "type": "uint256"
            }
          ],
          "internalType": "struct MultiCollateraRedemptionHint.Estimation",
          "name": "estimation",
          "type": "tuple"
        }
      ],
      "name": "estimateRedemption",
      "outputs": [
        {
          "components": [
            {
              "internalType": "address",
              "name": "firstRedemptionHint",
              "type": "address"
            },
            {
              "internalType": "uint256",
              "name": "remains",
              "type": "uint256"
            },
            {
              "internalType": "uint256",
              "name": "collWithdrawn",
              "type": "uint256"
            },
            {
              "internalType": "uint256",
              "name": "maxIntegration",
              "type": "uint256"
            },
            {
              "internalType": "uint256",
              "name": "maxFee",
              "type": "uint256"
            },
            {
              "internalType": "uint256",
              "name": "partialNICR",
              "type": "uint256"
            },
            {
              "internalType": "address",
              "name": "upperHint",
              "type": "address"
            },
            {
              "internalType": "address",
              "name": "lowerHint",
              "type": "address"
            }
          ],
          "internalType": "struct MultiCollateraRedemptionHint.Redemption",
          "name": "redemption",
          "type": "tuple"
        }
      ],
      "stateMutability": "nonpayable",
      "type": "function"
    },
    {
      "inputs": [
        {
          "components": [
            {
              "internalType": "contract ITroveManager",
              "name": "troveManager",
              "type": "address"
            },
            {
              "internalType": "uint256",
              "name": "redeemAmount",
              "type": "uint256"
            }
          ],
          "internalType": "struct MultiCollateraRedemptionHint.Estimation",
          "name": "estimation",
          "type": "tuple"
        }
      ],
      "name": "estimateRedemptionWithInterstLot",
      "outputs": [
        {
          "components": [
            {
              "internalType": "address",
              "name": "firstRedemptionHint",
              "type": "address"
            },
            {
              "internalType": "uint256",
              "name": "remains",
              "type": "uint256"
            },
            {
              "internalType": "uint256",
              "name": "collWithdrawn",
              "type": "uint256"
            },
            {
              "internalType": "uint256",
              "name": "maxIntegration",
              "type": "uint256"
            },
            {
              "internalType": "uint256",
              "name": "maxFee",
              "type": "uint256"
            },
            {
              "internalType": "uint256",
              "name": "partialNICR",
              "type": "uint256"
            },
            {
              "internalType": "address",
              "name": "upperHint",
              "type": "address"
            },
            {
              "internalType": "address",
              "name": "lowerHint",
              "type": "address"
            }
          ],
          "internalType": "struct MultiCollateraRedemptionHint.Redemption",
          "name": "redemption",
          "type": "tuple"
        }
      ],
      "stateMutability": "nonpayable",
      "type": "function"
    },
    {
      "inputs": [
        {
          "internalType": "contract ITroveManager",
          "name": "troveManager",
          "type": "address"
        }
      ],
      "name": "getFirstRedemptionHint",
      "outputs": [
        {
          "internalType": "address",
          "name": "firstRedemptionHint",
          "type": "address"
        },
        {
          "internalType": "uint256",
          "name": "interest",
          "type": "uint256"
        },
        {
          "internalType": "uint256",
          "name": "less",
          "type": "uint256"
        },
        {
          "internalType": "uint256",
          "name": "more",
          "type": "uint256"
        }
      ],
      "stateMutability": "nonpayable",
      "type": "function"
    },
    {
      "inputs": [],
      "name": "multiTroveGetter",
      "outputs": [
        {
          "internalType": "contract MultiTroveGetter",
          "name": "",
          "type": "address"
        }
      ],
      "stateMutability": "view",
      "type": "function"
    }
  ],
  "transactionHash": "0x93034de138efe388e9a6d0220e7b992cfc6b5a445338e105ad07ad4221317119",
  "args": [
    "0x05cF5DC3Db0b5EAC9d5Bd536B0a2cc6805e7122d",
    "0xF9bf351Ba4D28395dEe9BA763b0D92F1D841ed03",
    "2000000000000000000"
  ],
  "numDeployments": 3,
  "solcInputHash": "e4d05a20061b741de644d2bc05062504",
  "bytecode": "0x60e06040523480156200001157600080fd5b50604051620018e7380380620018e783398101604081905262000034916200006c565b6080526001600160a01b0391821660a0521660c052620000ad565b80516001600160a01b03811681146200006757600080fd5b919050565b6000806000606084860312156200008257600080fd5b6200008d846200004f565b92506200009d602085016200004f565b9150604084015190509250925092565b60805160a05160c0516117ef620000f86000396000818160d3015281816103e501526109e5015260008181610183015281816105e10152610c510152600061013a01526117ef6000f3fe608060405234801561001057600080fd5b50600436106100c95760003560e01c806377553ad411610081578063b84ab2ef1161005b578063b84ab2ef14610244578063c394a7fa1461028e578063d4986a9f146102a157600080fd5b806377553ad41461017e5780639825c78f146101a5578063a20baee61461023557600080fd5b80634ba4a28b116100b25780634ba4a28b14610135578063525acdbb1461015c5780635733d58f1461016f57600080fd5b80631ff75dc6146100ce5780634870dd9a1461011f575b600080fd5b6100f57f000000000000000000000000000000000000000000000000000000000000000081565b60405173ffffffffffffffffffffffffffffffffffffffff90911681526020015b60405180910390f35b61012760c881565b604051908152602001610116565b6101277f000000000000000000000000000000000000000000000000000000000000000081565b61012761016a3660046113fe565b6102b4565b6101276717979cfe362a000081565b6100f57f000000000000000000000000000000000000000000000000000000000000000081565b6101b86101b33660046114f6565b6102cb565b604051610116919060006101008201905073ffffffffffffffffffffffffffffffffffffffff8084511683526020840151602084015260408401516040840152606084015160608401526080840151608084015260a084015160a08401528060c08501511660c08401528060e08501511660e08401525092915050565b610127670de0b6b3a764000081565b61025761025236600461154e565b610368565b6040805173ffffffffffffffffffffffffffffffffffffffff90951685526020850193909352918301526060820152608001610116565b61012761029c36600461156b565b6107db565b6101b86102af3660046114f6565b6107e7565b60006102c184848461087e565b90505b9392505050565b610355604051806101000160405280600073ffffffffffffffffffffffffffffffffffffffff1681526020016000815260200160008152602001600081526020016000815260200160008152602001600073ffffffffffffffffffffffffffffffffffffffff168152602001600073ffffffffffffffffffffffffffffffffffffffff1681525090565b61036282826108cd6108e4565b92915050565b6040517f05e533ce00000000000000000000000000000000000000000000000000000000815273ffffffffffffffffffffffffffffffffffffffff82811660048301527fffffffffffffffffffffffffffffffffffffffffffffffffffffffffffffffff60248301819052604483015260009182918291829182917f0000000000000000000000000000000000000000000000000000000000000000909116906305e533ce90606401600060405180830381865afa15801561042e573d6000803e3d6000fd5b505050506040513d6000823e601f3d9081017fffffffffffffffffffffffffffffffffffffffffffffffffffffffffffffffe0168201604052610474919081019061158d565b905060008673ffffffffffffffffffffffffffffffffffffffff1663794e57246040518163ffffffff1660e01b8152600401602060405180830381865afa1580156104c3573d6000803e3d6000fd5b505050506040513d601f19601f820116820180604052508101906104e79190611692565b905060008773ffffffffffffffffffffffffffffffffffffffff16630fdb11cf6040518163ffffffff1660e01b81526004016020604051808303816000875af1158015610538573d6000803e3d6000fd5b505050506040513d601f19601f8201168201806040525081019061055c9190611692565b905060005b83518110156107d057600084828151811061057e5761057e6116ab565b6020026020010151905060008160c00151826020015161059e9190611709565b848360a0015184606001516105b39190611709565b6105bd919061171c565b6105c79190611733565b9050848111156107bb5781600001519950816040015198507f000000000000000000000000000000000000000000000000000000000000000073ffffffffffffffffffffffffffffffffffffffff1663969c24526040518163ffffffff1660e01b8152600401602060405180830381865afa15801561064a573d6000803e3d6000fd5b505050506040513d601f19601f8201168201806040525081019061066e9190611692565b8b73ffffffffffffffffffffffffffffffffffffffff16634ba4a28b6040518163ffffffff1660e01b8152600401602060405180830381865afa1580156106b9573d6000803e3d6000fd5b505050506040513d601f19601f820116820180604052508101906106dd9190611692565b83604001518460c0015185602001516106f69190611709565b6107009190611709565b61070a919061176e565b610714919061176e565b97508a73ffffffffffffffffffffffffffffffffffffffff16634ba4a28b6040518163ffffffff1660e01b8152600401602060405180830381865afa158015610761573d6000803e3d6000fd5b505050506040513d601f19601f820116820180604052508101906107859190611692565b82604001518360c00151846020015161079e9190611709565b6107a89190611709565b6107b2919061176e565b965050506107d0565b505080806107c890611781565b915050610561565b505050509193509193565b60006102c48383611388565b610871604051806101000160405280600073ffffffffffffffffffffffffffffffffffffffff1681526020016000815260200160008152602001600081526020016000815260200160008152602001600073ffffffffffffffffffffffffffffffffffffffff168152602001600073ffffffffffffffffffffffffffffffffffffffff1681525090565b61036282826113dc6108e4565b600082156108a657600083610893848761171c565b61089d9190611733565b91506102c49050565b507fffffffffffffffffffffffffffffffffffffffffffffffffffffffffffffffff6102c4565b6000816108da848661176e565b6102c1919061176e565b61096e604051806101000160405280600073ffffffffffffffffffffffffffffffffffffffff1681526020016000815260200160008152602001600081526020016000815260200160008152602001600073ffffffffffffffffffffffffffffffffffffffff168152602001600073ffffffffffffffffffffffffffffffffffffffff1681525090565b83516040517f05e533ce00000000000000000000000000000000000000000000000000000000815273ffffffffffffffffffffffffffffffffffffffff91821660048201527fffffffffffffffffffffffffffffffffffffffffffffffffffffffffffffffff6024820181905260448201526000917f000000000000000000000000000000000000000000000000000000000000000016906305e533ce90606401600060405180830381865afa158015610a2c573d6000803e3d6000fd5b505050506040513d6000823e601f3d9081017fffffffffffffffffffffffffffffffffffffffffffffffffffffffffffffffe0168201604052610a72919081019061158d565b9050610ad960405180610120016040528060008152602001600081526020016000815260200160008152602001600073ffffffffffffffffffffffffffffffffffffffff168152602001600081526020016000815260200160008152602001600081525090565b856000015173ffffffffffffffffffffffffffffffffffffffff1663794e57246040518163ffffffff1660e01b8152600401602060405180830381865afa158015610b28573d6000803e3d6000fd5b505050506040513d601f19601f82011682018060405250810190610b4c9190611692565b816000018181525050856000015173ffffffffffffffffffffffffffffffffffffffff16630fdb11cf6040518163ffffffff1660e01b81526004016020604051808303816000875af1158015610ba6573d6000803e3d6000fd5b505050506040513d601f19601f82011682018060405250810190610bca9190611692565b816020018181525050856000015173ffffffffffffffffffffffffffffffffffffffff16634ba4a28b6040518163ffffffff1660e01b8152600401602060405180830381865afa158015610c22573d6000803e3d6000fd5b505050506040513d601f19601f82011682018060405250810190610c469190611692565b8160400181815250507f000000000000000000000000000000000000000000000000000000000000000073ffffffffffffffffffffffffffffffffffffffff1663969c24526040518163ffffffff1660e01b8152600401602060405180830381865afa158015610cba573d6000803e3d6000fd5b505050506040513d601f19601f82011682018060405250810190610cde9190611692565b606082015260208087015190860152815160009067ffffffffffffffff811115610d0a57610d0a61142a565b604051908082528060200260200182016040528015610d9157816020015b610d7e6040518060e00160405280600073ffffffffffffffffffffffffffffffffffffffff1681526020016000815260200160008152602001600081526020016000815260200160008152602001600081525090565b815260200190600190039081610d285790505b50905060005b8351811015610dea57838181518110610db257610db26116ab565b6020026020010151828281518110610dcc57610dcc6116ab565b60200260200101819052508080610de290611781565b915050610d97565b5060005b8151811015611127576000828281518110610e0b57610e0b6116ab565b602002602001015190506000610e4c8260a001518360600151610e2e9190611709565b8360c001518460200151610e429190611709565b87602001516102b4565b855190915081111561111257885173ffffffffffffffffffffffffffffffffffffffff16610e8f57815173ffffffffffffffffffffffffffffffffffffffff1689525b885173ffffffffffffffffffffffffffffffffffffffff1615610ec357600189606001818151610ebf9190611709565b9052505b816040015189602001511015610eda575050611127565b610f1982604001518a60200151610ef1919061176e565b86604001518460c001518560200151610f0a9190611709565b610f14919061176e565b6113e8565b60a0860181905260c08301516020840151610f349190611709565b610f3e919061176e565b60c08601526020850151604083015160a0870151610f5c9190611709565b610f6e90670de0b6b3a764000061171c565b610f789190611733565b610100860181905260a08301516060840151610f949190611709565b610f9e919061176e565b60e0860152604085015160c08601510361107757610fcd89602001518660a0015184604001518b63ffffffff16565b60208a015261010085015160408a0151610fe79190611709565b60408a01528551869084908110611000576110006116ab565b6020026020010161105d6040518060e00160405280600073ffffffffffffffffffffffffffffffffffffffff1681526020016000815260200160008152602001600081526020016000815260200160008152602001600081525090565b90526020890151600003611072575050611127565b611112565b846060015185604001518660c00151611090919061176e565b101561109d575050611127565b6110b889602001518660a0015184604001518b63ffffffff16565b60208a015261010085015160408a01516110d29190611709565b60408a015260e085015160c08601516110eb91906107db565b60a08a0152505173ffffffffffffffffffffffffffffffffffffffff166080840152611127565b5050808061111f90611781565b915050610dee565b5060005b8351811015611252576000848281518110611148576111486116ab565b60200260200101519050806000015173ffffffffffffffffffffffffffffffffffffffff16846080015173ffffffffffffffffffffffffffffffffffffffff16148015611198575060a088015115155b1561123f5781156111e757846111af60018461176e565b815181106111bf576111bf6116ab565b60209081029190910101515173ffffffffffffffffffffffffffffffffffffffff1660c08901525b600185516111f5919061176e565b821461123f5784611207836001611709565b81518110611217576112176116ab565b60209081029190910101515173ffffffffffffffffffffffffffffffffffffffff1660e08901525b508061124a81611781565b91505061112b565b506000876000015173ffffffffffffffffffffffffffffffffffffffff1663c52861f26040518163ffffffff1660e01b8152600401602060405180830381865afa1580156112a4573d6000803e3d6000fd5b505050506040513d601f19601f820116820180604052508101906112c89190611692565b90506000886000015173ffffffffffffffffffffffffffffffffffffffff16635429c9426040518163ffffffff1660e01b8152600401602060405180830381865afa15801561131b573d6000803e3d6000fd5b505050506040513d601f19601f8201168201806040525081019061133f9190611692565b905060028185602001518a60400151611358919061171c565b6113629190611733565b61136c9190611733565b6113769083611709565b60808901525095979650505050505050565b600081156113b557816113a468056bc75e2d631000008561171c565b6113ae9190611733565b9050610362565b507fffffffffffffffffffffffffffffffffffffffffffffffffffffffffffffffff610362565b60006102c1838561176e565b60008183106113f757816102c4565b5090919050565b60008060006060848603121561141357600080fd5b505081359360208301359350604090920135919050565b7f4e487b7100000000000000000000000000000000000000000000000000000000600052604160045260246000fd5b60405160e0810167ffffffffffffffff8111828210171561147c5761147c61142a565b60405290565b604051601f82017fffffffffffffffffffffffffffffffffffffffffffffffffffffffffffffffe016810167ffffffffffffffff811182821017156114c9576114c961142a565b604052919050565b73ffffffffffffffffffffffffffffffffffffffff811681146114f357600080fd5b50565b60006040828403121561150857600080fd5b6040516040810181811067ffffffffffffffff8211171561152b5761152b61142a565b6040528235611539816114d1565b81526020928301359281019290925250919050565b60006020828403121561156057600080fd5b81356102c4816114d1565b6000806040838503121561157e57600080fd5b50508035926020909101359150565b600060208083850312156115a057600080fd5b825167ffffffffffffffff808211156115b857600080fd5b818501915085601f8301126115cc57600080fd5b8151818111156115de576115de61142a565b6115ec848260051b01611482565b818152848101925060e091820284018501918883111561160b57600080fd5b938501935b828510156116865780858a0312156116285760008081fd5b611630611459565b855161163b816114d1565b8152858701518782015260408087015190820152606080870151908201526080808701519082015260a0808701519082015260c0808701519082015284529384019392850192611610565b50979650505050505050565b6000602082840312156116a457600080fd5b5051919050565b7f4e487b7100000000000000000000000000000000000000000000000000000000600052603260045260246000fd5b7f4e487b7100000000000000000000000000000000000000000000000000000000600052601160045260246000fd5b80820180821115610362576103626116da565b8082028115828204841417610362576103626116da565b600082611769577f4e487b7100000000000000000000000000000000000000000000000000000000600052601260045260246000fd5b500490565b81810381811115610362576103626116da565b60007fffffffffffffffffffffffffffffffffffffffffffffffffffffffffffffffff82036117b2576117b26116da565b506001019056fea264697066735822122068960ecf1abde5e46af25b15e8e55010c120c13f8432b17439d22d161ede6d2964736f6c63430008130033",
  "devdoc": {
    "kind": "dev",
    "methods": {},
    "version": 1
  },
  "userdoc": {
    "kind": "user",
    "methods": {},
    "version": 1
  },
  "storageLayout": {
    "storage": [],
    "types": null
  }
}