{
  "address": "0x733CEb99718953B8d23F1Aa3Ba725f3b8352B217",
  "abi": [
    {
      "anonymous": false,
      "inputs": [
        {
          "indexed": false,
          "internalType": "address",
          "name": "_id",
          "type": "address"
        },
        {
          "indexed": false,
          "internalType": "uint256",
          "name": "_NICR",
          "type": "uint256"
        }
      ],
      "name": "NodeAdded",
      "type": "event"
    },
    {
      "anonymous": false,
      "inputs": [
        {
          "indexed": false,
          "internalType": "address",
          "name": "_id",
          "type": "address"
        }
      ],
      "name": "NodeRemoved",
      "type": "event"
    },
    {
      "inputs": [
        {
          "internalType": "address",
          "name": "_id",
          "type": "address"
        }
      ],
      "name": "contains",
      "outputs": [
        {
          "internalType": "bool",
          "name": "",
          "type": "bool"
        }
      ],
      "stateMutability": "view",
      "type": "function"
    },
    {
      "inputs": [],
      "name": "data",
      "outputs": [
        {
          "internalType": "address",
          "name": "head",
          "type": "address"
        },
        {
          "internalType": "address",
          "name": "tail",
          "type": "address"
        },
        {
          "internalType": "uint256",
          "name": "size",
          "type": "uint256"
        }
      ],
      "stateMutability": "view",
      "type": "function"
    },
    {
      "inputs": [
        {
          "internalType": "uint256",
          "name": "_NICR",
          "type": "uint256"
        },
        {
          "internalType": "address",
          "name": "_prevId",
          "type": "address"
        },
        {
          "internalType": "address",
          "name": "_nextId",
          "type": "address"
        }
      ],
      "name": "findInsertPosition",
      "outputs": [
        {
          "internalType": "address",
          "name": "",
          "type": "address"
        },
        {
          "internalType": "address",
          "name": "",
          "type": "address"
        }
      ],
      "stateMutability": "view",
      "type": "function"
    },
    {
      "inputs": [],
      "name": "getFirst",
      "outputs": [
        {
          "internalType": "address",
          "name": "",
          "type": "address"
        }
      ],
      "stateMutability": "view",
      "type": "function"
    },
    {
      "inputs": [],
      "name": "getLast",
      "outputs": [
        {
          "internalType": "address",
          "name": "",
          "type": "address"
        }
      ],
      "stateMutability": "view",
      "type": "function"
    },
    {
      "inputs": [
        {
          "internalType": "address",
          "name": "_id",
          "type": "address"
        }
      ],
      "name": "getNext",
      "outputs": [
        {
          "internalType": "address",
          "name": "",
          "type": "address"
        }
      ],
      "stateMutability": "view",
      "type": "function"
    },
    {
      "inputs": [
        {
          "internalType": "address",
          "name": "_id",
          "type": "address"
        }
      ],
      "name": "getPrev",
      "outputs": [
        {
          "internalType": "address",
          "name": "",
          "type": "address"
        }
      ],
      "stateMutability": "view",
      "type": "function"
    },
    {
      "inputs": [],
      "name": "getSize",
      "outputs": [
        {
          "internalType": "uint256",
          "name": "",
          "type": "uint256"
        }
      ],
      "stateMutability": "view",
      "type": "function"
    },
    {
      "inputs": [
        {
          "internalType": "address",
          "name": "_id",
          "type": "address"
        },
        {
          "internalType": "uint256",
          "name": "_NICR",
          "type": "uint256"
        },
        {
          "internalType": "address",
          "name": "_prevId",
          "type": "address"
        },
        {
          "internalType": "address",
          "name": "_nextId",
          "type": "address"
        }
      ],
      "name": "insert",
      "outputs": [],
      "stateMutability": "nonpayable",
      "type": "function"
    },
    {
      "inputs": [],
      "name": "isEmpty",
      "outputs": [
        {
          "internalType": "bool",
          "name": "",
          "type": "bool"
        }
      ],
      "stateMutability": "view",
      "type": "function"
    },
    {
      "inputs": [
        {
          "internalType": "address",
          "name": "_id",
          "type": "address"
        },
        {
          "internalType": "uint256",
          "name": "_newNICR",
          "type": "uint256"
        },
        {
          "internalType": "address",
          "name": "_prevId",
          "type": "address"
        },
        {
          "internalType": "address",
          "name": "_nextId",
          "type": "address"
        }
      ],
      "name": "reInsert",
      "outputs": [],
      "stateMutability": "nonpayable",
      "type": "function"
    },
    {
      "inputs": [
        {
          "internalType": "address",
          "name": "_id",
          "type": "address"
        }
      ],
      "name": "remove",
      "outputs": [],
      "stateMutability": "nonpayable",
      "type": "function"
    },
    {
      "inputs": [
        {
          "internalType": "address",
          "name": "_troveManagerAddress",
          "type": "address"
        }
      ],
      "name": "setAddresses",
      "outputs": [],
      "stateMutability": "nonpayable",
      "type": "function"
    },
    {
      "inputs": [],
      "name": "troveManager",
      "outputs": [
        {
          "internalType": "contract ITroveManager",
          "name": "",
          "type": "address"
        }
      ],
      "stateMutability": "view",
      "type": "function"
    },
    {
      "inputs": [
        {
          "internalType": "uint256",
          "name": "_NICR",
          "type": "uint256"
        },
        {
          "internalType": "address",
          "name": "_prevId",
          "type": "address"
        },
        {
          "internalType": "address",
          "name": "_nextId",
          "type": "address"
        }
      ],
      "name": "validInsertPosition",
      "outputs": [
        {
          "internalType": "bool",
          "name": "",
          "type": "bool"
        }
      ],
      "stateMutability": "view",
      "type": "function"
    }
  ],
  "transactionHash": "0x264f573fcfc5b2503946f5945b1f8602b092e19b126fe084bd45d6ada63c9c90",
  "args": [],
  "numDeployments": 1,
  "solcInputHash": "b91301f1a84b6c2e358640cd7d231682",
  "bytecode": "0x608060405234801561001057600080fd5b506112bf806100206000396000f3fe608060405234801561001057600080fd5b50600436106100f55760003560e01c80634d62283111610097578063765e015911610066578063765e01591461025257806381d3c43514610283578063b72703ac14610296578063de8fa431146102c557600080fd5b80634d622831146101c85780635dbe47e8146101d9578063681fe70c1461020557806373d4a13a1461020e57600080fd5b80633d83908a116100d35780633d83908a1461014c5780633fce12d51461015f578063416980dc1461018257806346f7cf87146101b557600080fd5b80631e223143146100fa57806329092d0e146101245780632be2126014610139575b600080fd5b6001546001600160a01b03165b6040516001600160a01b0390911681526020015b60405180910390f35b61013761013236600461116a565b6102d6565b005b61013761014736600461118c565b610310565b600054610107906001600160a01b031681565b61017261016d3660046111d9565b61035d565b604051901515815260200161011b565b6101956101903660046111d9565b61037e565b604080516001600160a01b0393841681529290911660208301520161011b565b6101376101c336600461118c565b6103a6565b6002546001600160a01b0316610107565b6101726101e736600461116a565b6001600160a01b031660009081526004602052604090205460ff1690565b60035415610172565b60015460025460035461022c926001600160a01b0390811692169083565b604080516001600160a01b0394851681529390921660208401529082015260600161011b565b61010761026036600461116a565b6001600160a01b0390811660009081526004602052604090205461010090041690565b61013761029136600461116a565b6104a6565b6101076102a436600461116a565b6001600160a01b039081166000908152600460205260409020600101541690565b60035460405190815260200161011b565b6000546102eb906001600160a01b0316610521565b6001600160a01b038116600090815260046020526040902061030d908261059f565b50565b6000546001600160a01b031661032581610521565b6001600160a01b0385166000908152600460205260409020610347818761059f565b61035581838888888861080c565b505050505050565b60008054610376906001600160a01b0316858585610ae8565b949350505050565b600080548190610399906001600160a01b0316868686610d1f565b915091505b935093915050565b6000546001600160a01b03166103bb81610521565b6001600160a01b0385166000908152600460205260409020805460ff16156104505760405162461bcd60e51b815260206004820152602c60248201527f536f7274656454726f7665733a204c69737420616c726561647920636f6e746160448201527f696e7320746865206e6f6465000000000000000000000000000000000000000060648201526084015b60405180910390fd5b6001600160a01b0386166103475760405162461bcd60e51b815260206004820152601f60248201527f536f7274656454726f7665733a2049642063616e6e6f74206265207a65726f006044820152606401610447565b6000546001600160a01b0316156104ff5760405162461bcd60e51b815260206004820152600b60248201527f416c7265616479207365740000000000000000000000000000000000000000006044820152606401610447565b600080546001600160a01b0319166001600160a01b0392909216919091179055565b336001600160a01b0382161461030d5760405162461bcd60e51b815260206004820152602c60248201527f536f7274656454726f7665733a2043616c6c6572206973206e6f74207468652060448201527f54726f76654d616e6167657200000000000000000000000000000000000000006064820152608401610447565b815460ff166106165760405162461bcd60e51b815260206004820152602a60248201527f536f7274656454726f7665733a204c69737420646f6573206e6f7420636f6e7460448201527f61696e20746865206964000000000000000000000000000000000000000000006064820152608401610447565b6003546001101561074e576001546001600160a01b0390811690821603610677578154600180546101009092046001600160a01b03166001600160a01b0319928316811782556000908152600460205260409020018054909116905561076b565b6002546001600160a01b03908116908216036106df576001820154600280546001600160a01b0319166001600160a01b0390921691821790556000908152600460205260409020805474ffffffffffffffffffffffffffffffffffffffff001916905561076b565b60018281015483546001600160a01b03918216600081815260046020526040808220805474ffffffffffffffffffffffffffffffffffffffff001916610100958690049096169485029590951790945591825291902090910180546001600160a01b031916909117905561076b565b600180546001600160a01b03199081169091556002805490911690555b6001600160a01b038116600090815260046020526040902080547fffffffffffffffffffffff000000000000000000000000000000000000000000168155600190810180546001600160a01b03191690556003546107c99190611244565b6003556040516001600160a01b03821681527fcfc24166db4bb677e857cacabd1541fb2b30645021b27c5130419589b84db52b9060200160405180910390a15050565b600083116108825760405162461bcd60e51b815260206004820152602360248201527f536f7274656454726f7665733a204e494352206d75737420626520706f73697460448201527f69766500000000000000000000000000000000000000000000000000000000006064820152608401610447565b818161089087868484610ae8565b6108a6576108a087868484610d1f565b90925090505b87547fffffffffffffffffffffffffffffffffffffffffffffffffffffffffffffff001660011788556001600160a01b0382161580156108ed57506001600160a01b038116155b1561092257600180546001600160a01b0388166001600160a01b03199182168117909255600280549091169091179055610a8b565b6001600160a01b0382166109975760018054895474ffffffffffffffffffffffffffffffffffffffff0019166101006001600160a01b03928316908102919091178b556000908152600460205260409020820180546001600160a01b0319908116928a16928317909155825416179055610a8b565b6001600160a01b038116610a0b576002805460018a0180546001600160a01b039283166001600160a01b03199182168117909255600091825260046020526040909120805474ffffffffffffffffffffffffffffffffffffffff001916610100938b16938402179055825416179055610a8b565b87546001600160a01b0380831661010081810274ffffffffffffffffffffffffffffffffffffffff0019948516178c556001808d0180548886166001600160a01b031991821681179092556000918252600460205260408083208054978f1695860297909816969096179096559283529290912090910180549092161790555b600354610a9990600161125d565b600355604080516001600160a01b0388168152602081018790527fe02b43adbee0c123de070a04554a71877a0007e2fc161466299cae3c094fe82f910160405180910390a15050505050505050565b60006001600160a01b038316158015610b0857506001600160a01b038216155b15610b1957600354155b9050610376565b6001600160a01b038316610bb4576001546001600160a01b038381169116148015610b12575060405163b0d8e18160e01b81526001600160a01b03838116600483015286169063b0d8e181906024015b602060405180830381865afa158015610b86573d6000803e3d6000fd5b505050506040513d601f19601f82011682018060405250810190610baa9190611270565b8410159050610376565b6001600160a01b038216610c4e576002546001600160a01b038481169116148015610b12575060405163b0d8e18160e01b81526001600160a01b03848116600483015286169063b0d8e18190602401602060405180830381865afa158015610c20573d6000803e3d6000fd5b505050506040513d601f19601f82011682018060405250810190610c449190611270565b8411159050610376565b6001600160a01b0383811660009081526004602052604090205461010090048116908316148015610cea575060405163b0d8e18160e01b81526001600160a01b03848116600483015285919087169063b0d8e18190602401602060405180830381865afa158015610cc3573d6000803e3d6000fd5b505050506040513d601f19601f82011682018060405250810190610ce79190611270565b10155b8015610b12575060405163b0d8e18160e01b81526001600160a01b03838116600483015286169063b0d8e18190602401610b69565b60008083836001600160a01b03821615610dcd576001600160a01b03821660009081526004602052604090205460ff161580610dc3575060405163b0d8e18160e01b81526001600160a01b03838116600483015289169063b0d8e18190602401602060405180830381865afa158015610d9c573d6000803e3d6000fd5b505050506040513d601f19601f82011682018060405250810190610dc09190611270565b87115b15610dcd57600091505b6001600160a01b03811615610e75576001600160a01b03811660009081526004602052604090205460ff161580610e6c575060405163b0d8e18160e01b81526001600160a01b03828116600483015289169063b0d8e18190602401602060405180830381865afa158015610e45573d6000803e3d6000fd5b505050506040513d601f19601f82011682018060405250810190610e699190611270565b87105b15610e75575060005b6001600160a01b038216158015610e9357506001600160a01b038116155b15610ebc57600154610eb190899089906001600160a01b0316610f02565b935093505050610ef9565b6001600160a01b038216610ed557610eb188888361102b565b6001600160a01b038116610eee57610eb1888884610f02565b610eb1888884610f02565b94509492505050565b60015460009081906001600160a01b038481169116148015610f8d575060405163b0d8e18160e01b81526001600160a01b03848116600483015286169063b0d8e18190602401602060405180830381865afa158015610f65573d6000803e3d6000fd5b505050506040513d601f19601f82011682018060405250810190610f899190611270565b8410155b15610f9d5750600090508161039e565b6001600160a01b038084166000908152600460205260409020548491610100909104165b6001600160a01b03821615801590610fe25750610fe087878484610ae8565b155b1561101f57506001600160a01b03908116600090815260046020526040808220546101009081900484168084529190922054909291900416610fc1565b90969095509350505050565b60025460009081906001600160a01b0384811691161480156110b6575060405163b0d8e18160e01b81526001600160a01b03848116600483015286169063b0d8e18190602401602060405180830381865afa15801561108e573d6000803e3d6000fd5b505050506040513d601f19601f820116820180604052508101906110b29190611270565b8411155b156110c65750819050600061039e565b6001600160a01b038084166000908152600460205260409020600101548491165b6001600160a01b03821615801590611108575061110687878385610ae8565b155b1561114357506001600160a01b03908116600090815260046020526040808220600190810154841680845291909220909101549091166110e7565b969095509350505050565b80356001600160a01b038116811461116557600080fd5b919050565b60006020828403121561117c57600080fd5b6111858261114e565b9392505050565b600080600080608085870312156111a257600080fd5b6111ab8561114e565b9350602085013592506111c06040860161114e565b91506111ce6060860161114e565b905092959194509250565b6000806000606084860312156111ee57600080fd5b833592506111fe6020850161114e565b915061120c6040850161114e565b90509250925092565b7f4e487b7100000000000000000000000000000000000000000000000000000000600052601160045260246000fd5b8181038181111561125757611257611215565b92915050565b8082018082111561125757611257611215565b60006020828403121561128257600080fd5b505191905056fea2646970667358221220964fa005644176825ee855fb3007ffeac5c68aff6fec4d910bd65618a8aefa6a64736f6c63430008130033",
  "devdoc": {
    "kind": "dev",
    "methods": {},
    "title": "Zebra Sorted Troves",
    "version": 1
  },
  "userdoc": {
    "kind": "user",
    "methods": {},
    "notice": "Based on Liquity's `SortedTroves`: https://github.com/liquity/dev/blob/main/packages/contracts/contracts/SortedTroves.sol Originally derived from `SortedDoublyLinkedList`: https://github.com/livepeer/protocol/blob/master/contracts/libraries/SortedDoublyLL.sol",
    "version": 1
  },
  "storageLayout": {
    "storage": [
      {
        "astId": 15625,
        "contract": "contracts/core/SortedTroves.sol:SortedTroves",
        "label": "troveManager",
        "offset": 0,
        "slot": "0",
        "type": "t_contract(ITroveManager)37755"
      },
      {
        "astId": 15628,
        "contract": "contracts/core/SortedTroves.sol:SortedTroves",
        "label": "data",
        "offset": 0,
        "slot": "1",
        "type": "t_struct(Data)15647_storage"
      }
    ],
    "types": {
      "t_address": {
        "encoding": "inplace",
        "label": "address",
        "numberOfBytes": "20"
      },
      "t_bool": {
        "encoding": "inplace",
        "label": "bool",
        "numberOfBytes": "1"
      },
      "t_contract(ITroveManager)37755": {
        "encoding": "inplace",
        "label": "contract ITroveManager",
        "numberOfBytes": "20"
      },
      "t_mapping(t_address,t_struct(Node)15635_storage)": {
        "encoding": "mapping",
        "key": "t_address",
        "label": "mapping(address => struct SortedTroves.Node)",
        "numberOfBytes": "32",
        "value": "t_struct(Node)15635_storage"
      },
      "t_struct(Data)15647_storage": {
        "encoding": "inplace",
        "label": "struct SortedTroves.Data",
        "members": [
          {
            "astId": 15637,
            "contract": "contracts/core/SortedTroves.sol:SortedTroves",
            "label": "head",
            "offset": 0,
            "slot": "0",
            "type": "t_address"
          },
          {
            "astId": 15639,
            "contract": "contracts/core/SortedTroves.sol:SortedTroves",
            "label": "tail",
            "offset": 0,
            "slot": "1",
            "type": "t_address"
          },
          {
            "astId": 15641,
            "contract": "contracts/core/SortedTroves.sol:SortedTroves",
            "label": "size",
            "offset": 0,
            "slot": "2",
            "type": "t_uint256"
          },
          {
            "astId": 15646,
            "contract": "contracts/core/SortedTroves.sol:SortedTroves",
            "label": "nodes",
            "offset": 0,
            "slot": "3",
            "type": "t_mapping(t_address,t_struct(Node)15635_storage)"
          }
        ],
        "numberOfBytes": "128"
      },
      "t_struct(Node)15635_storage": {
        "encoding": "inplace",
        "label": "struct SortedTroves.Node",
        "members": [
          {
            "astId": 15630,
            "contract": "contracts/core/SortedTroves.sol:SortedTroves",
            "label": "exists",
            "offset": 0,
            "slot": "0",
            "type": "t_bool"
          },
          {
            "astId": 15632,
            "contract": "contracts/core/SortedTroves.sol:SortedTroves",
            "label": "nextId",
            "offset": 1,
            "slot": "0",
            "type": "t_address"
          },
          {
            "astId": 15634,
            "contract": "contracts/core/SortedTroves.sol:SortedTroves",
            "label": "prevId",
            "offset": 0,
            "slot": "1",
            "type": "t_address"
          }
        ],
        "numberOfBytes": "64"
      },
      "t_uint256": {
        "encoding": "inplace",
        "label": "uint256",
        "numberOfBytes": "32"
      }
    }
  }
}