{
  "address": "0xA54f7d5415FeF4119925918bA59ae43ef9962150",
  "abi": [
    {
      "inputs": [
        {
          "internalType": "contract IStZeta",
          "name": "_stZeta",
          "type": "address"
        }
      ],
      "stateMutability": "nonpayable",
      "type": "constructor"
    },
    {
      "inputs": [],
      "name": "convert",
      "outputs": [
        {
          "internalType": "uint256",
          "name": "amountInZETA",
          "type": "uint256"
        }
      ],
      "stateMutability": "view",
      "type": "function"
    },
    {
      "inputs": [],
      "name": "stZeta",
      "outputs": [
        {
          "internalType": "contract IStZeta",
          "name": "",
          "type": "address"
        }
      ],
      "stateMutability": "view",
      "type": "function"
    }
  ],
  "transactionHash": "0x969a413110c6ef4f3125092f416b8756dcb77c5820da8477b8e8a092a5178011",
  "args": [
    "0x45334a5B0a01cE6C260f2B570EC941C680EA62c0"
  ],
  "numDeployments": 1,
  "solcInputHash": "678264f7d5fbb55a67df3aa692a1d233",
  "bytecode": "0x608060405234801561001057600080fd5b5060405161023538038061023583398101604081905261002f91610054565b600080546001600160a01b0319166001600160a01b0392909216919091179055610084565b60006020828403121561006657600080fd5b81516001600160a01b038116811461007d57600080fd5b9392505050565b6101a2806100936000396000f3fe608060405234801561001057600080fd5b50600436106100365760003560e01c806391bbdcc71461003b578063e86b52eb14610056575b600080fd5b61004361009b565b6040519081526020015b60405180910390f35b6000546100769073ffffffffffffffffffffffffffffffffffffffff1681565b60405173ffffffffffffffffffffffffffffffffffffffff909116815260200161004d565b600080546040517f962fc585000000000000000000000000000000000000000000000000000000008152670de0b6b3a7640000600482015273ffffffffffffffffffffffffffffffffffffffff9091169063962fc58590602401606060405180830381865afa158015610112573d6000803e3d6000fd5b505050506040513d601f19601f82011682018060405250810190610136919061013e565b509092915050565b60008060006060848603121561015357600080fd5b835192506020840151915060408401519050925092509256fea26469706673582212201347e2350c1bd75e1abbeaa74f575c9d3e936d75e2acc3627500d81f80a21f1564736f6c63430008130033",
  "devdoc": {
    "kind": "dev",
    "methods": {},
    "version": 1
  },
  "userdoc": {
    "kind": "user",
    "methods": {},
    "version": 1
  },
  "storageLayout": {
    "storage": [
      {
        "astId": 42167,
        "contract": "contracts/wrappers/StZetaWrapper.sol:StZetaWrapper",
        "label": "stZeta",
        "offset": 0,
        "slot": "0",
        "type": "t_contract(IStZeta)38128"
      }
    ],
    "types": {
      "t_contract(IStZeta)38128": {
        "encoding": "inplace",
        "label": "contract IStZeta",
        "numberOfBytes": "20"
      }
    }
  }
}