{
  "address": "0x29ec3560298f74C0da22d725178F2667F91addC1",
  "abi": [
    {
      "inputs": [
        {
          "internalType": "contract IZebraCore",
          "name": "_core",
          "type": "address"
        },
        {
          "internalType": "contract IZebraUSD",
          "name": "_zebraUSD",
          "type": "address"
        },
        {
          "internalType": "contract IWZeta",
          "name": "_wzeta",
          "type": "address"
        },
        {
          "internalType": "contract IIzumiSwap",
          "name": "_swap",
          "type": "address"
        },
        {
          "internalType": "contract IIzumiQuoter",
          "name": "_quoter",
          "type": "address"
        },
        {
          "internalType": "contract IBorrowerOperations",
          "name": "_bo",
          "type": "address"
        }
      ],
      "stateMutability": "nonpayable",
      "type": "constructor"
    },
    {
      "inputs": [],
      "name": "ZebraCore",
      "outputs": [
        {
          "internalType": "contract IZebraCore",
          "name": "",
          "type": "address"
        }
      ],
      "stateMutability": "view",
      "type": "function"
    },
    {
      "inputs": [],
      "name": "bo",
      "outputs": [
        {
          "internalType": "contract IBorrowerOperations",
          "name": "",
          "type": "address"
        }
      ],
      "stateMutability": "view",
      "type": "function"
    },
    {
      "inputs": [
        {
          "internalType": "contract ITroveManager",
          "name": "tm",
          "type": "address"
        },
        {
          "internalType": "bytes",
          "name": "path",
          "type": "bytes"
        }
      ],
      "name": "close",
      "outputs": [],
      "stateMutability": "payable",
      "type": "function"
    },
    {
      "inputs": [
        {
          "internalType": "contract IERC20",
          "name": "token",
          "type": "address"
        },
        {
          "internalType": "address",
          "name": "to",
          "type": "address"
        },
        {
          "internalType": "uint256",
          "name": "amount",
          "type": "uint256"
        }
      ],
      "name": "emergencyWithdraw",
      "outputs": [],
      "stateMutability": "nonpayable",
      "type": "function"
    },
    {
      "inputs": [
        {
          "internalType": "contract ITroveManager",
          "name": "tm",
          "type": "address"
        },
        {
          "internalType": "bytes",
          "name": "path",
          "type": "bytes"
        },
        {
          "internalType": "address",
          "name": "borrower",
          "type": "address"
        }
      ],
      "name": "estimateClose",
      "outputs": [
        {
          "internalType": "uint256",
          "name": "balance",
          "type": "uint256"
        },
        {
          "internalType": "uint128",
          "name": "desire",
          "type": "uint128"
        },
        {
          "internalType": "uint256",
          "name": "cost",
          "type": "uint256"
        }
      ],
      "stateMutability": "nonpayable",
      "type": "function"
    },
    {
      "inputs": [],
      "name": "guardian",
      "outputs": [
        {
          "internalType": "address",
          "name": "",
          "type": "address"
        }
      ],
      "stateMutability": "view",
      "type": "function"
    },
    {
      "inputs": [],
      "name": "owner",
      "outputs": [
        {
          "internalType": "address",
          "name": "",
          "type": "address"
        }
      ],
      "stateMutability": "view",
      "type": "function"
    },
    {
      "inputs": [],
      "name": "quoter",
      "outputs": [
        {
          "internalType": "contract IIzumiQuoter",
          "name": "",
          "type": "address"
        }
      ],
      "stateMutability": "view",
      "type": "function"
    },
    {
      "inputs": [],
      "name": "swap",
      "outputs": [
        {
          "internalType": "contract IIzumiSwap",
          "name": "",
          "type": "address"
        }
      ],
      "stateMutability": "view",
      "type": "function"
    },
    {
      "inputs": [],
      "name": "wzeta",
      "outputs": [
        {
          "internalType": "contract IWZeta",
          "name": "",
          "type": "address"
        }
      ],
      "stateMutability": "view",
      "type": "function"
    },
    {
      "inputs": [],
      "name": "zebraUSD",
      "outputs": [
        {
          "internalType": "contract IZebraUSD",
          "name": "",
          "type": "address"
        }
      ],
      "stateMutability": "view",
      "type": "function"
    }
  ],
  "transactionHash": "0x17e1dbf9e86b4eb1fc1eed13abf4385352d0c1acfecc17e4583d5c8f46ac3ce7",
  "args": [
    "0xB4CEF4682eD12E609624f494aca5c3418C838462",
    "0x5d8Dc3b34D7B07BB09495c480AD629900c0A2e02",
    "0x5F0b1a82749cb4E2278EC87F8BF6B618dC71a8bf",
    "0x34bc1b87f60e0a30c0e24FD7Abada70436c71406",
    "0x04830cfCED9772b8ACbAF76Cfc7A630Ad82c9148",
    "0x05cF5DC3Db0b5EAC9d5Bd536B0a2cc6805e7122d"
  ],
  "numDeployments": 23,
  "solcInputHash": "18fcbc7cb49dc5e28fb375de0962c532",
  "bytecode": "0x6101406040523480156200001257600080fd5b50604051620017db380380620017db8339810160408190526200003591620000fa565b6001600160a01b0386811660805285811660a05284811660c081905284821660e0819052848316610100529183166101205260405163095ea7b360e01b8152600481019290925260001960248301529063095ea7b3906044016020604051808303816000875af1158015620000ae573d6000803e3d6000fd5b505050506040513d601f19601f82011682018060405250810190620000d491906200018e565b50505050505050620001b9565b6001600160a01b0381168114620000f757600080fd5b50565b60008060008060008060c087890312156200011457600080fd5b86516200012181620000e1565b60208801519096506200013481620000e1565b60408801519095506200014781620000e1565b60608801519094506200015a81620000e1565b60808801519093506200016d81620000e1565b60a08801519092506200018081620000e1565b809150509295509295509295565b600060208284031215620001a157600080fd5b81518015158114620001b257600080fd5b9392505050565b60805160a05160c05160e05161010051610120516115716200026a60003960008181610181015261086b01526000818161023201526110370152600081816101b5015261070f01526000818160d2015281816105f20152818161067a01528181610a2e0152610acf0152600081816101fe015281816102db0152818161039601528181610906015281816109a70152610f7501526000818161013801528181610b4c0152610bd501526115716000f3fe6080604052600436106100bb5760003560e01c80638119c06511610074578063c6bbd5a71161004e578063c6bbd5a714610220578063e63ea40814610254578063e6877b0e1461027457600080fd5b80638119c065146101a35780638da5cb5b146101d75780639b0e384e146101ec57600080fd5b80632fbea014116100a55780632fbea01414610126578063452a93201461015a578063500d68471461016f57600080fd5b8062173d46146100c05780632338d37714610111575b600080fd5b3480156100cc57600080fd5b506100f47f000000000000000000000000000000000000000000000000000000000000000081565b6040516001600160a01b0390911681526020015b60405180910390f35b61012461011f3660046111ac565b6102c0565b005b34801561013257600080fd5b506100f47f000000000000000000000000000000000000000000000000000000000000000081565b34801561016657600080fd5b506100f4610b48565b34801561017b57600080fd5b506100f47f000000000000000000000000000000000000000000000000000000000000000081565b3480156101af57600080fd5b506100f47f000000000000000000000000000000000000000000000000000000000000000081565b3480156101e357600080fd5b506100f4610bd1565b3480156101f857600080fd5b506100f47f000000000000000000000000000000000000000000000000000000000000000081565b34801561022c57600080fd5b506100f47f000000000000000000000000000000000000000000000000000000000000000081565b34801561026057600080fd5b5061012461026f3660046111fc565b610c31565b34801561028057600080fd5b5061029461028f36600461123d565b610dc3565b604080519384526fffffffffffffffffffffffffffffffff909216602084015290820152606001610108565b6040516370a0823160e01b81523360048201819052906000907f00000000000000000000000000000000000000000000000000000000000000006001600160a01b0316906370a0823190602401602060405180830381865afa15801561032a573d6000803e3d6000fd5b505050506040513d601f19601f8201168201806040525081019061034e91906112a1565b6040517f23b872dd0000000000000000000000000000000000000000000000000000000081526001600160a01b038481166004830152306024830152604482018390529192507f0000000000000000000000000000000000000000000000000000000000000000909116906323b872dd906064016020604051808303816000875af11580156103e1573d6000803e3d6000fd5b505050506040513d601f19601f8201168201806040525081019061040591906112ba565b506040517f2b2b2bac0000000000000000000000000000000000000000000000000000000081526001600160a01b03838116600483015260009190861690632b2b2bac906024016040805180830381865afa158015610468573d6000803e3d6000fd5b505050506040513d601f19601f8201168201806040525081019061048c91906112e3565b9150506000856001600160a01b0316634ba4a28b6040518163ffffffff1660e01b8152600401602060405180830381865afa1580156104cf573d6000803e3d6000fd5b505050506040513d601f19601f820116820180604052508101906104f391906112a1565b6040517f55ca38cf0000000000000000000000000000000000000000000000000000000081526001600160a01b038681166004830152602482018590528816906355ca38cf90604401602060405180830381865afa158015610559573d6000803e3d6000fd5b505050506040513d601f19601f8201168201806040525081019061057d91906112a1565b6105879084611336565b610591919061134f565b90508083101561082b57600034116105f05760405162461bcd60e51b815260206004820152601160248201527f6e6f2065746865722070726f766964656400000000000000000000000000000060448201526064015b60405180910390fd5b7f00000000000000000000000000000000000000000000000000000000000000006001600160a01b031663d0e30db0346040518263ffffffff1660e01b81526004016000604051808303818588803b15801561064b57600080fd5b505af115801561065f573d6000803e3d6000fd5b50506040516370a0823160e01b8152306004820152600093507f00000000000000000000000000000000000000000000000000000000000000006001600160a01b031692506370a082319150602401602060405180830381865afa1580156106cb573d6000803e3d6000fd5b505050506040513d601f19601f820116820180604052508101906106ef91906112a1565b6040805160a0810182528881523060208201529192506001600160a01b037f0000000000000000000000000000000000000000000000000000000000000000169163115ff67e918101610742888761134f565b6fffffffffffffffffffffffffffffffff1681526020018481526020017fffffffffffffffffffffffffffffffffffffffffffffffffffffffffffffffff8152506040518263ffffffff1660e01b815260040161079f91906113a8565b60408051808303816000875af19250505080156107d9575060408051601f3d908101601f191682019092526107d6918101906112e3565b60015b610827573d808015610807576040519150601f19603f3d011682016040523d82523d6000602084013e61080c565b606091505b508060405162461bcd60e51b81526004016105e79190611413565b5050505b6040517f5f5486140000000000000000000000000000000000000000000000000000000081526001600160a01b03878116600483015285811660248301527f00000000000000000000000000000000000000000000000000000000000000001690635f54861490604401600060405180830381600087803b1580156108af57600080fd5b505af19250505080156108c0575060015b6108ee573d808015610807576040519150601f19603f3d011682016040523d82523d6000602084013e61080c565b6040516370a0823160e01b81523060048201526000907f00000000000000000000000000000000000000000000000000000000000000006001600160a01b0316906370a0823190602401602060405180830381865afa158015610955573d6000803e3d6000fd5b505050506040513d601f19601f8201168201806040525081019061097991906112a1565b90508015610a165760405163a9059cbb60e01b81526001600160a01b038681166004830152602482018390527f0000000000000000000000000000000000000000000000000000000000000000169063a9059cbb906044016020604051808303816000875af11580156109f0573d6000803e3d6000fd5b505050506040513d601f19601f82011682018060405250810190610a1491906112ba565b505b6040516370a0823160e01b81523060048201526000907f00000000000000000000000000000000000000000000000000000000000000006001600160a01b0316906370a0823190602401602060405180830381865afa158015610a7d573d6000803e3d6000fd5b505050506040513d601f19601f82011682018060405250810190610aa191906112a1565b90508015610b3e5760405163a9059cbb60e01b81526001600160a01b038781166004830152602482018390527f0000000000000000000000000000000000000000000000000000000000000000169063a9059cbb906044016020604051808303816000875af1158015610b18573d6000803e3d6000fd5b505050506040513d601f19601f82011682018060405250810190610b3c91906112ba565b505b5050505050505050565b60007f00000000000000000000000000000000000000000000000000000000000000006001600160a01b031663452a93206040518163ffffffff1660e01b8152600401602060405180830381865afa158015610ba8573d6000803e3d6000fd5b505050506040513d601f19601f82011682018060405250810190610bcc9190611426565b905090565b60007f00000000000000000000000000000000000000000000000000000000000000006001600160a01b0316638da5cb5b6040518163ffffffff1660e01b8152600401602060405180830381865afa158015610ba8573d6000803e3d6000fd5b610c39610bd1565b6001600160a01b0316336001600160a01b031614610c995760405162461bcd60e51b815260206004820152600a60248201527f4f6e6c79206f776e65720000000000000000000000000000000000000000000060448201526064016105e7565b6001600160a01b038316610d50576000826001600160a01b03168260405160006040518083038185875af1925050503d8060008114610cf4576040519150601f19603f3d011682016040523d82523d6000602084013e610cf9565b606091505b5050905080610d4a5760405162461bcd60e51b815260206004820152601460248201527f7769746864726177207a657461206661696c656400000000000000000000000060448201526064016105e7565b50505050565b60405163a9059cbb60e01b81526001600160a01b0383811660048301526024820183905284169063a9059cbb906044016020604051808303816000875af1158015610d9f573d6000803e3d6000fd5b505050506040513d601f19601f82011682018060405250810190610d4a91906112ba565b6040517f2b2b2bac0000000000000000000000000000000000000000000000000000000081526001600160a01b038281166004830152600091829182918291881690632b2b2bac906024016040805180830381865afa158015610e2a573d6000803e3d6000fd5b505050506040513d601f19601f82011682018060405250810190610e4e91906112e3565b9150506000876001600160a01b0316634ba4a28b6040518163ffffffff1660e01b8152600401602060405180830381865afa158015610e91573d6000803e3d6000fd5b505050506040513d601f19601f82011682018060405250810190610eb591906112a1565b6040517f55ca38cf0000000000000000000000000000000000000000000000000000000081526001600160a01b038881166004830152602482018590528a16906355ca38cf90604401602060405180830381865afa158015610f1b573d6000803e3d6000fd5b505050506040513d601f19601f82011682018060405250810190610f3f91906112a1565b610f499084611336565b610f53919061134f565b6040516370a0823160e01b81526001600160a01b0388811660048301529192507f0000000000000000000000000000000000000000000000000000000000000000909116906370a0823190602401602060405180830381865afa158015610fbe573d6000803e3d6000fd5b505050506040513d601f19601f82011682018060405250810190610fe291906112a1565b9450848111610ffa5750600092508291506110bb9050565b611004858261134f565b6040517f18ce06100000000000000000000000000000000000000000000000000000000081529094506001600160a01b037f000000000000000000000000000000000000000000000000000000000000000016906318ce06109061106e9087908b90600401611443565b6000604051808303816000875af115801561108d573d6000803e3d6000fd5b505050506040513d6000823e601f3d908101601f191682016040526110b59190810190611476565b50925050505b93509350939050565b6001600160a01b03811681146110d957600080fd5b50565b7f4e487b7100000000000000000000000000000000000000000000000000000000600052604160045260246000fd5b604051601f8201601f1916810167ffffffffffffffff81118282101715611134576111346110dc565b604052919050565b600082601f83011261114d57600080fd5b813567ffffffffffffffff811115611167576111676110dc565b61117a6020601f19601f8401160161110b565b81815284602083860101111561118f57600080fd5b816020850160208301376000918101602001919091529392505050565b600080604083850312156111bf57600080fd5b82356111ca816110c4565b9150602083013567ffffffffffffffff8111156111e657600080fd5b6111f28582860161113c565b9150509250929050565b60008060006060848603121561121157600080fd5b833561121c816110c4565b9250602084013561122c816110c4565b929592945050506040919091013590565b60008060006060848603121561125257600080fd5b833561125d816110c4565b9250602084013567ffffffffffffffff81111561127957600080fd5b6112858682870161113c565b9250506040840135611296816110c4565b809150509250925092565b6000602082840312156112b357600080fd5b5051919050565b6000602082840312156112cc57600080fd5b815180151581146112dc57600080fd5b9392505050565b600080604083850312156112f657600080fd5b505080516020909101519092909150565b7f4e487b7100000000000000000000000000000000000000000000000000000000600052601160045260246000fd5b8082018082111561134957611349611307565b92915050565b8181038181111561134957611349611307565b6000815180845260005b818110156113885760208185018101518683018201520161136c565b506000602082860101526020601f19601f83011685010191505092915050565b602081526000825160a060208401526113c460c0840182611362565b90506001600160a01b0360208501511660408401526fffffffffffffffffffffffffffffffff604085015116606084015260608401516080840152608084015160a08401528091505092915050565b6020815260006112dc6020830184611362565b60006020828403121561143857600080fd5b81516112dc816110c4565b6fffffffffffffffffffffffffffffffff8316815260406020820152600061146e6040830184611362565b949350505050565b6000806040838503121561148957600080fd5b8251915060208084015167ffffffffffffffff808211156114a957600080fd5b818601915086601f8301126114bd57600080fd5b8151818111156114cf576114cf6110dc565b8060051b91506114e084830161110b565b81815291830184019184810190898411156114fa57600080fd5b938501935b8385101561152b57845192508260020b831461151b5760008081fd5b82825293850193908501906114ff565b809650505050505050925092905056fea26469706673582212209815443cba70593aaabe8183c7a8cf1d89738331b4341b62b06e30ed3e8fda0264736f6c63430008130033",
  "devdoc": {
    "kind": "dev",
    "methods": {},
    "version": 1
  },
  "userdoc": {
    "kind": "user",
    "methods": {},
    "version": 1
  },
  "storageLayout": {
    "storage": [],
    "types": null
  }
}