{
  "address": "0x00a6B642d9ac72D6bE811CAC1ECbadf893c1d26e",
  "abi": [
    {
      "inputs": [
        {
          "internalType": "contract IZebraCore",
          "name": "_zebraCore",
          "type": "address"
        },
        {
          "internalType": "address",
          "name": "_zebraUSDAddress",
          "type": "address"
        },
        {
          "internalType": "address",
          "name": "_factory",
          "type": "address"
        },
        {
          "internalType": "uint256",
          "name": "_minNetDebt",
          "type": "uint256"
        },
        {
          "internalType": "uint256",
          "name": "_gasCompensation",
          "type": "uint256"
        }
      ],
      "stateMutability": "nonpayable",
      "type": "constructor"
    },
    {
      "anonymous": false,
      "inputs": [
        {
          "indexed": true,
          "internalType": "address",
          "name": "borrower",
          "type": "address"
        },
        {
          "indexed": false,
          "internalType": "uint256",
          "name": "amount",
          "type": "uint256"
        }
      ],
      "name": "BorrowingFeePaid",
      "type": "event"
    },
    {
      "anonymous": false,
      "inputs": [
        {
          "indexed": false,
          "internalType": "contract ITroveManager",
          "name": "troveManager",
          "type": "address"
        },
        {
          "indexed": false,
          "internalType": "contract IERC20",
          "name": "collateralToken",
          "type": "address"
        }
      ],
      "name": "CollateralConfigured",
      "type": "event"
    },
    {
      "anonymous": false,
      "inputs": [
        {
          "indexed": true,
          "internalType": "address",
          "name": "_borrower",
          "type": "address"
        },
        {
          "indexed": false,
          "internalType": "uint256",
          "name": "arrayIndex",
          "type": "uint256"
        }
      ],
      "name": "TroveCreated",
      "type": "event"
    },
    {
      "anonymous": false,
      "inputs": [
        {
          "indexed": false,
          "internalType": "contract ITroveManager",
          "name": "troveManager",
          "type": "address"
        }
      ],
      "name": "TroveManagerRemoved",
      "type": "event"
    },
    {
      "anonymous": false,
      "inputs": [
        {
          "indexed": true,
          "internalType": "address",
          "name": "_borrower",
          "type": "address"
        },
        {
          "indexed": false,
          "internalType": "uint256",
          "name": "_debt",
          "type": "uint256"
        },
        {
          "indexed": false,
          "internalType": "uint256",
          "name": "_coll",
          "type": "uint256"
        },
        {
          "indexed": false,
          "internalType": "uint256",
          "name": "stake",
          "type": "uint256"
        },
        {
          "indexed": false,
          "internalType": "enum IBorrowerOperations.BorrowerOperation",
          "name": "operation",
          "type": "uint8"
        }
      ],
      "name": "TroveUpdated",
      "type": "event"
    },
    {
      "inputs": [],
      "name": "CCR",
      "outputs": [
        {
          "internalType": "uint256",
          "name": "",
          "type": "uint256"
        }
      ],
      "stateMutability": "view",
      "type": "function"
    },
    {
      "inputs": [],
      "name": "DEBT_GAS_COMPENSATION",
      "outputs": [
        {
          "internalType": "uint256",
          "name": "",
          "type": "uint256"
        }
      ],
      "stateMutability": "view",
      "type": "function"
    },
    {
      "inputs": [],
      "name": "DECIMAL_PRECISION",
      "outputs": [
        {
          "internalType": "uint256",
          "name": "",
          "type": "uint256"
        }
      ],
      "stateMutability": "view",
      "type": "function"
    },
    {
      "inputs": [],
      "name": "PERCENT_DIVISOR",
      "outputs": [
        {
          "internalType": "uint256",
          "name": "",
          "type": "uint256"
        }
      ],
      "stateMutability": "view",
      "type": "function"
    },
    {
      "inputs": [],
      "name": "ZebraCore",
      "outputs": [
        {
          "internalType": "contract IZebraCore",
          "name": "",
          "type": "address"
        }
      ],
      "stateMutability": "view",
      "type": "function"
    },
    {
      "inputs": [
        {
          "internalType": "contract ITroveManager",
          "name": "troveManager",
          "type": "address"
        },
        {
          "internalType": "address",
          "name": "account",
          "type": "address"
        },
        {
          "internalType": "uint256",
          "name": "_collateralAmount",
          "type": "uint256"
        },
        {
          "internalType": "address",
          "name": "_upperHint",
          "type": "address"
        },
        {
          "internalType": "address",
          "name": "_lowerHint",
          "type": "address"
        }
      ],
      "name": "addColl",
      "outputs": [],
      "stateMutability": "nonpayable",
      "type": "function"
    },
    {
      "inputs": [
        {
          "internalType": "contract ITroveManager",
          "name": "troveManager",
          "type": "address"
        },
        {
          "internalType": "address",
          "name": "account",
          "type": "address"
        },
        {
          "internalType": "uint256",
          "name": "_maxFeePercentage",
          "type": "uint256"
        },
        {
          "internalType": "uint256",
          "name": "_collDeposit",
          "type": "uint256"
        },
        {
          "internalType": "uint256",
          "name": "_collWithdrawal",
          "type": "uint256"
        },
        {
          "internalType": "uint256",
          "name": "_debtChange",
          "type": "uint256"
        },
        {
          "internalType": "bool",
          "name": "_isDebtIncrease",
          "type": "bool"
        },
        {
          "internalType": "address",
          "name": "_upperHint",
          "type": "address"
        },
        {
          "internalType": "address",
          "name": "_lowerHint",
          "type": "address"
        }
      ],
      "name": "adjustTrove",
      "outputs": [],
      "stateMutability": "nonpayable",
      "type": "function"
    },
    {
      "inputs": [
        {
          "internalType": "uint256",
          "name": "TCR",
          "type": "uint256"
        }
      ],
      "name": "checkRecoveryMode",
      "outputs": [
        {
          "internalType": "bool",
          "name": "",
          "type": "bool"
        }
      ],
      "stateMutability": "pure",
      "type": "function"
    },
    {
      "inputs": [
        {
          "internalType": "contract ITroveManager",
          "name": "troveManager",
          "type": "address"
        },
        {
          "internalType": "address",
          "name": "account",
          "type": "address"
        }
      ],
      "name": "closeTrove",
      "outputs": [],
      "stateMutability": "nonpayable",
      "type": "function"
    },
    {
      "inputs": [
        {
          "internalType": "contract ITroveManager",
          "name": "troveManager",
          "type": "address"
        },
        {
          "internalType": "contract IERC20",
          "name": "collateralToken",
          "type": "address"
        }
      ],
      "name": "configureCollateral",
      "outputs": [],
      "stateMutability": "nonpayable",
      "type": "function"
    },
    {
      "inputs": [],
      "name": "factory",
      "outputs": [
        {
          "internalType": "address",
          "name": "",
          "type": "address"
        }
      ],
      "stateMutability": "view",
      "type": "function"
    },
    {
      "inputs": [],
      "name": "fetchBalances",
      "outputs": [
        {
          "components": [
            {
              "internalType": "uint256[]",
              "name": "collaterals",
              "type": "uint256[]"
            },
            {
              "internalType": "uint256[]",
              "name": "debts",
              "type": "uint256[]"
            },
            {
              "internalType": "uint256[]",
              "name": "prices",
              "type": "uint256[]"
            }
          ],
          "internalType": "struct IBorrowerOperations.SystemBalances",
          "name": "balances",
          "type": "tuple"
        }
      ],
      "stateMutability": "nonpayable",
      "type": "function"
    },
    {
      "inputs": [
        {
          "internalType": "uint256",
          "name": "_debt",
          "type": "uint256"
        }
      ],
      "name": "getCompositeDebt",
      "outputs": [
        {
          "internalType": "uint256",
          "name": "",
          "type": "uint256"
        }
      ],
      "stateMutability": "view",
      "type": "function"
    },
    {
      "inputs": [],
      "name": "getGlobalSystemBalances",
      "outputs": [
        {
          "internalType": "uint256",
          "name": "totalPricedCollateral",
          "type": "uint256"
        },
        {
          "internalType": "uint256",
          "name": "totalDebt",
          "type": "uint256"
        }
      ],
      "stateMutability": "nonpayable",
      "type": "function"
    },
    {
      "inputs": [],
      "name": "getTCR",
      "outputs": [
        {
          "internalType": "uint256",
          "name": "globalTotalCollateralRatio",
          "type": "uint256"
        }
      ],
      "stateMutability": "nonpayable",
      "type": "function"
    },
    {
      "inputs": [],
      "name": "guardian",
      "outputs": [
        {
          "internalType": "address",
          "name": "",
          "type": "address"
        }
      ],
      "stateMutability": "view",
      "type": "function"
    },
    {
      "inputs": [
        {
          "internalType": "address",
          "name": "",
          "type": "address"
        },
        {
          "internalType": "address",
          "name": "",
          "type": "address"
        }
      ],
      "name": "isApprovedDelegate",
      "outputs": [
        {
          "internalType": "bool",
          "name": "",
          "type": "bool"
        }
      ],
      "stateMutability": "view",
      "type": "function"
    },
    {
      "inputs": [],
      "name": "minNetDebt",
      "outputs": [
        {
          "internalType": "uint256",
          "name": "",
          "type": "uint256"
        }
      ],
      "stateMutability": "view",
      "type": "function"
    },
    {
      "inputs": [
        {
          "internalType": "contract ITroveManager",
          "name": "troveManager",
          "type": "address"
        },
        {
          "internalType": "address",
          "name": "account",
          "type": "address"
        },
        {
          "internalType": "uint256",
          "name": "_maxFeePercentage",
          "type": "uint256"
        },
        {
          "internalType": "uint256",
          "name": "_collateralAmount",
          "type": "uint256"
        },
        {
          "internalType": "uint256",
          "name": "_debtAmount",
          "type": "uint256"
        },
        {
          "internalType": "address",
          "name": "_upperHint",
          "type": "address"
        },
        {
          "internalType": "address",
          "name": "_lowerHint",
          "type": "address"
        }
      ],
      "name": "openTrove",
      "outputs": [],
      "stateMutability": "nonpayable",
      "type": "function"
    },
    {
      "inputs": [],
      "name": "owner",
      "outputs": [
        {
          "internalType": "address",
          "name": "",
          "type": "address"
        }
      ],
      "stateMutability": "view",
      "type": "function"
    },
    {
      "inputs": [
        {
          "internalType": "contract ITroveManager",
          "name": "troveManager",
          "type": "address"
        }
      ],
      "name": "removeTroveManager",
      "outputs": [],
      "stateMutability": "nonpayable",
      "type": "function"
    },
    {
      "inputs": [
        {
          "internalType": "contract ITroveManager",
          "name": "troveManager",
          "type": "address"
        },
        {
          "internalType": "address",
          "name": "account",
          "type": "address"
        },
        {
          "internalType": "uint256",
          "name": "_debtAmount",
          "type": "uint256"
        },
        {
          "internalType": "address",
          "name": "_upperHint",
          "type": "address"
        },
        {
          "internalType": "address",
          "name": "_lowerHint",
          "type": "address"
        }
      ],
      "name": "repayDebt",
      "outputs": [],
      "stateMutability": "nonpayable",
      "type": "function"
    },
    {
      "inputs": [
        {
          "internalType": "address",
          "name": "_delegate",
          "type": "address"
        },
        {
          "internalType": "bool",
          "name": "_isApproved",
          "type": "bool"
        }
      ],
      "name": "setDelegateApproval",
      "outputs": [],
      "stateMutability": "nonpayable",
      "type": "function"
    },
    {
      "inputs": [
        {
          "internalType": "uint256",
          "name": "_minNetDebt",
          "type": "uint256"
        }
      ],
      "name": "setMinNetDebt",
      "outputs": [],
      "stateMutability": "nonpayable",
      "type": "function"
    },
    {
      "inputs": [
        {
          "internalType": "contract ITroveManager",
          "name": "",
          "type": "address"
        }
      ],
      "name": "troveManagersData",
      "outputs": [
        {
          "internalType": "contract IERC20",
          "name": "collateralToken",
          "type": "address"
        },
        {
          "internalType": "uint16",
          "name": "index",
          "type": "uint16"
        }
      ],
      "stateMutability": "view",
      "type": "function"
    },
    {
      "inputs": [
        {
          "internalType": "contract ITroveManager",
          "name": "troveManager",
          "type": "address"
        },
        {
          "internalType": "address",
          "name": "account",
          "type": "address"
        },
        {
          "internalType": "uint256",
          "name": "_collWithdrawal",
          "type": "uint256"
        },
        {
          "internalType": "address",
          "name": "_upperHint",
          "type": "address"
        },
        {
          "internalType": "address",
          "name": "_lowerHint",
          "type": "address"
        }
      ],
      "name": "withdrawColl",
      "outputs": [],
      "stateMutability": "nonpayable",
      "type": "function"
    },
    {
      "inputs": [
        {
          "internalType": "contract ITroveManager",
          "name": "troveManager",
          "type": "address"
        },
        {
          "internalType": "address",
          "name": "account",
          "type": "address"
        },
        {
          "internalType": "uint256",
          "name": "_maxFeePercentage",
          "type": "uint256"
        },
        {
          "internalType": "uint256",
          "name": "_debtAmount",
          "type": "uint256"
        },
        {
          "internalType": "address",
          "name": "_upperHint",
          "type": "address"
        },
        {
          "internalType": "address",
          "name": "_lowerHint",
          "type": "address"
        }
      ],
      "name": "withdrawDebt",
      "outputs": [],
      "stateMutability": "nonpayable",
      "type": "function"
    },
    {
      "inputs": [],
      "name": "zebraUSD",
      "outputs": [
        {
          "internalType": "contract IZebraUSD",
          "name": "",
          "type": "address"
        }
      ],
      "stateMutability": "view",
      "type": "function"
    }
  ],
  "transactionHash": "0xb9e7852fe126e149468611f6294b9a0504353b01be046abc0c0b540a7098001a",
  "args": [
    "0x568237585b8a3edFF837ef9Ab10cCF08C383C884",
    "0x1C50056fA244aa865e3A9d154e6Fb3384482193E",
    "0x07a4e9b623c3b3238624c11cfa47fc0327abb6ac",
    "10000000000000000000",
    "2000000000000000000"
  ],
  "numDeployments": 1,
  "solcInputHash": "c41234f88a5bb193a835d74ff95ecae3",
  "bytecode": "0x6101006040523480156200001257600080fd5b5060405162003892380380620038928339810160408190526200003591620000dc565b60808190526001600160a01b0380861660a05284811660c052831660e0526200005e8262000069565b505050505062000141565b60008111620000be5760405162461bcd60e51b815260206004820152601460248201527f696e76616c6964206d696e206e65742064656274000000000000000000000000604482015260640160405180910390fd5b600155565b6001600160a01b0381168114620000d957600080fd5b50565b600080600080600060a08688031215620000f557600080fd5b85516200010281620000c3565b60208701519095506200011581620000c3565b60408701519094506200012881620000c3565b6060870151608090970151959894975095949392505050565b60805160a05160c05160e0516136b5620001dd6000396000818161049101526110310152600081816103a3015281816109ab01528181610f1e0152611f6e0152600081816102230152818161057801528181610af6015281816111a2015281816116130152818161179501528181611c990152611f9d01526000818161029301528181610f49015281816121620152612e6401526136b56000f3fe608060405234801561001057600080fd5b50600436106101c45760003560e01c80638da5cb5b116100f9578063b620115d11610097578063c45a015511610071578063c45a01551461048c578063c5a62a99146104b3578063e19c80c2146104c6578063fded3d35146104d957600080fd5b8063b620115d1461040f578063c2af1eca14610417578063c3c854b61461042a57600080fd5b8063a20baee6116100d3578063a20baee6146103c5578063a2e8dc0a146103d4578063a6b6c8ee146103e7578063b51237a9146103fa57600080fd5b80638da5cb5b1461038d578063969c2452146103955780639b0e384e1461039e57600080fd5b80634e443d9e116101665780635733d58f116101405780635733d58f1461033b5780635f5486141461034a578063716c53c21461035d578063778c5c641461037a57600080fd5b80634e443d9e146102b55780634ff81443146102d0578063568d6fe5146102e357600080fd5b8063438d641a116101a2578063438d641a1461025d578063452a9320146102705780634870dd9a146102785780634ba4a28b1461028e57600080fd5b806311c61ad3146101c95780631930e825146101de5780632fbea0141461021e575b600080fd5b6101dc6101d736600461313a565b6104ec565b005b6102096101ec3660046131b5565b600060208181529281526040808220909352908152205460ff1681565b60405190151581526020015b60405180910390f35b6102457f000000000000000000000000000000000000000000000000000000000000000081565b6040516001600160a01b039091168152602001610215565b6101dc61026b3660046131ee565b610a7e565b610245610af2565b61028060c881565b604051908152602001610215565b6102807f000000000000000000000000000000000000000000000000000000000000000081565b6102096102c33660046131ee565b671bc16d674ec800001190565b6102806102de3660046131ee565b610b7b565b6103196102f1366004613207565b6002602052600090815260409020546001600160a01b03811690600160a01b900461ffff1682565b604080516001600160a01b03909316835261ffff909116602083015201610215565b610280671bc16d674ec8000081565b6101dc6103583660046131b5565b610b8c565b610365611003565b60408051928352602083019190915201610215565b6101dc6103883660046131b5565b611026565b61024561119e565b61028060015481565b6102457f000000000000000000000000000000000000000000000000000000000000000081565b610280670de0b6b3a764000081565b6101dc6103e2366004613224565b6111fe565b6101dc6103f5366004613224565b61129f565b610402611337565b60405161021591906132c7565b61028061156d565b6101dc610425366004613328565b61158c565b6101dc6104383660046133a6565b336000908152602081815260408083206001600160a01b039590951683529390529190912080547fffffffffffffffffffffffffffffffffffffffffffffffffffffffffffffff0016911515919091179055565b6102457f000000000000000000000000000000000000000000000000000000000000000081565b6101dc6104c13660046133d4565b6116fc565b6101dc6104d4366004613207565b6118fd565b6101dc6104e7366004613224565b611c12565b85336001600160a01b038216148061052557506001600160a01b03811660009081526020818152604080832033845290915290205460ff165b6105765760405162461bcd60e51b815260206004820152601560248201527f44656c6567617465206e6f7420617070726f766564000000000000000000000060448201526064015b60405180910390fd5b7f00000000000000000000000000000000000000000000000000000000000000006001600160a01b0316635c975abb6040518163ffffffff1660e01b8152600401602060405180830381865afa1580156105d4573d6000803e3d6000fd5b505050506040513d601f19601f820116820180604052508101906105f8919061346c565b156106455760405162461bcd60e51b815260206004820152601360248201527f4465706f73697473206172652070617573656400000000000000000000000000604482015260640161056d565b876001600160a01b0316631e8979016040518163ffffffff1660e01b81526004016020604051808303816000875af1158015610685573d6000803e3d6000fd5b505050506040513d601f19601f820116820180604052508101906106a99190613489565b5060006106fb6040518061012001604052806000815260200160008152602001600081526020016000815260200160008152602001600081526020016000815260200160008152602001600081525090565b60006107068b611d7a565b60408701919091526020860191909152908452909350905061072789611e58565b60608201879052806107545761073f8b8b8b8a611ed6565b826060015161074e91906134b8565b60608301525b61076182606001516120e3565b61076e826060015161215b565b608083018190528251610782918a91612187565b60a083015260808201516107979089906121bb565b60c083015280156107b4576107af8260a001516121f2565b61085d565b6108238260a001518c6001600160a01b031663794e57246040518163ffffffff1660e01b8152600401602060405180830381865afa1580156107fa573d6000803e3d6000fd5b505050506040513d601f19601f8201168201806040525081019061081e9190613489565b612270565b60006108508360200151846040015185600001518c61084291906134cb565b600187608001516001612310565b905061085b8161236a565b505b608082015160c08301516040517f7da0b1fa0000000000000000000000000000000000000000000000000000000081526001600160a01b038d81166004830152602482018c905260448201939093526064810191909152878216608482015286821660a4820152908c1690637da0b1fa9060c40160408051808303816000875af11580156108ef573d6000803e3d6000fd5b505050506040513d601f19601f8201168201806040525081019061091391906134e2565b610100840181905260e08401919091526040519081526001600160a01b038b16907f59cfd0cd754bc5748b6770e94a4ffa5f678d885cb899dcfadc5734edb97c67ab9060200160405180910390a26109766001600160a01b038416338d8b61240e565b6040517f8cff5fbe000000000000000000000000000000000000000000000000000000008152336004820152602481018890527f00000000000000000000000000000000000000000000000000000000000000006001600160a01b031690638cff5fbe906044016020604051808303816000875af11580156109fc573d6000803e3d6000fd5b505050506040513d601f19601f82011682018060405250810190610a20919061346c565b50896001600160a01b03167fc3770d654ed33aeea6bf11ac8ef05d02a6a04ed4686dd2f624d853bbec43cc8b83608001518a8560e001516000604051610a699493929190613528565b60405180910390a25050505050505050505050565b610a8661119e565b6001600160a01b0316336001600160a01b031614610ae65760405162461bcd60e51b815260206004820152600a60248201527f4f6e6c79206f776e657200000000000000000000000000000000000000000000604482015260640161056d565b610aef8161249c565b50565b60007f00000000000000000000000000000000000000000000000000000000000000006001600160a01b031663452a93206040518163ffffffff1660e01b8152600401602060405180830381865afa158015610b52573d6000803e3d6000fd5b505050506040513d601f19601f82011682018060405250810190610b76919061354a565b905090565b6000610b868261215b565b92915050565b80336001600160a01b0382161480610bc557506001600160a01b03811660009081526020818152604080832033845290915290205460ff165b610c115760405162461bcd60e51b815260206004820152601560248201527f44656c6567617465206e6f7420617070726f7665640000000000000000000000604482015260640161056d565b6000806000806000610c2288611d7a565b93985091965091945090925090508215610ca45760405162461bcd60e51b815260206004820152603960248201527f426f72726f7765724f70733a204f7065726174696f6e206e6f74207065726d6960448201527f7474656420647572696e67205265636f76657279204d6f646500000000000000606482015260840161056d565b876001600160a01b0316631e8979016040518163ffffffff1660e01b81526004016020604051808303816000875af1158015610ce4573d6000803e3d6000fd5b505050506040513d601f19601f82011682018060405250810190610d089190613489565b506040517f0b0765570000000000000000000000000000000000000000000000000000000081526001600160a01b03888116600483015260009182918b1690630b0765579060240160408051808303816000875af1158015610d6e573d6000803e3d6000fd5b505050506040513d601f19601f82011682018060405250810190610d9291906134e2565b6040517ff962fa3b0000000000000000000000000000000000000000000000000000000081523360048201526001600160a01b038c8116602483015260448201839052929450909250908b169063f962fa3b90606401600060405180830381600087803b158015610e0257600080fd5b505af1158015610e16573d6000803e3d6000fd5b505050506000610e3785858986610e2d91906134cb565b6000866000612310565b9050610e428161236a565b6040517fc9a4cbf10000000000000000000000000000000000000000000000000000000081526001600160a01b038b8116600483015233602483015260448201859052606482018490528c169063c9a4cbf190608401600060405180830381600087803b158015610eb257600080fd5b505af1158015610ec6573d6000803e3d6000fd5b50505050896001600160a01b03167fc3770d654ed33aeea6bf11ac8ef05d02a6a04ed4686dd2f624d853bbec43cc8b60008060006001604051610f0c9493929190613528565b60405180910390a26001600160a01b037f000000000000000000000000000000000000000000000000000000000000000016638517750933610f6e7f000000000000000000000000000000000000000000000000000000000000000086613567565b6040517fffffffff0000000000000000000000000000000000000000000000000000000060e085901b1681526001600160a01b03909216600483015260248201526044016020604051808303816000875af1158015610fd1573d6000803e3d6000fd5b505050506040513d601f19601f82011682018060405250810190610ff5919061346c565b505050505050505050505050565b6000806000611010611337565b905061101b816124f1565b909590945092505050565b336001600160a01b037f0000000000000000000000000000000000000000000000000000000000000000161461109e5760405162461bcd60e51b815260206004820152600860248201527f21666163746f7279000000000000000000000000000000000000000000000000604482015260640161056d565b6040805180820182526001600160a01b038381168083526003805461ffff9081166020808701918252898616600081815260028352898120985189549451909516600160a01b027fffffffffffffffffffff000000000000000000000000000000000000000000009094169490971693909317919091179095558154600181018355919093527fc2575a0e9e593c00f959f8c92f12db2869c3395a3b0502d05e2516446f71f85b01805473ffffffffffffffffffffffffffffffffffffffff1916831790558351918252918101919091527ff6e0528dc0c0ef50525339faff44940d57e7897bee18b67dd0aa23bba1749ad2910160405180910390a15050565b60007f00000000000000000000000000000000000000000000000000000000000000006001600160a01b0316638da5cb5b6040518163ffffffff1660e01b8152600401602060405180830381865afa158015610b52573d6000803e3d6000fd5b83336001600160a01b038216148061123757506001600160a01b03811660009081526020818152604080832033845290915290205460ff165b6112835760405162461bcd60e51b815260206004820152601560248201527f44656c6567617465206e6f7420617070726f7665640000000000000000000000604482015260640161056d565b611297868660008060008960008a8a61259f565b505050505050565b83336001600160a01b03821614806112d857506001600160a01b03811660009081526020818152604080832033845290915290205460ff165b6113245760405162461bcd60e51b815260206004820152601560248201527f44656c6567617465206e6f7420617070726f7665640000000000000000000000604482015260640161056d565b6112978686600080886000808a8a61259f565b61135b60405180606001604052806060815260200160608152602001606081525090565b6003546040805160608101909152808267ffffffffffffffff8111156113835761138361357a565b6040519080825280602002602001820160405280156113ac578160200160208202803683370190505b5081526020018267ffffffffffffffff8111156113cb576113cb61357a565b6040519080825280602002602001820160405280156113f4578160200160208202803683370190505b5081526020018267ffffffffffffffff8111156114135761141361357a565b60405190808252806020026020018201604052801561143c578160200160208202803683370190505b509052915060005b818110156115685760006003828154811061146157611461613590565b9060005260206000200160009054906101000a90046001600160a01b031690506000806000836001600160a01b03166301c799fc6040518163ffffffff1660e01b81526004016060604051808303816000875af11580156114c6573d6000803e3d6000fd5b505050506040513d601f19601f820116820180604052508101906114ea91906135a6565b925092509250828760000151868151811061150757611507613590565b602002602001018181525050818760200151868151811061152a5761152a613590565b602002602001018181525050808760400151868151811061154d5761154d613590565b60200260200101818152505084600101945050505050611444565b505090565b600080611578611337565b9050611583816124f1565b50909392505050565b84336001600160a01b03821614806115c557506001600160a01b03811660009081526020818152604080832033845290915290205460ff165b6116115760405162461bcd60e51b815260206004820152601560248201527f44656c6567617465206e6f7420617070726f7665640000000000000000000000604482015260640161056d565b7f00000000000000000000000000000000000000000000000000000000000000006001600160a01b0316635c975abb6040518163ffffffff1660e01b8152600401602060405180830381865afa15801561166f573d6000803e3d6000fd5b505050506040513d601f19601f82011682018060405250810190611693919061346c565b156116e05760405162461bcd60e51b815260206004820152601660248201527f5769746864726177616c73206172652070617573656400000000000000000000604482015260640161056d565b6116f38787876000808960018a8a61259f565b50505050505050565b87336001600160a01b038216148061173557506001600160a01b03811660009081526020818152604080832033845290915290205460ff165b6117815760405162461bcd60e51b815260206004820152601560248201527f44656c6567617465206e6f7420617070726f7665640000000000000000000000604482015260640161056d565b8615801561178d575083155b8061181757507f00000000000000000000000000000000000000000000000000000000000000006001600160a01b0316635c975abb6040518163ffffffff1660e01b8152600401602060405180830381865afa1580156117f1573d6000803e3d6000fd5b505050506040513d601f19601f82011682018060405250810190611815919061346c565b155b6118635760405162461bcd60e51b815260206004820152601c60248201527f54726f76652061646a7573746d656e7473206172652070617573656400000000604482015260640161056d565b86158061186e575085155b6118e05760405162461bcd60e51b815260206004820152603060248201527f426f72726f7765724f7065726174696f6e733a2043616e6e6f7420776974686460448201527f72617720616e642061646420636f6c6c00000000000000000000000000000000606482015260840161056d565b6118f18a8a8a8a8a8a8a8a8a61259f565b50505050505050505050565b6001600160a01b03818116600090815260026020908152604091829020825180840190935254928316808352600160a01b90930461ffff169082015290158015906119a55750816001600160a01b0316639484fb8e6040518163ffffffff1660e01b8152600401602060405180830381865afa158015611981573d6000803e3d6000fd5b505050506040513d601f19601f820116820180604052508101906119a5919061346c565b8015611a105750816001600160a01b031663795d26c36040518163ffffffff1660e01b8152600401602060405180830381865afa1580156119ea573d6000803e3d6000fd5b505050506040513d601f19601f82011682018060405250810190611a0e9190613489565b155b611a5c5760405162461bcd60e51b815260206004820152601f60248201527f54726f7665204d616e616765722063616e6e6f742062652072656d6f76656400604482015260640161056d565b6001600160a01b038216600090815260026020526040812080547fffffffffffffffffffff00000000000000000000000000000000000000000000169055600354611aa990600190613567565b905080826020015161ffff161015611b8e57600060038281548110611ad057611ad0613590565b9060005260206000200160009054906101000a90046001600160a01b03169050806003846020015161ffff1681548110611b0c57611b0c613590565b6000918252602080832090910180546001600160a01b0394851673ffffffffffffffffffffffffffffffffffffffff1990911617905585810151939092168152600290915260409020805461ffff909216600160a01b027fffffffffffffffffffff0000ffffffffffffffffffffffffffffffffffffffff9092169190911790555b6003805480611b9f57611b9f6135d4565b60008281526020908190206000199083018101805473ffffffffffffffffffffffffffffffffffffffff191690559091019091556040516001600160a01b03851681527fe44bbef3bc872937d7daf489db0badffc044d1813a027aea391838c546514303910160405180910390a1505050565b83336001600160a01b0382161480611c4b57506001600160a01b03811660009081526020818152604080832033845290915290205460ff165b611c975760405162461bcd60e51b815260206004820152601560248201527f44656c6567617465206e6f7420617070726f7665640000000000000000000000604482015260640161056d565b7f00000000000000000000000000000000000000000000000000000000000000006001600160a01b0316635c975abb6040518163ffffffff1660e01b8152600401602060405180830381865afa158015611cf5573d6000803e3d6000fd5b505050506040513d601f19601f82011682018060405250810190611d19919061346c565b15611d665760405162461bcd60e51b815260206004820152601c60248201527f54726f76652061646a7573746d656e7473206172652070617573656400000000604482015260640161056d565b611297868660008760008060008a8a61259f565b6001600160a01b03818116600090815260026020526040812080549283169282918291829190600160a01b900461ffff1686611df85760405162461bcd60e51b815260206004820152601660248201527f436f6c6c61746572616c206e6f7420656e61626c656400000000000000000000604482015260640161056d565b600080611e03611337565b9050611e0e816124f1565b90985096509150611e2682671bc16d674ec800001190565b94508881604001518481518110611e3f57611e3f613590565b6020026020010151985098505050505091939590929450565b670de0b6b3a7640000811115610aef5760405162461bcd60e51b815260206004820152603260248201527f4d6178206665652070657263656e74616765206d757374206c6573732074686160448201527f6e206f7220657175616c20746f20313030250000000000000000000000000000606482015260840161056d565b6040517fb2f29d7b0000000000000000000000000000000000000000000000000000000081526004810182905260009081906001600160a01b0387169063b2f29d7b906024016020604051808303816000875af1158015611f3b573d6000803e3d6000fd5b505050506040513d601f19601f82011682018060405250810190611f5f9190613489565b9050611f6c818486612b94565b7f00000000000000000000000000000000000000000000000000000000000000006001600160a01b03166340c10f197f00000000000000000000000000000000000000000000000000000000000000006001600160a01b031663b3f006746040518163ffffffff1660e01b8152600401602060405180830381865afa158015611ff9573d6000803e3d6000fd5b505050506040513d601f19601f8201168201806040525081019061201d919061354a565b6040517fffffffff0000000000000000000000000000000000000000000000000000000060e084901b1681526001600160a01b03909116600482015260248101849052604401600060405180830381600087803b15801561207d57600080fd5b505af1158015612091573d6000803e3d6000fd5b50505050846001600160a01b03167f5d032cf8244d18503d44f7171954f352ff41fa2df69660eb897f4db36efe808e826040516120d091815260200190565b60405180910390a290505b949350505050565b600154811015610aef5760405162461bcd60e51b815260206004820152603a60248201527f426f72726f7765724f70733a2054726f76652773206e65742064656274206d7560448201527f73742062652067726561746572207468616e206d696e696d756d000000000000606482015260840161056d565b6000610b867f0000000000000000000000000000000000000000000000000000000000000000836134b8565b600082156121af5760008361219c84876134cb565b6121a691906135ea565b91506121b49050565b506000195b9392505050565b600081156121e857816121d768056bc75e2d63100000856134cb565b6121e191906135ea565b9050610b86565b5060001992915050565b671bc16d674ec80000811015610aef5760405162461bcd60e51b815260206004820152603760248201527f426f72726f7765724f70733a204f7065726174696f6e206d757374206c65617660448201527f652074726f7665207769746820494352203e3d20434352000000000000000000606482015260840161056d565b8082101561230c5760405162461bcd60e51b815260206004820152604960248201527f426f72726f7765724f70733a20416e206f7065726174696f6e2074686174207760448201527f6f756c6420726573756c7420696e20494352203c204d4352206973206e6f742060648201527f7065726d69747465640000000000000000000000000000000000000000000000608482015260a40161056d565b5050565b600081612326576123218387613567565b612330565b61233083876134b8565b955083612346576123418588613567565b612350565b61235085886134b8565b9650600061235e8888612c05565b98975050505050505050565b671bc16d674ec80000811015610aef5760405162461bcd60e51b815260206004820152604960248201527f426f72726f7765724f70733a20416e206f7065726174696f6e2074686174207760448201527f6f756c6420726573756c7420696e20544352203c20434352206973206e6f742060648201527f7065726d69747465640000000000000000000000000000000000000000000000608482015260a40161056d565b604080516001600160a01b0385811660248301528416604482015260648082018490528251808303909101815260849091019091526020810180517bffffffffffffffffffffffffffffffffffffffffffffffffffffffff167f23b872dd00000000000000000000000000000000000000000000000000000000179052612496908590612c22565b50505050565b600081116124ec5760405162461bcd60e51b815260206004820152601460248201527f696e76616c6964206d696e206e65742064656274000000000000000000000000604482015260640161056d565b600155565b80515160009081908190815b8181101561258a578560400151818151811061251b5761251b613590565b60200260200101518660000151828151811061253957612539613590565b602002602001015161254b91906134cb565b61255590856134b8565b93508560200151818151811061256d5761256d613590565b60200260200101518361258091906134b8565b92506001016124fd565b506125958383612c05565b9350509193909250565b851515806125ac57508415155b806125b657508315155b61264e5760405162461bcd60e51b815260206004820152604660248201527f426f72726f7765724f70733a205468657265206d75737420626520656974686560448201527f72206120636f6c6c61746572616c206368616e6765206f72206120646562742060648201527f6368616e67650000000000000000000000000000000000000000000000000000608482015260a40161056d565b886001600160a01b0316631e8979016040518163ffffffff1660e01b81526004016020604051808303816000875af115801561268e573d6000803e3d6000fd5b505050506040513d601f19601f820116820180604052508101906126b29190613489565b506000612732604051806101c00160405280600081526020016000815260200160008152602001600081526020016000815260200160001515815260200160008152602001600081526020016000815260200160008152602001600081526020016000815260200160006001600160a01b03168152602001600081525090565b600061273d8c611d7a565b604087810192909252602087019290925291855290517f0b0765570000000000000000000000000000000000000000000000000000000081526001600160a01b038e81166004830152929550909250908d1690630b0765579060240160408051808303816000875af11580156127b7573d6000803e3d6000fd5b505050506040513d601f19601f820116820180604052508101906127db91906134e2565b60c0840181905260e08401919091526040517ff962fa3b0000000000000000000000000000000000000000000000000000000081523360048201526001600160a01b038d811660248301526044820192909252908d169063f962fa3b90606401600060405180830381600087803b15801561285557600080fd5b505af1158015612869573d6000803e3d6000fd5b505050506128778989612d0f565b151560a084015260608301526080820187905261016082018790526001600160a01b03808c16610180840152604080517f794e57240000000000000000000000000000000000000000000000000000000081529051918e169163794e5724916004808201926020929091908290030181865afa1580156128fb573d6000803e3d6000fd5b505050506040513d601f19601f8201168201806040525081019061291f9190613489565b6101a083015285156129d057600087116129a15760405162461bcd60e51b815260206004820152603760248201527f426f72726f7765724f70733a204465627420696e63726561736520726571756960448201527f726573206e6f6e2d7a65726f20646562744368616e6765000000000000000000606482015260840161056d565b6129aa8a611e58565b806129d0576129bb8c338c8a611ed6565b826080018181516129cc91906134b8565b9052505b6129e682602001518360400151838b8a87612d2e565b851580156129f45750600087115b15612a1d57612a1d8260800151612a0e8460c00151612e5d565b612a189190613567565b6120e3565b8160a0015115612a44576060820151612a44906001600160a01b0385169033908f9061240e565b610160820151608083015160a084015160608501516101808601516040517ff158c8090000000000000000000000000000000000000000000000000000000081528b1515600482015260248101959095526044850193909352901515606484015260848301526001600160a01b0387811660a484015286811660c484015290811660e4830152336101048301528d169063f158c80990610124016060604051808303816000875af1158015612afd573d6000803e3d6000fd5b505050506040513d601f19601f82011682018060405250810190612b2191906135a6565b6101408501819052610100850182905261012085018390526101808501516040516001600160a01b03909116937fc3770d654ed33aeea6bf11ac8ef05d02a6a04ed4686dd2f624d853bbec43cc8b93612b7e939092600290613528565b60405180910390a2505050505050505050505050565b600082612ba9670de0b6b3a7640000866134cb565b612bb391906135ea565b9050818111156124965760405162461bcd60e51b815260206004820152601d60248201527f4665652065786365656465642070726f7669646564206d6178696d756d000000604482015260640161056d565b600081156121e8576000612c1983856135ea565b9150610b869050565b6000612c77826040518060400160405280602081526020017f5361666545524332303a206c6f772d6c6576656c2063616c6c206661696c6564815250856001600160a01b0316612e899092919063ffffffff16565b9050805160001480612c98575080806020019051810190612c98919061346c565b612d0a5760405162461bcd60e51b815260206004820152602a60248201527f5361666545524332303a204552433230206f7065726174696f6e20646964206e60448201527f6f74207375636365656400000000000000000000000000000000000000000000606482015260840161056d565b505050565b6000808315612d2357508290506001612d27565b8291505b9250929050565b6000612d478260e001518360c001518460000151612187565b90506000612d728360e001518460c0015185606001518660a001518760800151898960000151612e98565b90508515612e0c578415612dee5760405162461bcd60e51b815260206004820152603e60248201527f426f72726f7765724f70733a20436f6c6c61746572616c20776974686472617760448201527f616c206e6f74207065726d6974746564205265636f76657279204d6f64650000606482015260840161056d565b8315612e0757612dfd816121f2565b612e078183612ecb565b612e53565b612e1b81846101a00151612270565b6000612e46898986600001518760600151612e3691906134cb565b8760a0015188608001518a612310565b9050612e518161236a565b505b5050505050505050565b6000610b867f000000000000000000000000000000000000000000000000000000000000000083613567565b60606120db8484600085612f41565b6000806000612eab8a8a8a8a8a8a613033565b915091506000612ebc838387612187565b9b9a5050505050505050505050565b8082101561230c5760405162461bcd60e51b815260206004820152603e60248201527f426f72726f7765724f70733a2043616e6e6f7420646563726561736520796f7560448201527f722054726f766527732049435220696e205265636f76657279204d6f64650000606482015260840161056d565b606082471015612fb95760405162461bcd60e51b815260206004820152602660248201527f416464726573733a20696e73756666696369656e742062616c616e636520666f60448201527f722063616c6c0000000000000000000000000000000000000000000000000000606482015260840161056d565b600080866001600160a01b03168587604051612fd59190613630565b60006040518083038185875af1925050503d8060008114613012576040519150601f19603f3d011682016040523d82523d6000602084013e613017565b606091505b509150915061302887838387613087565b979650505050505050565b60008087878661304c57613047888b613567565b613056565b613056888b6134b8565b91508461306c57613067868a613567565b613076565b613076868a6134b8565b919a91995090975050505050505050565b606083156130f65782516000036130ef576001600160a01b0385163b6130ef5760405162461bcd60e51b815260206004820152601d60248201527f416464726573733a2063616c6c20746f206e6f6e2d636f6e7472616374000000604482015260640161056d565b50816120db565b6120db838381511561310b5781518083602001fd5b8060405162461bcd60e51b815260040161056d919061364c565b6001600160a01b0381168114610aef57600080fd5b600080600080600080600060e0888a03121561315557600080fd5b873561316081613125565b9650602088013561317081613125565b955060408801359450606088013593506080880135925060a088013561319581613125565b915060c08801356131a581613125565b8091505092959891949750929550565b600080604083850312156131c857600080fd5b82356131d381613125565b915060208301356131e381613125565b809150509250929050565b60006020828403121561320057600080fd5b5035919050565b60006020828403121561321957600080fd5b81356121b481613125565b600080600080600060a0868803121561323c57600080fd5b853561324781613125565b9450602086013561325781613125565b935060408601359250606086013561326e81613125565b9150608086013561327e81613125565b809150509295509295909350565b600081518084526020808501945080840160005b838110156132bc578151875295820195908201906001016132a0565b509495945050505050565b6020815260008251606060208401526132e3608084018261328c565b90506020840151601f1980858403016040860152613301838361328c565b925060408601519150808584030160608601525061331f828261328c565b95945050505050565b60008060008060008060c0878903121561334157600080fd5b863561334c81613125565b9550602087013561335c81613125565b94506040870135935060608701359250608087013561337a81613125565b915060a087013561338a81613125565b809150509295509295509295565b8015158114610aef57600080fd5b600080604083850312156133b957600080fd5b82356133c481613125565b915060208301356131e381613398565b60008060008060008060008060006101208a8c0312156133f357600080fd5b89356133fe81613125565b985060208a013561340e81613125565b975060408a0135965060608a0135955060808a0135945060a08a0135935060c08a013561343a81613398565b925060e08a013561344a81613125565b91506101008a013561345b81613125565b809150509295985092959850929598565b60006020828403121561347e57600080fd5b81516121b481613398565b60006020828403121561349b57600080fd5b5051919050565b634e487b7160e01b600052601160045260246000fd5b80820180821115610b8657610b866134a2565b8082028115828204841417610b8657610b866134a2565b600080604083850312156134f557600080fd5b505080516020909101519092909150565b6003811061352457634e487b7160e01b600052602160045260246000fd5b9052565b84815260208101849052604081018390526080810161331f6060830184613506565b60006020828403121561355c57600080fd5b81516121b481613125565b81810381811115610b8657610b866134a2565b634e487b7160e01b600052604160045260246000fd5b634e487b7160e01b600052603260045260246000fd5b6000806000606084860312156135bb57600080fd5b8351925060208401519150604084015190509250925092565b634e487b7160e01b600052603160045260246000fd5b60008261360757634e487b7160e01b600052601260045260246000fd5b500490565b60005b8381101561362757818101518382015260200161360f565b50506000910152565b6000825161364281846020870161360c565b9190910192915050565b602081526000825180602084015261366b81604085016020870161360c565b601f01601f1916919091016040019291505056fea26469706673582212201fb4db5173433caf3fced2c1a66ba86c2820a562c5d9c7bd29d29156ef46b13764736f6c63430008130033",
  "devdoc": {
    "kind": "dev",
    "methods": {
      "fetchBalances()": {
        "details": "Not a view because fetching from the oracle is state changing. Can still be accessed as a view from within the UX."
      },
      "getTCR()": {
        "details": "Not a view because fetching from the oracle is state changing. Can still be accessed as a view from within the UX."
      }
    },
    "title": "Zebra Borrower Operations",
    "version": 1
  },
  "userdoc": {
    "kind": "user",
    "methods": {
      "fetchBalances()": {
        "notice": "Get total collateral and debt balances for all active collaterals, as well as the current collateral prices"
      },
      "getTCR()": {
        "notice": "Get the global total collateral ratio"
      }
    },
    "notice": "Based on Liquity's `BorrowerOperations` https://github.com/liquity/dev/blob/main/packages/contracts/contracts/BorrowerOperations.sol Zebra's implementation is modified to support multiple collaterals. There is a 1:n relationship between `BorrowerOperations` and each `TroveManager` / `SortedTroves` pair.",
    "version": 1
  },
  "storageLayout": {
    "storage": [
      {
        "astId": 10294,
        "contract": "contracts/core/BorrowerOperations.sol:BorrowerOperations",
        "label": "isApprovedDelegate",
        "offset": 0,
        "slot": "0",
        "type": "t_mapping(t_address,t_mapping(t_address,t_bool))"
      },
      {
        "astId": 1797,
        "contract": "contracts/core/BorrowerOperations.sol:BorrowerOperations",
        "label": "minNetDebt",
        "offset": 0,
        "slot": "1",
        "type": "t_uint256"
      },
      {
        "astId": 1803,
        "contract": "contracts/core/BorrowerOperations.sol:BorrowerOperations",
        "label": "troveManagersData",
        "offset": 0,
        "slot": "2",
        "type": "t_mapping(t_contract(ITroveManager)23690,t_struct(TroveManagerData)1813_storage)"
      },
      {
        "astId": 1807,
        "contract": "contracts/core/BorrowerOperations.sol:BorrowerOperations",
        "label": "_troveManagers",
        "offset": 0,
        "slot": "3",
        "type": "t_array(t_contract(ITroveManager)23690)dyn_storage"
      }
    ],
    "types": {
      "t_address": {
        "encoding": "inplace",
        "label": "address",
        "numberOfBytes": "20"
      },
      "t_array(t_contract(ITroveManager)23690)dyn_storage": {
        "base": "t_contract(ITroveManager)23690",
        "encoding": "dynamic_array",
        "label": "contract ITroveManager[]",
        "numberOfBytes": "32"
      },
      "t_bool": {
        "encoding": "inplace",
        "label": "bool",
        "numberOfBytes": "1"
      },
      "t_contract(IERC20)157": {
        "encoding": "inplace",
        "label": "contract IERC20",
        "numberOfBytes": "20"
      },
      "t_contract(ITroveManager)23690": {
        "encoding": "inplace",
        "label": "contract ITroveManager",
        "numberOfBytes": "20"
      },
      "t_mapping(t_address,t_bool)": {
        "encoding": "mapping",
        "key": "t_address",
        "label": "mapping(address => bool)",
        "numberOfBytes": "32",
        "value": "t_bool"
      },
      "t_mapping(t_address,t_mapping(t_address,t_bool))": {
        "encoding": "mapping",
        "key": "t_address",
        "label": "mapping(address => mapping(address => bool))",
        "numberOfBytes": "32",
        "value": "t_mapping(t_address,t_bool)"
      },
      "t_mapping(t_contract(ITroveManager)23690,t_struct(TroveManagerData)1813_storage)": {
        "encoding": "mapping",
        "key": "t_contract(ITroveManager)23690",
        "label": "mapping(contract ITroveManager => struct BorrowerOperations.TroveManagerData)",
        "numberOfBytes": "32",
        "value": "t_struct(TroveManagerData)1813_storage"
      },
      "t_struct(TroveManagerData)1813_storage": {
        "encoding": "inplace",
        "label": "struct BorrowerOperations.TroveManagerData",
        "members": [
          {
            "astId": 1810,
            "contract": "contracts/core/BorrowerOperations.sol:BorrowerOperations",
            "label": "collateralToken",
            "offset": 0,
            "slot": "0",
            "type": "t_contract(IERC20)157"
          },
          {
            "astId": 1812,
            "contract": "contracts/core/BorrowerOperations.sol:BorrowerOperations",
            "label": "index",
            "offset": 20,
            "slot": "0",
            "type": "t_uint16"
          }
        ],
        "numberOfBytes": "32"
      },
      "t_uint16": {
        "encoding": "inplace",
        "label": "uint16",
        "numberOfBytes": "2"
      },
      "t_uint256": {
        "encoding": "inplace",
        "label": "uint256",
        "numberOfBytes": "32"
      }
    }
  }
}