{
  "address": "0xC7Fb91e1A39b0E7D62eD5103E2E2a81D149564a4",
  "abi": [
    {
      "anonymous": false,
      "inputs": [
        {
          "indexed": false,
          "internalType": "uint8",
          "name": "version",
          "type": "uint8"
        }
      ],
      "name": "Initialized",
      "type": "event"
    },
    {
      "inputs": [],
      "name": "ZebraCore",
      "outputs": [
        {
          "internalType": "contract IZebraCore",
          "name": "",
          "type": "address"
        }
      ],
      "stateMutability": "view",
      "type": "function"
    },
    {
      "inputs": [],
      "name": "guardian",
      "outputs": [
        {
          "internalType": "address",
          "name": "",
          "type": "address"
        }
      ],
      "stateMutability": "view",
      "type": "function"
    },
    {
      "inputs": [
        {
          "internalType": "contract IZebraCore",
          "name": "_zebraCore",
          "type": "address"
        }
      ],
      "name": "initialize",
      "outputs": [],
      "stateMutability": "nonpayable",
      "type": "function"
    },
    {
      "inputs": [],
      "name": "owner",
      "outputs": [
        {
          "internalType": "address",
          "name": "",
          "type": "address"
        }
      ],
      "stateMutability": "view",
      "type": "function"
    },
    {
      "inputs": [
        {
          "internalType": "address",
          "name": "to",
          "type": "address"
        },
        {
          "internalType": "contract IERC20",
          "name": "coin",
          "type": "address"
        },
        {
          "internalType": "uint256",
          "name": "value",
          "type": "uint256"
        }
      ],
      "name": "withdraw",
      "outputs": [],
      "stateMutability": "nonpayable",
      "type": "function"
    }
  ],
  "transactionHash": "0xad1f089408b0fe062ece5d24279a8bbe13a1932b2b3320705187bae644ac9a54",
  "args": [],
  "numDeployments": 1,
  "solcInputHash": "b91301f1a84b6c2e358640cd7d231682",
  "bytecode": "0x608060405234801561001057600080fd5b506105e1806100206000396000f3fe608060405234801561001057600080fd5b50600436106100675760003560e01c80638da5cb5b116100505780638da5cb5b146100a9578063c4d66de8146100b1578063d9caed12146100c657600080fd5b80632fbea0141461006c578063452a9320146100a1575b600080fd5b600054610085906201000090046001600160a01b031681565b6040516001600160a01b03909116815260200160405180910390f35b6100856100d9565b610085610156565b6100c46100bf366004610507565b6101aa565b005b6100c46100d436600461052b565b61031e565b60008060029054906101000a90046001600160a01b03166001600160a01b031663452a93206040518163ffffffff1660e01b8152600401602060405180830381865afa15801561012d573d6000803e3d6000fd5b505050506040513d601f19601f82011682018060405250810190610151919061056c565b905090565b60008060029054906101000a90046001600160a01b03166001600160a01b0316638da5cb5b6040518163ffffffff1660e01b8152600401602060405180830381865afa15801561012d573d6000803e3d6000fd5b600054610100900460ff16158080156101ca5750600054600160ff909116105b806101e45750303b1580156101e4575060005460ff166001145b61025b5760405162461bcd60e51b815260206004820152602e60248201527f496e697469616c697a61626c653a20636f6e747261637420697320616c72656160448201527f647920696e697469616c697a656400000000000000000000000000000000000060648201526084015b60405180910390fd5b600080547fffffffffffffffffffffffffffffffffffffffffffffffffffffffffffffff00166001179055801561029c576000805461ff0019166101001790555b600080547fffffffffffffffffffff0000000000000000000000000000000000000000ffff16620100006001600160a01b03851602179055801561031a576000805461ff0019169055604051600181527f7f26b83ff96e1f2b6a682f133852f6798a09c465da95921460cefb38474024989060200160405180910390a15b5050565b610326610156565b6001600160a01b0316336001600160a01b0316146103865760405162461bcd60e51b815260206004820152600a60248201527f4f6e6c79206f776e6572000000000000000000000000000000000000000000006044820152606401610252565b6001600160a01b038216610463576000836001600160a01b03168260405160006040518083038185875af1925050503d80600081146103e1576040519150601f19603f3d011682016040523d82523d6000602084013e6103e6565b606091505b505090508061045d5760405162461bcd60e51b815260206004820152602160248201527f46656552656365697665723a207769746864726177207a657461206661696c6560448201527f64000000000000000000000000000000000000000000000000000000000000006064820152608401610252565b50505050565b6040517fa9059cbb0000000000000000000000000000000000000000000000000000000081526001600160a01b0384811660048301526024820183905283169063a9059cbb906044016020604051808303816000875af11580156104cb573d6000803e3d6000fd5b505050506040513d601f19601f8201168201806040525081019061045d9190610589565b6001600160a01b038116811461050457600080fd5b50565b60006020828403121561051957600080fd5b8135610524816104ef565b9392505050565b60008060006060848603121561054057600080fd5b833561054b816104ef565b9250602084013561055b816104ef565b929592945050506040919091013590565b60006020828403121561057e57600080fd5b8151610524816104ef565b60006020828403121561059b57600080fd5b8151801515811461052457600080fdfea2646970667358221220fc26885eb4df624637a37d093038598be8260000ddd5233cd3f816a464f0ac4164736f6c63430008130033",
  "devdoc": {
    "events": {
      "Initialized(uint8)": {
        "details": "Triggered when the contract has been initialized or reinitialized."
      }
    },
    "kind": "dev",
    "methods": {},
    "version": 1
  },
  "userdoc": {
    "kind": "user",
    "methods": {},
    "version": 1
  },
  "storageLayout": {
    "storage": [
      {
        "astId": 6,
        "contract": "contracts/core/FeeReceiver.sol:FeeReceiver",
        "label": "_initialized",
        "offset": 0,
        "slot": "0",
        "type": "t_uint8"
      },
      {
        "astId": 9,
        "contract": "contracts/core/FeeReceiver.sol:FeeReceiver",
        "label": "_initializing",
        "offset": 1,
        "slot": "0",
        "type": "t_bool"
      },
      {
        "astId": 24511,
        "contract": "contracts/core/FeeReceiver.sol:FeeReceiver",
        "label": "ZebraCore",
        "offset": 2,
        "slot": "0",
        "type": "t_contract(IZebraCore)37932"
      }
    ],
    "types": {
      "t_bool": {
        "encoding": "inplace",
        "label": "bool",
        "numberOfBytes": "1"
      },
      "t_contract(IZebraCore)37932": {
        "encoding": "inplace",
        "label": "contract IZebraCore",
        "numberOfBytes": "20"
      },
      "t_uint8": {
        "encoding": "inplace",
        "label": "uint8",
        "numberOfBytes": "1"
      }
    }
  }
}