{
  "address": "0x1EbcB010Eef5A9d0382d0d801b96c47929d81893",
  "abi": [
    {
      "inputs": [
        {
          "internalType": "contract IZebraCore",
          "name": "_core",
          "type": "address"
        },
        {
          "internalType": "contract IZebraUSD",
          "name": "_zebraUSD",
          "type": "address"
        },
        {
          "internalType": "contract IWZeta",
          "name": "_wzeta",
          "type": "address"
        },
        {
          "internalType": "contract IIzumiSwap",
          "name": "_swap",
          "type": "address"
        },
        {
          "internalType": "contract IIzumiQuoter",
          "name": "_quoter",
          "type": "address"
        },
        {
          "internalType": "contract IBorrowerOperations",
          "name": "_bo",
          "type": "address"
        }
      ],
      "stateMutability": "nonpayable",
      "type": "constructor"
    },
    {
      "inputs": [],
      "name": "ZebraCore",
      "outputs": [
        {
          "internalType": "contract IZebraCore",
          "name": "",
          "type": "address"
        }
      ],
      "stateMutability": "view",
      "type": "function"
    },
    {
      "inputs": [
        {
          "internalType": "contract IERC20",
          "name": "token",
          "type": "address"
        }
      ],
      "name": "addCollateralTokens",
      "outputs": [],
      "stateMutability": "nonpayable",
      "type": "function"
    },
    {
      "inputs": [],
      "name": "bo",
      "outputs": [
        {
          "internalType": "contract IBorrowerOperations",
          "name": "",
          "type": "address"
        }
      ],
      "stateMutability": "view",
      "type": "function"
    },
    {
      "inputs": [
        {
          "internalType": "contract ITroveManager",
          "name": "tm",
          "type": "address"
        },
        {
          "internalType": "bytes",
          "name": "path",
          "type": "bytes"
        }
      ],
      "name": "close",
      "outputs": [],
      "stateMutability": "payable",
      "type": "function"
    },
    {
      "inputs": [
        {
          "internalType": "uint256",
          "name": "i",
          "type": "uint256"
        }
      ],
      "name": "collateralTokenAt",
      "outputs": [
        {
          "internalType": "address",
          "name": "token",
          "type": "address"
        }
      ],
      "stateMutability": "view",
      "type": "function"
    },
    {
      "inputs": [],
      "name": "collateralTokenLength",
      "outputs": [
        {
          "internalType": "uint256",
          "name": "",
          "type": "uint256"
        }
      ],
      "stateMutability": "view",
      "type": "function"
    },
    {
      "inputs": [
        {
          "internalType": "contract IERC20",
          "name": "token",
          "type": "address"
        },
        {
          "internalType": "address",
          "name": "to",
          "type": "address"
        },
        {
          "internalType": "uint256",
          "name": "amount",
          "type": "uint256"
        }
      ],
      "name": "emergencyWithdraw",
      "outputs": [],
      "stateMutability": "nonpayable",
      "type": "function"
    },
    {
      "inputs": [
        {
          "internalType": "contract ITroveManager",
          "name": "tm",
          "type": "address"
        },
        {
          "internalType": "bytes",
          "name": "path",
          "type": "bytes"
        },
        {
          "internalType": "address",
          "name": "borrower",
          "type": "address"
        }
      ],
      "name": "estimateClose",
      "outputs": [
        {
          "internalType": "uint256",
          "name": "balance",
          "type": "uint256"
        },
        {
          "internalType": "uint128",
          "name": "desire",
          "type": "uint128"
        },
        {
          "internalType": "uint256",
          "name": "cost",
          "type": "uint256"
        }
      ],
      "stateMutability": "nonpayable",
      "type": "function"
    },
    {
      "inputs": [],
      "name": "guardian",
      "outputs": [
        {
          "internalType": "address",
          "name": "",
          "type": "address"
        }
      ],
      "stateMutability": "view",
      "type": "function"
    },
    {
      "inputs": [],
      "name": "owner",
      "outputs": [
        {
          "internalType": "address",
          "name": "",
          "type": "address"
        }
      ],
      "stateMutability": "view",
      "type": "function"
    },
    {
      "inputs": [],
      "name": "quoter",
      "outputs": [
        {
          "internalType": "contract IIzumiQuoter",
          "name": "",
          "type": "address"
        }
      ],
      "stateMutability": "view",
      "type": "function"
    },
    {
      "inputs": [
        {
          "internalType": "contract IERC20",
          "name": "token",
          "type": "address"
        }
      ],
      "name": "removeCollateralTokens",
      "outputs": [],
      "stateMutability": "nonpayable",
      "type": "function"
    },
    {
      "inputs": [],
      "name": "swap",
      "outputs": [
        {
          "internalType": "contract IIzumiSwap",
          "name": "",
          "type": "address"
        }
      ],
      "stateMutability": "view",
      "type": "function"
    },
    {
      "inputs": [],
      "name": "wzeta",
      "outputs": [
        {
          "internalType": "contract IWZeta",
          "name": "",
          "type": "address"
        }
      ],
      "stateMutability": "view",
      "type": "function"
    },
    {
      "inputs": [],
      "name": "zebraUSD",
      "outputs": [
        {
          "internalType": "contract IZebraUSD",
          "name": "",
          "type": "address"
        }
      ],
      "stateMutability": "view",
      "type": "function"
    }
  ],
  "transactionHash": "0x660e6c321a454c10e5deab71a61b732b070a9d2c5beee95ac72ba30096701fe0",
  "args": [
    "0x73212c2f3B642C800B37df447464557e62A4cFC8",
    "0xa93936a4C22Eb679D5Fd64229Da465D70EB98B8F",
    "0x5F0b1a82749cb4E2278EC87F8BF6B618dC71a8bf",
    "0x34bc1b87f60e0a30c0e24FD7Abada70436c71406",
    "0x04830cfCED9772b8ACbAF76Cfc7A630Ad82c9148",
    "0xDe04cCD74fF37A62430110543bBb3721527AF843"
  ],
  "numDeployments": 3,
  "solcInputHash": "608a69d06f86fba77df7409e7a34e508",
  "bytecode": "0x6101406040523480156200001257600080fd5b5060405162001c1938038062001c198339810160408190526200003591620000fa565b6001600160a01b0386811660805285811660a05284811660c081905284821660e0819052848316610100529183166101205260405163095ea7b360e01b8152600481019290925260001960248301529063095ea7b3906044016020604051808303816000875af1158015620000ae573d6000803e3d6000fd5b505050506040513d601f19601f82011682018060405250810190620000d491906200018e565b50505050505050620001b9565b6001600160a01b0381168114620000f757600080fd5b50565b60008060008060008060c087890312156200011457600080fd5b86516200012181620000e1565b60208801519096506200013481620000e1565b60408801519095506200014781620000e1565b60608801519094506200015a81620000e1565b60808801519093506200016d81620000e1565b60a08801519092506200018081620000e1565b809150509295509295509295565b600060208284031215620001a157600080fd5b81518015158114620001b257600080fd5b9392505050565b60805160a05160c05160e05161010051610120516119bd6200025c600039600081816101d001526108fc0152600081816102e101526111ed01526000818161022401526107be01526000818160fe015281816106a1015261072901526000818161026d0152818161038a015281816104450152818161099701528181610a38015261112b01526000818161016401528181610bd20152610cf201526119bd6000f3fe6080604052600436106100e75760003560e01c80638119c0651161008a578063a0425bb511610059578063a0425bb5146102af578063c6bbd5a7146102cf578063e63ea40814610303578063e6877b0e1461032357600080fd5b80638119c065146102125780638da5cb5b146102465780639b0e384e1461025b5780639c021fb21461028f57600080fd5b8063452a9320116100c6578063452a9320146101865780634b62c7551461019b578063500d6847146101be578063551c23a2146101f257600080fd5b8062173d46146100ec5780632338d3771461013d5780632fbea01414610152575b600080fd5b3480156100f857600080fd5b506101207f000000000000000000000000000000000000000000000000000000000000000081565b6040516001600160a01b0390911681526020015b60405180910390f35b61015061014b3660046115aa565b61036f565b005b34801561015e57600080fd5b506101207f000000000000000000000000000000000000000000000000000000000000000081565b34801561019257600080fd5b50610120610bce565b3480156101a757600080fd5b506101b0610c57565b604051908152602001610134565b3480156101ca57600080fd5b506101207f000000000000000000000000000000000000000000000000000000000000000081565b3480156101fe57600080fd5b5061015061020d3660046115fa565b610c63565b34801561021e57600080fd5b506101207f000000000000000000000000000000000000000000000000000000000000000081565b34801561025257600080fd5b50610120610cee565b34801561026757600080fd5b506101207f000000000000000000000000000000000000000000000000000000000000000081565b34801561029b57600080fd5b506101206102aa366004611617565b610d4e565b3480156102bb57600080fd5b506101506102ca3660046115fa565b610d61565b3480156102db57600080fd5b506101207f000000000000000000000000000000000000000000000000000000000000000081565b34801561030f57600080fd5b5061015061031e366004611630565b610de7565b34801561032f57600080fd5b5061034361033e366004611671565b610f79565b604080519384526fffffffffffffffffffffffffffffffff909216602084015290820152606001610134565b6040516370a0823160e01b81523360048201819052906000907f00000000000000000000000000000000000000000000000000000000000000006001600160a01b0316906370a0823190602401602060405180830381865afa1580156103d9573d6000803e3d6000fd5b505050506040513d601f19601f820116820180604052508101906103fd91906116d5565b6040517f23b872dd0000000000000000000000000000000000000000000000000000000081526001600160a01b038481166004830152306024830152604482018390529192507f0000000000000000000000000000000000000000000000000000000000000000909116906323b872dd906064016020604051808303816000875af1158015610490573d6000803e3d6000fd5b505050506040513d601f19601f820116820180604052508101906104b491906116ee565b506040517f2b2b2bac0000000000000000000000000000000000000000000000000000000081526001600160a01b03838116600483015260009190861690632b2b2bac906024016040805180830381865afa158015610517573d6000803e3d6000fd5b505050506040513d601f19601f8201168201806040525081019061053b9190611710565b9150506000856001600160a01b0316634ba4a28b6040518163ffffffff1660e01b8152600401602060405180830381865afa15801561057e573d6000803e3d6000fd5b505050506040513d601f19601f820116820180604052508101906105a291906116d5565b6040517f55ca38cf0000000000000000000000000000000000000000000000000000000081526001600160a01b038681166004830152602482018590528816906355ca38cf90604401602060405180830381865afa158015610608573d6000803e3d6000fd5b505050506040513d601f19601f8201168201806040525081019061062c91906116d5565b610636908461174a565b610640919061175d565b9050808310156108bc576000341161069f5760405162461bcd60e51b815260206004820152601160248201527f6e6f2065746865722070726f766964656400000000000000000000000000000060448201526064015b60405180910390fd5b7f00000000000000000000000000000000000000000000000000000000000000006001600160a01b031663d0e30db0346040518263ffffffff1660e01b81526004016000604051808303818588803b1580156106fa57600080fd5b505af115801561070e573d6000803e3d6000fd5b50506040516370a0823160e01b8152306004820152600093507f00000000000000000000000000000000000000000000000000000000000000006001600160a01b031692506370a082319150602401602060405180830381865afa15801561077a573d6000803e3d6000fd5b505050506040513d601f19601f8201168201806040525081019061079e91906116d5565b6040805160a0810182528881523060208201529192506001600160a01b037f0000000000000000000000000000000000000000000000000000000000000000169163115ff67e9181016107f1888761175d565b6fffffffffffffffffffffffffffffffff1681526020018481526020016000198152506040518263ffffffff1660e01b815260040161083091906117b6565b60408051808303816000875af192505050801561086a575060408051601f3d908101601f1916820190925261086791810190611710565b60015b6108b8573d808015610898576040519150601f19603f3d011682016040523d82523d6000602084013e61089d565b606091505b508060405162461bcd60e51b81526004016106969190611821565b5050505b6040517f5f5486140000000000000000000000000000000000000000000000000000000081526001600160a01b03878116600483015285811660248301527f00000000000000000000000000000000000000000000000000000000000000001690635f54861490604401600060405180830381600087803b15801561094057600080fd5b505af1925050508015610951575060015b61097f573d808015610898576040519150601f19603f3d011682016040523d82523d6000602084013e61089d565b6040516370a0823160e01b81523060048201526000907f00000000000000000000000000000000000000000000000000000000000000006001600160a01b0316906370a0823190602401602060405180830381865afa1580156109e6573d6000803e3d6000fd5b505050506040513d601f19601f82011682018060405250810190610a0a91906116d5565b90508015610aa75760405163a9059cbb60e01b81526001600160a01b038681166004830152602482018390527f0000000000000000000000000000000000000000000000000000000000000000169063a9059cbb906044016020604051808303816000875af1158015610a81573d6000803e3d6000fd5b505050506040513d601f19601f82011682018060405250810190610aa591906116ee565b505b60005b610ab2610c57565b811015610bc4576000610ac482610d4e565b6040516370a0823160e01b81523060048201529091506000906001600160a01b038316906370a0823190602401602060405180830381865afa158015610b0e573d6000803e3d6000fd5b505050506040513d601f19601f82011682018060405250810190610b3291906116d5565b90508015610baf5760405163a9059cbb60e01b81526001600160a01b0389811660048301526024820183905283169063a9059cbb906044016020604051808303816000875af1158015610b89573d6000803e3d6000fd5b505050506040513d601f19601f82011682018060405250810190610bad91906116ee565b505b50508080610bbc90611834565b915050610aaa565b5050505050505050565b60007f00000000000000000000000000000000000000000000000000000000000000006001600160a01b031663452a93206040518163ffffffff1660e01b8152600401602060405180830381865afa158015610c2e573d6000803e3d6000fd5b505050506040513d601f19601f82011682018060405250810190610c52919061184e565b905090565b6000610c52600061127a565b610c6b610cee565b6001600160a01b0316336001600160a01b031614610ccb5760405162461bcd60e51b815260206004820152600a60248201527f4f6e6c79206f776e6572000000000000000000000000000000000000000000006044820152606401610696565b610cea60006bffffffffffffffffffffffff19606084901b168361128b565b5050565b60007f00000000000000000000000000000000000000000000000000000000000000006001600160a01b0316638da5cb5b6040518163ffffffff1660e01b8152600401602060405180830381865afa158015610c2e573d6000803e3d6000fd5b6000610d5a81836112a9565b9392505050565b610d69610cee565b6001600160a01b0316336001600160a01b031614610dc95760405162461bcd60e51b815260206004820152600a60248201527f4f6e6c79206f776e6572000000000000000000000000000000000000000000006044820152606401610696565b610cea60006bffffffffffffffffffffffff19606084901b166112c5565b610def610cee565b6001600160a01b0316336001600160a01b031614610e4f5760405162461bcd60e51b815260206004820152600a60248201527f4f6e6c79206f776e6572000000000000000000000000000000000000000000006044820152606401610696565b6001600160a01b038316610f06576000826001600160a01b03168260405160006040518083038185875af1925050503d8060008114610eaa576040519150601f19603f3d011682016040523d82523d6000602084013e610eaf565b606091505b5050905080610f005760405162461bcd60e51b815260206004820152601460248201527f7769746864726177207a657461206661696c65640000000000000000000000006044820152606401610696565b50505050565b60405163a9059cbb60e01b81526001600160a01b0383811660048301526024820183905284169063a9059cbb906044016020604051808303816000875af1158015610f55573d6000803e3d6000fd5b505050506040513d601f19601f82011682018060405250810190610f0091906116ee565b6040517f2b2b2bac0000000000000000000000000000000000000000000000000000000081526001600160a01b038281166004830152600091829182918291881690632b2b2bac906024016040805180830381865afa158015610fe0573d6000803e3d6000fd5b505050506040513d601f19601f820116820180604052508101906110049190611710565b9150506000876001600160a01b0316634ba4a28b6040518163ffffffff1660e01b8152600401602060405180830381865afa158015611047573d6000803e3d6000fd5b505050506040513d601f19601f8201168201806040525081019061106b91906116d5565b6040517f55ca38cf0000000000000000000000000000000000000000000000000000000081526001600160a01b038881166004830152602482018590528a16906355ca38cf90604401602060405180830381865afa1580156110d1573d6000803e3d6000fd5b505050506040513d601f19601f820116820180604052508101906110f591906116d5565b6110ff908461174a565b611109919061175d565b6040516370a0823160e01b81526001600160a01b0388811660048301529192507f0000000000000000000000000000000000000000000000000000000000000000909116906370a0823190602401602060405180830381865afa158015611174573d6000803e3d6000fd5b505050506040513d601f19601f8201168201806040525081019061119891906116d5565b94508481116111b05750600092508291506112719050565b6111ba858261175d565b6040517f18ce06100000000000000000000000000000000000000000000000000000000081529094506001600160a01b037f000000000000000000000000000000000000000000000000000000000000000016906318ce0610906112249087908b9060040161186b565b6000604051808303816000875af1158015611243573d6000803e3d6000fd5b505050506040513d6000823e601f3d908101601f1916820160405261126b9190810190611896565b50925050505b93509350939050565b6000611285826112d1565b92915050565b60006112a184846001600160a01b0385166112dc565b949350505050565b60008080806112b886866112f9565b9097909650945050505050565b6000610d5a8383611324565b600061128582611341565b600082815260028401602052604081208290556112a1848461134b565b600080806113078585611357565b600081815260029690960160205260409095205494959350505050565b60008181526002830160205260408120819055610d5a8383611363565b6000611285825490565b6000610d5a838361136f565b6000610d5a83836113be565b6000610d5a83836113e8565b60008181526001830160205260408120546113b657508154600181810184556000848152602080822090930184905584548482528286019093526040902091909155611285565b506000611285565b60008260000182815481106113d5576113d561195b565b9060005260206000200154905092915050565b600081815260018301602052604081205480156114d157600061140c60018361175d565b85549091506000906114209060019061175d565b90508181146114855760008660000182815481106114405761144061195b565b90600052602060002001549050808760000184815481106114635761146361195b565b6000918252602080832090910192909255918252600188019052604090208390555b855486908061149657611496611971565b600190038181906000526020600020016000905590558560010160008681526020019081526020016000206000905560019350505050611285565b6000915050611285565b6001600160a01b03811681146114f057600080fd5b50565b634e487b7160e01b600052604160045260246000fd5b604051601f8201601f1916810167ffffffffffffffff81118282101715611532576115326114f3565b604052919050565b600082601f83011261154b57600080fd5b813567ffffffffffffffff811115611565576115656114f3565b6115786020601f19601f84011601611509565b81815284602083860101111561158d57600080fd5b816020850160208301376000918101602001919091529392505050565b600080604083850312156115bd57600080fd5b82356115c8816114db565b9150602083013567ffffffffffffffff8111156115e457600080fd5b6115f08582860161153a565b9150509250929050565b60006020828403121561160c57600080fd5b8135610d5a816114db565b60006020828403121561162957600080fd5b5035919050565b60008060006060848603121561164557600080fd5b8335611650816114db565b92506020840135611660816114db565b929592945050506040919091013590565b60008060006060848603121561168657600080fd5b8335611691816114db565b9250602084013567ffffffffffffffff8111156116ad57600080fd5b6116b98682870161153a565b92505060408401356116ca816114db565b809150509250925092565b6000602082840312156116e757600080fd5b5051919050565b60006020828403121561170057600080fd5b81518015158114610d5a57600080fd5b6000806040838503121561172357600080fd5b505080516020909101519092909150565b634e487b7160e01b600052601160045260246000fd5b8082018082111561128557611285611734565b8181038181111561128557611285611734565b6000815180845260005b818110156117965760208185018101518683018201520161177a565b506000602082860101526020601f19601f83011685010191505092915050565b602081526000825160a060208401526117d260c0840182611770565b90506001600160a01b0360208501511660408401526fffffffffffffffffffffffffffffffff604085015116606084015260608401516080840152608084015160a08401528091505092915050565b602081526000610d5a6020830184611770565b6000600019820361184757611847611734565b5060010190565b60006020828403121561186057600080fd5b8151610d5a816114db565b6fffffffffffffffffffffffffffffffff831681526040602082015260006112a16040830184611770565b600080604083850312156118a957600080fd5b8251915060208084015167ffffffffffffffff808211156118c957600080fd5b818601915086601f8301126118dd57600080fd5b8151818111156118ef576118ef6114f3565b8060051b9150611900848301611509565b818152918301840191848101908984111561191a57600080fd5b938501935b8385101561194b57845192508260020b831461193b5760008081fd5b828252938501939085019061191f565b8096505050505050509250929050565b634e487b7160e01b600052603260045260246000fd5b634e487b7160e01b600052603160045260246000fdfea26469706673582212207bd9e324ef0dd6e6b64edb80e5d8ea684250109953072dfb874520a1d2444fe064736f6c63430008130033",
  "devdoc": {
    "kind": "dev",
    "methods": {},
    "version": 1
  },
  "userdoc": {
    "kind": "user",
    "methods": {},
    "version": 1
  },
  "storageLayout": {
    "storage": [
      {
        "astId": 2032,
        "contract": "contracts/helpers/MultiTroveCloser.sol:MultiTroveCloser",
        "label": "collateralTokens",
        "offset": 0,
        "slot": "0",
        "type": "t_struct(UintToAddressMap)576_storage"
      }
    ],
    "types": {
      "t_array(t_bytes32)dyn_storage": {
        "base": "t_bytes32",
        "encoding": "dynamic_array",
        "label": "bytes32[]",
        "numberOfBytes": "32"
      },
      "t_bytes32": {
        "encoding": "inplace",
        "label": "bytes32",
        "numberOfBytes": "32"
      },
      "t_mapping(t_bytes32,t_bytes32)": {
        "encoding": "mapping",
        "key": "t_bytes32",
        "label": "mapping(bytes32 => bytes32)",
        "numberOfBytes": "32",
        "value": "t_bytes32"
      },
      "t_mapping(t_bytes32,t_uint256)": {
        "encoding": "mapping",
        "key": "t_bytes32",
        "label": "mapping(bytes32 => uint256)",
        "numberOfBytes": "32",
        "value": "t_uint256"
      },
      "t_struct(Bytes32Set)1540_storage": {
        "encoding": "inplace",
        "label": "struct EnumerableSet.Bytes32Set",
        "members": [
          {
            "astId": 1539,
            "contract": "contracts/helpers/MultiTroveCloser.sol:MultiTroveCloser",
            "label": "_inner",
            "offset": 0,
            "slot": "0",
            "type": "t_struct(Set)1346_storage"
          }
        ],
        "numberOfBytes": "64"
      },
      "t_struct(Bytes32ToBytes32Map)93_storage": {
        "encoding": "inplace",
        "label": "struct EnumerableMap.Bytes32ToBytes32Map",
        "members": [
          {
            "astId": 88,
            "contract": "contracts/helpers/MultiTroveCloser.sol:MultiTroveCloser",
            "label": "_keys",
            "offset": 0,
            "slot": "0",
            "type": "t_struct(Bytes32Set)1540_storage"
          },
          {
            "astId": 92,
            "contract": "contracts/helpers/MultiTroveCloser.sol:MultiTroveCloser",
            "label": "_values",
            "offset": 0,
            "slot": "2",
            "type": "t_mapping(t_bytes32,t_bytes32)"
          }
        ],
        "numberOfBytes": "96"
      },
      "t_struct(Set)1346_storage": {
        "encoding": "inplace",
        "label": "struct EnumerableSet.Set",
        "members": [
          {
            "astId": 1341,
            "contract": "contracts/helpers/MultiTroveCloser.sol:MultiTroveCloser",
            "label": "_values",
            "offset": 0,
            "slot": "0",
            "type": "t_array(t_bytes32)dyn_storage"
          },
          {
            "astId": 1345,
            "contract": "contracts/helpers/MultiTroveCloser.sol:MultiTroveCloser",
            "label": "_indexes",
            "offset": 0,
            "slot": "1",
            "type": "t_mapping(t_bytes32,t_uint256)"
          }
        ],
        "numberOfBytes": "64"
      },
      "t_struct(UintToAddressMap)576_storage": {
        "encoding": "inplace",
        "label": "struct EnumerableMap.UintToAddressMap",
        "members": [
          {
            "astId": 575,
            "contract": "contracts/helpers/MultiTroveCloser.sol:MultiTroveCloser",
            "label": "_inner",
            "offset": 0,
            "slot": "0",
            "type": "t_struct(Bytes32ToBytes32Map)93_storage"
          }
        ],
        "numberOfBytes": "96"
      },
      "t_uint256": {
        "encoding": "inplace",
        "label": "uint256",
        "numberOfBytes": "32"
      }
    }
  }
}