{
  "address": "0xa99Da54fCa0Fe561a0233D05D0Af022D9703DB6A",
  "abi": [
    {
      "inputs": [
        {
          "internalType": "address",
          "name": "_borrowerOperationsAddress",
          "type": "address"
        },
        {
          "internalType": "address",
          "name": "_multiTroveGetter",
          "type": "address"
        },
        {
          "internalType": "uint256",
          "name": "_gasCompensation",
          "type": "uint256"
        }
      ],
      "stateMutability": "nonpayable",
      "type": "constructor"
    },
    {
      "inputs": [],
      "name": "CCR",
      "outputs": [
        {
          "internalType": "uint256",
          "name": "",
          "type": "uint256"
        }
      ],
      "stateMutability": "view",
      "type": "function"
    },
    {
      "inputs": [],
      "name": "DEBT_GAS_COMPENSATION",
      "outputs": [
        {
          "internalType": "uint256",
          "name": "",
          "type": "uint256"
        }
      ],
      "stateMutability": "view",
      "type": "function"
    },
    {
      "inputs": [],
      "name": "DECIMAL_PRECISION",
      "outputs": [
        {
          "internalType": "uint256",
          "name": "",
          "type": "uint256"
        }
      ],
      "stateMutability": "view",
      "type": "function"
    },
    {
      "inputs": [],
      "name": "PERCENT_DIVISOR",
      "outputs": [
        {
          "internalType": "uint256",
          "name": "",
          "type": "uint256"
        }
      ],
      "stateMutability": "view",
      "type": "function"
    },
    {
      "inputs": [],
      "name": "borrowerOperations",
      "outputs": [
        {
          "internalType": "contract IBorrowerOperations",
          "name": "",
          "type": "address"
        }
      ],
      "stateMutability": "view",
      "type": "function"
    },
    {
      "inputs": [
        {
          "internalType": "uint256",
          "name": "_coll",
          "type": "uint256"
        },
        {
          "internalType": "uint256",
          "name": "_debt",
          "type": "uint256"
        },
        {
          "internalType": "uint256",
          "name": "_price",
          "type": "uint256"
        }
      ],
      "name": "computeCR",
      "outputs": [
        {
          "internalType": "uint256",
          "name": "",
          "type": "uint256"
        }
      ],
      "stateMutability": "pure",
      "type": "function"
    },
    {
      "inputs": [
        {
          "internalType": "uint256",
          "name": "_coll",
          "type": "uint256"
        },
        {
          "internalType": "uint256",
          "name": "_debt",
          "type": "uint256"
        }
      ],
      "name": "computeNominalCR",
      "outputs": [
        {
          "internalType": "uint256",
          "name": "",
          "type": "uint256"
        }
      ],
      "stateMutability": "pure",
      "type": "function"
    },
    {
      "inputs": [
        {
          "components": [
            {
              "internalType": "contract ITroveManager",
              "name": "troveManager",
              "type": "address"
            },
            {
              "internalType": "uint256",
              "name": "redeemAmount",
              "type": "uint256"
            }
          ],
          "internalType": "struct MultiCollateraRedemptionHint.Estimation",
          "name": "estimation",
          "type": "tuple"
        }
      ],
      "name": "estimateRedemption",
      "outputs": [
        {
          "components": [
            {
              "internalType": "address",
              "name": "firstRedemptionHint",
              "type": "address"
            },
            {
              "internalType": "uint256",
              "name": "remains",
              "type": "uint256"
            },
            {
              "internalType": "uint256",
              "name": "collWithdrawn",
              "type": "uint256"
            },
            {
              "internalType": "uint256",
              "name": "maxIntegration",
              "type": "uint256"
            },
            {
              "internalType": "uint256",
              "name": "maxFee",
              "type": "uint256"
            },
            {
              "internalType": "uint256",
              "name": "partialNICR",
              "type": "uint256"
            },
            {
              "internalType": "address",
              "name": "upperHint",
              "type": "address"
            },
            {
              "internalType": "address",
              "name": "lowerHint",
              "type": "address"
            }
          ],
          "internalType": "struct MultiCollateraRedemptionHint.Redemption",
          "name": "redemption",
          "type": "tuple"
        }
      ],
      "stateMutability": "nonpayable",
      "type": "function"
    },
    {
      "inputs": [
        {
          "components": [
            {
              "internalType": "contract ITroveManager",
              "name": "troveManager",
              "type": "address"
            },
            {
              "internalType": "uint256",
              "name": "redeemAmount",
              "type": "uint256"
            }
          ],
          "internalType": "struct MultiCollateraRedemptionHint.Estimation",
          "name": "estimation",
          "type": "tuple"
        }
      ],
      "name": "estimateRedemptionWithInterstLot",
      "outputs": [
        {
          "components": [
            {
              "internalType": "address",
              "name": "firstRedemptionHint",
              "type": "address"
            },
            {
              "internalType": "uint256",
              "name": "remains",
              "type": "uint256"
            },
            {
              "internalType": "uint256",
              "name": "collWithdrawn",
              "type": "uint256"
            },
            {
              "internalType": "uint256",
              "name": "maxIntegration",
              "type": "uint256"
            },
            {
              "internalType": "uint256",
              "name": "maxFee",
              "type": "uint256"
            },
            {
              "internalType": "uint256",
              "name": "partialNICR",
              "type": "uint256"
            },
            {
              "internalType": "address",
              "name": "upperHint",
              "type": "address"
            },
            {
              "internalType": "address",
              "name": "lowerHint",
              "type": "address"
            }
          ],
          "internalType": "struct MultiCollateraRedemptionHint.Redemption",
          "name": "redemption",
          "type": "tuple"
        }
      ],
      "stateMutability": "nonpayable",
      "type": "function"
    },
    {
      "inputs": [
        {
          "internalType": "contract ITroveManager",
          "name": "troveManager",
          "type": "address"
        }
      ],
      "name": "getFirstRedemptionHint",
      "outputs": [
        {
          "internalType": "address",
          "name": "firstRedemptionHint",
          "type": "address"
        },
        {
          "internalType": "uint256",
          "name": "interest",
          "type": "uint256"
        },
        {
          "internalType": "uint256",
          "name": "less",
          "type": "uint256"
        },
        {
          "internalType": "uint256",
          "name": "more",
          "type": "uint256"
        }
      ],
      "stateMutability": "nonpayable",
      "type": "function"
    },
    {
      "inputs": [],
      "name": "multiTroveGetter",
      "outputs": [
        {
          "internalType": "contract MultiTroveGetter",
          "name": "",
          "type": "address"
        }
      ],
      "stateMutability": "view",
      "type": "function"
    }
  ],
  "transactionHash": "0x429870992b60433d2e9c33b95155e2d48eb3fe1a1b8fe23c90b8fa66e6af585d",
  "args": [
    "0xDe04cCD74fF37A62430110543bBb3721527AF843",
    "0x1ea7CC607ceD7C6f0755F676eb9d0FA99ce8590F",
    "2000000000000000000"
  ],
  "numDeployments": 1,
  "solcInputHash": "678264f7d5fbb55a67df3aa692a1d233",
  "bytecode": "0x60e060405234801561001057600080fd5b506040516115a53803806115a583398101604081905261002f91610065565b6080526001600160a01b0391821660a0521660c0526100a1565b80516001600160a01b038116811461006057600080fd5b919050565b60008060006060848603121561007a57600080fd5b61008384610049565b925061009160208501610049565b9150604084015190509250925092565b60805160a05160c0516114ba6100eb6000396000818160d30152818161036c0152610876015260008181610176015281816105300152610a900152600061012d01526114ba6000f3fe608060405234801561001057600080fd5b50600436106100c95760003560e01c806377553ad411610081578063b84ab2ef1161005b578063b84ab2ef1461022a578063c394a7fa14610267578063d4986a9f1461027a57600080fd5b806377553ad4146101715780639825c78f14610198578063a20baee61461021b57600080fd5b80634ba4a28b116100b25780634ba4a28b14610128578063525acdbb1461014f5780635733d58f1461016257600080fd5b80631ff75dc6146100ce5780634870dd9a14610112575b600080fd5b6100f57f000000000000000000000000000000000000000000000000000000000000000081565b6040516001600160a01b0390911681526020015b60405180910390f35b61011a60c881565b604051908152602001610109565b61011a7f000000000000000000000000000000000000000000000000000000000000000081565b61011a61015d366004611176565b61028d565b61011a6717979cfe362a000081565b6100f57f000000000000000000000000000000000000000000000000000000000000000081565b6101ab6101a636600461122a565b6102a4565b60405161010991906000610100820190506001600160a01b038084511683526020840151602084015260408401516040840152606084015160608401526080840151608084015260a084015160a08401528060c08501511660c08401528060e08501511660e08401525092915050565b61011a670de0b6b3a764000081565b61023d610238366004611282565b61031a565b604080516001600160a01b0390951685526020850193909352918301526060820152608001610109565b61011a61027536600461129f565b610703565b6101ab61028836600461122a565b61070f565b600061029a84848461077f565b90505b9392505050565b61030760405180610100016040528060006001600160a01b03168152602001600081526020016000815260200160008152602001600081526020016000815260200160006001600160a01b0316815260200160006001600160a01b031681525090565b61031482826107b06107c7565b92915050565b6040517f05e533ce0000000000000000000000000000000000000000000000000000000081526001600160a01b03828116600483015260001960248301819052604483015260009182918291829182917f0000000000000000000000000000000000000000000000000000000000000000909116906305e533ce90606401600060405180830381865afa1580156103b5573d6000803e3d6000fd5b505050506040513d6000823e601f3d908101601f191682016040526103dd91908101906112c1565b90506000866001600160a01b031663794e57246040518163ffffffff1660e01b8152600401602060405180830381865afa15801561041f573d6000803e3d6000fd5b505050506040513d601f19601f8201168201806040525081019061044391906113c6565b90506000876001600160a01b0316630fdb11cf6040518163ffffffff1660e01b81526004016020604051808303816000875af1158015610487573d6000803e3d6000fd5b505050506040513d601f19601f820116820180604052508101906104ab91906113c6565b905060005b83518110156106f85760008482815181106104cd576104cd6113df565b6020026020010151905060008160c0015182602001516104ed919061140b565b848360a001518460600151610502919061140b565b61050c919061141e565b6105169190611435565b9050848111156106e35781600001519950816040015198507f00000000000000000000000000000000000000000000000000000000000000006001600160a01b031663969c24526040518163ffffffff1660e01b8152600401602060405180830381865afa15801561058c573d6000803e3d6000fd5b505050506040513d601f19601f820116820180604052508101906105b091906113c6565b8b6001600160a01b0316634ba4a28b6040518163ffffffff1660e01b8152600401602060405180830381865afa1580156105ee573d6000803e3d6000fd5b505050506040513d601f19601f8201168201806040525081019061061291906113c6565b83604001518460c00151856020015161062b919061140b565b610635919061140b565b61063f9190611457565b6106499190611457565b97508a6001600160a01b0316634ba4a28b6040518163ffffffff1660e01b8152600401602060405180830381865afa158015610689573d6000803e3d6000fd5b505050506040513d601f19601f820116820180604052508101906106ad91906113c6565b82604001518360c0015184602001516106c6919061140b565b6106d0919061140b565b6106da9190611457565b965050506106f8565b505080806106f09061146a565b9150506104b0565b505050509193509193565b600061029d838361111e565b61077260405180610100016040528060006001600160a01b03168152602001600081526020016000815260200160008152602001600081526020016000815260200160006001600160a01b0316815260200160006001600160a01b031681525090565b61031482826111546107c7565b600082156107a757600083610794848761141e565b61079e9190611435565b915061029d9050565b5060001961029d565b6000816107bd8486611457565b61029a9190611457565b61082a60405180610100016040528060006001600160a01b03168152602001600081526020016000815260200160008152602001600081526020016000815260200160006001600160a01b0316815260200160006001600160a01b031681525090565b83516040517f05e533ce0000000000000000000000000000000000000000000000000000000081526001600160a01b0391821660048201526000196024820181905260448201526000917f000000000000000000000000000000000000000000000000000000000000000016906305e533ce90606401600060405180830381865afa1580156108bd573d6000803e3d6000fd5b505050506040513d6000823e601f3d908101601f191682016040526108e591908101906112c1565b905061093f6040518061012001604052806000815260200160008152602001600081526020016000815260200160006001600160a01b03168152602001600081526020016000815260200160008152602001600081525090565b85600001516001600160a01b031663794e57246040518163ffffffff1660e01b8152600401602060405180830381865afa158015610981573d6000803e3d6000fd5b505050506040513d601f19601f820116820180604052508101906109a591906113c6565b81600001818152505085600001516001600160a01b0316630fdb11cf6040518163ffffffff1660e01b81526004016020604051808303816000875af11580156109f2573d6000803e3d6000fd5b505050506040513d601f19601f82011682018060405250810190610a1691906113c6565b81602001818152505085600001516001600160a01b0316634ba4a28b6040518163ffffffff1660e01b8152600401602060405180830381865afa158015610a61573d6000803e3d6000fd5b505050506040513d601f19601f82011682018060405250810190610a8591906113c6565b8160400181815250507f00000000000000000000000000000000000000000000000000000000000000006001600160a01b031663969c24526040518163ffffffff1660e01b8152600401602060405180830381865afa158015610aec573d6000803e3d6000fd5b505050506040513d601f19601f82011682018060405250810190610b1091906113c6565b606082015260208087015190860152815160009067ffffffffffffffff811115610b3c57610b3c6111a2565b604051908082528060200260200182016040528015610bb657816020015b610ba36040518060e0016040528060006001600160a01b031681526020016000815260200160008152602001600081526020016000815260200160008152602001600081525090565b815260200190600190039081610b5a5790505b50905060005b8351811015610c0f57838181518110610bd757610bd76113df565b6020026020010151828281518110610bf157610bf16113df565b60200260200101819052508080610c079061146a565b915050610bbc565b5060005b8151811015610f0b576000828281518110610c3057610c306113df565b602002602001015190506000610c718260a001518360600151610c53919061140b565b8360c001518460200151610c67919061140b565b876020015161028d565b8551909150811115610ef65788516001600160a01b0316610c9a5781516001600160a01b031689525b88516001600160a01b031615610cc157600189606001818151610cbd919061140b565b9052505b816040015189602001511015610cd8575050610f0b565b610d1782604001518a60200151610cef9190611457565b86604001518460c001518560200151610d08919061140b565b610d129190611457565b611160565b60a0860181905260c08301516020840151610d32919061140b565b610d3c9190611457565b60c08601526020850151604083015160a0870151610d5a919061140b565b610d6c90670de0b6b3a764000061141e565b610d769190611435565b610100860181905260a08301516060840151610d92919061140b565b610d9c9190611457565b60e0860152604085015160c086015103610e6857610dcb89602001518660a0015184604001518b63ffffffff16565b60208a015261010085015160408a0151610de5919061140b565b60408a01528551869084908110610dfe57610dfe6113df565b60200260200101610e4e6040518060e0016040528060006001600160a01b031681526020016000815260200160008152602001600081526020016000815260200160008152602001600081525090565b90526020890151600003610e63575050610f0b565b610ef6565b846060015185604001518660c00151610e819190611457565b1015610e8e575050610f0b565b610ea989602001518660a0015184604001518b63ffffffff16565b60208a015261010085015160408a0151610ec3919061140b565b60408a015260e085015160c0860151610edc9190610703565b60a08a015250516001600160a01b03166080840152610f0b565b50508080610f039061146a565b915050610c13565b5060005b8351811015611002576000848281518110610f2c57610f2c6113df565b6020026020010151905080600001516001600160a01b031684608001516001600160a01b0316148015610f62575060a088015115155b15610fef578115610fa45784610f79600184611457565b81518110610f8957610f896113df565b6020908102919091010151516001600160a01b031660c08901525b60018551610fb29190611457565b8214610fef5784610fc483600161140b565b81518110610fd457610fd46113df565b6020908102919091010151516001600160a01b031660e08901525b5080610ffa8161146a565b915050610f0f565b50600087600001516001600160a01b031663c52861f26040518163ffffffff1660e01b8152600401602060405180830381865afa158015611047573d6000803e3d6000fd5b505050506040513d601f19601f8201168201806040525081019061106b91906113c6565b9050600088600001516001600160a01b0316635429c9426040518163ffffffff1660e01b8152600401602060405180830381865afa1580156110b1573d6000803e3d6000fd5b505050506040513d601f19601f820116820180604052508101906110d591906113c6565b905060028185602001518a604001516110ee919061141e565b6110f89190611435565b6111029190611435565b61110c908361140b565b60808901525095979650505050505050565b6000811561114b578161113a68056bc75e2d631000008561141e565b6111449190611435565b9050610314565b50600019610314565b600061029a8385611457565b600081831061116f578161029d565b5090919050565b60008060006060848603121561118b57600080fd5b505081359360208301359350604090920135919050565b634e487b7160e01b600052604160045260246000fd5b60405160e0810167ffffffffffffffff811182821017156111db576111db6111a2565b60405290565b604051601f8201601f1916810167ffffffffffffffff8111828210171561120a5761120a6111a2565b604052919050565b6001600160a01b038116811461122757600080fd5b50565b60006040828403121561123c57600080fd5b6040516040810181811067ffffffffffffffff8211171561125f5761125f6111a2565b604052823561126d81611212565b81526020928301359281019290925250919050565b60006020828403121561129457600080fd5b813561029d81611212565b600080604083850312156112b257600080fd5b50508035926020909101359150565b600060208083850312156112d457600080fd5b825167ffffffffffffffff808211156112ec57600080fd5b818501915085601f83011261130057600080fd5b815181811115611312576113126111a2565b611320848260051b016111e1565b818152848101925060e091820284018501918883111561133f57600080fd5b938501935b828510156113ba5780858a03121561135c5760008081fd5b6113646111b8565b855161136f81611212565b8152858701518782015260408087015190820152606080870151908201526080808701519082015260a0808701519082015260c0808701519082015284529384019392850192611344565b50979650505050505050565b6000602082840312156113d857600080fd5b5051919050565b634e487b7160e01b600052603260045260246000fd5b634e487b7160e01b600052601160045260246000fd5b80820180821115610314576103146113f5565b8082028115828204841417610314576103146113f5565b60008261145257634e487b7160e01b600052601260045260246000fd5b500490565b81810381811115610314576103146113f5565b6000600019820361147d5761147d6113f5565b506001019056fea2646970667358221220fa4f3f9aebb968a01742fd01ed8e584043a6a6ee265177c620234774d3ad652d64736f6c63430008130033",
  "devdoc": {
    "kind": "dev",
    "methods": {},
    "version": 1
  },
  "userdoc": {
    "kind": "user",
    "methods": {},
    "version": 1
  },
  "storageLayout": {
    "storage": [],
    "types": null
  }
}