{
  "address": "0x710874eA89a5b25675C321843Ed7208a957D6B87",
  "abi": [
    {
      "inputs": [
        {
          "internalType": "contract IZebraCore",
          "name": "_zebraCore",
          "type": "address"
        },
        {
          "internalType": "contract IZebraUSD",
          "name": "_zebraUSDAddress",
          "type": "address"
        },
        {
          "internalType": "address",
          "name": "_factory",
          "type": "address"
        },
        {
          "internalType": "address",
          "name": "_liquidationManager",
          "type": "address"
        },
        {
          "internalType": "address",
          "name": "_communityIssuance",
          "type": "address"
        }
      ],
      "stateMutability": "nonpayable",
      "type": "constructor"
    },
    {
      "anonymous": false,
      "inputs": [
        {
          "indexed": true,
          "internalType": "address",
          "name": "_depositor",
          "type": "address"
        },
        {
          "indexed": false,
          "internalType": "uint256[]",
          "name": "_collateral",
          "type": "uint256[]"
        }
      ],
      "name": "CollateralGainWithdrawn",
      "type": "event"
    },
    {
      "anonymous": false,
      "inputs": [
        {
          "indexed": false,
          "internalType": "address",
          "name": "oldCollateral",
          "type": "address"
        },
        {
          "indexed": false,
          "internalType": "address",
          "name": "newCollateral",
          "type": "address"
        }
      ],
      "name": "CollateralOverwritten",
      "type": "event"
    },
    {
      "anonymous": false,
      "inputs": [
        {
          "indexed": true,
          "internalType": "address",
          "name": "_depositor",
          "type": "address"
        },
        {
          "indexed": false,
          "internalType": "uint256",
          "name": "_P",
          "type": "uint256"
        },
        {
          "indexed": false,
          "internalType": "uint256",
          "name": "_G",
          "type": "uint256"
        }
      ],
      "name": "DepositSnapshotUpdated",
      "type": "event"
    },
    {
      "anonymous": false,
      "inputs": [
        {
          "indexed": false,
          "internalType": "uint128",
          "name": "_currentEpoch",
          "type": "uint128"
        }
      ],
      "name": "EpochUpdated",
      "type": "event"
    },
    {
      "anonymous": false,
      "inputs": [
        {
          "indexed": false,
          "internalType": "uint256",
          "name": "_G",
          "type": "uint256"
        },
        {
          "indexed": false,
          "internalType": "uint128",
          "name": "_epoch",
          "type": "uint128"
        },
        {
          "indexed": false,
          "internalType": "uint128",
          "name": "_scale",
          "type": "uint128"
        }
      ],
      "name": "G_Updated",
      "type": "event"
    },
    {
      "anonymous": false,
      "inputs": [
        {
          "indexed": false,
          "internalType": "uint256",
          "name": "_P",
          "type": "uint256"
        }
      ],
      "name": "P_Updated",
      "type": "event"
    },
    {
      "anonymous": false,
      "inputs": [
        {
          "indexed": true,
          "internalType": "address",
          "name": "account",
          "type": "address"
        },
        {
          "indexed": true,
          "internalType": "address",
          "name": "recipient",
          "type": "address"
        },
        {
          "indexed": false,
          "internalType": "uint256",
          "name": "claimed",
          "type": "uint256"
        }
      ],
      "name": "RewardClaimed",
      "type": "event"
    },
    {
      "anonymous": false,
      "inputs": [
        {
          "indexed": false,
          "internalType": "uint256",
          "name": "idx",
          "type": "uint256"
        },
        {
          "indexed": false,
          "internalType": "uint256",
          "name": "_S",
          "type": "uint256"
        },
        {
          "indexed": false,
          "internalType": "uint128",
          "name": "_epoch",
          "type": "uint128"
        },
        {
          "indexed": false,
          "internalType": "uint128",
          "name": "_scale",
          "type": "uint128"
        }
      ],
      "name": "S_Updated",
      "type": "event"
    },
    {
      "anonymous": false,
      "inputs": [
        {
          "indexed": false,
          "internalType": "uint128",
          "name": "_currentScale",
          "type": "uint128"
        }
      ],
      "name": "ScaleUpdated",
      "type": "event"
    },
    {
      "anonymous": false,
      "inputs": [
        {
          "indexed": false,
          "internalType": "uint256",
          "name": "_newBalance",
          "type": "uint256"
        }
      ],
      "name": "StabilityPoolZebraUSDBalanceUpdated",
      "type": "event"
    },
    {
      "anonymous": false,
      "inputs": [
        {
          "indexed": true,
          "internalType": "address",
          "name": "_depositor",
          "type": "address"
        },
        {
          "indexed": false,
          "internalType": "uint256",
          "name": "_newDeposit",
          "type": "uint256"
        }
      ],
      "name": "UserDepositChanged",
      "type": "event"
    },
    {
      "inputs": [],
      "name": "DECIMAL_PRECISION",
      "outputs": [
        {
          "internalType": "uint256",
          "name": "",
          "type": "uint256"
        }
      ],
      "stateMutability": "view",
      "type": "function"
    },
    {
      "inputs": [],
      "name": "P",
      "outputs": [
        {
          "internalType": "uint256",
          "name": "",
          "type": "uint256"
        }
      ],
      "stateMutability": "view",
      "type": "function"
    },
    {
      "inputs": [],
      "name": "SCALE_FACTOR",
      "outputs": [
        {
          "internalType": "uint256",
          "name": "",
          "type": "uint256"
        }
      ],
      "stateMutability": "view",
      "type": "function"
    },
    {
      "inputs": [],
      "name": "SUNSET_DURATION",
      "outputs": [
        {
          "internalType": "uint128",
          "name": "",
          "type": "uint128"
        }
      ],
      "stateMutability": "view",
      "type": "function"
    },
    {
      "inputs": [],
      "name": "ZebraCore",
      "outputs": [
        {
          "internalType": "contract IZebraCore",
          "name": "",
          "type": "address"
        }
      ],
      "stateMutability": "view",
      "type": "function"
    },
    {
      "inputs": [
        {
          "internalType": "uint16",
          "name": "",
          "type": "uint16"
        }
      ],
      "name": "_sunsetIndexes",
      "outputs": [
        {
          "internalType": "uint128",
          "name": "idx",
          "type": "uint128"
        },
        {
          "internalType": "uint128",
          "name": "expiry",
          "type": "uint128"
        }
      ],
      "stateMutability": "view",
      "type": "function"
    },
    {
      "inputs": [
        {
          "internalType": "address",
          "name": "",
          "type": "address"
        }
      ],
      "name": "accountDeposits",
      "outputs": [
        {
          "internalType": "uint256",
          "name": "",
          "type": "uint256"
        }
      ],
      "stateMutability": "view",
      "type": "function"
    },
    {
      "inputs": [
        {
          "internalType": "address",
          "name": "recipient",
          "type": "address"
        },
        {
          "internalType": "uint256[]",
          "name": "collateralIndexes",
          "type": "uint256[]"
        }
      ],
      "name": "claim",
      "outputs": [],
      "stateMutability": "nonpayable",
      "type": "function"
    },
    {
      "inputs": [
        {
          "internalType": "address",
          "name": "_depositor",
          "type": "address"
        }
      ],
      "name": "claimableReward",
      "outputs": [
        {
          "internalType": "uint256",
          "name": "",
          "type": "uint256"
        }
      ],
      "stateMutability": "view",
      "type": "function"
    },
    {
      "inputs": [
        {
          "internalType": "address",
          "name": "",
          "type": "address"
        },
        {
          "internalType": "uint256",
          "name": "",
          "type": "uint256"
        }
      ],
      "name": "collateralGainsByDepositor",
      "outputs": [
        {
          "internalType": "uint256",
          "name": "",
          "type": "uint256"
        }
      ],
      "stateMutability": "view",
      "type": "function"
    },
    {
      "inputs": [
        {
          "internalType": "uint256",
          "name": "",
          "type": "uint256"
        }
      ],
      "name": "collateralTokens",
      "outputs": [
        {
          "internalType": "contract IERC20",
          "name": "",
          "type": "address"
        }
      ],
      "stateMutability": "view",
      "type": "function"
    },
    {
      "inputs": [],
      "name": "communityIssuance",
      "outputs": [
        {
          "internalType": "contract ICommunityIssuance",
          "name": "",
          "type": "address"
        }
      ],
      "stateMutability": "view",
      "type": "function"
    },
    {
      "inputs": [],
      "name": "currentEpoch",
      "outputs": [
        {
          "internalType": "uint128",
          "name": "",
          "type": "uint128"
        }
      ],
      "stateMutability": "view",
      "type": "function"
    },
    {
      "inputs": [],
      "name": "currentScale",
      "outputs": [
        {
          "internalType": "uint128",
          "name": "",
          "type": "uint128"
        }
      ],
      "stateMutability": "view",
      "type": "function"
    },
    {
      "inputs": [
        {
          "internalType": "address",
          "name": "",
          "type": "address"
        }
      ],
      "name": "depositSnapshots",
      "outputs": [
        {
          "internalType": "uint256",
          "name": "P",
          "type": "uint256"
        },
        {
          "internalType": "uint256",
          "name": "G",
          "type": "uint256"
        },
        {
          "internalType": "uint128",
          "name": "scale",
          "type": "uint128"
        },
        {
          "internalType": "uint128",
          "name": "epoch",
          "type": "uint128"
        }
      ],
      "stateMutability": "view",
      "type": "function"
    },
    {
      "inputs": [
        {
          "internalType": "address",
          "name": "",
          "type": "address"
        },
        {
          "internalType": "uint256",
          "name": "",
          "type": "uint256"
        }
      ],
      "name": "depositSums",
      "outputs": [
        {
          "internalType": "uint256",
          "name": "",
          "type": "uint256"
        }
      ],
      "stateMutability": "view",
      "type": "function"
    },
    {
      "inputs": [
        {
          "internalType": "contract IERC20",
          "name": "_collateral",
          "type": "address"
        }
      ],
      "name": "enableCollateral",
      "outputs": [],
      "stateMutability": "nonpayable",
      "type": "function"
    },
    {
      "inputs": [
        {
          "internalType": "uint128",
          "name": "",
          "type": "uint128"
        },
        {
          "internalType": "uint128",
          "name": "",
          "type": "uint128"
        }
      ],
      "name": "epochToScaleToG",
      "outputs": [
        {
          "internalType": "uint256",
          "name": "",
          "type": "uint256"
        }
      ],
      "stateMutability": "view",
      "type": "function"
    },
    {
      "inputs": [
        {
          "internalType": "uint128",
          "name": "",
          "type": "uint128"
        },
        {
          "internalType": "uint128",
          "name": "",
          "type": "uint128"
        },
        {
          "internalType": "uint256",
          "name": "",
          "type": "uint256"
        }
      ],
      "name": "epochToScaleToSums",
      "outputs": [
        {
          "internalType": "uint256",
          "name": "",
          "type": "uint256"
        }
      ],
      "stateMutability": "view",
      "type": "function"
    },
    {
      "inputs": [],
      "name": "factory",
      "outputs": [
        {
          "internalType": "address",
          "name": "",
          "type": "address"
        }
      ],
      "stateMutability": "view",
      "type": "function"
    },
    {
      "inputs": [
        {
          "internalType": "address",
          "name": "_depositor",
          "type": "address"
        }
      ],
      "name": "getCompoundedDeposit",
      "outputs": [
        {
          "internalType": "uint256",
          "name": "",
          "type": "uint256"
        }
      ],
      "stateMutability": "view",
      "type": "function"
    },
    {
      "inputs": [
        {
          "internalType": "address",
          "name": "_depositor",
          "type": "address"
        }
      ],
      "name": "getDepositorCollateralGain",
      "outputs": [
        {
          "internalType": "uint256[]",
          "name": "collateralGains",
          "type": "uint256[]"
        }
      ],
      "stateMutability": "view",
      "type": "function"
    },
    {
      "inputs": [],
      "name": "getTotalZebraUSDDeposits",
      "outputs": [
        {
          "internalType": "uint256",
          "name": "",
          "type": "uint256"
        }
      ],
      "stateMutability": "view",
      "type": "function"
    },
    {
      "inputs": [],
      "name": "guardian",
      "outputs": [
        {
          "internalType": "address",
          "name": "",
          "type": "address"
        }
      ],
      "stateMutability": "view",
      "type": "function"
    },
    {
      "inputs": [
        {
          "internalType": "contract IERC20",
          "name": "",
          "type": "address"
        }
      ],
      "name": "indexByCollateral",
      "outputs": [
        {
          "internalType": "uint256",
          "name": "",
          "type": "uint256"
        }
      ],
      "stateMutability": "view",
      "type": "function"
    },
    {
      "inputs": [
        {
          "internalType": "uint256",
          "name": "",
          "type": "uint256"
        }
      ],
      "name": "lastCollateralError_Offset",
      "outputs": [
        {
          "internalType": "uint256",
          "name": "",
          "type": "uint256"
        }
      ],
      "stateMutability": "view",
      "type": "function"
    },
    {
      "inputs": [],
      "name": "lastDebtLossError_Offset",
      "outputs": [
        {
          "internalType": "uint256",
          "name": "",
          "type": "uint256"
        }
      ],
      "stateMutability": "view",
      "type": "function"
    },
    {
      "inputs": [],
      "name": "lastEsZebraError",
      "outputs": [
        {
          "internalType": "uint256",
          "name": "",
          "type": "uint256"
        }
      ],
      "stateMutability": "view",
      "type": "function"
    },
    {
      "inputs": [],
      "name": "liquidationManager",
      "outputs": [
        {
          "internalType": "address",
          "name": "",
          "type": "address"
        }
      ],
      "stateMutability": "view",
      "type": "function"
    },
    {
      "inputs": [
        {
          "internalType": "address",
          "name": "",
          "type": "address"
        }
      ],
      "name": "lockTime",
      "outputs": [
        {
          "internalType": "uint256",
          "name": "",
          "type": "uint256"
        }
      ],
      "stateMutability": "view",
      "type": "function"
    },
    {
      "inputs": [
        {
          "internalType": "contract IERC20",
          "name": "collateral",
          "type": "address"
        },
        {
          "internalType": "uint256",
          "name": "_debtToOffset",
          "type": "uint256"
        },
        {
          "internalType": "uint256",
          "name": "_collToAdd",
          "type": "uint256"
        }
      ],
      "name": "offset",
      "outputs": [],
      "stateMutability": "nonpayable",
      "type": "function"
    },
    {
      "inputs": [],
      "name": "owner",
      "outputs": [
        {
          "internalType": "address",
          "name": "",
          "type": "address"
        }
      ],
      "stateMutability": "view",
      "type": "function"
    },
    {
      "inputs": [
        {
          "internalType": "uint256",
          "name": "_amount",
          "type": "uint256"
        }
      ],
      "name": "provideToSP",
      "outputs": [],
      "stateMutability": "nonpayable",
      "type": "function"
    },
    {
      "inputs": [],
      "name": "queue",
      "outputs": [
        {
          "internalType": "uint16",
          "name": "firstSunsetIndexKey",
          "type": "uint16"
        },
        {
          "internalType": "uint16",
          "name": "nextSunsetIndexKey",
          "type": "uint16"
        }
      ],
      "stateMutability": "view",
      "type": "function"
    },
    {
      "inputs": [
        {
          "internalType": "contract IERC20",
          "name": "collateral",
          "type": "address"
        }
      ],
      "name": "startCollateralSunset",
      "outputs": [],
      "stateMutability": "nonpayable",
      "type": "function"
    },
    {
      "inputs": [
        {
          "internalType": "uint256",
          "name": "_amount",
          "type": "uint256"
        }
      ],
      "name": "withdrawFromSP",
      "outputs": [],
      "stateMutability": "nonpayable",
      "type": "function"
    },
    {
      "inputs": [],
      "name": "zebraUSD",
      "outputs": [
        {
          "internalType": "contract IZebraUSD",
          "name": "",
          "type": "address"
        }
      ],
      "stateMutability": "view",
      "type": "function"
    }
  ],
  "transactionHash": "0x60e74efbaadf312f05d34573959cea4d74ed94d62b2f47ef1a3e4168b6efb199",
  "args": [
    "0xadc1E93730e31B19Bd205D38BC399296e8A40728",
    "0xC9e250A4560ad30543AEce22E247866Fb57a45e5",
    "0xdf533a8b30cd0817d53f41bf484140483dabd2a5",
    "0x1f1f4609de6fdba03e975fd010930ded4091cf42",
    "0x5c53E243077fE960Dad06Ab5Ea3e0B9771dc5CdB"
  ],
  "numDeployments": 1,
  "solcInputHash": "1df14a9ede2145d864db7b0244547377",
  "bytecode": "0x610120604052670de0b6b3a76400006009553480156200001e57600080fd5b50604051620035d7380380620035d7833981016040819052620000419162000084565b6001600160a01b0394851660805292841660a05290831660c052821660e052166101005262000104565b6001600160a01b03811681146200008157600080fd5b50565b600080600080600060a086880312156200009d57600080fd5b8551620000aa816200006b565b6020870151909550620000bd816200006b565b6040870151909450620000d0816200006b565b6060870151909350620000e3816200006b565b6080870151909250620000f6816200006b565b809150509295509295909350565b60805160a05160c05160e051610100516134486200018f600039600081816104e6015281816112c6015281816117b80152611c8d01526000818161030d01526124d401526000818161058901526106d701526000818161050d01528181610ce00152611529015260008181610347015281816110f101528181611377015261164201526134486000f3fe608060405234801561001057600080fd5b50600436106102775760003560e01c80638b8fbd9211610160578063c45a0155116100d8578063e10d29ee1161008c578063e950342511610071578063e950342514610678578063eeb58d0b1461068b578063f177b8351461069e57600080fd5b8063e10d29ee14610631578063e66667331461066557600080fd5b8063ce4b5bbe116100bd578063ce4b5bbe146105be578063db03fdaa146105c9578063dec8d975146105dc57600080fd5b8063c45a015514610584578063cd7502fe146105ab57600080fd5b8063a20baee61161012f578063a4e59ac811610114578063a4e59ac81461055e578063a6ef225414610571578063a7528a031461057a57600080fd5b8063a20baee61461052f578063a4beda631461053e57600080fd5b80638b8fbd92146104d05780638da5cb5b146104d957806395fb16bb146104e15780639b0e384e1461050857600080fd5b8063452a9320116101f357806378c77a24116101c257806382e0a574116101a757806382e0a57414610413578063835dada01461043e57806386da08241461045e57600080fd5b806378c77a24146103f657806381bafb311461040957600080fd5b8063452a93201461038957806345718278146103915780635383dfcb146103a457806376671808146103c457600080fd5b806319f27b3b1161024a5780632e54bf951161022f5780632e54bf951461032f5780632fbea01414610342578063307d36121461036957600080fd5b806319f27b3b146102f55780631ef3a04c1461030857600080fd5b806309e2acb01461027c57806311be0de5146102a25780631500d2c3146102b7578063172c48c7146102ca575b600080fd5b61028f61028a366004612fa2565b6106a6565b6040519081526020015b60405180910390f35b6102b56102b0366004612fce565b6106cc565b005b61028f6102c5366004612fa2565b61096b565b6102dd6102d8366004612ff2565b610988565b6040516001600160a01b039091168152602001610299565b6102b5610303366004612fce565b6109b2565b6102dd7f000000000000000000000000000000000000000000000000000000000000000081565b6102b561033d366004612ff2565b610b61565b6102dd7f000000000000000000000000000000000000000000000000000000000000000081565b61037c610377366004612fce565b610db5565b604051610299919061300b565b6102dd6110ed565b6102b561039f366004613065565b611176565b61028f6103b2366004612fce565b60006020819052908152604090205481565b600a546103de90600160801b90046001600160801b031681565b6040516001600160801b039091168152602001610299565b6102b5610404366004612ff2565b611375565b61028f61010e5481565b61028f610421366004613154565b600c60209081526000928352604080842090915290825290205481565b61028f61044c366004612fce565b60046020526000908152604090205481565b6104a161046c366004612fce565b6005602052600090815260409020805460018201546002909201549091906001600160801b0380821691600160801b90041684565b6040805194855260208501939093526001600160801b0391821692840192909252166060820152608001610299565b61028f60095481565b6102dd61163e565b6102dd7f000000000000000000000000000000000000000000000000000000000000000081565b6102dd7f000000000000000000000000000000000000000000000000000000000000000081565b61028f670de0b6b3a764000081565b61028f61054c366004612fce565b60036020526000908152604090205481565b600a546103de906001600160801b031681565b61028f600d5481565b6103de62ed4e0081565b6102dd7f000000000000000000000000000000000000000000000000000000000000000081565b61028f6105b9366004612fce565b61169e565b61028f633b9aca0081565b61028f6105d7366004613187565b611731565b6106116105ea3660046131c3565b61010f602052600090815260409020546001600160801b0380821691600160801b90041682565b604080516001600160801b03938416815292909116602083015201610299565b6101105461064a9061ffff808216916201000090041682565b6040805161ffff938416815292909116602083015201610299565b6102b56106733660046131e7565b611764565b61028f610686366004612fce565b61176f565b61028f610699366004612ff2565b611a5a565b60025461028f565b60066020528160005260406000208161010081106106c357600080fd5b01549150829050565b336001600160a01b037f000000000000000000000000000000000000000000000000000000000000000016146107495760405162461bcd60e51b815260206004820152600b60248201527f4e6f7420666163746f727900000000000000000000000000000000000000000060448201526064015b60405180910390fd5b6001546000805b828110156107aa57836001600160a01b0316600182815481106107755761077561321c565b6000918252602090912001546001600160a01b03160361079857600191506107aa565b806107a281613248565b915050610750565b508061090157604080518082019091526101105461ffff808216808452620100009092041660208301819052111561088a57805161ffff16600090815261010f60209081526040918290208251808401909352546001600160801b038082168452600160801b9091041690820181905242111561088857610110805461010f9160009161ffff16908261083c83613280565b82546101009290920a61ffff818102199093169183160217909155168152602081019190915260400160009081205580516108819086906001600160801b0316611a72565b5050505050565b505b506001805480820182557fb10e2d527612073b26eecdfd717e6a320cf44b4afac2b0732d9fcbe2b7fa0cf60180547fffffffffffffffffffffffff0000000000000000000000000000000000000000166001600160a01b038616908117909155905460009182526020829052604090912055505050565b6001600160a01b0383166000908152602081905260409020546109665760405162461bcd60e51b815260206004820152601860248201527f436f6c6c61746572616c2069732073756e73657474696e6700000000000000006044820152606401610740565b505050565b60076020528160005260406000208161010081106106c357600080fd5b6001818154811061099857600080fd5b6000918252602090912001546001600160a01b0316905081565b6109ba61163e565b6001600160a01b0316336001600160a01b031614610a1a5760405162461bcd60e51b815260206004820152600a60248201527f4f6e6c79206f776e6572000000000000000000000000000000000000000000006044820152606401610740565b6001600160a01b038116600090815260208190526040902054610a7f5760405162461bcd60e51b815260206004820152601d60248201527f436f6c6c61746572616c20616c72656164792073756e73657474696e670000006044820152606401610740565b6040805180820182526001600160a01b0383166000908152602081905291909120548190610aaf906001906132a1565b6001600160801b03168152602001610aca62ed4e00426132b4565b6001600160801b03169052610110805461010f9160009162010000900461ffff16906002610af783613280565b825461ffff9182166101009390930a928302928202191691909117909155168152602080820192909252604090810160009081208451948401516001600160801b03908116600160801b029516949094179093556001600160a01b03909316825281905290812055565b3360009081526004602052604090205480610be45760405162461bcd60e51b815260206004820152603060248201527f53746162696c697479506f6f6c3a2055736572206d757374206861766520612060448201527f6e6f6e2d7a65726f206465706f736974000000000000000000000000000000006064820152608401610740565b33600090815260036020526040902054429003610c695760405162461bcd60e51b815260206004820152602360248201527f53746162696c697479506f6f6c3a205769746864726177616c206973206c6f6360448201527f6b656400000000000000000000000000000000000000000000000000000000006064820152608401610740565b610c71611c88565b610c7a33611d16565b506000610c863361169e565b90506000610c948483611eee565b9050610c9f33611f08565b8015610d4d576040517f20c582be000000000000000000000000000000000000000000000000000000008152306004820152336024820152604481018290527f00000000000000000000000000000000000000000000000000000000000000006001600160a01b0316906320c582be90606401600060405180830381600087803b158015610d2c57600080fd5b505af1158015610d40573d6000803e3d6000fd5b50505050610d4d81611f5a565b6000610d5982846132a1565b336000818152600460205260409020829055909150610d789082611fa9565b60405181815233907fbce78369dccab09eec1986f4d409ab09ffbb47d65423e5148fcf98411c5111c9906020015b60405180910390a25050505050565b60015460609067ffffffffffffffff811115610dd357610dd361304f565b604051908082528060200260200182016040528015610dfc578160200160208202803683370190505b506001600160a01b038316600090815260056020526040812054919250819003610e265750919050565b6001600160a01b0383166000908152600760205260408082208151612000810192839052916101009082845b815481526020019060010190808311610e5257505050506001600160a01b03861660009081526004602090815260408083205460058352818420600201546001600160801b03600160801b82048116808752600b865284872091909216808752945282852083516120008101948590529798509196909550929392916101009082845b815481526020019060010190808311610ed557505050506001600160801b0385166000908152600b6020526040812092935091905081610f168560016132c7565b6001600160801b03168152602081019190915260409081016000208151612000810192839052916101009082845b815481526020019060010190808311610f4457505050506001600160a01b038b166000908152600660205260408082208151612000810192839052949550919392506101009082845b815481526020019060010190808311610f8d575050505050905060005b89518110156110df5787816101008110610fc657610fc661321c565b60200201518a8281518110610fdd57610fdd61321c565b60200260200101818152505083816101008110610ffc57610ffc61321c565b6020020151156110cd5760008282610100811061101b5761101b61321c565b6020020151858361010081106110335761103361321c565b602002015161104291906132a1565b90506000633b9aca008584610100811061105e5761105e61321c565b602002015161106d91906132ee565b9050670de0b6b3a76400008b61108383856132b4565b61108d908c613310565b61109791906132ee565b6110a191906132ee565b8c84815181106110b3576110b361321c565b602002602001018181516110c791906132b4565b90525050505b806110d781613248565b915050610faa565b505050505050505050919050565b60007f00000000000000000000000000000000000000000000000000000000000000006001600160a01b031663452a93206040518163ffffffff1660e01b8152600401602060405180830381865afa15801561114d573d6000803e3d6000fd5b505050506040513d601f19601f820116820180604052508101906111719190613327565b905090565b33600090815260046020526040902054806111f95760405162461bcd60e51b815260206004820152603060248201527f53746162696c697479506f6f6c3a2055736572206d757374206861766520612060448201527f6e6f6e2d7a65726f206465706f736974000000000000000000000000000000006064820152608401610740565b611201611c88565b61120a33611d16565b5060006112163361169e565b905061122133611f08565b336000818152600460205260409020829055819061123f9082611fa9565b60405181815233907fbce78369dccab09eec1986f4d409ab09ffbb47d65423e5148fcf98411c5111c99060200160405180910390a2600061127f3361219b565b90508015611323576040517fdf50b9390000000000000000000000000000000000000000000000000000000081526001600160a01b038781166004830152602482018390527f0000000000000000000000000000000000000000000000000000000000000000169063df50b93990604401600060405180830381600087803b15801561130a57600080fd5b505af115801561131e573d6000803e3d6000fd5b505050505b6040518181526001600160a01b0387169033907f0aa4d283470c904c551d18bb894d37e17674920f3261a7f854be501e25f421b79060200160405180910390a361136d8686612289565b505050505050565b7f00000000000000000000000000000000000000000000000000000000000000006001600160a01b0316635c975abb6040518163ffffffff1660e01b8152600401602060405180830381865afa1580156113d3573d6000803e3d6000fd5b505050506040513d601f19601f820116820180604052508101906113f79190613344565b156114445760405162461bcd60e51b815260206004820152601360248201527f4465706f736974732061726520706175736564000000000000000000000000006044820152606401610740565b600081116114ba5760405162461bcd60e51b815260206004820152602660248201527f53746162696c697479506f6f6c3a20416d6f756e74206d757374206265206e6f60448201527f6e2d7a65726f00000000000000000000000000000000000000000000000000006064820152608401610740565b3360009081526003602052604090204290556114d4611c88565b6114dd33611d16565b5060006114e93361169e565b90506114f433611f08565b6040517fe75b3ae7000000000000000000000000000000000000000000000000000000008152336004820152602481018390527f00000000000000000000000000000000000000000000000000000000000000006001600160a01b03169063e75b3ae790604401600060405180830381600087803b15801561157557600080fd5b505af1158015611589573d6000803e3d6000fd5b5050505060008260025461159d91906132b4565b60028190556040518181529091507f1943de03971a1d888cba90f6bca3d87496fdaca487c0f5664155c6e7ff151e049060200160405180910390a160006115e484846132b4565b3360008181526004602052604090208290559091506116039082611fa9565b60405181815233907fbce78369dccab09eec1986f4d409ab09ffbb47d65423e5148fcf98411c5111c99060200160405180910390a250505050565b60007f00000000000000000000000000000000000000000000000000000000000000006001600160a01b0316638da5cb5b6040518163ffffffff1660e01b8152600401602060405180830381865afa15801561114d573d6000803e3d6000fd5b6001600160a01b0381166000908152600460205260408120548082036116c75750600092915050565b6001600160a01b0383166000908152600560209081526040808320815160808101835281548152600182015493810193909352600201546001600160801b0380821692840192909252600160801b90041660608201529061172883836123dc565b95945050505050565b600b60205282600052604060002060205281600052604060002081610100811061175a57600080fd5b0154925083915050565b6109668383836124c9565b6002546001600160a01b038216600090815260046020526040812054909190811580611799575080155b156117a8575060009392505050565b6000600d54670de0b6b3a76400007f00000000000000000000000000000000000000000000000000000000000000006001600160a01b031663137ee36e6040518163ffffffff1660e01b8152600401602060405180830381865afa158015611814573d6000803e3d6000fd5b505050506040513d601f19601f820116820180604052508101906118389190613366565b6118429190613310565b61184c91906132b4565b9050600061185a84836132ee565b905060006009548261186c9190613310565b6001600160a01b0388166000908152600560209081526040808320815160808101835281548152600182015493810193909352600201546001600160801b03808216928401839052600160801b909104811660608401819052600a54959650929492939192829116830361197a576020808601516001600160801b038087166000908152600c84526040808220928816825291909352909120548791611911916132a1565b61191b91906132b4565b6001600160801b0385166000908152600c60205260408120919350633b9aca0091906119488660016132c7565b6001600160801b03166001600160801b031681526020019081526020016000205461197391906132ee565b9050611a16565b6020808601516001600160801b038087166000908152600c84526040808220928816825291909352909120546119b091906132a1565b6001600160801b0385166000908152600c60205260408120919350633b9aca009188916119de8760016132c7565b6001600160801b03166001600160801b0316815260200190815260200160002054611a0991906132b4565b611a1391906132ee565b90505b8451670de0b6b3a764000090611a2c83856132b4565b611a36908c613310565b611a4091906132ee565b611a4a91906132ee565b9c9b505050505050505050505050565b600e816101008110611a6b57600080fd5b0154905081565b6001600160a01b03821660009081526020819052604090205415611ad85760405162461bcd60e51b815260206004820152601960248201527f436f6c6c61746572616c206d7573742062652073756e736574000000000000006044820152606401610740565b600154808210611b2a5760405162461bcd60e51b815260206004820152600f60248201527f496e64657820746f6f206c6172676500000000000000000000000000000000006044820152606401610740565b600a546001600160801b03600160801b82048116911660005b82816001600160801b031611611bb25760005b82816001600160801b031611611ba9576001600160801b038083166000908152600b602090815260408083209385168352929052908120876101008110611b9f57611b9f61321c565b0155600101611b56565b50600101611b43565b50611bbe8460016132b4565b6001600160a01b038616600090815260208190526040902055600180547f9e147d339c63698deb55c3d0d44ed3eba29bac2a068a88c4bc5bde17d6331e19919086908110611c0e57611c0e61321c565b60009182526020918290200154604080516001600160a01b039283168152918916928201929092520160405180910390a18460018581548110611c5357611c5361321c565b9060005260206000200160006101000a8154816001600160a01b0302191690836001600160a01b031602179055505050505050565b611d147f00000000000000000000000000000000000000000000000000000000000000006001600160a01b031663dde105316040518163ffffffff1660e01b81526004016020604051808303816000875af1158015611ceb573d6000803e3d6000fd5b505050506040513d601f19601f82011682018060405250810190611d0f9190613366565b6125e0565b565b6001600160a01b0381166000908152600760209081526040808320600154600490935290832054909190808403611d4f57505050919050565b6001600160a01b0385166000908152600560209081526040808320600281015490546001600160801b03600160801b83048116808752600b80875285882092909416808852828752948720818852939095529394929390929081611db48660016132c7565b6001600160801b03168152602080820192909252604090810160009081206001600160a01b038e16825260069093529081209192505b88811015611edf5783816101008110611e0557611e0561321c565b015415611ecd5760019a50600082826101008110611e2557611e2561321c565b015485836101008110611e3a57611e3a61321c565b0154611e4691906132a1565b90506000633b9aca0085846101008110611e6257611e6261321c565b0154611e6e91906132ee565b9050670de0b6b3a764000087611e8483856132b4565b611e8e908d613310565b611e9891906132ee565b611ea291906132ee565b8c846101008110611eb557611eb561321c565b016000828254611ec591906132b4565b909155505050505b80611ed781613248565b915050611dea565b50505050505050505050919050565b6000818310611efd5781611eff565b825b90505b92915050565b6000611f13826126dc565b6001600160a01b038316600090815260086020526040902054909150611f3a9082906132b4565b6001600160a01b0390921660009081526008602052604090209190915550565b600081600254611f6a91906132a1565b60028190556040518181529091507f1943de03971a1d888cba90f6bca3d87496fdaca487c0f5664155c6e7ff151e049060200160405180910390a15050565b60008160000361207257506001600160a01b03821660009081526005602052604081208181556001808201839055600290910182905554905b81811015612028576001600160a01b03841660009081526006602052604081208261010081106120145761201461321c565b01558061202081613248565b915050611fe2565b5060408051600080825260208201526001600160a01b038516917fc48943df4095f4f20d171fd2872eafdc0eed4d9014ac3672f3bde7fd425449d5910160405180910390a2505050565b50600a546009546001600160801b03600160801b80840482166000818152600b6020908152604080832095909716808352948152868220838352600c82528783208684528252878320546001600160a01b038b168452600590925296822086815560018082018390559484028617600290910155925495939491939192905b8681101561214c578281610100811061210c5761210c61321c565b01546001600160a01b038a1660009081526006602052604090208261010081106121385761213861321c565b01558061214481613248565b9150506120f1565b5060408051848152602081018390526001600160a01b038a16917fc48943df4095f4f20d171fd2872eafdc0eed4d9014ac3672f3bde7fd425449d5910160405180910390a25050505050505050565b6001600160a01b038116600090815260046020526040812054801561223d576121c2611c88565b60006121cd84611d16565b905060006121da8561169e565b905060006121e882856132a1565b90506121f3866126dc565b945060008111806122015750825b8061220c5750600085115b15612239576001600160a01b0386166000908152600460205260409020829055816122378782611fa9565b505b5050505b6001600160a01b03831660009081526008602052604090205480156122825761226681846132b4565b6001600160a01b03851660009081526008602052604081205592505b5050919050565b805160015460009067ffffffffffffffff8111156122a9576122a961304f565b6040519080825280602002602001820160405280156122d2578160200160208202803683370190505b503360009081526007602052604081209192505b838110156123a25760008582815181106123025761230261321c565b602002602001015190506000838261010081106123215761232161321c565b015490508015612398578085838151811061233e5761233e61321c565b60200260200101818152505060008483610100811061235f5761235f61321c565b018190555061239888826001858154811061237c5761237c61321c565b6000918252602090912001546001600160a01b03169190612770565b50506001016122e6565b50336001600160a01b03167faecf5c2e84838a7ed87234d73965fc51f96b87b4c957f03bf22cfeb618c9aae183604051610da6919061300b565b805160408201516060830151600a546000939291906001600160801b03600160801b909104811690821610156124185760009350505050611f02565b600a5460009081906124349085906001600160801b031661337f565b9050806001600160801b03166000036124675784600954896124569190613310565b61246091906132ee565b915061249b565b806001600160801b031660010361249657633b9aca00856009548a61248c9190613310565b61245691906132ee565b600091505b6124a9633b9aca00896132ee565b8210156124be57600095505050505050611f02565b509695505050505050565b336001600160a01b037f000000000000000000000000000000000000000000000000000000000000000016146125675760405162461bcd60e51b815260206004820152603060248201527f53746162696c697479506f6f6c3a2043616c6c6572206973206e6f74204c697160448201527f7569646174696f6e204d616e61676572000000000000000000000000000000006064820152608401610740565b6001600160a01b03831660009081526020819052604090205461258b6001826132a1565b60025490915080158061259c575083155b156125a8575050505050565b6125b0611c88565b6000806125bf858785876127f0565b915091506125ce8282866128dd565b6125d786611f5a565b50505050505050565b6002548015806125ee575081155b156125f7575050565b60006126038383612c48565b600a546009549192506001600160801b03600160801b820481169291169060009061262e9085613310565b6001600160801b038085166000908152600c60209081526040808320938716835292905290812054919250906126659083906132b4565b6001600160801b038581166000818152600c60209081526040808320948916808452948252918290208590558151858152908101929092528101919091529091507f2d6127771b164a9cc8827d24b5955db2a77e7a81dac389107ebb8bce9fb649689060600160405180910390a150505050505050565b6001600160a01b0381166000908152600460205260408120548082036127055750600092915050565b6001600160a01b038316600090815260056020908152604091829020825160808101845281548152600182015492810192909252600201546001600160801b0380821693830193909352600160801b900490911660608201526127688282612c9b565b949350505050565b604080516001600160a01b038416602482015260448082018490528251808303909101815260649091019091526020810180517bffffffffffffffffffffffffffffffffffffffffffffffffffffffff167fa9059cbb00000000000000000000000000000000000000000000000000000000179052610966908490612d7f565b6000806000600e8461010081106128095761280961321c565b015461281d670de0b6b3a764000089613310565b61282791906132b4565b905084860361284657600061010e55670de0b6b3a7640000915061289d565b61010e5460009061285f670de0b6b3a764000089613310565b61286991906132a1565b905061287586826132ee565b6128809060016132b4565b92508061288d8785613310565b61289791906132a1565b61010e55505b6128a785826132ee565b92506128b38584613310565b6128bd90826132a1565b600e8561010081106128d1576128d161321c565b01555094509492505050565b6009546000806128f585670de0b6b3a76400006132a1565b600a546001600160801b03600160801b820481166000818152600b602090815260408083209490951680835293905292832093945090929091908761010081106129415761294161321c565b015490506000612951878b613310565b9050600061295f82846132b4565b6001600160801b038086166000908152600b60209081526040808320938a1683529290522090915081908a610100811061299b5761299b61321c565b0155604080518a8152602081018390526001600160801b03868116828401528716606082015290517fe150473acddd94d1c6add794bd840c8d3e297dc3e50d863b56c0fba04d0d02479181900360800190a185600003612ac157612a008460016132c7565b600a80546001600160801b03908116600160801b93821684021791829055604051929091041681527fb50f0f59e7cb5b421dc77581c3a9919e3806e076e5fa78a874c3f120cb7d874d9060200160405180910390a1600a80547fffffffffffffffffffffffffffffffff00000000000000000000000000000000169055604051600081527f1f9dfc70cd666adb18a39d60a797518f7b4febf4b6e24ef37d44f6e1e7219fbe9060200160405180910390a1670de0b6b3a76400009650612bb1565b633b9aca00670de0b6b3a7640000612ad9888b613310565b612ae391906132ee565b1015612b9157670de0b6b3a7640000633b9aca00612b01888b613310565b612b0b9190613310565b612b1591906132ee565b9650612b228560016132c7565b600a80547fffffffffffffffffffffffffffffffff00000000000000000000000000000000166001600160801b039290921691821790556040519081527f1f9dfc70cd666adb18a39d60a797518f7b4febf4b6e24ef37d44f6e1e7219fbe9060200160405180910390a1612bb1565b670de0b6b3a7640000612ba4878a613310565b612bae91906132ee565b96505b60008711612c035760405162461bcd60e51b81526004016107409060208082526004908201527f4e65775000000000000000000000000000000000000000000000000000000000604082015260600190565b60098790556040518781527fc1a9618cb59ebca77cbdbc2949f126823c407ff13edb285fd0262519a9c18e8c9060200160405180910390a15050505050505050505050565b600080600d54670de0b6b3a764000085612c629190613310565b612c6c91906132b4565b90506000612c7a84836132ee565b9050612c868482613310565b612c9090836132a1565b600d55949350505050565b606081015160408083015160208085015185516001600160801b038087166000908152600c8552868120918616815293529382205491949390918590612ce29084906132a1565b6001600160801b0386166000908152600c6020526040812091925090633b9aca009082612d108860016132c7565b6001600160801b03166001600160801b0316815260200190815260200160002054612d3b91906132ee565b90506000670de0b6b3a764000084612d5384866132b4565b612d5d908d613310565b612d6791906132ee565b612d7191906132ee565b9a9950505050505050505050565b6000612dd4826040518060400160405280602081526020017f5361666545524332303a206c6f772d6c6576656c2063616c6c206661696c6564815250856001600160a01b0316612e679092919063ffffffff16565b9050805160001480612df5575080806020019051810190612df59190613344565b6109665760405162461bcd60e51b815260206004820152602a60248201527f5361666545524332303a204552433230206f7065726174696f6e20646964206e60448201527f6f742073756363656564000000000000000000000000000000000000000000006064820152608401610740565b6060612768848460008585600080866001600160a01b03168587604051612e8e91906133c3565b60006040518083038185875af1925050503d8060008114612ecb576040519150601f19603f3d011682016040523d82523d6000602084013e612ed0565b606091505b5091509150612ee187838387612eec565b979650505050505050565b60608315612f5b578251600003612f54576001600160a01b0385163b612f545760405162461bcd60e51b815260206004820152601d60248201527f416464726573733a2063616c6c20746f206e6f6e2d636f6e74726163740000006044820152606401610740565b5081612768565b6127688383815115612f705781518083602001fd5b8060405162461bcd60e51b815260040161074091906133df565b6001600160a01b0381168114612f9f57600080fd5b50565b60008060408385031215612fb557600080fd5b8235612fc081612f8a565b946020939093013593505050565b600060208284031215612fe057600080fd5b8135612feb81612f8a565b9392505050565b60006020828403121561300457600080fd5b5035919050565b6020808252825182820181905260009190848201906040850190845b8181101561304357835183529284019291840191600101613027565b50909695505050505050565b634e487b7160e01b600052604160045260246000fd5b6000806040838503121561307857600080fd5b823561308381612f8a565b915060208381013567ffffffffffffffff808211156130a157600080fd5b818601915086601f8301126130b557600080fd5b8135818111156130c7576130c761304f565b8060051b604051601f19603f830116810181811085821117156130ec576130ec61304f565b60405291825284820192508381018501918983111561310a57600080fd5b938501935b828510156131285784358452938501939285019261310f565b8096505050505050509250929050565b80356001600160801b038116811461314f57600080fd5b919050565b6000806040838503121561316757600080fd5b61317083613138565b915061317e60208401613138565b90509250929050565b60008060006060848603121561319c57600080fd5b6131a584613138565b92506131b360208501613138565b9150604084013590509250925092565b6000602082840312156131d557600080fd5b813561ffff81168114612feb57600080fd5b6000806000606084860312156131fc57600080fd5b833561320781612f8a565b95602085013595506040909401359392505050565b634e487b7160e01b600052603260045260246000fd5b634e487b7160e01b600052601160045260246000fd5b60007fffffffffffffffffffffffffffffffffffffffffffffffffffffffffffffffff820361327957613279613232565b5060010190565b600061ffff80831681810361329757613297613232565b6001019392505050565b81810381811115611f0257611f02613232565b80820180821115611f0257611f02613232565b6001600160801b038181168382160190808211156132e7576132e7613232565b5092915050565b60008261330b57634e487b7160e01b600052601260045260246000fd5b500490565b8082028115828204841417611f0257611f02613232565b60006020828403121561333957600080fd5b8151612feb81612f8a565b60006020828403121561335657600080fd5b81518015158114612feb57600080fd5b60006020828403121561337857600080fd5b5051919050565b6001600160801b038281168282160390808211156132e7576132e7613232565b60005b838110156133ba5781810151838201526020016133a2565b50506000910152565b600082516133d581846020870161339f565b9190910192915050565b60208152600082518060208401526133fe81604085016020870161339f565b601f01601f1916919091016040019291505056fea264697066735822122035a4e6c5028dcda1a4f699840450660b5cf98c2cca0142afc6038edb74b1a76964736f6c63430008130033",
  "devdoc": {
    "kind": "dev",
    "methods": {
      "startCollateralSunset(address)": {
        "details": "IMPORTANT: When sunsetting a collateral, `TroveManager.startSunset` should be called on all TM linked to that collateral",
        "params": {
          "collateral": "Collateral to sunset"
        }
      }
    },
    "title": "Zebra Stability Pool",
    "version": 1
  },
  "userdoc": {
    "kind": "user",
    "methods": {
      "startCollateralSunset(address)": {
        "notice": "Starts sunsetting a collateral         During sunsetting liquidated collateral handoff to the SP will revert"
      }
    },
    "notice": "Based on Liquity's `StabilityPool` https://github.com/liquity/dev/blob/main/packages/contracts/contracts/StabilityPool.sol Zebra's implementation is modified to support multiple collaterals. Deposits into the stability pool may be used to liquidate any supported collateral type.",
    "version": 1
  },
  "storageLayout": {
    "storage": [
      {
        "astId": 16753,
        "contract": "contracts/core/StabilityPool.sol:StabilityPool",
        "label": "indexByCollateral",
        "offset": 0,
        "slot": "0",
        "type": "t_mapping(t_contract(IERC20)2332,t_uint256)"
      },
      {
        "astId": 16757,
        "contract": "contracts/core/StabilityPool.sol:StabilityPool",
        "label": "collateralTokens",
        "offset": 0,
        "slot": "1",
        "type": "t_array(t_contract(IERC20)2332)dyn_storage"
      },
      {
        "astId": 16759,
        "contract": "contracts/core/StabilityPool.sol:StabilityPool",
        "label": "totalZebraUSDDeposits",
        "offset": 0,
        "slot": "2",
        "type": "t_uint256"
      },
      {
        "astId": 16763,
        "contract": "contracts/core/StabilityPool.sol:StabilityPool",
        "label": "lockTime",
        "offset": 0,
        "slot": "3",
        "type": "t_mapping(t_address,t_uint256)"
      },
      {
        "astId": 16767,
        "contract": "contracts/core/StabilityPool.sol:StabilityPool",
        "label": "accountDeposits",
        "offset": 0,
        "slot": "4",
        "type": "t_mapping(t_address,t_uint256)"
      },
      {
        "astId": 16772,
        "contract": "contracts/core/StabilityPool.sol:StabilityPool",
        "label": "depositSnapshots",
        "offset": 0,
        "slot": "5",
        "type": "t_mapping(t_address,t_struct(Snapshots)16837_storage)"
      },
      {
        "astId": 16778,
        "contract": "contracts/core/StabilityPool.sol:StabilityPool",
        "label": "depositSums",
        "offset": 0,
        "slot": "6",
        "type": "t_mapping(t_address,t_array(t_uint256)256_storage)"
      },
      {
        "astId": 16784,
        "contract": "contracts/core/StabilityPool.sol:StabilityPool",
        "label": "collateralGainsByDepositor",
        "offset": 0,
        "slot": "7",
        "type": "t_mapping(t_address,t_array(t_uint256)256_storage)"
      },
      {
        "astId": 16788,
        "contract": "contracts/core/StabilityPool.sol:StabilityPool",
        "label": "storedPendingReward",
        "offset": 0,
        "slot": "8",
        "type": "t_mapping(t_address,t_uint256)"
      },
      {
        "astId": 16791,
        "contract": "contracts/core/StabilityPool.sol:StabilityPool",
        "label": "P",
        "offset": 0,
        "slot": "9",
        "type": "t_uint256"
      },
      {
        "astId": 16796,
        "contract": "contracts/core/StabilityPool.sol:StabilityPool",
        "label": "currentScale",
        "offset": 0,
        "slot": "10",
        "type": "t_uint128"
      },
      {
        "astId": 16798,
        "contract": "contracts/core/StabilityPool.sol:StabilityPool",
        "label": "currentEpoch",
        "offset": 16,
        "slot": "10",
        "type": "t_uint128"
      },
      {
        "astId": 16806,
        "contract": "contracts/core/StabilityPool.sol:StabilityPool",
        "label": "epochToScaleToSums",
        "offset": 0,
        "slot": "11",
        "type": "t_mapping(t_uint128,t_mapping(t_uint128,t_array(t_uint256)256_storage))"
      },
      {
        "astId": 16812,
        "contract": "contracts/core/StabilityPool.sol:StabilityPool",
        "label": "epochToScaleToG",
        "offset": 0,
        "slot": "12",
        "type": "t_mapping(t_uint128,t_mapping(t_uint128,t_uint256))"
      },
      {
        "astId": 16814,
        "contract": "contracts/core/StabilityPool.sol:StabilityPool",
        "label": "lastEsZebraError",
        "offset": 0,
        "slot": "13",
        "type": "t_uint256"
      },
      {
        "astId": 16818,
        "contract": "contracts/core/StabilityPool.sol:StabilityPool",
        "label": "lastCollateralError_Offset",
        "offset": 0,
        "slot": "14",
        "type": "t_array(t_uint256)256_storage"
      },
      {
        "astId": 16820,
        "contract": "contracts/core/StabilityPool.sol:StabilityPool",
        "label": "lastDebtLossError_Offset",
        "offset": 0,
        "slot": "270",
        "type": "t_uint256"
      },
      {
        "astId": 16825,
        "contract": "contracts/core/StabilityPool.sol:StabilityPool",
        "label": "_sunsetIndexes",
        "offset": 0,
        "slot": "271",
        "type": "t_mapping(t_uint16,t_struct(SunsetIndex)16842_storage)"
      },
      {
        "astId": 16828,
        "contract": "contracts/core/StabilityPool.sol:StabilityPool",
        "label": "queue",
        "offset": 0,
        "slot": "272",
        "type": "t_struct(Queue)16847_storage"
      }
    ],
    "types": {
      "t_address": {
        "encoding": "inplace",
        "label": "address",
        "numberOfBytes": "20"
      },
      "t_array(t_contract(IERC20)2332)dyn_storage": {
        "base": "t_contract(IERC20)2332",
        "encoding": "dynamic_array",
        "label": "contract IERC20[]",
        "numberOfBytes": "32"
      },
      "t_array(t_uint256)256_storage": {
        "base": "t_uint256",
        "encoding": "inplace",
        "label": "uint256[256]",
        "numberOfBytes": "8192"
      },
      "t_contract(IERC20)2332": {
        "encoding": "inplace",
        "label": "contract IERC20",
        "numberOfBytes": "20"
      },
      "t_mapping(t_address,t_array(t_uint256)256_storage)": {
        "encoding": "mapping",
        "key": "t_address",
        "label": "mapping(address => uint256[256])",
        "numberOfBytes": "32",
        "value": "t_array(t_uint256)256_storage"
      },
      "t_mapping(t_address,t_struct(Snapshots)16837_storage)": {
        "encoding": "mapping",
        "key": "t_address",
        "label": "mapping(address => struct StabilityPool.Snapshots)",
        "numberOfBytes": "32",
        "value": "t_struct(Snapshots)16837_storage"
      },
      "t_mapping(t_address,t_uint256)": {
        "encoding": "mapping",
        "key": "t_address",
        "label": "mapping(address => uint256)",
        "numberOfBytes": "32",
        "value": "t_uint256"
      },
      "t_mapping(t_contract(IERC20)2332,t_uint256)": {
        "encoding": "mapping",
        "key": "t_contract(IERC20)2332",
        "label": "mapping(contract IERC20 => uint256)",
        "numberOfBytes": "32",
        "value": "t_uint256"
      },
      "t_mapping(t_uint128,t_array(t_uint256)256_storage)": {
        "encoding": "mapping",
        "key": "t_uint128",
        "label": "mapping(uint128 => uint256[256])",
        "numberOfBytes": "32",
        "value": "t_array(t_uint256)256_storage"
      },
      "t_mapping(t_uint128,t_mapping(t_uint128,t_array(t_uint256)256_storage))": {
        "encoding": "mapping",
        "key": "t_uint128",
        "label": "mapping(uint128 => mapping(uint128 => uint256[256]))",
        "numberOfBytes": "32",
        "value": "t_mapping(t_uint128,t_array(t_uint256)256_storage)"
      },
      "t_mapping(t_uint128,t_mapping(t_uint128,t_uint256))": {
        "encoding": "mapping",
        "key": "t_uint128",
        "label": "mapping(uint128 => mapping(uint128 => uint256))",
        "numberOfBytes": "32",
        "value": "t_mapping(t_uint128,t_uint256)"
      },
      "t_mapping(t_uint128,t_uint256)": {
        "encoding": "mapping",
        "key": "t_uint128",
        "label": "mapping(uint128 => uint256)",
        "numberOfBytes": "32",
        "value": "t_uint256"
      },
      "t_mapping(t_uint16,t_struct(SunsetIndex)16842_storage)": {
        "encoding": "mapping",
        "key": "t_uint16",
        "label": "mapping(uint16 => struct StabilityPool.SunsetIndex)",
        "numberOfBytes": "32",
        "value": "t_struct(SunsetIndex)16842_storage"
      },
      "t_struct(Queue)16847_storage": {
        "encoding": "inplace",
        "label": "struct StabilityPool.Queue",
        "members": [
          {
            "astId": 16844,
            "contract": "contracts/core/StabilityPool.sol:StabilityPool",
            "label": "firstSunsetIndexKey",
            "offset": 0,
            "slot": "0",
            "type": "t_uint16"
          },
          {
            "astId": 16846,
            "contract": "contracts/core/StabilityPool.sol:StabilityPool",
            "label": "nextSunsetIndexKey",
            "offset": 2,
            "slot": "0",
            "type": "t_uint16"
          }
        ],
        "numberOfBytes": "32"
      },
      "t_struct(Snapshots)16837_storage": {
        "encoding": "inplace",
        "label": "struct StabilityPool.Snapshots",
        "members": [
          {
            "astId": 16830,
            "contract": "contracts/core/StabilityPool.sol:StabilityPool",
            "label": "P",
            "offset": 0,
            "slot": "0",
            "type": "t_uint256"
          },
          {
            "astId": 16832,
            "contract": "contracts/core/StabilityPool.sol:StabilityPool",
            "label": "G",
            "offset": 0,
            "slot": "1",
            "type": "t_uint256"
          },
          {
            "astId": 16834,
            "contract": "contracts/core/StabilityPool.sol:StabilityPool",
            "label": "scale",
            "offset": 0,
            "slot": "2",
            "type": "t_uint128"
          },
          {
            "astId": 16836,
            "contract": "contracts/core/StabilityPool.sol:StabilityPool",
            "label": "epoch",
            "offset": 16,
            "slot": "2",
            "type": "t_uint128"
          }
        ],
        "numberOfBytes": "96"
      },
      "t_struct(SunsetIndex)16842_storage": {
        "encoding": "inplace",
        "label": "struct StabilityPool.SunsetIndex",
        "members": [
          {
            "astId": 16839,
            "contract": "contracts/core/StabilityPool.sol:StabilityPool",
            "label": "idx",
            "offset": 0,
            "slot": "0",
            "type": "t_uint128"
          },
          {
            "astId": 16841,
            "contract": "contracts/core/StabilityPool.sol:StabilityPool",
            "label": "expiry",
            "offset": 16,
            "slot": "0",
            "type": "t_uint128"
          }
        ],
        "numberOfBytes": "32"
      },
      "t_uint128": {
        "encoding": "inplace",
        "label": "uint128",
        "numberOfBytes": "16"
      },
      "t_uint16": {
        "encoding": "inplace",
        "label": "uint16",
        "numberOfBytes": "2"
      },
      "t_uint256": {
        "encoding": "inplace",
        "label": "uint256",
        "numberOfBytes": "32"
      }
    }
  }
}