{
  "address": "0x98D6a17b6a3Ff4aEa6BA3ab6db1b671CedEbFA35",
  "abi": [
    {
      "inputs": [
        {
          "internalType": "contract IZebraCore",
          "name": "_zebraCore",
          "type": "address"
        },
        {
          "internalType": "address",
          "name": "_gasPoolAddress",
          "type": "address"
        },
        {
          "internalType": "address",
          "name": "_zebraUSDAddress",
          "type": "address"
        },
        {
          "internalType": "address",
          "name": "_borrowerOperationsAddress",
          "type": "address"
        },
        {
          "internalType": "address",
          "name": "_liquidationManager",
          "type": "address"
        },
        {
          "internalType": "uint256",
          "name": "_gasCompensation",
          "type": "uint256"
        }
      ],
      "stateMutability": "nonpayable",
      "type": "constructor"
    },
    {
      "anonymous": false,
      "inputs": [
        {
          "indexed": false,
          "internalType": "uint256",
          "name": "_baseRate",
          "type": "uint256"
        }
      ],
      "name": "BaseRateUpdated",
      "type": "event"
    },
    {
      "anonymous": false,
      "inputs": [
        {
          "indexed": false,
          "internalType": "address",
          "name": "_to",
          "type": "address"
        },
        {
          "indexed": false,
          "internalType": "uint256",
          "name": "_amount",
          "type": "uint256"
        }
      ],
      "name": "CollateralSent",
      "type": "event"
    },
    {
      "anonymous": false,
      "inputs": [
        {
          "indexed": false,
          "internalType": "address",
          "name": "_account",
          "type": "address"
        },
        {
          "indexed": false,
          "internalType": "address",
          "name": "_borrower",
          "type": "address"
        },
        {
          "indexed": false,
          "internalType": "uint256",
          "name": "_interest",
          "type": "uint256"
        }
      ],
      "name": "InsterstPaid",
      "type": "event"
    },
    {
      "anonymous": false,
      "inputs": [
        {
          "indexed": false,
          "internalType": "uint256",
          "name": "debt",
          "type": "uint256"
        }
      ],
      "name": "InterestDebtDistributed",
      "type": "event"
    },
    {
      "anonymous": false,
      "inputs": [
        {
          "indexed": false,
          "internalType": "uint256",
          "name": "_L_collateral",
          "type": "uint256"
        },
        {
          "indexed": false,
          "internalType": "uint256",
          "name": "_L_debt",
          "type": "uint256"
        }
      ],
      "name": "LTermsUpdated",
      "type": "event"
    },
    {
      "anonymous": false,
      "inputs": [
        {
          "indexed": false,
          "internalType": "uint256",
          "name": "_lastFeeOpTime",
          "type": "uint256"
        }
      ],
      "name": "LastFeeOpTimeUpdated",
      "type": "event"
    },
    {
      "anonymous": false,
      "inputs": [
        {
          "indexed": false,
          "internalType": "uint256",
          "name": "_attemptedDebtAmount",
          "type": "uint256"
        },
        {
          "indexed": false,
          "internalType": "uint256",
          "name": "_actualDebtAmount",
          "type": "uint256"
        },
        {
          "indexed": false,
          "internalType": "uint256",
          "name": "_collateralSent",
          "type": "uint256"
        },
        {
          "indexed": false,
          "internalType": "uint256",
          "name": "_InterestDebt",
          "type": "uint256"
        },
        {
          "indexed": false,
          "internalType": "uint256",
          "name": "_collateralFee",
          "type": "uint256"
        }
      ],
      "name": "Redemption",
      "type": "event"
    },
    {
      "anonymous": false,
      "inputs": [
        {
          "indexed": true,
          "internalType": "address",
          "name": "account",
          "type": "address"
        },
        {
          "indexed": true,
          "internalType": "address",
          "name": "recipient",
          "type": "address"
        },
        {
          "indexed": false,
          "internalType": "uint256",
          "name": "claimed",
          "type": "uint256"
        }
      ],
      "name": "RewardClaimed",
      "type": "event"
    },
    {
      "anonymous": false,
      "inputs": [
        {
          "indexed": false,
          "internalType": "uint256",
          "name": "_totalStakesSnapshot",
          "type": "uint256"
        },
        {
          "indexed": false,
          "internalType": "uint256",
          "name": "_totalCollateralSnapshot",
          "type": "uint256"
        }
      ],
      "name": "SystemSnapshotsUpdated",
      "type": "event"
    },
    {
      "anonymous": false,
      "inputs": [
        {
          "indexed": false,
          "internalType": "uint256",
          "name": "_newTotalStakes",
          "type": "uint256"
        }
      ],
      "name": "TotalStakesUpdated",
      "type": "event"
    },
    {
      "anonymous": false,
      "inputs": [
        {
          "indexed": false,
          "internalType": "address",
          "name": "_borrower",
          "type": "address"
        },
        {
          "indexed": false,
          "internalType": "uint256",
          "name": "_newIndex",
          "type": "uint256"
        }
      ],
      "name": "TroveIndexUpdated",
      "type": "event"
    },
    {
      "anonymous": false,
      "inputs": [
        {
          "indexed": false,
          "internalType": "uint256",
          "name": "_L_collateral",
          "type": "uint256"
        },
        {
          "indexed": false,
          "internalType": "uint256",
          "name": "_L_debt",
          "type": "uint256"
        },
        {
          "indexed": false,
          "internalType": "uint256",
          "name": "_L_Interest_Debt",
          "type": "uint256"
        }
      ],
      "name": "TroveSnapshotsUpdated",
      "type": "event"
    },
    {
      "anonymous": false,
      "inputs": [
        {
          "indexed": true,
          "internalType": "address",
          "name": "_borrower",
          "type": "address"
        },
        {
          "indexed": false,
          "internalType": "uint256",
          "name": "_debt",
          "type": "uint256"
        },
        {
          "indexed": false,
          "internalType": "uint256",
          "name": "_coll",
          "type": "uint256"
        },
        {
          "indexed": false,
          "internalType": "uint256",
          "name": "_stake",
          "type": "uint256"
        },
        {
          "indexed": false,
          "internalType": "enum ITroveManager.TroveManagerOperation",
          "name": "_operation",
          "type": "uint8"
        }
      ],
      "name": "TroveUpdated",
      "type": "event"
    },
    {
      "inputs": [],
      "name": "BOOTSTRAP_PERIOD",
      "outputs": [
        {
          "internalType": "uint256",
          "name": "",
          "type": "uint256"
        }
      ],
      "stateMutability": "view",
      "type": "function"
    },
    {
      "inputs": [],
      "name": "CCR",
      "outputs": [
        {
          "internalType": "uint256",
          "name": "",
          "type": "uint256"
        }
      ],
      "stateMutability": "view",
      "type": "function"
    },
    {
      "inputs": [],
      "name": "DEBT_GAS_COMPENSATION",
      "outputs": [
        {
          "internalType": "uint256",
          "name": "",
          "type": "uint256"
        }
      ],
      "stateMutability": "view",
      "type": "function"
    },
    {
      "inputs": [],
      "name": "DECIMAL_PRECISION",
      "outputs": [
        {
          "internalType": "uint256",
          "name": "",
          "type": "uint256"
        }
      ],
      "stateMutability": "view",
      "type": "function"
    },
    {
      "inputs": [],
      "name": "L_Interest_Debt",
      "outputs": [
        {
          "internalType": "uint256",
          "name": "",
          "type": "uint256"
        }
      ],
      "stateMutability": "view",
      "type": "function"
    },
    {
      "inputs": [],
      "name": "L_collateral",
      "outputs": [
        {
          "internalType": "uint256",
          "name": "",
          "type": "uint256"
        }
      ],
      "stateMutability": "view",
      "type": "function"
    },
    {
      "inputs": [],
      "name": "L_debt",
      "outputs": [
        {
          "internalType": "uint256",
          "name": "",
          "type": "uint256"
        }
      ],
      "stateMutability": "view",
      "type": "function"
    },
    {
      "inputs": [],
      "name": "MCR",
      "outputs": [
        {
          "internalType": "uint256",
          "name": "",
          "type": "uint256"
        }
      ],
      "stateMutability": "view",
      "type": "function"
    },
    {
      "inputs": [],
      "name": "PERCENT_DIVISOR",
      "outputs": [
        {
          "internalType": "uint256",
          "name": "",
          "type": "uint256"
        }
      ],
      "stateMutability": "view",
      "type": "function"
    },
    {
      "inputs": [],
      "name": "SUNSETTING_INTEREST_RATE",
      "outputs": [
        {
          "internalType": "uint32",
          "name": "",
          "type": "uint32"
        }
      ],
      "stateMutability": "view",
      "type": "function"
    },
    {
      "inputs": [
        {
          "internalType": "uint256",
          "name": "",
          "type": "uint256"
        }
      ],
      "name": "TroveOwners",
      "outputs": [
        {
          "internalType": "address",
          "name": "",
          "type": "address"
        }
      ],
      "stateMutability": "view",
      "type": "function"
    },
    {
      "inputs": [],
      "name": "ZebraCore",
      "outputs": [
        {
          "internalType": "contract IZebraCore",
          "name": "",
          "type": "address"
        }
      ],
      "stateMutability": "view",
      "type": "function"
    },
    {
      "inputs": [],
      "name": "ZebraUSD",
      "outputs": [
        {
          "internalType": "contract IZebraUSD",
          "name": "",
          "type": "address"
        }
      ],
      "stateMutability": "view",
      "type": "function"
    },
    {
      "inputs": [
        {
          "internalType": "address",
          "name": "borrower",
          "type": "address"
        },
        {
          "internalType": "uint256",
          "name": "collSurplus",
          "type": "uint256"
        }
      ],
      "name": "addCollateralSurplus",
      "outputs": [],
      "stateMutability": "nonpayable",
      "type": "function"
    },
    {
      "inputs": [
        {
          "internalType": "address",
          "name": "_borrower",
          "type": "address"
        }
      ],
      "name": "applyPendingRewards",
      "outputs": [
        {
          "internalType": "uint256",
          "name": "coll",
          "type": "uint256"
        },
        {
          "internalType": "uint256",
          "name": "debt",
          "type": "uint256"
        }
      ],
      "stateMutability": "nonpayable",
      "type": "function"
    },
    {
      "inputs": [],
      "name": "baseRate",
      "outputs": [
        {
          "internalType": "uint256",
          "name": "",
          "type": "uint256"
        }
      ],
      "stateMutability": "view",
      "type": "function"
    },
    {
      "inputs": [],
      "name": "borrowerOperationsAddress",
      "outputs": [
        {
          "internalType": "address",
          "name": "",
          "type": "address"
        }
      ],
      "stateMutability": "view",
      "type": "function"
    },
    {
      "inputs": [],
      "name": "borrowingFeeFloor",
      "outputs": [
        {
          "internalType": "uint256",
          "name": "",
          "type": "uint256"
        }
      ],
      "stateMutability": "view",
      "type": "function"
    },
    {
      "inputs": [
        {
          "internalType": "address",
          "name": "_receiver",
          "type": "address"
        }
      ],
      "name": "claimCollateral",
      "outputs": [],
      "stateMutability": "nonpayable",
      "type": "function"
    },
    {
      "inputs": [],
      "name": "closeLastTroveWhenSunsetting",
      "outputs": [],
      "stateMutability": "nonpayable",
      "type": "function"
    },
    {
      "inputs": [
        {
          "internalType": "address",
          "name": "_borrower",
          "type": "address"
        },
        {
          "internalType": "address",
          "name": "_receiver",
          "type": "address"
        },
        {
          "internalType": "uint256",
          "name": "collAmount",
          "type": "uint256"
        },
        {
          "internalType": "uint256",
          "name": "debtAmount",
          "type": "uint256"
        }
      ],
      "name": "closeTrove",
      "outputs": [],
      "stateMutability": "nonpayable",
      "type": "function"
    },
    {
      "inputs": [
        {
          "internalType": "address",
          "name": "_borrower",
          "type": "address"
        }
      ],
      "name": "closeTroveByLiquidation",
      "outputs": [],
      "stateMutability": "nonpayable",
      "type": "function"
    },
    {
      "inputs": [],
      "name": "collateralToken",
      "outputs": [
        {
          "internalType": "contract IERC20",
          "name": "",
          "type": "address"
        }
      ],
      "stateMutability": "view",
      "type": "function"
    },
    {
      "inputs": [
        {
          "internalType": "uint256",
          "name": "_debt",
          "type": "uint256"
        }
      ],
      "name": "decayBaseRateAndGetBorrowingFee",
      "outputs": [
        {
          "internalType": "uint256",
          "name": "",
          "type": "uint256"
        }
      ],
      "stateMutability": "nonpayable",
      "type": "function"
    },
    {
      "inputs": [
        {
          "internalType": "address",
          "name": "account",
          "type": "address"
        },
        {
          "internalType": "uint256",
          "name": "debt",
          "type": "uint256"
        },
        {
          "internalType": "uint256",
          "name": "coll",
          "type": "uint256"
        }
      ],
      "name": "decreaseDebtAndSendCollateral",
      "outputs": [],
      "stateMutability": "nonpayable",
      "type": "function"
    },
    {
      "inputs": [],
      "name": "defaultedCollateral",
      "outputs": [
        {
          "internalType": "uint256",
          "name": "",
          "type": "uint256"
        }
      ],
      "stateMutability": "view",
      "type": "function"
    },
    {
      "inputs": [],
      "name": "defaultedDebt",
      "outputs": [
        {
          "internalType": "uint256",
          "name": "",
          "type": "uint256"
        }
      ],
      "stateMutability": "view",
      "type": "function"
    },
    {
      "inputs": [],
      "name": "distributeInterestDebt",
      "outputs": [
        {
          "internalType": "uint256",
          "name": "",
          "type": "uint256"
        }
      ],
      "stateMutability": "nonpayable",
      "type": "function"
    },
    {
      "inputs": [],
      "name": "feeReceiver",
      "outputs": [
        {
          "internalType": "address",
          "name": "",
          "type": "address"
        }
      ],
      "stateMutability": "view",
      "type": "function"
    },
    {
      "inputs": [],
      "name": "fetchPrice",
      "outputs": [
        {
          "internalType": "uint256",
          "name": "",
          "type": "uint256"
        }
      ],
      "stateMutability": "nonpayable",
      "type": "function"
    },
    {
      "inputs": [
        {
          "internalType": "address",
          "name": "_liquidator",
          "type": "address"
        },
        {
          "internalType": "uint256",
          "name": "_debt",
          "type": "uint256"
        },
        {
          "internalType": "uint256",
          "name": "_coll",
          "type": "uint256"
        },
        {
          "internalType": "uint256",
          "name": "_collSurplus",
          "type": "uint256"
        },
        {
          "internalType": "uint256",
          "name": "_debtGasComp",
          "type": "uint256"
        },
        {
          "internalType": "uint256",
          "name": "_collGasComp",
          "type": "uint256"
        },
        {
          "internalType": "uint256",
          "name": "_interest",
          "type": "uint256"
        }
      ],
      "name": "finalizeLiquidation",
      "outputs": [],
      "stateMutability": "nonpayable",
      "type": "function"
    },
    {
      "inputs": [],
      "name": "gasPoolAddress",
      "outputs": [
        {
          "internalType": "address",
          "name": "",
          "type": "address"
        }
      ],
      "stateMutability": "view",
      "type": "function"
    },
    {
      "inputs": [
        {
          "internalType": "uint256",
          "name": "_debt",
          "type": "uint256"
        }
      ],
      "name": "getBorrowingFee",
      "outputs": [
        {
          "internalType": "uint256",
          "name": "",
          "type": "uint256"
        }
      ],
      "stateMutability": "view",
      "type": "function"
    },
    {
      "inputs": [
        {
          "internalType": "uint256",
          "name": "_debt",
          "type": "uint256"
        }
      ],
      "name": "getBorrowingFeeWithDecay",
      "outputs": [
        {
          "internalType": "uint256",
          "name": "",
          "type": "uint256"
        }
      ],
      "stateMutability": "view",
      "type": "function"
    },
    {
      "inputs": [],
      "name": "getBorrowingRate",
      "outputs": [
        {
          "internalType": "uint256",
          "name": "",
          "type": "uint256"
        }
      ],
      "stateMutability": "view",
      "type": "function"
    },
    {
      "inputs": [],
      "name": "getBorrowingRateWithDecay",
      "outputs": [
        {
          "internalType": "uint256",
          "name": "",
          "type": "uint256"
        }
      ],
      "stateMutability": "view",
      "type": "function"
    },
    {
      "inputs": [
        {
          "internalType": "address",
          "name": "_borrower",
          "type": "address"
        },
        {
          "internalType": "uint256",
          "name": "_price",
          "type": "uint256"
        }
      ],
      "name": "getCurrentICR",
      "outputs": [
        {
          "internalType": "uint256",
          "name": "",
          "type": "uint256"
        }
      ],
      "stateMutability": "view",
      "type": "function"
    },
    {
      "inputs": [],
      "name": "getCurrentOutstandingInterestDebt",
      "outputs": [
        {
          "internalType": "uint256",
          "name": "",
          "type": "uint256"
        }
      ],
      "stateMutability": "view",
      "type": "function"
    },
    {
      "inputs": [
        {
          "internalType": "address",
          "name": "_borrower",
          "type": "address"
        }
      ],
      "name": "getEntireDebtAndColl",
      "outputs": [
        {
          "internalType": "uint256",
          "name": "debt",
          "type": "uint256"
        },
        {
          "internalType": "uint256",
          "name": "coll",
          "type": "uint256"
        },
        {
          "internalType": "uint256",
          "name": "pendingDebtReward",
          "type": "uint256"
        },
        {
          "internalType": "uint256",
          "name": "pendingCollateralReward",
          "type": "uint256"
        }
      ],
      "stateMutability": "view",
      "type": "function"
    },
    {
      "inputs": [],
      "name": "getEntireSystemBalances",
      "outputs": [
        {
          "internalType": "uint256",
          "name": "",
          "type": "uint256"
        },
        {
          "internalType": "uint256",
          "name": "",
          "type": "uint256"
        },
        {
          "internalType": "uint256",
          "name": "",
          "type": "uint256"
        }
      ],
      "stateMutability": "nonpayable",
      "type": "function"
    },
    {
      "inputs": [],
      "name": "getEntireSystemColl",
      "outputs": [
        {
          "internalType": "uint256",
          "name": "",
          "type": "uint256"
        }
      ],
      "stateMutability": "view",
      "type": "function"
    },
    {
      "inputs": [],
      "name": "getEntireSystemDebt",
      "outputs": [
        {
          "internalType": "uint256",
          "name": "",
          "type": "uint256"
        }
      ],
      "stateMutability": "view",
      "type": "function"
    },
    {
      "inputs": [],
      "name": "getGlobalSystemDebt",
      "outputs": [
        {
          "internalType": "uint256",
          "name": "",
          "type": "uint256"
        }
      ],
      "stateMutability": "view",
      "type": "function"
    },
    {
      "inputs": [
        {
          "internalType": "address",
          "name": "_borrower",
          "type": "address"
        }
      ],
      "name": "getNominalICR",
      "outputs": [
        {
          "internalType": "uint256",
          "name": "",
          "type": "uint256"
        }
      ],
      "stateMutability": "view",
      "type": "function"
    },
    {
      "inputs": [],
      "name": "getOutstandingInterestDebt",
      "outputs": [
        {
          "internalType": "uint256",
          "name": "",
          "type": "uint256"
        }
      ],
      "stateMutability": "view",
      "type": "function"
    },
    {
      "inputs": [
        {
          "internalType": "address",
          "name": "_borrower",
          "type": "address"
        }
      ],
      "name": "getPendingCollAndDebtRewards",
      "outputs": [
        {
          "internalType": "uint256",
          "name": "",
          "type": "uint256"
        },
        {
          "internalType": "uint256",
          "name": "",
          "type": "uint256"
        }
      ],
      "stateMutability": "view",
      "type": "function"
    },
    {
      "inputs": [],
      "name": "getPendingInterestDebt",
      "outputs": [
        {
          "internalType": "uint256",
          "name": "",
          "type": "uint256"
        }
      ],
      "stateMutability": "view",
      "type": "function"
    },
    {
      "inputs": [],
      "name": "getPendingSystemInterestDebt",
      "outputs": [
        {
          "internalType": "uint256",
          "name": "",
          "type": "uint256"
        }
      ],
      "stateMutability": "view",
      "type": "function"
    },
    {
      "inputs": [
        {
          "internalType": "uint256",
          "name": "_collateralDrawn",
          "type": "uint256"
        }
      ],
      "name": "getRedemptionFeeWithDecay",
      "outputs": [
        {
          "internalType": "uint256",
          "name": "",
          "type": "uint256"
        }
      ],
      "stateMutability": "view",
      "type": "function"
    },
    {
      "inputs": [
        {
          "internalType": "address",
          "name": "_borrower",
          "type": "address"
        },
        {
          "internalType": "uint256",
          "name": "_price",
          "type": "uint256"
        }
      ],
      "name": "getRedemptionICR",
      "outputs": [
        {
          "internalType": "uint256",
          "name": "",
          "type": "uint256"
        }
      ],
      "stateMutability": "view",
      "type": "function"
    },
    {
      "inputs": [],
      "name": "getRedemptionRate",
      "outputs": [
        {
          "internalType": "uint256",
          "name": "",
          "type": "uint256"
        }
      ],
      "stateMutability": "view",
      "type": "function"
    },
    {
      "inputs": [],
      "name": "getRedemptionRateWithDecay",
      "outputs": [
        {
          "internalType": "uint256",
          "name": "",
          "type": "uint256"
        }
      ],
      "stateMutability": "view",
      "type": "function"
    },
    {
      "inputs": [
        {
          "internalType": "address",
          "name": "_borrower",
          "type": "address"
        }
      ],
      "name": "getRewardSnapshots",
      "outputs": [
        {
          "components": [
            {
              "internalType": "uint256",
              "name": "collateral",
              "type": "uint256"
            },
            {
              "internalType": "uint256",
              "name": "debt",
              "type": "uint256"
            },
            {
              "internalType": "uint256",
              "name": "interest",
              "type": "uint256"
            }
          ],
          "internalType": "struct ITroveManager.RewardSnapshot",
          "name": "",
          "type": "tuple"
        }
      ],
      "stateMutability": "view",
      "type": "function"
    },
    {
      "inputs": [],
      "name": "getTotalActiveCollateral",
      "outputs": [
        {
          "internalType": "uint256",
          "name": "",
          "type": "uint256"
        }
      ],
      "stateMutability": "view",
      "type": "function"
    },
    {
      "inputs": [],
      "name": "getTotalActiveDebt",
      "outputs": [
        {
          "internalType": "uint256",
          "name": "",
          "type": "uint256"
        }
      ],
      "stateMutability": "view",
      "type": "function"
    },
    {
      "inputs": [
        {
          "internalType": "address",
          "name": "_borrower",
          "type": "address"
        }
      ],
      "name": "getTrove",
      "outputs": [
        {
          "components": [
            {
              "internalType": "uint256",
              "name": "debt",
              "type": "uint256"
            },
            {
              "internalType": "uint256",
              "name": "coll",
              "type": "uint256"
            },
            {
              "internalType": "uint256",
              "name": "stake",
              "type": "uint256"
            },
            {
              "internalType": "enum ITroveManager.Status",
              "name": "status",
              "type": "uint8"
            },
            {
              "internalType": "uint128",
              "name": "arrayIndex",
              "type": "uint128"
            }
          ],
          "internalType": "struct ITroveManager.Trove",
          "name": "",
          "type": "tuple"
        }
      ],
      "stateMutability": "view",
      "type": "function"
    },
    {
      "inputs": [
        {
          "internalType": "address",
          "name": "_borrower",
          "type": "address"
        }
      ],
      "name": "getTroveCollAndDebt",
      "outputs": [
        {
          "internalType": "uint256",
          "name": "coll",
          "type": "uint256"
        },
        {
          "internalType": "uint256",
          "name": "debt",
          "type": "uint256"
        }
      ],
      "stateMutability": "view",
      "type": "function"
    },
    {
      "inputs": [
        {
          "internalType": "uint256",
          "name": "_index",
          "type": "uint256"
        }
      ],
      "name": "getTroveFromTroveOwnersArray",
      "outputs": [
        {
          "internalType": "address",
          "name": "",
          "type": "address"
        }
      ],
      "stateMutability": "view",
      "type": "function"
    },
    {
      "inputs": [
        {
          "internalType": "address",
          "name": "_borrower",
          "type": "address"
        },
        {
          "internalType": "uint256",
          "name": "debt",
          "type": "uint256"
        }
      ],
      "name": "getTroveInterest",
      "outputs": [
        {
          "internalType": "uint256",
          "name": "",
          "type": "uint256"
        }
      ],
      "stateMutability": "view",
      "type": "function"
    },
    {
      "inputs": [],
      "name": "getTroveOwnersCount",
      "outputs": [
        {
          "internalType": "uint256",
          "name": "",
          "type": "uint256"
        }
      ],
      "stateMutability": "view",
      "type": "function"
    },
    {
      "inputs": [
        {
          "internalType": "address",
          "name": "_borrower",
          "type": "address"
        }
      ],
      "name": "getTroveStake",
      "outputs": [
        {
          "internalType": "uint256",
          "name": "",
          "type": "uint256"
        }
      ],
      "stateMutability": "view",
      "type": "function"
    },
    {
      "inputs": [
        {
          "internalType": "address",
          "name": "_borrower",
          "type": "address"
        }
      ],
      "name": "getTroveStatus",
      "outputs": [
        {
          "internalType": "uint256",
          "name": "",
          "type": "uint256"
        }
      ],
      "stateMutability": "view",
      "type": "function"
    },
    {
      "inputs": [],
      "name": "guardian",
      "outputs": [
        {
          "internalType": "address",
          "name": "",
          "type": "address"
        }
      ],
      "stateMutability": "view",
      "type": "function"
    },
    {
      "inputs": [
        {
          "internalType": "address",
          "name": "_borrower",
          "type": "address"
        }
      ],
      "name": "hasPendingRewards",
      "outputs": [
        {
          "internalType": "bool",
          "name": "",
          "type": "bool"
        }
      ],
      "stateMutability": "view",
      "type": "function"
    },
    {
      "inputs": [],
      "name": "interestPayable",
      "outputs": [
        {
          "internalType": "uint256",
          "name": "",
          "type": "uint256"
        }
      ],
      "stateMutability": "view",
      "type": "function"
    },
    {
      "inputs": [],
      "name": "interestRate",
      "outputs": [
        {
          "internalType": "uint32",
          "name": "",
          "type": "uint32"
        }
      ],
      "stateMutability": "view",
      "type": "function"
    },
    {
      "inputs": [],
      "name": "lastCollateralError_Redistribution",
      "outputs": [
        {
          "internalType": "uint256",
          "name": "",
          "type": "uint256"
        }
      ],
      "stateMutability": "view",
      "type": "function"
    },
    {
      "inputs": [],
      "name": "lastDebtError_Redistribution",
      "outputs": [
        {
          "internalType": "uint256",
          "name": "",
          "type": "uint256"
        }
      ],
      "stateMutability": "view",
      "type": "function"
    },
    {
      "inputs": [],
      "name": "lastFeeOperationTime",
      "outputs": [
        {
          "internalType": "uint256",
          "name": "",
          "type": "uint256"
        }
      ],
      "stateMutability": "view",
      "type": "function"
    },
    {
      "inputs": [],
      "name": "lastInterestDebtError_Redistribution",
      "outputs": [
        {
          "internalType": "uint256",
          "name": "",
          "type": "uint256"
        }
      ],
      "stateMutability": "view",
      "type": "function"
    },
    {
      "inputs": [],
      "name": "lastInterestDebtUpdateTime",
      "outputs": [
        {
          "internalType": "uint256",
          "name": "",
          "type": "uint256"
        }
      ],
      "stateMutability": "view",
      "type": "function"
    },
    {
      "inputs": [],
      "name": "liquidationManager",
      "outputs": [
        {
          "internalType": "address",
          "name": "",
          "type": "address"
        }
      ],
      "stateMutability": "view",
      "type": "function"
    },
    {
      "inputs": [],
      "name": "maxBorrowingFee",
      "outputs": [
        {
          "internalType": "uint256",
          "name": "",
          "type": "uint256"
        }
      ],
      "stateMutability": "view",
      "type": "function"
    },
    {
      "inputs": [],
      "name": "maxRedemptionFee",
      "outputs": [
        {
          "internalType": "uint256",
          "name": "",
          "type": "uint256"
        }
      ],
      "stateMutability": "view",
      "type": "function"
    },
    {
      "inputs": [],
      "name": "maxSystemDebt",
      "outputs": [
        {
          "internalType": "uint256",
          "name": "",
          "type": "uint256"
        }
      ],
      "stateMutability": "view",
      "type": "function"
    },
    {
      "inputs": [],
      "name": "minuteDecayFactor",
      "outputs": [
        {
          "internalType": "uint256",
          "name": "",
          "type": "uint256"
        }
      ],
      "stateMutability": "view",
      "type": "function"
    },
    {
      "inputs": [
        {
          "internalType": "uint256",
          "name": "_debt",
          "type": "uint256"
        },
        {
          "internalType": "uint256",
          "name": "_collateral",
          "type": "uint256"
        }
      ],
      "name": "movePendingTroveRewardsToActiveBalances",
      "outputs": [],
      "stateMutability": "nonpayable",
      "type": "function"
    },
    {
      "inputs": [
        {
          "internalType": "address",
          "name": "_borrower",
          "type": "address"
        },
        {
          "internalType": "uint256",
          "name": "_collateralAmount",
          "type": "uint256"
        },
        {
          "internalType": "uint256",
          "name": "_compositeDebt",
          "type": "uint256"
        },
        {
          "internalType": "uint256",
          "name": "NICR",
          "type": "uint256"
        },
        {
          "internalType": "address",
          "name": "_upperHint",
          "type": "address"
        },
        {
          "internalType": "address",
          "name": "_lowerHint",
          "type": "address"
        }
      ],
      "name": "openTrove",
      "outputs": [
        {
          "internalType": "uint256",
          "name": "stake",
          "type": "uint256"
        },
        {
          "internalType": "uint256",
          "name": "arrayIndex",
          "type": "uint256"
        }
      ],
      "stateMutability": "nonpayable",
      "type": "function"
    },
    {
      "inputs": [],
      "name": "owner",
      "outputs": [
        {
          "internalType": "address",
          "name": "",
          "type": "address"
        }
      ],
      "stateMutability": "view",
      "type": "function"
    },
    {
      "inputs": [],
      "name": "paused",
      "outputs": [
        {
          "internalType": "bool",
          "name": "",
          "type": "bool"
        }
      ],
      "stateMutability": "view",
      "type": "function"
    },
    {
      "inputs": [],
      "name": "periodFinish",
      "outputs": [
        {
          "internalType": "uint32",
          "name": "",
          "type": "uint32"
        }
      ],
      "stateMutability": "view",
      "type": "function"
    },
    {
      "inputs": [],
      "name": "priceFeed",
      "outputs": [
        {
          "internalType": "contract IPriceFeed",
          "name": "",
          "type": "address"
        }
      ],
      "stateMutability": "view",
      "type": "function"
    },
    {
      "inputs": [
        {
          "internalType": "uint256",
          "name": "_debtAmount",
          "type": "uint256"
        },
        {
          "internalType": "address",
          "name": "_firstRedemptionHint",
          "type": "address"
        },
        {
          "internalType": "address",
          "name": "_upperPartialRedemptionHint",
          "type": "address"
        },
        {
          "internalType": "address",
          "name": "_lowerPartialRedemptionHint",
          "type": "address"
        },
        {
          "internalType": "uint256",
          "name": "_partialRedemptionHintNICR",
          "type": "uint256"
        },
        {
          "internalType": "uint256",
          "name": "_maxIterations",
          "type": "uint256"
        },
        {
          "internalType": "uint256",
          "name": "_maxFeePercentage",
          "type": "uint256"
        }
      ],
      "name": "redeemCollateral",
      "outputs": [],
      "stateMutability": "nonpayable",
      "type": "function"
    },
    {
      "inputs": [],
      "name": "redemptionFeeFloor",
      "outputs": [
        {
          "internalType": "uint256",
          "name": "",
          "type": "uint256"
        }
      ],
      "stateMutability": "view",
      "type": "function"
    },
    {
      "inputs": [
        {
          "internalType": "address",
          "name": "_account",
          "type": "address"
        },
        {
          "internalType": "address",
          "name": "_borrower",
          "type": "address"
        },
        {
          "internalType": "uint256",
          "name": "_debt",
          "type": "uint256"
        }
      ],
      "name": "repayInterest",
      "outputs": [],
      "stateMutability": "nonpayable",
      "type": "function"
    },
    {
      "inputs": [
        {
          "internalType": "address",
          "name": "_borrower",
          "type": "address"
        }
      ],
      "name": "repayInterestDebt",
      "outputs": [],
      "stateMutability": "nonpayable",
      "type": "function"
    },
    {
      "inputs": [],
      "name": "rewardIntegral",
      "outputs": [
        {
          "internalType": "uint256",
          "name": "",
          "type": "uint256"
        }
      ],
      "stateMutability": "view",
      "type": "function"
    },
    {
      "inputs": [],
      "name": "rewardRate",
      "outputs": [
        {
          "internalType": "uint128",
          "name": "",
          "type": "uint128"
        }
      ],
      "stateMutability": "view",
      "type": "function"
    },
    {
      "inputs": [
        {
          "internalType": "address",
          "name": "_priceFeedAddress",
          "type": "address"
        },
        {
          "internalType": "address",
          "name": "_sortedTrovesAddress",
          "type": "address"
        },
        {
          "internalType": "contract IERC20",
          "name": "_collateralToken",
          "type": "address"
        }
      ],
      "name": "setAddresses",
      "outputs": [],
      "stateMutability": "nonpayable",
      "type": "function"
    },
    {
      "inputs": [
        {
          "internalType": "uint32",
          "name": "_interestRate",
          "type": "uint32"
        }
      ],
      "name": "setInterestRate",
      "outputs": [],
      "stateMutability": "nonpayable",
      "type": "function"
    },
    {
      "inputs": [
        {
          "internalType": "uint256",
          "name": "_MCR",
          "type": "uint256"
        }
      ],
      "name": "setMCR",
      "outputs": [],
      "stateMutability": "nonpayable",
      "type": "function"
    },
    {
      "inputs": [
        {
          "internalType": "uint256",
          "name": "_maxSystemDebt",
          "type": "uint256"
        }
      ],
      "name": "setMaxSystemDebt",
      "outputs": [],
      "stateMutability": "nonpayable",
      "type": "function"
    },
    {
      "inputs": [
        {
          "internalType": "uint256",
          "name": "_minuteDecayFactor",
          "type": "uint256"
        },
        {
          "internalType": "uint256",
          "name": "_redemptionFeeFloor",
          "type": "uint256"
        },
        {
          "internalType": "uint256",
          "name": "_maxRedemptionFee",
          "type": "uint256"
        },
        {
          "internalType": "uint256",
          "name": "_borrowingFeeFloor",
          "type": "uint256"
        },
        {
          "internalType": "uint256",
          "name": "_maxBorrowingFee",
          "type": "uint256"
        },
        {
          "internalType": "uint256",
          "name": "_maxSystemDebt",
          "type": "uint256"
        },
        {
          "internalType": "uint256",
          "name": "_MCR",
          "type": "uint256"
        },
        {
          "internalType": "uint32",
          "name": "_interestRate",
          "type": "uint32"
        }
      ],
      "name": "setParameters",
      "outputs": [],
      "stateMutability": "nonpayable",
      "type": "function"
    },
    {
      "inputs": [
        {
          "internalType": "bool",
          "name": "_paused",
          "type": "bool"
        }
      ],
      "name": "setPaused",
      "outputs": [],
      "stateMutability": "nonpayable",
      "type": "function"
    },
    {
      "inputs": [
        {
          "internalType": "address",
          "name": "_priceFeedAddress",
          "type": "address"
        }
      ],
      "name": "setPriceFeed",
      "outputs": [],
      "stateMutability": "nonpayable",
      "type": "function"
    },
    {
      "inputs": [],
      "name": "sortedTroves",
      "outputs": [
        {
          "internalType": "contract ISortedTroves",
          "name": "",
          "type": "address"
        }
      ],
      "stateMutability": "view",
      "type": "function"
    },
    {
      "inputs": [],
      "name": "startSunset",
      "outputs": [],
      "stateMutability": "nonpayable",
      "type": "function"
    },
    {
      "inputs": [],
      "name": "startTime",
      "outputs": [
        {
          "internalType": "uint256",
          "name": "",
          "type": "uint256"
        }
      ],
      "stateMutability": "view",
      "type": "function"
    },
    {
      "inputs": [],
      "name": "sunsetting",
      "outputs": [
        {
          "internalType": "bool",
          "name": "",
          "type": "bool"
        }
      ],
      "stateMutability": "view",
      "type": "function"
    },
    {
      "inputs": [
        {
          "internalType": "address",
          "name": "",
          "type": "address"
        }
      ],
      "name": "surplusBalances",
      "outputs": [
        {
          "internalType": "uint256",
          "name": "",
          "type": "uint256"
        }
      ],
      "stateMutability": "view",
      "type": "function"
    },
    {
      "inputs": [],
      "name": "systemDeploymentTime",
      "outputs": [
        {
          "internalType": "uint256",
          "name": "",
          "type": "uint256"
        }
      ],
      "stateMutability": "view",
      "type": "function"
    },
    {
      "inputs": [],
      "name": "totalCollateralSnapshot",
      "outputs": [
        {
          "internalType": "uint256",
          "name": "",
          "type": "uint256"
        }
      ],
      "stateMutability": "view",
      "type": "function"
    },
    {
      "inputs": [],
      "name": "totalStakes",
      "outputs": [
        {
          "internalType": "uint256",
          "name": "",
          "type": "uint256"
        }
      ],
      "stateMutability": "view",
      "type": "function"
    },
    {
      "inputs": [],
      "name": "totalStakesSnapshot",
      "outputs": [
        {
          "internalType": "uint256",
          "name": "",
          "type": "uint256"
        }
      ],
      "stateMutability": "view",
      "type": "function"
    },
    {
      "inputs": [
        {
          "internalType": "bool",
          "name": "_isDebtIncrease",
          "type": "bool"
        },
        {
          "internalType": "uint256",
          "name": "_debtChange",
          "type": "uint256"
        },
        {
          "internalType": "uint256",
          "name": "_netDebtChange",
          "type": "uint256"
        },
        {
          "internalType": "bool",
          "name": "_isCollIncrease",
          "type": "bool"
        },
        {
          "internalType": "uint256",
          "name": "_collChange",
          "type": "uint256"
        },
        {
          "internalType": "address",
          "name": "_upperHint",
          "type": "address"
        },
        {
          "internalType": "address",
          "name": "_lowerHint",
          "type": "address"
        },
        {
          "internalType": "address",
          "name": "_borrower",
          "type": "address"
        },
        {
          "internalType": "address",
          "name": "_receiver",
          "type": "address"
        }
      ],
      "name": "updateTroveFromAdjustment",
      "outputs": [
        {
          "internalType": "uint256",
          "name": "",
          "type": "uint256"
        },
        {
          "internalType": "uint256",
          "name": "",
          "type": "uint256"
        },
        {
          "internalType": "uint256",
          "name": "",
          "type": "uint256"
        }
      ],
      "stateMutability": "nonpayable",
      "type": "function"
    }
  ],
  "transactionHash": "0xce1e786754fac4f7e86e7c7d15cd7ba52c2876c034cff23795a7b081b3fe2f88",
  "args": [
    "0xadc1E93730e31B19Bd205D38BC399296e8A40728",
    "0x356f63693e1308466F7b74936230696Eec17682b",
    "0xC9e250A4560ad30543AEce22E247866Fb57a45e5",
    "0x9EBA4Edc547b80CE364BD60925e287AD46034aB4",
    "0x1f1f4609de6fdba03e975fd010930ded4091cf42",
    "1000000000000000"
  ],
  "numDeployments": 1,
  "solcInputHash": "c41234f88a5bb193a835d74ff95ecae3",
  "bytecode": "0x6101606040523480156200001257600080fd5b5060405162005859380380620058598339810160408190526200003591620000f7565b6001600160a01b0380851660805260a0829052861660c0819052604080516378e9792560e01b815290518892916378e979259160048083019260209291908290030181865afa1580156200008d573d6000803e3d6000fd5b505050506040513d601f19601f82011682018060405250810190620000b391906200017f565b60e05250506001600160a01b0393841661014052908316610100529091166101205250620001999050565b6001600160a01b0381168114620000f457600080fd5b50565b60008060008060008060c087890312156200011157600080fd5b86516200011e81620000de565b60208801519096506200013181620000de565b60408801519095506200014481620000de565b60608801519094506200015781620000de565b60808801519093506200016a81620000de565b8092505060a087015190509295509295509295565b6000602082840312156200019257600080fd5b5051919050565b60805160a05160c05160e0516101005161012051610140516155bd6200029c60003960008181610dee0152818161169f0152614c24015260008181610738015261365f015260008181610bd701528181612037015281816124d9015281816132cf01526144a601526000610a140152600081816107ed015281816113b601528181611dae01526122b50152600081816108d001528181614323015281816143af015281816143ee0152614d1201526000818161093e015281816116d60152818161218e0152818161262901528181612b0f0152818161356e01528181613e0601528181613e9c015281816147ec0152818161496f0152614c5301526155bd6000f3fe608060405234801561001057600080fd5b50600436106106935760003560e01c80637da0b1fa11610366578063bc006c38116101d3578063d38b05581161010f578063eb3007fd116100ad578063f158c80911610087578063f158c80914610dbb578063f36b242514610dce578063f962fa3b14610dd6578063fe9d032314610de957600080fd5b8063eb3007fd14610d64578063ebe2b12b14610d77578063ec38a05d14610d9b57600080fd5b8063d9a72444116100e9578063d9a7244414610d22578063e2ac77b014610d35578063e47cf0c314610d48578063e9186c9414610d5157600080fd5b8063d38b055814610cf3578063d5b3563514610cfc578063d8a0c92714610d0f57600080fd5b8063c52861f21161017c578063d12ae84111610156578063d12ae84114610cba578063d293c71014610ccd578063d30612e114610ce0578063d380a37c14610cea57600080fd5b8063c52861f214610c97578063c9a4cbf114610c9f578063d128080c14610cb257600080fd5b8063be2c377b116101ad578063be2c377b14610c7b578063bf9befb114610c84578063c35bc55014610c8d57600080fd5b8063bc006c3814610c3f578063bcd3752614610c48578063bd28c0f414610c5b57600080fd5b80639d31b712116102a2578063b2016bd41161024b578063b4997a1f11610225578063b4997a1f14610bc9578063b7f8cf9b14610bd2578063b91af97c14610bf9578063ba8dd56214610c2c57600080fd5b8063b2016bd414610b9b578063b2f29d7b14610bae578063b3f0067414610bc157600080fd5b8063a20baee61161027c578063a20baee614610b66578063ae91875414610b75578063b0d8e18114610b8857600080fd5b80639d31b71214610b4d5780639d8dc8fa14610b555780639ed7254214610b5d57600080fd5b8063887105d31161030f57806391245f9f116102e957806391245f9f14610b205780639484fb8e14610b2957806396660b1814610b3b57806396d711ff14610b4457600080fd5b8063887105d314610b075780638da5cb5b14610b0f57806390fb8bb114610b1757600080fd5b8063807d138d11610340578063807d138d14610ad85780638235b28414610ae157806384de387f14610af457600080fd5b80637da0b1fa14610aa95780637e95d66414610abc5780637eb18bbc14610ac557600080fd5b8063452a93201161050457806364cee26011610440578063756b253e116103e9578063794e5724116103c3578063794e572414610a36578063795d26c314610a3f5780637b0a47ee14610a475780637c3a00fd14610a8457600080fd5b8063756b253e146109e9578063789c6b93146109fc57806378e9792514610a0f57600080fd5b8063724e78da1161041a578063724e78da146109b0578063741bef1a146109c35780637541ae1b146109d657600080fd5b806364cee2601461097357806366ca4a211461099f578063720fbe2c146109a757600080fd5b80634ba4a28b116104ad5780635733d58f116104875780635733d58f1461090d5780635c975abb1461091c5780636260219914610939578063631203b01461096057600080fd5b80634ba4a28b146108cb5780635429c942146108f257806355ca38cf146108fa57600080fd5b80634870dd9a116104de5780634870dd9a1461088657806349eefeee1461088e5780634b269bf91461089657600080fd5b8063452a932014610863578063477d66cf1461086b5780634820fe561461087e57600080fd5b806321e37801116105d35780632fbea0141161057c578063363bf96411610556578063363bf96414610821578063385a128f1461083457806338b68143146108475780634056d9fc1461085a57600080fd5b80632fbea014146107e857806331c7a2611461080f57806333d53b591461081857600080fd5b80632b11551a116105ad5780632b11551a146107c45780632b2b2bac146107cc5780632f5c83a8146107df57600080fd5b806321e378011461079557806325019ee9146107a857806328fc4465146107bb57600080fd5b806319d82163116106405780631f68f20a1161061a5780631f68f20a146107725780631fd865d71461077b578063205b410a1461078457806320d17d7b1461078c57600080fd5b806319d82163146107235780631e8979011461072b5780631ef3a04c1461073357600080fd5b80630fdb11cf116106715780630fdb11cf146106fe5780631289fefb1461070657806316c38b3c1461071057600080fd5b806301c799fc146106985780630b076557146106c05780630fd5d747146106e8575b600080fd5b6106a0610e10565b604080519384526020840192909252908201526060015b60405180910390f35b6106d36106ce366004614ed6565b610e38565b604080519283526020830191909152016106b7565b6106f0610e55565b6040519081526020016106b7565b6106f0610f34565b61070e610fcc565b005b61070e61071e366004614f01565b61105a565b6106f0611101565b6106f061111d565b61075a7f000000000000000000000000000000000000000000000000000000000000000081565b6040516001600160a01b0390911681526020016106b7565b6106f060115481565b6106f060035481565b6001546106f0565b6106f0601e5481565b6106f06107a3366004614ed6565b611127565b61070e6107b6366004614ed6565b61115d565b6106f060025481565b6106f061117c565b6106d36107da366004614ed6565b611189565b6106f0600e5481565b61075a7f000000000000000000000000000000000000000000000000000000000000000081565b6106f0600c5481565b6106f060165481565b61070e61082f366004614f1e565b6111a2565b61070e610842366004614f69565b611216565b61070e610855366004614f69565b6112dc565b6106f0600d5481565b61075a6113b2565b6106f0610879366004614f69565b611436565b601a546106f0565b6106f060c881565b6024546106f0565b6108a96108a4366004614ed6565b611449565b60408051825181526020808401519082015291810151908201526060016106b7565b6106f07f000000000000000000000000000000000000000000000000000000000000000081565b6106f06114af565b6106f0610908366004614f82565b6114e0565b6106f0671bc16d674ec8000081565b6010546109299060ff1681565b60405190151581526020016106b7565b61075a7f000000000000000000000000000000000000000000000000000000000000000081565b6106f061096e366004614f69565b611533565b6106f0610981366004614ed6565b6001600160a01b031660009081526021602052604090206002015490565b6106f0611540565b6106f0600f5481565b61070e6109be366004614ed6565b611552565b60055461075a906001600160a01b031681565b61070e6109e4366004614fae565b6115d6565b61075a6109f7366004614f69565b611746565b61070e610a0a366004614f82565b611770565b6106f07f000000000000000000000000000000000000000000000000000000000000000081565b6106f060085481565b6106f06117a9565b602054610a63906fffffffffffffffffffffffffffffffff1681565b6040516fffffffffffffffffffffffffffffffff90911681526020016106b7565b600054610a949063ffffffff1681565b60405163ffffffff90911681526020016106b7565b6106d3610ab7366004615003565b6117bb565b6106f0600a5481565b61070e610ad3366004614ed6565b611ad5565b6106f060145481565b61070e610aef366004614ed6565b611b08565b61070e610b0236600461507e565b611b8c565b6106f0611d98565b61075a611daa565b6106f060045481565b6106f0600b5481565b60105461092990610100900460ff1681565b6106f0601c5481565b6106f060155481565b6106f0611e0a565b61070e611ed5565b6106f060195481565b6106f0670de0b6b3a764000081565b60075461075a906001600160a01b031681565b6106f0610b96366004614ed6565b612262565b60065461075a906001600160a01b031681565b6106f0610bbc366004614f69565b612289565b61075a6122b1565b6106f0601f5481565b61075a7f000000000000000000000000000000000000000000000000000000000000000081565b610c0c610c07366004614ed6565b612311565b6040805194855260208501939093529183015260608201526080016106b7565b6106f0610c3a366004614f82565b612363565b6106f060095481565b61070e610c563660046150e4565b61238c565b610c6e610c69366004614ed6565b612bb8565b6040516106b79190615168565b6106f0601d5481565b6106f060135481565b6106f06212750081565b6106f0612c5e565b61070e610cad3660046151c6565b612c70565b601b546106f0565b6106d3610cc8366004614ed6565b612d34565b6106f0610cdb366004614f82565b612e5a565b610a946207a12081565b6106f060125481565b6106f060185481565b6106f0610d0a366004614f69565b612e8c565b61070e610d1d36600461520c565b612e9f565b61075a610d30366004614f69565b612f42565b610929610d43366004614ed6565b612f72565b6106f060175481565b61070e610d5f366004615227565b612fd5565b61070e610d7236600461525c565b612ff6565b602054610a9490700100000000000000000000000000000000900463ffffffff1681565b6106f0610da9366004614ed6565b60236020526000908152604090205481565b6106a0610dc936600461527e565b613008565b6106f06132a4565b61070e610de436600461531f565b6132b1565b61075a7f000000000000000000000000000000000000000000000000000000000000000081565b6000806000610e1d611d98565b610e256114af565b610e2d610f34565b925092509250909192565b600080610e436132c4565b610e4c8361333e565b91509150915091565b600060035460001480610e69575042600354145b15610e745750600090565b6000610e7e6117a9565b905080600003610e9057600091505090565b60045460008054600354919291620f4240916301e1338091670de0b6b3a76400009163ffffffff1690610ec39042615376565b610ecd9190615389565b610ed79190615389565b610ee19086615389565b610eeb91906153b6565b610ef591906153b6565b610eff91906153ca565b90506000610f0d83836153b6565b9050670de0b6b3a7640000610f228483615389565b610f2c91906153b6565b935050505090565b6005546006546040517face1798e0000000000000000000000000000000000000000000000000000000081526001600160a01b0391821660048201526000929190911690819063ace1798e906024016020604051808303816000875af1158015610fa2573d6000803e3d6000fd5b505050506040513d601f19601f82011682018060405250810190610fc691906153dd565b91505090565b610fd4611daa565b6001600160a01b0316336001600160a01b0316146110265760405162461bcd60e51b815260206004820152600a60248201526927b7363c9037bbb732b960b11b60448201526064015b60405180910390fd5b61102e613436565b506010805461ff0019166101001790556000805463ffffffff19166207a120178155600a819055600e55565b80801561107f575061106a6113b2565b6001600160a01b0316336001600160a01b0316145b806110a2575061108d611daa565b6001600160a01b0316336001600160a01b0316145b6110ee5760405162461bcd60e51b815260206004820152600c60248201527f556e617574686f72697a65640000000000000000000000000000000000000000604482015260640161101d565b6010805460ff1916911515919091179055565b600061110b610e55565b60015461111891906153ca565b905090565b6000611118613436565b6001600160a01b03811660009081526021602052604081206003015460ff16600481111561115757611157615152565b92915050565b611165613654565b61116e816136cc565b611179816003613717565b50565b6000611118601154613a0b565b60008061119583612311565b5090959194509092505050565b6007546001600160a01b0316156111bb576111bb6153f6565b600580546001600160a01b0394851673ffffffffffffffffffffffffffffffffffffffff19918216179091556007805493851693821693909317909255600680549190931691161790556010805461ff001916905542600f55565b61121e611daa565b6001600160a01b0316336001600160a01b03161461126b5760405162461bcd60e51b815260206004820152600a60248201526927b7363c9037bbb732b960b11b604482015260640161101d565b671bc16d674ec80000811115801561128b5750670f43fc2c04ee00008110155b6112d75760405162461bcd60e51b815260206004820152601d60248201527f4d43522063616e6e6f74206265203e20434352206f72203c2031313025000000604482015260640161101d565b600855565b6112e4611daa565b6001600160a01b0316336001600160a01b0316146113315760405162461bcd60e51b815260206004820152600a60248201526927b7363c9037bbb732b960b11b604482015260640161101d565b6113396117a9565b81116113ad5760405162461bcd60e51b815260206004820152603c60248201527f6e6577206d61782073797374656d2064656274206d757374206265206772656160448201527f746572207468616e2063757272656e742073797374656d206465627400000000606482015260840161101d565b600e55565b60007f00000000000000000000000000000000000000000000000000000000000000006001600160a01b031663452a93206040518163ffffffff1660e01b8152600401602060405180830381865afa158015611412573d6000803e3d6000fd5b505050506040513d601f19601f82011682018060405250810190611118919061540c565b6000611157611443611540565b83613a26565b61146d60405180606001604052806000815260200160008152602001600081525090565b506001600160a01b0316600090815260226020908152604091829020825160608101845281548152600182015492810192909252600201549181019190915290565b60006114b9610e55565b600154601e54601b546114cc91906153ca565b6114d691906153ca565b61111891906153ca565b6001600160a01b038216600090815260226020526040812060020154670de0b6b3a76400009061150e611e0a565b6115189190615376565b6115229084615389565b61152c91906153b6565b9392505050565b60006111576114436132a4565b600061111861154d613a3b565b613a8b565b61155a611daa565b6001600160a01b0316336001600160a01b0316146115a75760405162461bcd60e51b815260206004820152600a60248201526927b7363c9037bbb732b960b11b604482015260640161101d565b6005805473ffffffffffffffffffffffffffffffffffffffff19166001600160a01b0392909216919091179055565b6115de613654565b6115e88686613aa6565b601a548415611603576115fb8582615376565b601a81905590505b601354601455601d546116168483615376565b61162091906153ca565b60158190556014546040517f51bf4c63ec3cba9d03d43238abbdd979dd91bd16d9895c74ceea9118c7baaf609261165e928252602082015260400190565b60405180910390a161166f82613c1f565b6040517f20c582be0000000000000000000000000000000000000000000000000000000081526001600160a01b037f0000000000000000000000000000000000000000000000000000000000000000811660048301528981166024830152604482018690527f000000000000000000000000000000000000000000000000000000000000000016906320c582be90606401600060405180830381600087803b15801561171a57600080fd5b505af115801561172e573d6000803e3d6000fd5b5050505061173c8884613c39565b5050505050505050565b6024818154811061175657600080fd5b6000918252602090912001546001600160a01b0316905081565b611778613654565b6001600160a01b038216600090815260236020526040812080548392906117a09084906153ca565b90915550505050565b6000601e54601b5461111891906153ca565b601054600090819060ff16156118135760405162461bcd60e51b815260206004820152601160248201527f436f6c6c61746572616c20506175736564000000000000000000000000000000604482015260640161101d565b61181b6132c4565b601054610100900460ff16156118735760405162461bcd60e51b815260206004820152601c60248201527f43616e6e6f74206f70656e207768696c652073756e73657474696e6700000000604482015260640161101d565b601b546001600160a01b03891660009081526021602052604090206001600382015460ff1660048111156118a9576118a9615152565b036118f65760405162461bcd60e51b815260206004820152601c60248201527f426f72726f7765724f70733a2054726f76652069732061637469766500000000604482015260640161101d565b60038101805460ff1916600190811790915581018990558781556119198a613ca9565b61192281613d3e565b6007546040517f46f7cf870000000000000000000000000000000000000000000000000000000081526001600160a01b038d81166004830152602482018b9052898116604483015288811660648301529296509116906346f7cf8790608401600060405180830381600087803b15801561199b57600080fd5b505af11580156119af573d6000803e3d6000fd5b5050505060248a9080600181540180825580915050600190039060005260206000200160009091909190916101000a8154816001600160a01b0302191690836001600160a01b031602179055506001602480549050611a0e9190615376565b60038201805470ffffffffffffffffffffffffffffffff0019166101006fffffffffffffffffffffffffffffffff841602179055601a54909350611a53908a906153ca565b601a556000611a6289846153ca565b9050600e54601e5482611a7591906153ca565b1115611ac35760405162461bcd60e51b815260206004820152601d60248201527f436f6c6c61746572616c2064656274206c696d69742072656163686564000000604482015260640161101d565b601b5550919890975095505050505050565b611add613436565b50611ae78161333e565b50506000611af482612311565b5050509050611b04338383613dbd565b5050565b3360009081526023602052604090205480611b655760405162461bcd60e51b815260206004820181905260248201527f4e6f20636f6c6c61746572616c20617661696c61626c6520746f20636c61696d604482015260640161101d565b33600090815260236020526040812055600654611b04906001600160a01b03168383613f9c565b601054610100900460ff1615611be45760405162461bcd60e51b815260206004820152601a60248201527f43616e6e6f74206368616e67652061667465722073756e736574000000000000604482015260640161101d565b671bc16d674ec800008211158015611c045750670f43fc2c04ee00008210155b611c505760405162461bcd60e51b815260206004820152601d60248201527f4d43522063616e6e6f74206265203e20434352206f72203c2031313025000000604482015260640161101d565b60095415611cad57611c60611daa565b6001600160a01b0316336001600160a01b031614611cad5760405162461bcd60e51b815260206004820152600a60248201526927b7363c9037bbb732b960b11b604482015260640161101d565b670d8f91d067414d888810158015611ccd5750670de07829b2adec288811155b611cd957611cd96153f6565b858711158015611cf15750670de0b6b3a76400008611155b611cfd57611cfd6153f6565b838511158015611d155750670de0b6b3a76400008411155b611d2157611d216153f6565b611d2f600a620f4240615429565b63ffffffff168163ffffffff161115611d4a57611d4a6153f6565b611d52613436565b50611d5b61401c565b50600997909755600a95909555600b93909355600c91909155600d55600e556008556000805463ffffffff191663ffffffff909216919091179055565b6000601d54601a5461111891906153ca565b60007f00000000000000000000000000000000000000000000000000000000000000006001600160a01b0316638da5cb5b6040518163ffffffff1660e01b8152600401602060405180830381865afa158015611412573d6000803e3d6000fd5b600060035460001480611e1e575042600354145b15611e2a575060025490565b6000611e346117a9565b905080600003611e4657505060025490565b60045460008054600354919291620f4240916301e1338091670de0b6b3a76400009163ffffffff1690611e799042615376565b611e839088615389565b611e8d9190615389565b611e979190615389565b611ea191906153b6565b611eab91906153b6565b611eb591906153ca565b9050611ec182826153b6565b600254611ece91906153ca565b9250505090565b611edd611daa565b6001600160a01b0316336001600160a01b031614611f2a5760405162461bcd60e51b815260206004820152600a60248201526927b7363c9037bbb732b960b11b604482015260640161101d565b601054610100900460ff16611f815760405162461bcd60e51b815260206004820152601160248201527f4e6f7420696e2073756e73657474696e67000000000000000000000000000000604482015260640161101d565b602454600114611ff95760405162461bcd60e51b815260206004820152602260248201527f43616e206f6e6c7920666f72636520746f20636c6f7365206c6173742074726f60448201527f7665000000000000000000000000000000000000000000000000000000000000606482015260840161101d565b6000602460008154811061200f5761200f61544c565b60009182526020822001546001600160a01b0316915061203182610cdb610f34565b905060007f00000000000000000000000000000000000000000000000000000000000000006001600160a01b031663b620115d6040518163ffffffff1660e01b81526004016020604051808303816000875af1158015612095573d6000803e3d6000fd5b505050506040513d601f19601f820116820180604052508101906120b991906153dd565b9050670de0b6b3a76400008210806120d2575060085481105b6121445760405162461bcd60e51b815260206004820152602160248201527f43616e206f6e6c7920666f72636520636c6f73652062616420626f72726f776560448201527f7200000000000000000000000000000000000000000000000000000000000000606482015260840161101d565b60008061215085611189565b91509150600061216086836114e0565b905081601b546121709190615376565b601b55601a54612181908490615376565b601a556001600160a01b037f000000000000000000000000000000000000000000000000000000000000000016639dc29fac336121be84866153ca565b6040517fffffffff0000000000000000000000000000000000000000000000000000000060e085901b1681526001600160a01b0390921660048301526024820152604401600060405180830381600087803b15801561221c57600080fd5b505af1158015612230573d6000803e3d6000fd5b5050505061223e3384613c39565b612247866136cc565b612252866002613717565b61225a61406f565b505050505050565b600080600061227084611189565b91509150600061228083836140c6565b95945050505050565b60006122936132c4565b600061229d61401c565b905061152c6122ab82613a8b565b84613a26565b60007f00000000000000000000000000000000000000000000000000000000000000006001600160a01b031663b3f006746040518163ffffffff1660e01b8152600401602060405180830381865afa158015611412573d6000803e3d6000fd5b6001600160a01b03811660009081526021602052604081208054600182015490929091819061233f86612d34565b9350915061234d83866153ca565b945061235982856153ca565b9350509193509193565b600080600061237185611189565b9150915060006123828383876140fc565b9695505050505050565b6000600760009054906101000a90046001600160a01b031690506123f56040518061012001604052806000815260200160008152602001600081526020016000815260200160008152602001600081526020016000815260200160008152602001600081525090565b600a5483101580156124095750600b548311155b6124555760405162461bcd60e51b815260206004820152601460248201527f4d61782066656520302e352520746f2031303025000000000000000000000000604482015260640161101d565b62127500600f5461246691906153ca565b4210156124b55760405162461bcd60e51b815260206004820152601060248201527f424f4f5453545241505f504552494f4400000000000000000000000000000000604482015260640161101d565b6124bd613436565b506124c6610f34565b8160e001818152505060006008549050807f00000000000000000000000000000000000000000000000000000000000000006001600160a01b031663b620115d6040518163ffffffff1660e01b81526004016020604051808303816000875af1158015612537573d6000803e3d6000fd5b505050506040513d601f19601f8201168201806040525081019061255b91906153dd565b10156125a95760405162461bcd60e51b815260206004820152601c60248201527f43616e6e6f742072656465656d207768656e20544352203c204d435200000000604482015260640161101d565b60008a116125f95760405162461bcd60e51b815260206004820181905260248201527f416d6f756e74206d7573742062652067726561746572207468616e207a65726f604482015260640161101d565b6040517f70a082310000000000000000000000000000000000000000000000000000000081523360048201528a907f00000000000000000000000000000000000000000000000000000000000000006001600160a01b0316906370a0823190602401602060405180830381865afa158015612678573d6000803e3d6000fd5b505050506040513d601f19601f8201168201806040525081019061269c91906153dd565b10156126ea5760405162461bcd60e51b815260206004820152601460248201527f496e73756666696369656e742062616c616e6365000000000000000000000000604482015260640161101d565b6126f26114af565b61010083015289825260e08201516000906127119085908c908561412f565b1561271d575088612835565b836001600160a01b0316634d6228316040518163ffffffff1660e01b8152600401602060405180830381865afa15801561275b573d6000803e3d6000fd5b505050506040513d601f19601f8201168201806040525081019061277f919061540c565b90505b6001600160a01b038116158015906127a65750816127a4828560e00151612363565b105b15612835576040517fb72703ac0000000000000000000000000000000000000000000000000000000081526001600160a01b03828116600483015285169063b72703ac90602401602060405180830381865afa15801561280a573d6000803e3d6000fd5b505050506040513d601f19601f8201168201806040525081019061282e919061540c565b9050612782565b856000036128435760001995505b6001600160a01b0381161580159061285b5750825115155b80156128675750600086115b1561299e578561287681615462565b6040517fb72703ac0000000000000000000000000000000000000000000000000000000081526001600160a01b038481166004830152919850600092509086169063b72703ac90602401602060405180830381865afa1580156128dd573d6000803e3d6000fd5b505050506040513d601f19601f82011682018060405250810190612901919061540c565b905061290c8261333e565b50506000612927868487600001518860e001518f8f8f61429a565b905080606001511561293a57505061299e565b8051602086015161294b91906153ca565b602080870191909152810151604086015161296691906153ca565b604080870191909152810151606086015161298191906153ca565b6060860152805185516129949190615376565b8552509050612843565b60008360400151116129f25760405162461bcd60e51b815260206004820152601b60248201527f556e61626c6520746f2072656465656d20616e7920616d6f756e740000000000604482015260640161101d565b612a0a83604001518460e00151856101000151614650565b50601054610100900460ff16612a3457612a2f612a2561117c565b84604001516146e4565b612a37565b60005b608084018190526040840151612a4e919087614755565b612a63612a596122b1565b8460800151613c39565b82608001518360400151612a779190615376565b8360a00181815250507fc8f82a388a36012a2cfc586d40688baa3fe0112eff350cfd00b7e4dddaf6a5a48b8460200151856040015186606001518760800151604051612ae5959493929190948552602085019390935260408401919091526060830152608082015260a00190565b60405180910390a16020830151604051632770a7eb60e21b815233600482015260248101919091527f00000000000000000000000000000000000000000000000000000000000000006001600160a01b031690639dc29fac90604401600060405180830381600087803b158015612b5b57600080fd5b505af1158015612b6f573d6000803e3d6000fd5b5050506020840151601b54612b849250615376565b601b556060830151612b9590613c1f565b612ba3338460a00151613c39565b612bab61406f565b5050505050505050505050565b612bc0614e81565b6001600160a01b038216600090815260216020908152604091829020825160a081018452815481526001820154928101929092526002810154928201929092526003820154909190606083019060ff166004811115612c2157612c21615152565b6004811115612c3257612c32615152565b81526003919091015461010090046fffffffffffffffffffffffffffffffff1660209091015292915050565b6000611118612c6b613a3b565b613a0b565b612c786132c4565b60016001600160a01b03851660009081526021602052604090206003015460ff166004811115612caa57612caa615152565b14612cf75760405162461bcd60e51b815260206004820152601e60248201527f54726f766520636c6f736564206f7220646f6573206e6f742065786973740000604482015260640161101d565b612d00846136cc565b612d0b846002613717565b80601b54612d199190615376565b601b55612d268383613c39565b612d2e61406f565b50505050565b6001600160a01b0381166000908152602260209081526040808320815160608101835281548082526001830154948201949094526002909101549181019190915260165483928391612d869190615376565b905060008260200151601754612d9c9190615376565b9050612da881836153ca565b1580612de4575060016001600160a01b03871660009081526021602052604090206003015460ff166004811115612de157612de1615152565b14155b15612df757506000958695509350505050565b6001600160a01b038616600090815260216020526040902060020154670de0b6b3a7640000612e268483615389565b612e3091906153b6565b670de0b6b3a7640000612e438484615389565b612e4d91906153b6565b9550955050505050915091565b6000806000612e6885611189565b91509150600061238283612e7c88856114e0565b612e8690856153ca565b876140fc565b6000611157612e99612c5e565b836146e4565b612ea7611daa565b6001600160a01b0316336001600160a01b031614612ef45760405162461bcd60e51b815260206004820152600a60248201526927b7363c9037bbb732b960b11b604482015260640161101d565b612f02600a620f4240615429565b63ffffffff168163ffffffff161115612f1d57612f1d6153f6565b612f25613436565b506000805463ffffffff191663ffffffff92909216919091179055565b600060248281548110612f5757612f5761544c565b6000918252602090912001546001600160a01b031692915050565b600060016001600160a01b03831660009081526021602052604090206003015460ff166004811115612fa657612fa6615152565b14612fb357506000919050565b506016546001600160a01b039091166000908152602260205260409020541090565b612fdd613654565b612fe783836147c6565b612ff18382613c39565b505050565b612ffe613654565b611b04828261485d565b60008060006130156132c4565b888061301e57508b5b156130ce5760105460ff16156130765760405162461bcd60e51b815260206004820152601160248201527f436f6c6c61746572616c20506175736564000000000000000000000000000000604482015260640161101d565b601054610100900460ff16156130ce5760405162461bcd60e51b815260206004820181905260248201527f43616e6e6f7420696e637265617365207768696c652073756e73657474696e67604482015260640161101d565b6001600160a01b03851660009081526021602052604090206001600382015460ff16600481111561310157613101615152565b1461314e5760405162461bcd60e51b815260206004820152601e60248201527f54726f766520636c6f736564206f7220646f6573206e6f742065786973740000604482015260640161101d565b80548c15613192578d15613178576131668c826153ca565b9050613173868d8f6148ba565b61318e565b6131828c82615376565b905061318e868e6147c6565b8082555b60018201548a156131e3578b156131c5576131ad8b826153ca565b90508a601a546131bd91906153ca565b601a556131db565b6131cf8b82615376565b90506131db878c613c39565b600183018190555b60006131ef82846140c6565b6007546040517f2be212600000000000000000000000000000000000000000000000000000000081526001600160a01b038c81166004830152602482018490528e811660448301528d81166064830152929350911690632be2126090608401600060405180830381600087803b15801561326857600080fd5b505af115801561327c573d6000803e3d6000fd5b50505050818361328b86613d3e565b9650965096505050505099509950999650505050505050565b6000611118601154613a8b565b6132b96132c4565b612ff1838383613dbd565b336001600160a01b037f0000000000000000000000000000000000000000000000000000000000000000161461333c5760405162461bcd60e51b815260206004820152600d60248201527f43616c6c6572206e6f7420424f00000000000000000000000000000000000000604482015260640161101d565b565b6001600160a01b038116600090815260216020526040812081906001600382015460ff16600481111561337357613373615152565b036134255760008061338486612d34565b915091508183600101600082825461339c91906153ca565b90915550508254819084906000906133b59084906153ca565b909155506133c4905086613ca9565b6133ce818361485d565b856001600160a01b03167fc3770d654ed33aeea6bf11ac8ef05d02a6a04ed4686dd2f624d853bbec43cc8b846000015485600101548660020154600060405161341a949392919061548d565b60405180910390a250505b600181015490549094909350915050565b600060035460000361344c575042600355600090565b426003540361345b5750600090565b60006134656117a9565b90508060000361347757600091505090565b60045460008054600354919291620f4240916301e1338091670de0b6b3a76400009163ffffffff16906134aa9042615376565b6134b49190615389565b6134be9190615389565b6134c89086615389565b6134d291906153b6565b6134dc91906153b6565b6134e691906153ca565b42600355905060006134f883836153b6565b90506135048382615389565b61350e9083615376565b600481905550806002600082825461352691906153ca565b9091555060009050670de0b6b3a76400006135418584615389565b61354b91906153b6565b9050806001600082825461355f91906153ca565b90915550506001600160a01b037f0000000000000000000000000000000000000000000000000000000000000000166340c10f1961359b6122b1565b6040517fffffffff0000000000000000000000000000000000000000000000000000000060e084901b1681526001600160a01b03909116600482015260248101849052604401600060405180830381600087803b1580156135fb57600080fd5b505af115801561360f573d6000803e3d6000fd5b505050507f611cce915d1d6bc3f524286d86e46b65211f2c87477a164d9247bf77b7b5bfdf8160405161364491815260200190565b60405180910390a1509392505050565b336001600160a01b037f0000000000000000000000000000000000000000000000000000000000000000161461333c5760405162461bcd60e51b815260206004820152601760248201527f4e6f74204c69717569646174696f6e204d616e61676572000000000000000000604482015260640161101d565b6001600160a01b0381166000908152602160205260409020600201546013546136f6908290615376565b601355506001600160a01b0316600090815260216020526040812060020155565b6024546001600160a01b038316600090815260216020526040902060038101805484919060ff1916600183600481111561375357613753615152565b0217905550600060018083018290558183556007546001600160a01b0387811684526022602052604084208481558301939093559190911690831180156137fb57506001816001600160a01b031663de8fa4316040518163ffffffff1660e01b8152600401602060405180830381865afa1580156137d5573d6000803e3d6000fd5b505050506040513d601f19601f820116820180604052508101906137f991906153dd565b115b1561393457600382015461010090046fffffffffffffffffffffffffffffffff166000602461382b600187615376565b8154811061383b5761383b61544c565b600091825260209091200154602480546001600160a01b03909216925082916fffffffffffffffffffffffffffffffff851690811061387c5761387c61544c565b6000918252602080832091909101805473ffffffffffffffffffffffffffffffffffffffff19166001600160a01b0394851617905591831680825260218352604091829020600301805470ffffffffffffffffffffffffffffffff0019166101006fffffffffffffffffffffffffffffffff8816908102919091179091558251918252928101929092527f02b04ae5f7be9ca7c103293a2aa15f3c339d15d6eda53b721fef7b0e609c831a910160405180910390a150505b6024805480613945576139456154af565b6000828152602090206000199082018101805473ffffffffffffffffffffffffffffffffffffffff191690550190556040517f29092d0e0000000000000000000000000000000000000000000000000000000081526001600160a01b0386811660048301528216906329092d0e90602401600060405180830381600087803b1580156139d057600080fd5b505af11580156139e4573d6000803e3d6000fd5b5050506003909201805470ffffffffffffffffffffffffffffffff00191690555050505050565b600061115782600a54613a1e91906153ca565b600b546149c7565b6000670de0b6b3a76400006115228385615389565b600080603c60125442613a4e9190615376565b613a5891906153b6565b90506000613a68600954836149dd565b9050670de0b6b3a764000081601154613a819190615389565b611ece91906153b6565b600061115782600c54613a9e91906153ca565b600d546149c7565b81600003613ab2575050565b601854600090613aca670de0b6b3a764000084615389565b613ad491906153ca565b90506000601954670de0b6b3a764000085613aef9190615389565b613af991906153ca565b6013549091506000613b0b82856153b6565b90506000613b1983856153b6565b9050613b258383615389565b613b2f9086615376565b601855613b3c8382615389565b613b469085615376565b601955601654600090613b5a9084906153ca565b9050600082601754613b6c91906153ca565b6016839055601781905560408051848152602081018390529192507f9f8bc8ab0daf5bceef75ecfd2085d1fcc6548c657ea970d9a23a60610d0737e3910160405180910390a188601b6000828254613bc49190615376565b9250508190555088601e6000828254613bdd91906153ca565b9250508190555087601d6000828254613bf691906153ca565b9250508190555087601a6000828254613c0f9190615376565b9091555050505050505050505050565b8060016000828254613c319190615376565b909155505050565b8015611b045780601a54613c4d9190615376565b601a55604080516001600160a01b0384168152602081018390527f342693d2465f6f44931e41128424a0227e0cbc69d1c3917a839e6de71696d44c910160405180910390a1600654611b04906001600160a01b03168383613f9c565b60165460175460028054604080516060808201835286825260208083018781528385018681526001600160a01b038b166000908152602284528690209451855590516001850155519290950191909155815186815293840185905290830182905290917fe083b7310cc9f9afc538d812522bbf1964db34ca10a6a4ffa9713025f4b3297191015b60405180910390a150505050565b600080613d4e8360010154614a88565b60028401805490829055601354919250906000908390613d6f908490615376565b613d7991906153ca565b60138190556040518181529091507f6bac5e0eb3c44eb03a60ab11ec3a2c051771616aecadbcfff2630aabae5203829060200160405180910390a150909392505050565b6000613dc983836114e0565b6040517f70a082310000000000000000000000000000000000000000000000000000000081526001600160a01b03868116600483015291925082917f000000000000000000000000000000000000000000000000000000000000000016906370a0823190602401602060405180830381865afa158015613e4d573d6000803e3d6000fd5b505050506040513d601f19601f82011682018060405250810190613e7191906153dd565b10613efd57604051632770a7eb60e21b81526001600160a01b038581166004830152602482018390527f00000000000000000000000000000000000000000000000000000000000000001690639dc29fac90604401600060405180830381600087803b158015613ee057600080fd5b505af1158015613ef4573d6000803e3d6000fd5b50505050613f42565b80601b6000828254613f0f91906153ca565b90915550506001600160a01b03831660009081526021602052604081208054839290613f3c9084906153ca565b90915550505b613f4b81613c1f565b613f5483613ca9565b604080516001600160a01b038087168252851660208201529081018290527f9354b8667251c59add7ab06f5ee968ec12dd3768ab329ee3f26f90a142e23ba390606001613d30565b604080516001600160a01b038416602482015260448082018490528251808303909101815260649091019091526020810180517bffffffffffffffffffffffffffffffffffffffffffffffffffffffff167fa9059cbb00000000000000000000000000000000000000000000000000000000179052612ff1908490614acf565b600080614027613a3b565b60118190556040518181529091507fc454ee9b76c52f782a256af821b857ca6e125d1e3333bcede402fec2bed9600c9060200160405180910390a161406a614bb7565b919050565b60245460000361333c5760006003819055601381905560148190556015819055601681905560178190556002819055600481905560188190556019819055601a819055601b819055601d819055601e819055600155565b600081156140f357816140e268056bc75e2d6310000085615389565b6140ec91906153b6565b9050611157565b50600019611157565b60008215614124576000836141118487615389565b61411b91906153b6565b915061152c9050565b506000199392505050565b60006001600160a01b03841615806141c757506040517f5dbe47e80000000000000000000000000000000000000000000000000000000081526001600160a01b038581166004830152861690635dbe47e890602401602060405180830381865afa1580156141a1573d6000803e3d6000fd5b505050506040513d601f19601f820116820180604052508101906141c591906154c5565b155b806141da5750816141d88585612363565b105b156141e757506000614292565b6040517f765e01590000000000000000000000000000000000000000000000000000000081526001600160a01b0385811660048301526000919087169063765e015990602401602060405180830381865afa15801561424a573d6000803e3d6000fd5b505050506040513d601f19601f8201168201806040525081019061426e919061540c565b90506001600160a01b038116158061428e57508261428c8286612363565b105b9150505b949350505050565b6142c760405180608001604052806000815260200160008152602001600081526020016000151581525090565b6001600160a01b038716600090815260216020526040812080549091906142ef908a906114e0565b90508088101561430757505060016060820152614645565b6040830181905261434d61431b828a615376565b8354614348907f000000000000000000000000000000000000000000000000000000000000000090615376565b6149c7565b80845260408401518891670de0b6b3a76400009161436a916153ca565b6143749190615389565b61437e91906153b6565b60208401528251825460009161439391615376565b90506000846020015184600101546143ab9190615376565b90507f00000000000000000000000000000000000000000000000000000000000000008203614462576143dd8b6136cc565b6143e88b6004613717565b6144138b7f000000000000000000000000000000000000000000000000000000000000000083614c0d565b8a6001600160a01b03167fc3770d654ed33aeea6bf11ac8ef05d02a6a04ed4686dd2f624d853bbec43cc8b60008060006003604051614455949392919061548d565b60405180910390a2614640565b600061446e82846140c6565b90506000818811614488576144838883615376565b614492565b6144928289615376565b90506601c6bf5263400081118061453157507f00000000000000000000000000000000000000000000000000000000000000006001600160a01b031663969c24526040518163ffffffff1660e01b8152600401602060405180830381865afa158015614502573d6000803e3d6000fd5b505050506040513d601f19601f8201168201806040525081019061452691906153dd565b61452f85614d0b565b105b15614549575050600160608601525061464592505050565b506040517f2be212600000000000000000000000000000000000000000000000000000000081526001600160a01b038d81166004830152602482018390528a8116604483015289811660648301528e1690632be2126090608401600060405180830381600087803b1580156145bd57600080fd5b505af11580156145d1573d6000803e3d6000fd5b50505083865550600185018290556145e885613d3e565b506145f28c613ca9565b8b6001600160a01b03167fc3770d654ed33aeea6bf11ac8ef05d02a6a04ed4686dd2f624d853bbec43cc8b848488600201546003604051614636949392919061548d565b60405180910390a2505b505050505b979650505050505050565b60008061465b613a3b565b905060008361466a8688615389565b61467491906153b6565b905060006146836002836153b6565b61468d90846153ca565b90506146a181670de0b6b3a76400006149c7565b60118190556040518181529091507fc454ee9b76c52f782a256af821b857ca6e125d1e3333bcede402fec2bed9600c9060200160405180910390a1612382614bb7565b600080670de0b6b3a76400006146fa8486615389565b61470491906153b6565b905082811061152c5760405162461bcd60e51b815260206004820152601f60248201527f46656520657863656564732072657475726e656420636f6c6c61746572616c00604482015260640161101d565b60008261476a670de0b6b3a764000086615389565b61477491906153b6565b905081811115612d2e5760405162461bcd60e51b815260206004820152601d60248201527f4665652065786365656465642070726f7669646564206d6178696d756d000000604482015260640161101d565b604051632770a7eb60e21b81526001600160a01b038381166004830152602482018390527f00000000000000000000000000000000000000000000000000000000000000001690639dc29fac90604401600060405180830381600087803b15801561483057600080fd5b505af1158015614844573d6000803e3d6000fd5b5050505080601b546148569190615376565b601b555050565b81601e600082825461486f9190615376565b9250508190555081601b600082825461488891906153ca565b9250508190555080601d60008282546148a19190615376565b9250508190555080601a60008282546117a091906153ca565b600082601b546148ca91906153ca565b9050600e54601e54826148dd91906153ca565b111561492b5760405162461bcd60e51b815260206004820152601d60248201527f436f6c6c61746572616c2064656274206c696d69742072656163686564000000604482015260640161101d565b601b8190556040517f40c10f190000000000000000000000000000000000000000000000000000000081526001600160a01b038581166004830152602482018490527f000000000000000000000000000000000000000000000000000000000000000016906340c10f1990604401600060405180830381600087803b1580156149b357600080fd5b505af115801561173c573d6000803e3d6000fd5b60008183106149d6578161152c565b5090919050565b6000631f5405008211156149f357631f54050091505b81600003614a0a5750670de0b6b3a7640000611157565b670de0b6b3a764000083835b6001811115614a7e57614a2a6002826154e2565b600003614a4f57614a3b8283614d37565b9150614a486002826153b6565b9050614a16565b614a598284614d37565b9250614a658283614d37565b91506002614a74600183615376565b614a4891906153b6565b6123828284614d37565b6015546000908190808203614a9f57839150614ac8565b60145480614aaf57614aaf6153f6565b81614aba8287615389565b614ac491906153b6565b9250505b5092915050565b6000614b24826040518060400160405280602081526020017f5361666545524332303a206c6f772d6c6576656c2063616c6c206661696c6564815250856001600160a01b0316614d6e9092919063ffffffff16565b9050805160001480614b45575080806020019051810190614b4591906154c5565b612ff15760405162461bcd60e51b815260206004820152602a60248201527f5361666545524332303a204552433230206f7065726174696f6e20646964206e60448201527f6f74207375636365656400000000000000000000000000000000000000000000606482015260840161101d565b600060125442614bc79190615376565b9050603c8110611179574260128190556040519081527f860f8d2f0c74dd487e89e2883e3b25b8159ce1e1b3433a291cba7b82c508f3bc9060200160405180910390a150565b604051632770a7eb60e21b81526001600160a01b037f000000000000000000000000000000000000000000000000000000000000000081166004830152602482018490527f00000000000000000000000000000000000000000000000000000000000000001690639dc29fac90604401600060405180830381600087803b158015614c9757600080fd5b505af1158015614cab573d6000803e3d6000fd5b5050505081601b54614cbd9190615376565b601b556001600160a01b03831660009081526023602052604081208054839290614ce89084906153ca565b9250508190555080601a6000828254614d019190615376565b9091555050505050565b60006111577f000000000000000000000000000000000000000000000000000000000000000083615376565b600080614d448385615389565b9050670de0b6b3a7640000614d5a6002826153b6565b614d6490836153ca565b61429291906153b6565b6060614292848460008585600080866001600160a01b03168587604051614d95919061551a565b60006040518083038185875af1925050503d8060008114614dd2576040519150601f19603f3d011682016040523d82523d6000602084013e614dd7565b606091505b50915091506146458783838760608315614e52578251600003614e4b576001600160a01b0385163b614e4b5760405162461bcd60e51b815260206004820152601d60248201527f416464726573733a2063616c6c20746f206e6f6e2d636f6e7472616374000000604482015260640161101d565b5081614292565b6142928383815115614e675781518083602001fd5b8060405162461bcd60e51b815260040161101d9190615536565b6040518060a0016040528060008152602001600081526020016000815260200160006004811115614eb457614eb4615152565b8152600060209091015290565b6001600160a01b038116811461117957600080fd5b600060208284031215614ee857600080fd5b813561152c81614ec1565b801515811461117957600080fd5b600060208284031215614f1357600080fd5b813561152c81614ef3565b600080600060608486031215614f3357600080fd5b8335614f3e81614ec1565b92506020840135614f4e81614ec1565b91506040840135614f5e81614ec1565b809150509250925092565b600060208284031215614f7b57600080fd5b5035919050565b60008060408385031215614f9557600080fd5b8235614fa081614ec1565b946020939093013593505050565b600080600080600080600060e0888a031215614fc957600080fd5b8735614fd481614ec1565b9960208901359950604089013598606081013598506080810135975060a0810135965060c00135945092505050565b60008060008060008060c0878903121561501c57600080fd5b863561502781614ec1565b9550602087013594506040870135935060608701359250608087013561504c81614ec1565b915060a087013561505c81614ec1565b809150509295509295509295565b803563ffffffff8116811461406a57600080fd5b600080600080600080600080610100898b03121561509b57600080fd5b883597506020890135965060408901359550606089013594506080890135935060a0890135925060c089013591506150d560e08a0161506a565b90509295985092959890939650565b600080600080600080600060e0888a0312156150ff57600080fd5b87359650602088013561511181614ec1565b9550604088013561512181614ec1565b9450606088013561513181614ec1565b9699959850939660808101359560a0820135955060c0909101359350915050565b634e487b7160e01b600052602160045260246000fd5b600060a08201905082518252602083015160208301526040830151604083015260608301516005811061519d5761519d615152565b806060840152506fffffffffffffffffffffffffffffffff608084015116608083015292915050565b600080600080608085870312156151dc57600080fd5b84356151e781614ec1565b935060208501356151f781614ec1565b93969395505050506040820135916060013590565b60006020828403121561521e57600080fd5b61152c8261506a565b60008060006060848603121561523c57600080fd5b833561524781614ec1565b95602085013595506040909401359392505050565b6000806040838503121561526f57600080fd5b50508035926020909101359150565b60008060008060008060008060006101208a8c03121561529d57600080fd5b89356152a881614ef3565b985060208a0135975060408a0135965060608a01356152c681614ef3565b955060808a0135945060a08a01356152dd81614ec1565b935060c08a01356152ed81614ec1565b925060e08a01356152fd81614ec1565b91506101008a013561530e81614ec1565b809150509295985092959850929598565b60008060006060848603121561533457600080fd5b833561533f81614ec1565b9250602084013561534f81614ec1565b929592945050506040919091013590565b634e487b7160e01b600052601160045260246000fd5b8181038181111561115757611157615360565b808202811582820484141761115757611157615360565b634e487b7160e01b600052601260045260246000fd5b6000826153c5576153c56153a0565b500490565b8082018082111561115757611157615360565b6000602082840312156153ef57600080fd5b5051919050565b634e487b7160e01b600052600160045260246000fd5b60006020828403121561541e57600080fd5b815161152c81614ec1565b600063ffffffff80841680615440576154406153a0565b92169190910492915050565b634e487b7160e01b600052603260045260246000fd5b60008161547157615471615360565b506000190190565b6004811061548957615489615152565b9052565b8481526020810184905260408101839052608081016122806060830184615479565b634e487b7160e01b600052603160045260246000fd5b6000602082840312156154d757600080fd5b815161152c81614ef3565b6000826154f1576154f16153a0565b500690565b60005b838110156155115781810151838201526020016154f9565b50506000910152565b6000825161552c8184602087016154f6565b9190910192915050565b60208152600082518060208401526155558160408501602087016154f6565b601f017fffffffffffffffffffffffffffffffffffffffffffffffffffffffffffffffe016919091016040019291505056fea264697066735822122001cd47fbfc0c6238a3ba2d9ee5bed55b0ce3aaca8e06723fa25d83f0a6fb9c8464736f6c63430008130033",
  "devdoc": {
    "kind": "dev",
    "methods": {
      "getEntireDebtAndColl(address)": {
        "details": "Used by the liquidation manager"
      },
      "getTroveCollAndDebt(address)": {
        "details": "Also includes pending rewards from redistribution"
      },
      "setPaused(bool)": {
        "params": {
          "_paused": "If true the protocol is paused"
        }
      },
      "setPriceFeed(address)": {
        "params": {
          "_priceFeedAddress": "Price feed address"
        }
      }
    },
    "title": "Zebra Trove Manager",
    "version": 1
  },
  "userdoc": {
    "kind": "user",
    "methods": {
      "claimCollateral(address)": {
        "notice": "Claim remaining collateral from a redemption or from a liquidation with ICR > MCR in Recovery Mode"
      },
      "getEntireDebtAndColl(address)": {
        "notice": "Get the total and pending collateral and debt amounts for a trove"
      },
      "getTroveCollAndDebt(address)": {
        "notice": "Get the current total collateral and debt amounts for a trove"
      },
      "setPaused(bool)": {
        "notice": "Sets the pause state for this trove manager         Pausing is used to mitigate risks in exceptional circumstances         Functionalities affected by pausing are:         - New borrowing is not possible         - New collateral deposits are not possible"
      },
      "setPriceFeed(address)": {
        "notice": "Sets a custom price feed for this trove manager"
      }
    },
    "notice": "Based on Liquity's `TroveManager` https://github.com/liquity/dev/blob/main/packages/contracts/contracts/TroveManager.sol Zebra's implementation is modified so that multiple `TroveManager` and `SortedTroves` contracts are deployed in tandem, with each pair managing troves of a single collateral type. Functionality related to liquidations has been moved to `LiquidationManager`. This was necessary to avoid the restriction on deployed bytecode size.",
    "version": 1
  },
  "storageLayout": {
    "storage": [
      {
        "astId": 3858,
        "contract": "contracts/core/TroveManager.sol:TroveManager",
        "label": "interestRate",
        "offset": 0,
        "slot": "0",
        "type": "t_uint32"
      },
      {
        "astId": 3860,
        "contract": "contracts/core/TroveManager.sol:TroveManager",
        "label": "outstandingInterestDebt",
        "offset": 0,
        "slot": "1",
        "type": "t_uint256"
      },
      {
        "astId": 3862,
        "contract": "contracts/core/TroveManager.sol:TroveManager",
        "label": "L_Interest_Debt",
        "offset": 0,
        "slot": "2",
        "type": "t_uint256"
      },
      {
        "astId": 3864,
        "contract": "contracts/core/TroveManager.sol:TroveManager",
        "label": "lastInterestDebtUpdateTime",
        "offset": 0,
        "slot": "3",
        "type": "t_uint256"
      },
      {
        "astId": 3866,
        "contract": "contracts/core/TroveManager.sol:TroveManager",
        "label": "lastInterestDebtError_Redistribution",
        "offset": 0,
        "slot": "4",
        "type": "t_uint256"
      },
      {
        "astId": 6936,
        "contract": "contracts/core/TroveManager.sol:TroveManager",
        "label": "priceFeed",
        "offset": 0,
        "slot": "5",
        "type": "t_contract(IPriceFeed)22630"
      },
      {
        "astId": 6939,
        "contract": "contracts/core/TroveManager.sol:TroveManager",
        "label": "collateralToken",
        "offset": 0,
        "slot": "6",
        "type": "t_contract(IERC20)157"
      },
      {
        "astId": 6943,
        "contract": "contracts/core/TroveManager.sol:TroveManager",
        "label": "sortedTroves",
        "offset": 0,
        "slot": "7",
        "type": "t_contract(ISortedTroves)22782"
      },
      {
        "astId": 6945,
        "contract": "contracts/core/TroveManager.sol:TroveManager",
        "label": "MCR",
        "offset": 0,
        "slot": "8",
        "type": "t_uint256"
      },
      {
        "astId": 6959,
        "contract": "contracts/core/TroveManager.sol:TroveManager",
        "label": "minuteDecayFactor",
        "offset": 0,
        "slot": "9",
        "type": "t_uint256"
      },
      {
        "astId": 6961,
        "contract": "contracts/core/TroveManager.sol:TroveManager",
        "label": "redemptionFeeFloor",
        "offset": 0,
        "slot": "10",
        "type": "t_uint256"
      },
      {
        "astId": 6963,
        "contract": "contracts/core/TroveManager.sol:TroveManager",
        "label": "maxRedemptionFee",
        "offset": 0,
        "slot": "11",
        "type": "t_uint256"
      },
      {
        "astId": 6965,
        "contract": "contracts/core/TroveManager.sol:TroveManager",
        "label": "borrowingFeeFloor",
        "offset": 0,
        "slot": "12",
        "type": "t_uint256"
      },
      {
        "astId": 6967,
        "contract": "contracts/core/TroveManager.sol:TroveManager",
        "label": "maxBorrowingFee",
        "offset": 0,
        "slot": "13",
        "type": "t_uint256"
      },
      {
        "astId": 6969,
        "contract": "contracts/core/TroveManager.sol:TroveManager",
        "label": "maxSystemDebt",
        "offset": 0,
        "slot": "14",
        "type": "t_uint256"
      },
      {
        "astId": 6971,
        "contract": "contracts/core/TroveManager.sol:TroveManager",
        "label": "systemDeploymentTime",
        "offset": 0,
        "slot": "15",
        "type": "t_uint256"
      },
      {
        "astId": 6973,
        "contract": "contracts/core/TroveManager.sol:TroveManager",
        "label": "paused",
        "offset": 0,
        "slot": "16",
        "type": "t_bool"
      },
      {
        "astId": 6975,
        "contract": "contracts/core/TroveManager.sol:TroveManager",
        "label": "sunsetting",
        "offset": 1,
        "slot": "16",
        "type": "t_bool"
      },
      {
        "astId": 6977,
        "contract": "contracts/core/TroveManager.sol:TroveManager",
        "label": "baseRate",
        "offset": 0,
        "slot": "17",
        "type": "t_uint256"
      },
      {
        "astId": 6979,
        "contract": "contracts/core/TroveManager.sol:TroveManager",
        "label": "lastFeeOperationTime",
        "offset": 0,
        "slot": "18",
        "type": "t_uint256"
      },
      {
        "astId": 6981,
        "contract": "contracts/core/TroveManager.sol:TroveManager",
        "label": "totalStakes",
        "offset": 0,
        "slot": "19",
        "type": "t_uint256"
      },
      {
        "astId": 6983,
        "contract": "contracts/core/TroveManager.sol:TroveManager",
        "label": "totalStakesSnapshot",
        "offset": 0,
        "slot": "20",
        "type": "t_uint256"
      },
      {
        "astId": 6985,
        "contract": "contracts/core/TroveManager.sol:TroveManager",
        "label": "totalCollateralSnapshot",
        "offset": 0,
        "slot": "21",
        "type": "t_uint256"
      },
      {
        "astId": 6987,
        "contract": "contracts/core/TroveManager.sol:TroveManager",
        "label": "L_collateral",
        "offset": 0,
        "slot": "22",
        "type": "t_uint256"
      },
      {
        "astId": 6989,
        "contract": "contracts/core/TroveManager.sol:TroveManager",
        "label": "L_debt",
        "offset": 0,
        "slot": "23",
        "type": "t_uint256"
      },
      {
        "astId": 6991,
        "contract": "contracts/core/TroveManager.sol:TroveManager",
        "label": "lastCollateralError_Redistribution",
        "offset": 0,
        "slot": "24",
        "type": "t_uint256"
      },
      {
        "astId": 6993,
        "contract": "contracts/core/TroveManager.sol:TroveManager",
        "label": "lastDebtError_Redistribution",
        "offset": 0,
        "slot": "25",
        "type": "t_uint256"
      },
      {
        "astId": 6995,
        "contract": "contracts/core/TroveManager.sol:TroveManager",
        "label": "totalActiveCollateral",
        "offset": 0,
        "slot": "26",
        "type": "t_uint256"
      },
      {
        "astId": 6997,
        "contract": "contracts/core/TroveManager.sol:TroveManager",
        "label": "totalActiveDebt",
        "offset": 0,
        "slot": "27",
        "type": "t_uint256"
      },
      {
        "astId": 6999,
        "contract": "contracts/core/TroveManager.sol:TroveManager",
        "label": "interestPayable",
        "offset": 0,
        "slot": "28",
        "type": "t_uint256"
      },
      {
        "astId": 7001,
        "contract": "contracts/core/TroveManager.sol:TroveManager",
        "label": "defaultedCollateral",
        "offset": 0,
        "slot": "29",
        "type": "t_uint256"
      },
      {
        "astId": 7003,
        "contract": "contracts/core/TroveManager.sol:TroveManager",
        "label": "defaultedDebt",
        "offset": 0,
        "slot": "30",
        "type": "t_uint256"
      },
      {
        "astId": 7005,
        "contract": "contracts/core/TroveManager.sol:TroveManager",
        "label": "rewardIntegral",
        "offset": 0,
        "slot": "31",
        "type": "t_uint256"
      },
      {
        "astId": 7007,
        "contract": "contracts/core/TroveManager.sol:TroveManager",
        "label": "rewardRate",
        "offset": 0,
        "slot": "32",
        "type": "t_uint128"
      },
      {
        "astId": 7009,
        "contract": "contracts/core/TroveManager.sol:TroveManager",
        "label": "periodFinish",
        "offset": 16,
        "slot": "32",
        "type": "t_uint32"
      },
      {
        "astId": 7014,
        "contract": "contracts/core/TroveManager.sol:TroveManager",
        "label": "Troves",
        "offset": 0,
        "slot": "33",
        "type": "t_mapping(t_address,t_struct(Trove)23026_storage)"
      },
      {
        "astId": 7019,
        "contract": "contracts/core/TroveManager.sol:TroveManager",
        "label": "rewardSnapshots",
        "offset": 0,
        "slot": "34",
        "type": "t_mapping(t_address,t_struct(RewardSnapshot)23061_storage)"
      },
      {
        "astId": 7023,
        "contract": "contracts/core/TroveManager.sol:TroveManager",
        "label": "surplusBalances",
        "offset": 0,
        "slot": "35",
        "type": "t_mapping(t_address,t_uint256)"
      },
      {
        "astId": 7026,
        "contract": "contracts/core/TroveManager.sol:TroveManager",
        "label": "TroveOwners",
        "offset": 0,
        "slot": "36",
        "type": "t_array(t_address)dyn_storage"
      }
    ],
    "types": {
      "t_address": {
        "encoding": "inplace",
        "label": "address",
        "numberOfBytes": "20"
      },
      "t_array(t_address)dyn_storage": {
        "base": "t_address",
        "encoding": "dynamic_array",
        "label": "address[]",
        "numberOfBytes": "32"
      },
      "t_bool": {
        "encoding": "inplace",
        "label": "bool",
        "numberOfBytes": "1"
      },
      "t_contract(IERC20)157": {
        "encoding": "inplace",
        "label": "contract IERC20",
        "numberOfBytes": "20"
      },
      "t_contract(IPriceFeed)22630": {
        "encoding": "inplace",
        "label": "contract IPriceFeed",
        "numberOfBytes": "20"
      },
      "t_contract(ISortedTroves)22782": {
        "encoding": "inplace",
        "label": "contract ISortedTroves",
        "numberOfBytes": "20"
      },
      "t_enum(Status)23072": {
        "encoding": "inplace",
        "label": "enum ITroveManager.Status",
        "numberOfBytes": "1"
      },
      "t_mapping(t_address,t_struct(RewardSnapshot)23061_storage)": {
        "encoding": "mapping",
        "key": "t_address",
        "label": "mapping(address => struct ITroveManager.RewardSnapshot)",
        "numberOfBytes": "32",
        "value": "t_struct(RewardSnapshot)23061_storage"
      },
      "t_mapping(t_address,t_struct(Trove)23026_storage)": {
        "encoding": "mapping",
        "key": "t_address",
        "label": "mapping(address => struct ITroveManager.Trove)",
        "numberOfBytes": "32",
        "value": "t_struct(Trove)23026_storage"
      },
      "t_mapping(t_address,t_uint256)": {
        "encoding": "mapping",
        "key": "t_address",
        "label": "mapping(address => uint256)",
        "numberOfBytes": "32",
        "value": "t_uint256"
      },
      "t_struct(RewardSnapshot)23061_storage": {
        "encoding": "inplace",
        "label": "struct ITroveManager.RewardSnapshot",
        "members": [
          {
            "astId": 23056,
            "contract": "contracts/core/TroveManager.sol:TroveManager",
            "label": "collateral",
            "offset": 0,
            "slot": "0",
            "type": "t_uint256"
          },
          {
            "astId": 23058,
            "contract": "contracts/core/TroveManager.sol:TroveManager",
            "label": "debt",
            "offset": 0,
            "slot": "1",
            "type": "t_uint256"
          },
          {
            "astId": 23060,
            "contract": "contracts/core/TroveManager.sol:TroveManager",
            "label": "interest",
            "offset": 0,
            "slot": "2",
            "type": "t_uint256"
          }
        ],
        "numberOfBytes": "96"
      },
      "t_struct(Trove)23026_storage": {
        "encoding": "inplace",
        "label": "struct ITroveManager.Trove",
        "members": [
          {
            "astId": 23016,
            "contract": "contracts/core/TroveManager.sol:TroveManager",
            "label": "debt",
            "offset": 0,
            "slot": "0",
            "type": "t_uint256"
          },
          {
            "astId": 23018,
            "contract": "contracts/core/TroveManager.sol:TroveManager",
            "label": "coll",
            "offset": 0,
            "slot": "1",
            "type": "t_uint256"
          },
          {
            "astId": 23020,
            "contract": "contracts/core/TroveManager.sol:TroveManager",
            "label": "stake",
            "offset": 0,
            "slot": "2",
            "type": "t_uint256"
          },
          {
            "astId": 23023,
            "contract": "contracts/core/TroveManager.sol:TroveManager",
            "label": "status",
            "offset": 0,
            "slot": "3",
            "type": "t_enum(Status)23072"
          },
          {
            "astId": 23025,
            "contract": "contracts/core/TroveManager.sol:TroveManager",
            "label": "arrayIndex",
            "offset": 1,
            "slot": "3",
            "type": "t_uint128"
          }
        ],
        "numberOfBytes": "128"
      },
      "t_uint128": {
        "encoding": "inplace",
        "label": "uint128",
        "numberOfBytes": "16"
      },
      "t_uint256": {
        "encoding": "inplace",
        "label": "uint256",
        "numberOfBytes": "32"
      },
      "t_uint32": {
        "encoding": "inplace",
        "label": "uint32",
        "numberOfBytes": "4"
      }
    }
  }
}