{
  "address": "0x491C06adeE915D39Ee26E6b01542FeE624580aAa",
  "abi": [
    {
      "inputs": [
        {
          "internalType": "contract IBorrowerOperations",
          "name": "_bo",
          "type": "address"
        },
        {
          "internalType": "contract IStabilityPool",
          "name": "_sp",
          "type": "address"
        }
      ],
      "stateMutability": "nonpayable",
      "type": "constructor"
    },
    {
      "inputs": [],
      "name": "bo",
      "outputs": [
        {
          "internalType": "contract IBorrowerOperations",
          "name": "",
          "type": "address"
        }
      ],
      "stateMutability": "view",
      "type": "function"
    },
    {
      "inputs": [
        {
          "internalType": "contract ITroveManager",
          "name": "tm",
          "type": "address"
        },
        {
          "internalType": "address",
          "name": "_borrower",
          "type": "address"
        }
      ],
      "name": "getState",
      "outputs": [
        {
          "components": [
            {
              "internalType": "uint256",
              "name": "coll",
              "type": "uint256"
            },
            {
              "internalType": "uint256",
              "name": "debt",
              "type": "uint256"
            },
            {
              "internalType": "uint256",
              "name": "interest",
              "type": "uint256"
            },
            {
              "internalType": "uint256",
              "name": "MCR",
              "type": "uint256"
            },
            {
              "internalType": "uint256",
              "name": "ICR",
              "type": "uint256"
            },
            {
              "internalType": "uint256",
              "name": "CCR",
              "type": "uint256"
            },
            {
              "internalType": "uint256",
              "name": "TCR",
              "type": "uint256"
            },
            {
              "internalType": "uint256",
              "name": "minNetDebt",
              "type": "uint256"
            },
            {
              "internalType": "uint256",
              "name": "gasCompensation",
              "type": "uint256"
            },
            {
              "internalType": "uint256",
              "name": "price",
              "type": "uint256"
            },
            {
              "internalType": "uint256",
              "name": "maxCap",
              "type": "uint256"
            },
            {
              "internalType": "uint256",
              "name": "entireSystemDebt",
              "type": "uint256"
            },
            {
              "internalType": "uint256",
              "name": "entireSystemColl",
              "type": "uint256"
            },
            {
              "internalType": "uint256",
              "name": "redemptionBootstrap",
              "type": "uint256"
            },
            {
              "internalType": "uint256",
              "name": "redemptionRateWithDecay",
              "type": "uint256"
            },
            {
              "internalType": "uint256",
              "name": "borrowingRateWithDecay",
              "type": "uint256"
            },
            {
              "internalType": "uint256",
              "name": "troveStatus",
              "type": "uint256"
            },
            {
              "internalType": "uint256",
              "name": "surplusBalances",
              "type": "uint256"
            },
            {
              "internalType": "uint256",
              "name": "spStaked",
              "type": "uint256"
            },
            {
              "internalType": "uint256[]",
              "name": "spCollGains",
              "type": "uint256[]"
            },
            {
              "internalType": "uint256",
              "name": "spEsZebraGains",
              "type": "uint256"
            }
          ],
          "internalType": "struct TroveState.State",
          "name": "state",
          "type": "tuple"
        }
      ],
      "stateMutability": "nonpayable",
      "type": "function"
    },
    {
      "inputs": [],
      "name": "sp",
      "outputs": [
        {
          "internalType": "contract IStabilityPool",
          "name": "",
          "type": "address"
        }
      ],
      "stateMutability": "view",
      "type": "function"
    }
  ],
  "transactionHash": "0x51c8a502f5d12934bc8c9f838cd40942616386ec11b93dbf6ac738d201599977",
  "args": [
    "0x9EBA4Edc547b80CE364BD60925e287AD46034aB4",
    "0x710874eA89a5b25675C321843Ed7208a957D6B87"
  ],
  "numDeployments": 1,
  "solcInputHash": "67de95fb1d06552b83945aeba3fde888",
  "bytecode": "0x608060405234801561001057600080fd5b50604051610fad380380610fad83398101604081905261002f91610078565b600080546001600160a01b039384166001600160a01b031991821617909155600180549290931691161790556100b2565b6001600160a01b038116811461007557600080fd5b50565b6000806040838503121561008b57600080fd5b825161009681610060565b60208401519092506100a781610060565b809150509250929050565b610eec806100c16000396000f3fe608060405234801561001057600080fd5b50600436106100415760003560e01c8063500d684714610046578063790fc8b414610076578063e1dadf3b14610096575b600080fd5b600054610059906001600160a01b031681565b6040516001600160a01b0390911681526020015b60405180910390f35b610089610084366004610bb7565b6100a9565b60405161006d9190610c2b565b600154610059906001600160a01b031681565b61014c604051806102a001604052806000815260200160008152602001600081526020016000815260200160008152602001600081526020016000815260200160008152602001600081526020016000815260200160008152602001600081526020016000815260200160008152602001600081526020016000815260200160008152602001600081526020016000815260200160608152602001600081525090565b6040517f2b2b2bac0000000000000000000000000000000000000000000000000000000081526001600160a01b038381166004830152841690632b2b2bac906024016040805180830381865afa1580156101aa573d6000803e3d6000fd5b505050506040513d601f19601f820116820180604052508101906101ce9190610d4c565b602083018190529082526040517f55ca38cf0000000000000000000000000000000000000000000000000000000081526001600160a01b0384811660048301526024820192909252908416906355ca38cf90604401602060405180830381865afa158015610240573d6000803e3d6000fd5b505050506040513d601f19601f820116820180604052508101906102649190610d70565b816040018181525050826001600160a01b0316632f5c83a86040518163ffffffff1660e01b8152600401602060405180830381865afa1580156102ab573d6000803e3d6000fd5b505050506040513d601f19601f820116820180604052508101906102cf9190610d70565b81610140018181525050826001600160a01b031663794e57246040518163ffffffff1660e01b8152600401602060405180830381865afa158015610317573d6000803e3d6000fd5b505050506040513d601f19601f8201168201806040525081019061033b9190610d70565b816060018181525050826001600160a01b0316635733d58f6040518163ffffffff1660e01b8152600401602060405180830381865afa158015610382573d6000803e3d6000fd5b505050506040513d601f19601f820116820180604052508101906103a69190610d70565b60a082015260008054604080517fb620115d00000000000000000000000000000000000000000000000000000000815290516001600160a01b039092169263b620115d9260048084019360209390839003909101908290875af1158015610411573d6000803e3d6000fd5b505050506040513d601f19601f820116820180604052508101906104359190610d70565b60c0820152600054604080517f969c245200000000000000000000000000000000000000000000000000000000815290516001600160a01b039092169163969c2452916004808201926020929091908290030181865afa15801561049d573d6000803e3d6000fd5b505050506040513d601f19601f820116820180604052508101906104c19190610d70565b60e0820152600054604080517f4ba4a28b00000000000000000000000000000000000000000000000000000000815290516001600160a01b0390921691634ba4a28b916004808201926020929091908290030181865afa158015610529573d6000803e3d6000fd5b505050506040513d601f19601f8201168201806040525081019061054d9190610d70565b81610100018181525050826001600160a01b0316630fdb11cf6040518163ffffffff1660e01b81526004016020604051808303816000875af1158015610597573d6000803e3d6000fd5b505050506040513d601f19601f820116820180604052508101906105bb9190610d70565b61012082018190526040517fd293c7100000000000000000000000000000000000000000000000000000000081526001600160a01b03848116600483015260248201929092529084169063d293c71090604401602060405180830381865afa15801561062b573d6000803e3d6000fd5b505050506040513d601f19601f8201168201806040525081019061064f9190610d70565b816080018181525050826001600160a01b031663795d26c36040518163ffffffff1660e01b8152600401602060405180830381865afa158015610696573d6000803e3d6000fd5b505050506040513d601f19601f820116820180604052508101906106ba9190610d70565b81610160018181525050826001600160a01b031663887105d36040518163ffffffff1660e01b8152600401602060405180830381865afa158015610702573d6000803e3d6000fd5b505050506040513d601f19601f820116820180604052508101906107269190610d70565b81610180018181525050826001600160a01b031663c35bc5506040518163ffffffff1660e01b8152600401602060405180830381865afa15801561076e573d6000803e3d6000fd5b505050506040513d601f19601f820116820180604052508101906107929190610d70565b836001600160a01b031663720fbe2c6040518163ffffffff1660e01b8152600401602060405180830381865afa1580156107d0573d6000803e3d6000fd5b505050506040513d601f19601f820116820180604052508101906107f49190610d70565b6107fe9190610d89565b816101a0018181525050826001600160a01b031663c52861f26040518163ffffffff1660e01b8152600401602060405180830381865afa158015610846573d6000803e3d6000fd5b505050506040513d601f19601f8201168201806040525081019061086a9190610d70565b816101c0018181525050826001600160a01b03166366ca4a216040518163ffffffff1660e01b8152600401602060405180830381865afa1580156108b2573d6000803e3d6000fd5b505050506040513d601f19601f820116820180604052508101906108d69190610d70565b6101e08201526040517f21e378010000000000000000000000000000000000000000000000000000000081526001600160a01b0383811660048301528416906321e3780190602401602060405180830381865afa15801561093b573d6000803e3d6000fd5b505050506040513d601f19601f8201168201806040525081019061095f9190610d70565b6102008201526040517fec38a05d0000000000000000000000000000000000000000000000000000000081526001600160a01b03838116600483015284169063ec38a05d90602401602060405180830381865afa1580156109c4573d6000803e3d6000fd5b505050506040513d601f19601f820116820180604052508101906109e89190610d70565b610220820152600154604080517ff177b83500000000000000000000000000000000000000000000000000000000815290516001600160a01b039092169163f177b835916004808201926020929091908290030181865afa158015610a51573d6000803e3d6000fd5b505050506040513d601f19601f82011682018060405250810190610a759190610d70565b6102408201526001546040517f307d36120000000000000000000000000000000000000000000000000000000081526001600160a01b0384811660048301529091169063307d361290602401600060405180830381865afa158015610ade573d6000803e3d6000fd5b505050506040513d6000823e601f3d908101601f19168201604052610b069190810190610df8565b6102608201526001546040517fe95034250000000000000000000000000000000000000000000000000000000081526001600160a01b0384811660048301529091169063e950342590602401602060405180830381865afa158015610b6f573d6000803e3d6000fd5b505050506040513d601f19601f82011682018060405250810190610b939190610d70565b61028082015292915050565b6001600160a01b0381168114610bb457600080fd5b50565b60008060408385031215610bca57600080fd5b8235610bd581610b9f565b91506020830135610be581610b9f565b809150509250929050565b600081518084526020808501945080840160005b83811015610c2057815187529582019590820190600101610c04565b509495945050505050565b602080825282518282015282015160408083019190915282015160608083019190915282015160808083019190915282015160a08083019190915282015160c08083019190915282015160e08083019190915282015161010080830191909152820151610120808301919091528201516101408083019190915282015161016080830191909152820151610180808301919091528201516101a0808301919091528201516101c0808301919091528201516101e080830191909152820151610200808301919091528201516102208083019190915282015161024080830191909152820151610260808301919091528201516102a06102808084018290526000929190610d3c6102c0860184610bf0565b9501519301929092525090919050565b60008060408385031215610d5f57600080fd5b505080516020909101519092909150565b600060208284031215610d8257600080fd5b5051919050565b80820180821115610dc3577f4e487b7100000000000000000000000000000000000000000000000000000000600052601160045260246000fd5b92915050565b7f4e487b7100000000000000000000000000000000000000000000000000000000600052604160045260246000fd5b60006020808385031215610e0b57600080fd5b825167ffffffffffffffff80821115610e2357600080fd5b818501915085601f830112610e3757600080fd5b815181811115610e4957610e49610dc9565b8060051b604051601f19603f83011681018181108582111715610e6e57610e6e610dc9565b604052918252848201925083810185019188831115610e8c57600080fd5b938501935b82851015610eaa57845184529385019392850192610e91565b9897505050505050505056fea26469706673582212200d50921adfb9597ab3aadec682369fd2671a8e1187b077ca09d913b582d5188664736f6c63430008130033",
  "devdoc": {
    "kind": "dev",
    "methods": {},
    "version": 1
  },
  "userdoc": {
    "kind": "user",
    "methods": {},
    "version": 1
  },
  "storageLayout": {
    "storage": [
      {
        "astId": 87,
        "contract": "contracts/helpers/TroveState.sol:TroveState",
        "label": "bo",
        "offset": 0,
        "slot": "0",
        "type": "t_contract(IBorrowerOperations)573"
      },
      {
        "astId": 90,
        "contract": "contracts/helpers/TroveState.sol:TroveState",
        "label": "sp",
        "offset": 0,
        "slot": "1",
        "type": "t_contract(IStabilityPool)1010"
      }
    ],
    "types": {
      "t_contract(IBorrowerOperations)573": {
        "encoding": "inplace",
        "label": "contract IBorrowerOperations",
        "numberOfBytes": "20"
      },
      "t_contract(IStabilityPool)1010": {
        "encoding": "inplace",
        "label": "contract IStabilityPool",
        "numberOfBytes": "20"
      }
    }
  }
}