{
  "address": "0xf7347F2CFfBb3e9C7c8C7829F35e54f5dd1d3306",
  "abi": [
    {
      "inputs": [
        {
          "internalType": "contract IStabilityPool",
          "name": "_stabilityPoolAddress",
          "type": "address"
        },
        {
          "internalType": "contract IBorrowerOperations",
          "name": "_borrowerOperations",
          "type": "address"
        },
        {
          "internalType": "address",
          "name": "_factory",
          "type": "address"
        },
        {
          "internalType": "uint256",
          "name": "_gasCompensation",
          "type": "uint256"
        }
      ],
      "stateMutability": "nonpayable",
      "type": "constructor"
    },
    {
      "anonymous": false,
      "inputs": [
        {
          "indexed": false,
          "internalType": "uint256",
          "name": "_liquidatedDebt",
          "type": "uint256"
        },
        {
          "indexed": false,
          "internalType": "uint256",
          "name": "_liquidatedColl",
          "type": "uint256"
        },
        {
          "indexed": false,
          "internalType": "uint256",
          "name": "_collGasCompensation",
          "type": "uint256"
        },
        {
          "indexed": false,
          "internalType": "uint256",
          "name": "_debtGasCompensation",
          "type": "uint256"
        },
        {
          "indexed": false,
          "internalType": "uint256",
          "name": "_interest",
          "type": "uint256"
        }
      ],
      "name": "Liquidation",
      "type": "event"
    },
    {
      "anonymous": false,
      "inputs": [
        {
          "indexed": true,
          "internalType": "address",
          "name": "_borrower",
          "type": "address"
        },
        {
          "indexed": false,
          "internalType": "uint256",
          "name": "_debt",
          "type": "uint256"
        },
        {
          "indexed": false,
          "internalType": "uint256",
          "name": "_coll",
          "type": "uint256"
        },
        {
          "indexed": false,
          "internalType": "uint256",
          "name": "_interest",
          "type": "uint256"
        },
        {
          "indexed": false,
          "internalType": "enum LiquidationManager.TroveManagerOperation",
          "name": "_operation",
          "type": "uint8"
        }
      ],
      "name": "TroveLiquidated",
      "type": "event"
    },
    {
      "anonymous": false,
      "inputs": [
        {
          "indexed": true,
          "internalType": "address",
          "name": "_borrower",
          "type": "address"
        },
        {
          "indexed": false,
          "internalType": "uint256",
          "name": "_debt",
          "type": "uint256"
        },
        {
          "indexed": false,
          "internalType": "uint256",
          "name": "_coll",
          "type": "uint256"
        },
        {
          "indexed": false,
          "internalType": "uint8",
          "name": "operation",
          "type": "uint8"
        }
      ],
      "name": "TroveLiquidated",
      "type": "event"
    },
    {
      "anonymous": false,
      "inputs": [
        {
          "indexed": true,
          "internalType": "address",
          "name": "_borrower",
          "type": "address"
        },
        {
          "indexed": false,
          "internalType": "uint256",
          "name": "_debt",
          "type": "uint256"
        },
        {
          "indexed": false,
          "internalType": "uint256",
          "name": "_coll",
          "type": "uint256"
        },
        {
          "indexed": false,
          "internalType": "uint256",
          "name": "_stake",
          "type": "uint256"
        },
        {
          "indexed": false,
          "internalType": "enum LiquidationManager.TroveManagerOperation",
          "name": "_operation",
          "type": "uint8"
        }
      ],
      "name": "TroveUpdated",
      "type": "event"
    },
    {
      "inputs": [],
      "name": "CCR",
      "outputs": [
        {
          "internalType": "uint256",
          "name": "",
          "type": "uint256"
        }
      ],
      "stateMutability": "view",
      "type": "function"
    },
    {
      "inputs": [],
      "name": "DEBT_GAS_COMPENSATION",
      "outputs": [
        {
          "internalType": "uint256",
          "name": "",
          "type": "uint256"
        }
      ],
      "stateMutability": "view",
      "type": "function"
    },
    {
      "inputs": [],
      "name": "DECIMAL_PRECISION",
      "outputs": [
        {
          "internalType": "uint256",
          "name": "",
          "type": "uint256"
        }
      ],
      "stateMutability": "view",
      "type": "function"
    },
    {
      "inputs": [],
      "name": "PERCENT_DIVISOR",
      "outputs": [
        {
          "internalType": "uint256",
          "name": "",
          "type": "uint256"
        }
      ],
      "stateMutability": "view",
      "type": "function"
    },
    {
      "inputs": [
        {
          "internalType": "contract ITroveManager",
          "name": "troveManager",
          "type": "address"
        },
        {
          "internalType": "address[]",
          "name": "_troveArray",
          "type": "address[]"
        }
      ],
      "name": "batchLiquidateTroves",
      "outputs": [],
      "stateMutability": "nonpayable",
      "type": "function"
    },
    {
      "inputs": [],
      "name": "borrowerOperations",
      "outputs": [
        {
          "internalType": "contract IBorrowerOperations",
          "name": "",
          "type": "address"
        }
      ],
      "stateMutability": "view",
      "type": "function"
    },
    {
      "inputs": [
        {
          "internalType": "contract ITroveManager",
          "name": "_troveManager",
          "type": "address"
        }
      ],
      "name": "enableTroveManager",
      "outputs": [],
      "stateMutability": "nonpayable",
      "type": "function"
    },
    {
      "inputs": [],
      "name": "factory",
      "outputs": [
        {
          "internalType": "address",
          "name": "",
          "type": "address"
        }
      ],
      "stateMutability": "view",
      "type": "function"
    },
    {
      "inputs": [
        {
          "internalType": "contract ITroveManager",
          "name": "troveManager",
          "type": "address"
        },
        {
          "internalType": "address",
          "name": "borrower",
          "type": "address"
        }
      ],
      "name": "liquidate",
      "outputs": [],
      "stateMutability": "nonpayable",
      "type": "function"
    },
    {
      "inputs": [
        {
          "internalType": "contract ITroveManager",
          "name": "troveManager",
          "type": "address"
        },
        {
          "internalType": "uint256",
          "name": "maxTrovesToLiquidate",
          "type": "uint256"
        },
        {
          "internalType": "uint256",
          "name": "maxICR",
          "type": "uint256"
        }
      ],
      "name": "liquidateTroves",
      "outputs": [],
      "stateMutability": "nonpayable",
      "type": "function"
    },
    {
      "inputs": [],
      "name": "stabilityPool",
      "outputs": [
        {
          "internalType": "contract IStabilityPool",
          "name": "",
          "type": "address"
        }
      ],
      "stateMutability": "view",
      "type": "function"
    }
  ],
  "transactionHash": "0x6b00becb41e4d6727f9a329e7d8c47f17c185ec54946353d539bf1ebc7b0005f",
  "args": [
    "0xB5C669124f7088e8D6D2B47a477bEd3C7A7d8C81",
    "0x583C66D1281a03005a208B28005bEA10e3A16De0",
    "0xa99da54fca0fe561a0233d05d0af022d9703db6a",
    "1000000000000000"
  ],
  "numDeployments": 1,
  "solcInputHash": "b91301f1a84b6c2e358640cd7d231682",
  "bytecode": "0x6101006040523480156200001257600080fd5b5060405162002cac38038062002cac83398101604081905262000035916200006f565b6080526001600160a01b0392831660a05290821660c0521660e052620000c9565b6001600160a01b03811681146200006c57600080fd5b50565b600080600080608085870312156200008657600080fd5b8451620000938162000056565b6020860151909450620000a68162000056565b6040860151909350620000b98162000056565b6060959095015193969295505050565b60805160a05160c05160e051612b726200013a600039600081816101e70152610214015260008181610178015281816108bc01526114b901526000818160d301528181610334015261113d01526000818161014201528181611d6d015281816121f4015261258e0152612b726000f3fe608060405234801561001057600080fd5b50600436106100c95760003560e01c806377553ad41161008157806386b9d81f1161005b57806386b9d81f146101c0578063a20baee6146101d3578063c45a0155146101e257600080fd5b806377553ad4146101735780637b5031b21461019a5780637c92590f146101ad57600080fd5b80634870dd9a116100b25780634870dd9a146101275780634ba4a28b1461013d5780635733d58f1461016457600080fd5b8063048c661d146100ce57806317dd676d14610112575b600080fd5b6100f57f000000000000000000000000000000000000000000000000000000000000000081565b6040516001600160a01b0390911681526020015b60405180910390f35b610125610120366004612812565b610209565b005b61012f60c881565b604051908152602001610109565b61012f7f000000000000000000000000000000000000000000000000000000000000000081565b61012f671bc16d674ec8000081565b6100f57f000000000000000000000000000000000000000000000000000000000000000081565b6101256101a836600461282f565b6102c8565b6101256101bb36600461288a565b610f23565b6101256101ce366004612982565b611a9d565b61012f670de0b6b3a764000081565b6100f57f000000000000000000000000000000000000000000000000000000000000000081565b336001600160a01b037f000000000000000000000000000000000000000000000000000000000000000016146102865760405162461bcd60e51b815260206004820152600b60248201527f4e6f7420666163746f727900000000000000000000000000000000000000000060448201526064015b60405180910390fd5b6001600160a01b0316600090815260208190526040902080547fffffffffffffffffffffffffffffffffffffffffffffffffffffffffffffff00166001179055565b6001600160a01b03831660009081526020819052604090205460ff166103305760405162461bcd60e51b815260206004820152601960248201527f54726f76654d616e61676572206e6f7420617070726f76656400000000000000604482015260640161027d565b60007f00000000000000000000000000000000000000000000000000000000000000009050836001600160a01b0316631e8979016040518163ffffffff1660e01b81526004016020604051808303816000875af1158015610395573d6000803e3d6000fd5b505050506040513d601f19601f820116820180604052508101906103b991906129bb565b506000846001600160a01b031663ae9187546040518163ffffffff1660e01b8152600401602060405180830381865afa1580156103fa573d6000803e3d6000fd5b505050506040513d601f19601f8201168201806040525081019061041e91906129d4565b9050610476604051806101400160405280600081526020016000815260200160008152602001600081526020016000815260200160008152602001600081526020016000815260200160008152602001600081525090565b6104cc604051806101400160405280600081526020016000815260200160008152602001600081526020016000815260200160008152602001600081526020016000815260200160008152602001600081525090565b6104f2604051806060016040528060008152602001600081526020016000151581525090565b60008790506000896001600160a01b03166349eefeee6040518163ffffffff1660e01b8152600401602060405180830381865afa158015610537573d6000803e3d6000fd5b505050506040513d601f19601f8201168201806040525081019061055b91906129bb565b9050896001600160a01b0316630fdb11cf6040518163ffffffff1660e01b81526004016020604051808303816000875af115801561059d573d6000803e3d6000fd5b505050506040513d601f19601f820116820180604052508101906105c191906129bb565b836000018181525050896001600160a01b0316639484fb8e6040518163ffffffff1660e01b8152600401602060405180830381865afa158015610608573d6000803e3d6000fd5b505050506040513d601f19601f8201168201806040525081019061062c91906129f1565b836040019015159081151581525050896001600160a01b031663794e57246040518163ffffffff1660e01b8152600401602060405180830381865afa158015610679573d6000803e3d6000fd5b505050506040513d601f19601f8201168201806040525081019061069d91906129bb565b8360200181815250506000876001600160a01b031663f177b8356040518163ffffffff1660e01b8152600401602060405180830381865afa1580156106e6573d6000803e3d6000fd5b505050506040513d601f19601f8201168201806040525081019061070a91906129bb565b90505b60008311801561071d5750600182115b15610894576000876001600160a01b0316634d6228316040518163ffffffff1660e01b8152600401602060405180830381865afa158015610762573d6000803e3d6000fd5b505050506040513d601f19601f8201168201806040525081019061078691906129d4565b8551604051630d293c7160e41b81526001600160a01b0380841660048301526024820192909252919250600091908e169063d293c71090604401602060405180830381865afa1580156107dd573d6000803e3d6000fd5b505050506040513d601f19601f8201168201806040525081019061080191906129bb565b90508a81111561081657600094505050610894565b670de0b6b3a764000081116108405761082f8d83611bfa565b975061083b8789611f23565b610881565b856020015181101561087a5761085c8d8385896040015161201f565b97508760a001518361086e9190612a29565b925061083b8789611f23565b5050610894565b505060001992830192919091019061070d565b6000831180156108a657508360400151155b80156108b25750600182115b15610be5576000807f00000000000000000000000000000000000000000000000000000000000000006001600160a01b031663716c53c26040518163ffffffff1660e01b815260040160408051808303816000875af1158015610919573d6000803e3d6000fd5b505050506040513d601f19601f8201168201806040525081019061093d9190612a3c565b875160c08a015192945090925061095391612a60565b61095d9083612a29565b91508660a001518161096f9190612a29565b90506000896001600160a01b0316634d6228316040518163ffffffff1660e01b8152600401602060405180830381865afa1580156109b1573d6000803e3d6000fd5b505050506040513d601f19601f820116820180604052508101906109d591906129d4565b90508d5b6000871180156109e95750600186115b15610be05760008f6001600160a01b031663d293c710848b600001516040518363ffffffff1660e01b8152600401610a369291906001600160a01b03929092168252602082015260400190565b602060405180830381865afa158015610a53573d6000803e3d6000fd5b505050506040513d601f19601f82011682018060405250810190610a7791906129bb565b90508d811115610a875750610be0565b6040517fb72703ac0000000000000000000000000000000000000000000000000000000081526001600160a01b03808516600483015260001999909901988491908e169063b72703ac90602401602060405180830381865afa158015610af1573d6000803e3d6000fd5b505050506040513d601f19601f82011682018060405250810190610b1591906129d4565b93506000610b238787612354565b9050671bc16d674ec8000081101580610b3c5750808310155b15610b4957505050610be0565b610b5e84838a8e602001518f6000015161237a565b9c508c60a00151600003610b74575050506109d9565b60a08d0151610b839089612a29565b97508a600001518d61012001518e60c00151610b9f9190612a77565b610ba99190612a60565b610bb39088612a29565b96508c60a0015186610bc59190612a29565b9550610bd18c8e611f23565b505060001990960195506109d9565b505050505b6000856020015111610c395760405162461bcd60e51b815260206004820152601460248201527f6e6f7468696e6720746f206c6971756964617465000000000000000000000000604482015260640161027d565b60008560a001511180610c50575060008560c00151115b15610dde57876001600160a01b031663e66667338c6001600160a01b031663b2016bd46040518163ffffffff1660e01b8152600401602060405180830381865afa158015610ca2573d6000803e3d6000fd5b505050506040513d601f19601f82011682018060405250810190610cc691906129d4565b60a088015160c08901516040517fffffffff0000000000000000000000000000000000000000000000000000000060e086901b1681526001600160a01b03909316600484015260248301919091526044820152606401600060405180830381600087803b158015610d3657600080fd5b505af1158015610d4a573d6000803e3d6000fd5b5050505060a085015160c08601516040517fe9186c940000000000000000000000000000000000000000000000000000000081526001600160a01b038b8116600483015260248201939093526044810191909152908c169063e9186c9490606401600060405180830381600087803b158015610dc557600080fd5b505af1158015610dd9573d6000803e3d6000fd5b505050505b60e0850151610100860151610120870151608088015160608901516040808b015190517f7541ae1b000000000000000000000000000000000000000000000000000000008152336004820152602481019690965260448601949094526064850192909252608484015260a483015260c48201526001600160a01b038c1690637541ae1b9060e401600060405180830381600087803b158015610e7f57600080fd5b505af1158015610e93573d6000803e3d6000fd5b5050506020860151610120870151606088015188517f5823f33ee3da2874398138f21ff2fcd7078180caf18ccb37ac445d9a5abfa75f9450610ed59190612a29565b610edf9190612a29565b6060808901516080808b01516040808d0151815197885260208801969096528601929092529184015282015260a00160405180910390a15050505050505050505050565b6001600160a01b03821660009081526020819052604090205460ff16610f8b5760405162461bcd60e51b815260206004820152601960248201527f54726f76654d616e61676572206e6f7420617070726f76656400000000000000604482015260640161027d565b80516000036110025760405162461bcd60e51b815260206004820152603660248201527f54726f76654d616e616765723a2043616c6c646174612061646472657373206160448201527f72726179206d757374206e6f7420626520656d70747900000000000000000000606482015260840161027d565b816001600160a01b0316631e8979016040518163ffffffff1660e01b81526004016020604051808303816000875af1158015611042573d6000803e3d6000fd5b505050506040513d601f19601f8201168201806040525081019061106691906129bb565b506110bd604051806101400160405280600081526020016000815260200160008152602001600081526020016000815260200160008152602001600081526020016000815260200160008152602001600081525090565b611113604051806101400160405280600081526020016000815260200160008152602001600081526020016000815260200160008152602001600081526020016000815260200160008152602001600081525090565b611139604051806060016040528060008152602001600081526020016000151581525090565b60007f000000000000000000000000000000000000000000000000000000000000000090506000816001600160a01b031663f177b8356040518163ffffffff1660e01b8152600401602060405180830381865afa15801561119e573d6000803e3d6000fd5b505050506040513d601f19601f820116820180604052508101906111c291906129bb565b9050866001600160a01b0316630fdb11cf6040518163ffffffff1660e01b81526004016020604051808303816000875af1158015611204573d6000803e3d6000fd5b505050506040513d601f19601f8201168201806040525081019061122891906129bb565b836000018181525050866001600160a01b0316639484fb8e6040518163ffffffff1660e01b8152600401602060405180830381865afa15801561126f573d6000803e3d6000fd5b505050506040513d601f19601f8201168201806040525081019061129391906129f1565b836040019015159081151581525050866001600160a01b031663794e57246040518163ffffffff1660e01b8152600401602060405180830381865afa1580156112e0573d6000803e3d6000fd5b505050506040513d601f19601f8201168201806040525081019061130491906129bb565b8360200181815250506000876001600160a01b03166349eefeee6040518163ffffffff1660e01b8152600401602060405180830381865afa15801561134d573d6000803e3d6000fd5b505050506040513d601f19601f8201168201806040525081019061137191906129bb565b875190915060005b81811080156113885750600183115b156114a05760008982815181106113a1576113a1612a8a565b60209081029190910101518751604051630d293c7160e41b81526001600160a01b0380841660048301526024820192909252919250600091908d169063d293c71090604401602060405180830381865afa158015611403573d6000803e3d6000fd5b505050506040513d601f19601f8201168201806040525081019061142791906129bb565b9050670de0b6b3a76400008111611449576114428c83611bfa565b9950611485565b876020015181101561147e576114658c83888b6040015161201f565b99508960a00151866114779190612a29565b9550611485565b50506114a0565b61148f898b611f23565b505060001990920191600101611379565b81811080156114af5750600183115b1561173a576000807f00000000000000000000000000000000000000000000000000000000000000006001600160a01b031663716c53c26040518163ffffffff1660e01b815260040160408051808303816000875af1158015611516573d6000803e3d6000fd5b505050506040513d601f19601f8201168201806040525081019061153a9190612a3c565b895160c08c015192945090925061155091612a60565b61155a9083612a29565b91508860a001518161156c9190612a29565b90505b838310801561157e5750600185115b156117375760008b848151811061159757611597612a8a565b60209081029190910101518951604051630d293c7160e41b81526001600160a01b0380841660048301526024820192909252919250600091908f169063d293c71090604401602060405180830381865afa1580156115f9573d6000803e3d6000fd5b505050506040513d601f19601f8201168201806040525081019061161d91906129bb565b9050846001019450670de0b6b3a764000081116116455761163e8e83611bfa565b9b506116cc565b89602001518110156116615761163e8e838a8d6040015161201f565b600061166d8585612354565b9050671bc16d674ec80000811015806116865750808210155b8061169257508a604001515b1561169f5750505061156f565b6116b48f848b8e602001518f6000015161237a565b9c508c60a001516000036116ca5750505061156f565b505b60a08c01516116db9089612a29565b975089600001518c61012001518d60c001516116f79190612a77565b6117019190612a60565b61170b9085612a29565b93508b60a001518361171d9190612a29565b92506117298b8d611f23565b50506000199094019361156f565b50505b60008760200151116117b45760405162461bcd60e51b815260206004820152602260248201527f54726f76654d616e616765723a206e6f7468696e6720746f206c69717569646160448201527f7465000000000000000000000000000000000000000000000000000000000000606482015260840161027d565b60008760a0015111806117cb575060008760c00151115b1561195957846001600160a01b031663e66667338b6001600160a01b031663b2016bd46040518163ffffffff1660e01b8152600401602060405180830381865afa15801561181d573d6000803e3d6000fd5b505050506040513d601f19601f8201168201806040525081019061184191906129d4565b60a08a015160c08b01516040517fffffffff0000000000000000000000000000000000000000000000000000000060e086901b1681526001600160a01b03909316600484015260248301919091526044820152606401600060405180830381600087803b1580156118b157600080fd5b505af11580156118c5573d6000803e3d6000fd5b5050505060a087015160c08801516040517fe9186c940000000000000000000000000000000000000000000000000000000081526001600160a01b03888116600483015260248201939093526044810191909152908b169063e9186c9490606401600060405180830381600087803b15801561194057600080fd5b505af1158015611954573d6000803e3d6000fd5b505050505b60e087015161010088015161012089015160808a015160608b01516040808d015190517f7541ae1b000000000000000000000000000000000000000000000000000000008152336004820152602481019690965260448601949094526064850192909252608484015260a483015260c48201526001600160a01b038b1690637541ae1b9060e401600060405180830381600087803b1580156119fa57600080fd5b505af1158015611a0e573d6000803e3d6000fd5b505050602088015161012089015160608a01518a517f5823f33ee3da2874398138f21ff2fcd7078180caf18ccb37ac445d9a5abfa75f9450611a509190612a29565b611a5a9190612a29565b6060808b01516080808d01516040808f0151815197885260208801969096528601929092529184015282015260a00160405180910390a150505050505050505050565b6040517f21e378010000000000000000000000000000000000000000000000000000000081526001600160a01b0382811660048301528316906321e3780190602401602060405180830381865afa158015611afc573d6000803e3d6000fd5b505050506040513d601f19601f82011682018060405250810190611b2091906129bb565b600114611b955760405162461bcd60e51b815260206004820152602f60248201527f54726f76654d616e616765723a2054726f766520646f6573206e6f742065786960448201527f7374206f7220697320636c6f7365640000000000000000000000000000000000606482015260840161027d565b604080516001808252818301909252600091602080830190803683370190505090508181600081518110611bcb57611bcb612a8a565b60200260200101906001600160a01b031690816001600160a01b031681525050611bf58382610f23565b505050565b611c50604051806101400160405280600081526020016000815260200160008152602001600081526020016000815260200160008152602001600081526020016000815260200160008152602001600081525090565b604051632e46be5f60e21b81526001600160a01b038381166004830152600091829186169063b91af97c90602401608060405180830381865afa158015611c9b573d6000803e3d6000fd5b505050506040513d601f19601f82011682018060405250810190611cbf9190612aa0565b60208701929092528286526040516355ca38cf60e01b81526001600160a01b0388811660048301526024820194909452909450909250908616906355ca38cf90604401602060405180830381865afa158015611d1f573d6000803e3d6000fd5b505050506040513d601f19601f82011682018060405250810190611d4391906129bb565b604084018190528351611d569190612a77565b83526020830151611d6690612764565b60608401527f0000000000000000000000000000000000000000000000000000000000000000608084015260405163eb3007fd60e01b815260048101839052602481018290526001600160a01b0386169063eb3007fd90604401600060405180830381600087803b158015611dda57600080fd5b505af1158015611dee573d6000803e3d6000fd5b5050600060a0860181905260c08601525050825160e084015260608301516020840151611e1b9190612a29565b6101008401526040516325019ee960e01b81526001600160a01b0385811660048301528616906325019ee990602401600060405180830381600087803b158015611e6457600080fd5b505af1158015611e78573d6000803e3d6000fd5b50505050836001600160a01b03167fcb54d78ab66bd48ff5a1a1018e8826bc0df893b94b4d3945b3922e586eaa048a8460000151856020015186604001516002604051611ec89493929190612af8565b60405180910390a2836001600160a01b03167fc3770d654ed33aeea6bf11ac8ef05d02a6a04ed4686dd2f624d853bbec43cc8b60008060006002604051611f129493929190612af8565b60405180910390a250505b92915050565b80606001518260600151611f379190612a77565b606083015260808082015190830151611f509190612a77565b608083015280516020830151611f669190612a77565b602083015260408082015190830151611f7f9190612a77565b604083015260208101518251611f959190612a77565b825260a08082015190830151611fab9190612a77565b60a083015260c08082015190830151611fc49190612a77565b60c083015260e08082015190830151611fdd9190612a77565b60e08301526101008082015190830151611ff79190612a77565b61010083015261012080820151908301516120129190612a77565b6101209092019190915250565b612075604051806101400160405280600081526020016000815260200160008152602001600081526020016000815260200160008152602001600081526020016000815260200160008152602001600081525090565b604051632e46be5f60e21b81526001600160a01b038581166004830152600091829188169063b91af97c90602401608060405180830381865afa1580156120c0573d6000803e3d6000fd5b505050506040513d601f19601f820116820180604052508101906120e49190612aa0565b60208701929092528286526040516355ca38cf60e01b81526001600160a01b038a811660048301526024820194909452909450909250908816906355ca38cf90604401602060405180830381865afa158015612144573d6000803e3d6000fd5b505050506040513d601f19601f8201168201806040525081019061216891906129bb565b60408401819052835161217b9190612a77565b835260405163eb3007fd60e01b815260048101839052602481018290526001600160a01b0388169063eb3007fd90604401600060405180830381600087803b1580156121c657600080fd5b505af11580156121da573d6000803e3d6000fd5b505050506121eb8360200151612764565b606084018190527f00000000000000000000000000000000000000000000000000000000000000006080850152602084015160009161222991612a29565b905061223b8460000151828888612771565b61010088015260e087015260c086015260a08501526040516325019ee960e01b81526001600160a01b0388811660048301528916906325019ee990602401600060405180830381600087803b15801561229357600080fd5b505af11580156122a7573d6000803e3d6000fd5b50505050866001600160a01b03167fcb54d78ab66bd48ff5a1a1018e8826bc0df893b94b4d3945b3922e586eaa048a85600001518660200151876040015160016040516122f79493929190612af8565b60405180910390a2866001600160a01b03167fc3770d654ed33aeea6bf11ac8ef05d02a6a04ed4686dd2f624d853bbec43cc8b600080600060016040516123419493929190612af8565b60405180910390a2505050949350505050565b600081156123715760006123688385612b1a565b9150611f1d9050565b50600019611f1d565b6123d0604051806101400160405280600081526020016000815260200160008152602001600081526020016000815260200160008152602001600081526020016000815260200160008152602001600081525090565b604051632e46be5f60e21b81526001600160a01b0386811660048301526000918291829182918b169063b91af97c90602401608060405180830381865afa15801561241f573d6000803e3d6000fd5b505050506040513d601f19601f820116820180604052508101906124439190612aa0565b6040516355ca38cf60e01b81526001600160a01b038e811660048301526024820186905294985092965090945092506000918c16906355ca38cf90604401602060405180830381865afa15801561249e573d6000803e3d6000fd5b505050506040513d601f19601f820116820180604052508101906124c291906129bb565b90506124ce8186612a77565b9450888511156124e257505050505061275b565b60405163eb3007fd60e01b815260048101849052602481018390526001600160a01b038c169063eb3007fd90604401600060405180830381600087803b15801561252b57600080fd5b505af115801561253f573d6000803e3d6000fd5b50505050808561254f9190612a77565b80875260408701829052602087018590526000908890612570908b90612a60565b61257a9190612b1a565b905061258581612764565b606088018190527f00000000000000000000000000000000000000000000000000000000000000006080890152875160a08901526125c39082612a29565b60c08801526040516325019ee960e01b81526001600160a01b038c811660048301528d16906325019ee990602401600060405180830381600087803b15801561260b57600080fd5b505af115801561261f573d6000803e3d6000fd5b50505050600081866126319190612a29565b905080156126bd5761012088018190526040517f789c6b930000000000000000000000000000000000000000000000000000000081526001600160a01b038d81166004830152602482018390528e169063789c6b9390604401600060405180830381600087803b1580156126a457600080fd5b505af11580156126b8573d6000803e3d6000fd5b505050505b8b6001600160a01b03167fcb54d78ab66bd48ff5a1a1018e8826bc0df893b94b4d3945b3922e586eaa048a888a60c001518660026040516127019493929190612af8565b60405180910390a28b6001600160a01b03167fc3770d654ed33aeea6bf11ac8ef05d02a6a04ed4686dd2f624d853bbec43cc8b6000806000600260405161274b9493929190612af8565b60405180910390a2505050505050505b95945050505050565b6000611f1d60c883612b1a565b600080600080600086118015612785575084155b156127ca5761279488876127e2565b9350876127a18589612a60565b6127ab9190612b1a565b92506127b78489612a29565b91506127c38388612a29565b90506127d7565b5060009250829150869050855b945094509450949050565b60008183106127f157816127f3565b825b9392505050565b6001600160a01b038116811461280f57600080fd5b50565b60006020828403121561282457600080fd5b81356127f3816127fa565b60008060006060848603121561284457600080fd5b833561284f816127fa565b95602085013595506040909401359392505050565b634e487b7160e01b600052604160045260246000fd5b8035612885816127fa565b919050565b6000806040838503121561289d57600080fd5b82356128a8816127fa565b915060208381013567ffffffffffffffff808211156128c657600080fd5b818601915086601f8301126128da57600080fd5b8135818111156128ec576128ec612864565b8060051b6040517fffffffffffffffffffffffffffffffffffffffffffffffffffffffffffffffe0603f8301168101818110858211171561292f5761292f612864565b60405291825284820192508381018501918983111561294d57600080fd5b938501935b82851015612972576129638561287a565b84529385019392850192612952565b8096505050505050509250929050565b6000806040838503121561299557600080fd5b82356129a0816127fa565b915060208301356129b0816127fa565b809150509250929050565b6000602082840312156129cd57600080fd5b5051919050565b6000602082840312156129e657600080fd5b81516127f3816127fa565b600060208284031215612a0357600080fd5b815180151581146127f357600080fd5b634e487b7160e01b600052601160045260246000fd5b81810381811115611f1d57611f1d612a13565b60008060408385031215612a4f57600080fd5b505080516020909101519092909150565b8082028115828204841417611f1d57611f1d612a13565b80820180821115611f1d57611f1d612a13565b634e487b7160e01b600052603260045260246000fd5b60008060008060808587031215612ab657600080fd5b505082516020840151604085015160609095015191969095509092509050565b60048110612af457634e487b7160e01b600052602160045260246000fd5b9052565b84815260208101849052604081018390526080810161275b6060830184612ad6565b600082612b3757634e487b7160e01b600052601260045260246000fd5b50049056fea26469706673582212202c2f18294aff5e5a139094723900220a5d56bdc0809ff89d5d0769569a614b5864736f6c63430008130033",
  "devdoc": {
    "kind": "dev",
    "methods": {
      "batchLiquidateTroves(address,address[])": {
        "details": "Reverts if there is not a single trove that can be liquidated",
        "params": {
          "_troveArray": "List of borrower addresses to liquidate. Troves that were already liquidated, or cannot be liquidated, are ignored."
        }
      },
      "liquidate(address,address)": {
        "details": "Reverts if the trove is not active, or cannot be liquidated",
        "params": {
          "borrower": "Borrower address to liquidate"
        }
      },
      "liquidateTroves(address,uint256,uint256)": {
        "details": "Iterates through troves starting with the lowest ICR",
        "params": {
          "maxICR": "Maximum ICR to liquidate. Should be set to MCR if the system is not in recovery mode, to minimize gas costs for this call.",
          "maxTrovesToLiquidate": "The maximum number of troves to liquidate"
        }
      }
    },
    "title": "Zebra Liquidation Manager",
    "version": 1
  },
  "userdoc": {
    "kind": "user",
    "methods": {
      "batchLiquidateTroves(address,address[])": {
        "notice": "Liquidate a custom list of troves"
      },
      "liquidate(address,address)": {
        "notice": "Liquidate a single trove"
      },
      "liquidateTroves(address,uint256,uint256)": {
        "notice": "Liquidate a sequence of troves"
      }
    },
    "notice": "Based on Liquity's `TroveManager` https://github.com/liquity/dev/blob/main/packages/contracts/contracts/TroveManager.sol This contract has a 1:n relationship with `TroveManager`, handling liquidations for every active collateral within the system. Anyone can call to liquidate an eligible trove at any time. There is no requirement that liquidations happen in order according to trove ICRs. There are three ways that a liquidation can occur: 1. ICR <= 100 The trove's entire debt and collateral is redistributed between remaining active troves. 2. 100 < ICR < MCR The trove is liquidated using stability pool deposits. The collateral is distributed amongst stability pool depositors. If the stability pool's balance is insufficient to completely repay the trove, the remaining debt and collateral is redistributed between the remaining active troves. 3. MCR <= ICR < TCR && TCR < CCR The trove is liquidated using stability pool deposits. Collateral equal to MCR of the value of the debt is distributed between stability pool depositors. The remaining collateral is left claimable by the trove owner.",
    "version": 1
  },
  "storageLayout": {
    "storage": [
      {
        "astId": 13349,
        "contract": "contracts/core/LiquidationManager.sol:LiquidationManager",
        "label": "_enabledTroveManagers",
        "offset": 0,
        "slot": "0",
        "type": "t_mapping(t_contract(ITroveManager)37755,t_bool)"
      }
    ],
    "types": {
      "t_bool": {
        "encoding": "inplace",
        "label": "bool",
        "numberOfBytes": "1"
      },
      "t_contract(ITroveManager)37755": {
        "encoding": "inplace",
        "label": "contract ITroveManager",
        "numberOfBytes": "20"
      },
      "t_mapping(t_contract(ITroveManager)37755,t_bool)": {
        "encoding": "mapping",
        "key": "t_contract(ITroveManager)37755",
        "label": "mapping(contract ITroveManager => bool)",
        "numberOfBytes": "32",
        "value": "t_bool"
      }
    }
  }
}