{
  "address": "0x5b54537A1891A6730F734eF1a67C011CaE5dE31c",
  "abi": [
    {
      "inputs": [
        {
          "internalType": "contract ITroveManager",
          "name": "troveManager",
          "type": "address"
        },
        {
          "internalType": "int256",
          "name": "_startIdx",
          "type": "int256"
        },
        {
          "internalType": "uint256",
          "name": "_count",
          "type": "uint256"
        }
      ],
      "name": "getMultipleSortedTroves",
      "outputs": [
        {
          "components": [
            {
              "internalType": "address",
              "name": "owner",
              "type": "address"
            },
            {
              "internalType": "uint256",
              "name": "debt",
              "type": "uint256"
            },
            {
              "internalType": "uint256",
              "name": "interest",
              "type": "uint256"
            },
            {
              "internalType": "uint256",
              "name": "coll",
              "type": "uint256"
            },
            {
              "internalType": "uint256",
              "name": "stake",
              "type": "uint256"
            },
            {
              "internalType": "uint256",
              "name": "pendingCollateral",
              "type": "uint256"
            },
            {
              "internalType": "uint256",
              "name": "pendingDebt",
              "type": "uint256"
            }
          ],
          "internalType": "struct MultiTroveGetter.CombinedTroveData[]",
          "name": "_troves",
          "type": "tuple[]"
        }
      ],
      "stateMutability": "view",
      "type": "function"
    }
  ],
  "transactionHash": "0xf94b8f9870f9e4898e00d166358f4ed6b809eb2d6a9ac64d1c22dfa1dd396cc9",
  "args": [],
  "numDeployments": 1,
  "solcInputHash": "b91301f1a84b6c2e358640cd7d231682",
  "bytecode": "0x608060405234801561001057600080fd5b50610fa5806100206000396000f3fe608060405234801561001057600080fd5b506004361061002b5760003560e01c806305e533ce14610030575b600080fd5b61004361003e366004610c94565b610059565b6040516100509190610cc9565b60405180910390f35b60606000846001600160a01b031663ae9187546040518163ffffffff1660e01b8152600401602060405180830381865afa15801561009b573d6000803e3d6000fd5b505050506040513d601f19601f820116820180604052508101906100bf9190610d54565b9050600080600086126100d7575084905060016100f2565b6100e2866001610d8e565b6100eb90610db6565b9150600090505b6000836001600160a01b031663de8fa4316040518163ffffffff1660e01b8152600401602060405180830381865afa158015610132573d6000803e3d6000fd5b505050506040513d601f19601f820116820180604052508101906101569190610dee565b90508083106101d95760408051600080825260208201909252906101d1565b6101be6040518060e0016040528060006001600160a01b031681526020016000815260200160008152602001600081526020016000815260200160008152602001600081525090565b8152602001906001900390816101755790505b50945061021d565b60006101e58483610e1d565b9050808711156101f3578096505b821561020c576102058986868a610228565b955061021b565b6102188986868a610757565b95505b505b505050509392505050565b60606000846001600160a01b0316631e2231436040518163ffffffff1660e01b8152600401602060405180830381865afa15801561026a573d6000803e3d6000fd5b505050506040513d601f19601f8201168201806040525081019061028e9190610d54565b905060005b84811015610330576040517f765e01590000000000000000000000000000000000000000000000000000000081526001600160a01b03838116600483015287169063765e015990602401602060405180830381865afa1580156102fa573d6000803e3d6000fd5b505050506040513d601f19601f8201168201806040525081019061031e9190610d54565b915061032981610e36565b9050610293565b508267ffffffffffffffff81111561034a5761034a610e07565b6040519080825280602002602001820160405280156103c457816020015b6103b16040518060e0016040528060006001600160a01b031681526020016000815260200160008152602001600081526020016000815260200160008152602001600081525090565b8152602001906001900390816103685790505b50915060005b8381101561074d57818382815181106103e5576103e5610e6e565b60209081029190910101516001600160a01b0391821690526040517fbd28c0f4000000000000000000000000000000000000000000000000000000008152838216600482015260009189169063bd28c0f49060240160a060405180830381865afa158015610457573d6000803e3d6000fd5b505050506040513d601f19601f8201168201806040525081019061047b9190610ea9565b9050806000015184838151811061049457610494610e6e565b6020026020010151602001818152505080602001518483815181106104bb576104bb610e6e565b6020026020010151606001818152505080604001518483815181106104e2576104e2610e6e565b6020908102919091010151608001526040517fd12ae8410000000000000000000000000000000000000000000000000000000081526001600160a01b03848116600483015289169063d12ae841906024016040805180830381865afa15801561054f573d6000803e3d6000fd5b505050506040513d601f19601f820116820180604052508101906105739190610f38565b85848151811061058557610585610e6e565b602002602001015160a0018685815181106105a2576105a2610e6e565b602002602001015160c00182815250828152505050876001600160a01b03166355ca38cf848685815181106105d9576105d9610e6e565b602002602001015160c001518786815181106105f7576105f7610e6e565b60200260200101516020015161060d9190610f5c565b6040517fffffffff0000000000000000000000000000000000000000000000000000000060e085901b1681526001600160a01b0390921660048301526024820152604401602060405180830381865afa15801561066e573d6000803e3d6000fd5b505050506040513d601f19601f820116820180604052508101906106929190610dee565b8483815181106106a4576106a4610e6e565b6020908102919091010151604090810191909152517f765e01590000000000000000000000000000000000000000000000000000000081526001600160a01b03848116600483015288169063765e015990602401602060405180830381865afa158015610715573d6000803e3d6000fd5b505050506040513d601f19601f820116820180604052508101906107399190610d54565b9250508061074690610e36565b90506103ca565b5050949350505050565b60606000846001600160a01b0316634d6228316040518163ffffffff1660e01b8152600401602060405180830381865afa158015610799573d6000803e3d6000fd5b505050506040513d601f19601f820116820180604052508101906107bd9190610d54565b905060005b8481101561085f576040517fb72703ac0000000000000000000000000000000000000000000000000000000081526001600160a01b03838116600483015287169063b72703ac90602401602060405180830381865afa158015610829573d6000803e3d6000fd5b505050506040513d601f19601f8201168201806040525081019061084d9190610d54565b915061085881610e36565b90506107c2565b508267ffffffffffffffff81111561087957610879610e07565b6040519080825280602002602001820160405280156108f357816020015b6108e06040518060e0016040528060006001600160a01b031681526020016000815260200160008152602001600081526020016000815260200160008152602001600081525090565b8152602001906001900390816108975790505b50915060005b8381101561074d578183828151811061091457610914610e6e565b60209081029190910101516001600160a01b0391821690526040517fbd28c0f4000000000000000000000000000000000000000000000000000000008152838216600482015260009189169063bd28c0f49060240160a060405180830381865afa158015610986573d6000803e3d6000fd5b505050506040513d601f19601f820116820180604052508101906109aa9190610ea9565b905080600001518483815181106109c3576109c3610e6e565b6020026020010151602001818152505080602001518483815181106109ea576109ea610e6e565b602002602001015160600181815250508060400151848381518110610a1157610a11610e6e565b6020908102919091010151608001526040517fd12ae8410000000000000000000000000000000000000000000000000000000081526001600160a01b03848116600483015289169063d12ae841906024016040805180830381865afa158015610a7e573d6000803e3d6000fd5b505050506040513d601f19601f82011682018060405250810190610aa29190610f38565b858481518110610ab457610ab4610e6e565b602002602001015160a001868581518110610ad157610ad1610e6e565b602002602001015160c00182815250828152505050876001600160a01b03166355ca38cf84868581518110610b0857610b08610e6e565b602002602001015160c00151878681518110610b2657610b26610e6e565b602002602001015160200151610b3c9190610f5c565b6040517fffffffff0000000000000000000000000000000000000000000000000000000060e085901b1681526001600160a01b0390921660048301526024820152604401602060405180830381865afa158015610b9d573d6000803e3d6000fd5b505050506040513d601f19601f82011682018060405250810190610bc19190610dee565b848381518110610bd357610bd3610e6e565b6020908102919091010151604090810191909152517fb72703ac0000000000000000000000000000000000000000000000000000000081526001600160a01b03848116600483015288169063b72703ac90602401602060405180830381865afa158015610c44573d6000803e3d6000fd5b505050506040513d601f19601f82011682018060405250810190610c689190610d54565b92505080610c7590610e36565b90506108f9565b6001600160a01b0381168114610c9157600080fd5b50565b600080600060608486031215610ca957600080fd5b8335610cb481610c7c565b95602085013595506040909401359392505050565b602080825282518282018190526000919060409081850190868401855b82811015610d4757815180516001600160a01b0316855286810151878601528581015186860152606080820151908601526080808201519086015260a0808201519086015260c0908101519085015260e09093019290850190600101610ce6565b5091979650505050505050565b600060208284031215610d6657600080fd5b8151610d7181610c7c565b9392505050565b634e487b7160e01b600052601160045260246000fd5b8082018281126000831280158216821582161715610dae57610dae610d78565b505092915050565b60007f80000000000000000000000000000000000000000000000000000000000000008203610de757610de7610d78565b5060000390565b600060208284031215610e0057600080fd5b5051919050565b634e487b7160e01b600052604160045260246000fd5b81810381811115610e3057610e30610d78565b92915050565b60007fffffffffffffffffffffffffffffffffffffffffffffffffffffffffffffffff8203610e6757610e67610d78565b5060010190565b634e487b7160e01b600052603260045260246000fd5b80516fffffffffffffffffffffffffffffffff81168114610ea457600080fd5b919050565b600060a08284031215610ebb57600080fd5b60405160a0810181811067ffffffffffffffff82111715610eec57634e487b7160e01b600052604160045260246000fd5b8060405250825181526020830151602082015260408301516040820152606083015160058110610f1b57600080fd5b6060820152610f2c60808401610e84565b60808201529392505050565b60008060408385031215610f4b57600080fd5b505080516020909101519092909150565b80820180821115610e3057610e30610d7856fea26469706673582212201424de977e97cc2ec6e4d9a15e7ed68df2b53ad60019a86393320e2826bd37e464736f6c63430008130033",
  "devdoc": {
    "kind": "dev",
    "methods": {},
    "version": 1
  },
  "userdoc": {
    "kind": "user",
    "methods": {},
    "version": 1
  },
  "storageLayout": {
    "storage": [],
    "types": null
  }
}