{
  "address": "0x3364139a7C3B6a4A94420f822E983c07DBaeCeD2",
  "abi": [
    {
      "inputs": [
        {
          "internalType": "address",
          "name": "_borrowerOperationsAddress",
          "type": "address"
        },
        {
          "internalType": "uint256",
          "name": "_gasCompensation",
          "type": "uint256"
        }
      ],
      "stateMutability": "nonpayable",
      "type": "constructor"
    },
    {
      "inputs": [],
      "name": "CCR",
      "outputs": [
        {
          "internalType": "uint256",
          "name": "",
          "type": "uint256"
        }
      ],
      "stateMutability": "view",
      "type": "function"
    },
    {
      "inputs": [],
      "name": "DEBT_GAS_COMPENSATION",
      "outputs": [
        {
          "internalType": "uint256",
          "name": "",
          "type": "uint256"
        }
      ],
      "stateMutability": "view",
      "type": "function"
    },
    {
      "inputs": [],
      "name": "DECIMAL_PRECISION",
      "outputs": [
        {
          "internalType": "uint256",
          "name": "",
          "type": "uint256"
        }
      ],
      "stateMutability": "view",
      "type": "function"
    },
    {
      "inputs": [],
      "name": "PERCENT_DIVISOR",
      "outputs": [
        {
          "internalType": "uint256",
          "name": "",
          "type": "uint256"
        }
      ],
      "stateMutability": "view",
      "type": "function"
    },
    {
      "inputs": [],
      "name": "borrowerOperations",
      "outputs": [
        {
          "internalType": "contract IBorrowerOperations",
          "name": "",
          "type": "address"
        }
      ],
      "stateMutability": "view",
      "type": "function"
    },
    {
      "inputs": [
        {
          "internalType": "uint256",
          "name": "_coll",
          "type": "uint256"
        },
        {
          "internalType": "uint256",
          "name": "_debt",
          "type": "uint256"
        },
        {
          "internalType": "uint256",
          "name": "_price",
          "type": "uint256"
        }
      ],
      "name": "computeCR",
      "outputs": [
        {
          "internalType": "uint256",
          "name": "",
          "type": "uint256"
        }
      ],
      "stateMutability": "pure",
      "type": "function"
    },
    {
      "inputs": [
        {
          "internalType": "uint256",
          "name": "_coll",
          "type": "uint256"
        },
        {
          "internalType": "uint256",
          "name": "_debt",
          "type": "uint256"
        }
      ],
      "name": "computeNominalCR",
      "outputs": [
        {
          "internalType": "uint256",
          "name": "",
          "type": "uint256"
        }
      ],
      "stateMutability": "pure",
      "type": "function"
    },
    {
      "inputs": [
        {
          "internalType": "contract ITroveManager",
          "name": "troveManager",
          "type": "address"
        },
        {
          "internalType": "uint256",
          "name": "_CR",
          "type": "uint256"
        },
        {
          "internalType": "uint256",
          "name": "_numTrials",
          "type": "uint256"
        },
        {
          "internalType": "uint256",
          "name": "_inputRandomSeed",
          "type": "uint256"
        }
      ],
      "name": "getApproxHint",
      "outputs": [
        {
          "internalType": "address",
          "name": "hintAddress",
          "type": "address"
        },
        {
          "internalType": "uint256",
          "name": "diff",
          "type": "uint256"
        },
        {
          "internalType": "uint256",
          "name": "latestRandomSeed",
          "type": "uint256"
        }
      ],
      "stateMutability": "view",
      "type": "function"
    },
    {
      "inputs": [
        {
          "internalType": "contract ITroveManager",
          "name": "troveManager",
          "type": "address"
        },
        {
          "internalType": "uint256",
          "name": "_debtAmount",
          "type": "uint256"
        },
        {
          "internalType": "uint256",
          "name": "_price",
          "type": "uint256"
        },
        {
          "internalType": "uint256",
          "name": "_maxIterations",
          "type": "uint256"
        }
      ],
      "name": "getRedemptionHints",
      "outputs": [
        {
          "internalType": "address",
          "name": "firstRedemptionHint",
          "type": "address"
        },
        {
          "internalType": "uint256",
          "name": "partialRedemptionHintNICR",
          "type": "uint256"
        },
        {
          "internalType": "uint256",
          "name": "truncatedDebtAmount",
          "type": "uint256"
        }
      ],
      "stateMutability": "view",
      "type": "function"
    }
  ],
  "transactionHash": "0xa5725816963b3f0370a98a941d8ffdb8ca67938df5e583cad9c2855b40dadc4b",
  "args": [
    "0x5e338E7a9C3Be53a3e494Bb753104C480FeeDe7D",
    "1000000000000000"
  ],
  "numDeployments": 1,
  "solcInputHash": "91d094c24387ad5042738ae524012b6a",
  "bytecode": "0x60c060405234801561001057600080fd5b50604051610f2d380380610f2d83398101604081905261002f91610043565b6080526001600160a01b031660a05261007d565b6000806040838503121561005657600080fd5b82516001600160a01b038116811461006d57600080fd5b6020939093015192949293505050565b60805160a051610e766100b76000396000818161015c015261043a01526000818161010001528181610b4e0152610b900152610e766000f3fe608060405234801561001057600080fd5b50600436106100a35760003560e01c80635733d58f1161007657806377553ad41161005b57806377553ad414610157578063a20baee614610196578063c394a7fa146101a557600080fd5b80635733d58f14610135578063701526b41461014457600080fd5b8063301be459146100a85780634870dd9a146100e55780634ba4a28b146100fb578063525acdbb14610122575b600080fd5b6100bb6100b6366004610c57565b6101b8565b604080516001600160a01b0390941684526020840192909252908201526060015b60405180910390f35b6100ed60c881565b6040519081526020016100dc565b6100ed7f000000000000000000000000000000000000000000000000000000000000000081565b6100ed610130366004610c92565b61078a565b6100ed6717979cfe362a000081565b6100bb610152366004610c57565b6107a1565b61017e7f000000000000000000000000000000000000000000000000000000000000000081565b6040516001600160a01b0390911681526020016100dc565b6100ed670de0b6b3a764000081565b6100ed6101b3366004610cbe565b610b32565b600080600080876001600160a01b031663ae9187546040518163ffffffff1660e01b8152600401602060405180830381865afa1580156101fc573d6000803e3d6000fd5b505050506040513d601f19601f820116820180604052508101906102209190610ce0565b905060008790506000826001600160a01b0316634d6228316040518163ffffffff1660e01b8152600401602060405180830381865afa158015610267573d6000803e3d6000fd5b505050506040513d601f19601f8201168201806040525081019061028b9190610ce0565b905060008a6001600160a01b031663794e57246040518163ffffffff1660e01b8152600401602060405180830381865afa1580156102cd573d6000803e3d6000fd5b505050506040513d601f19601f820116820180604052508101906102f19190610cfd565b90505b6001600160a01b0382161580159061039657506040517fba8dd5620000000000000000000000000000000000000000000000000000000081526001600160a01b038381166004830152602482018b90528291908d169063ba8dd56290604401602060405180830381865afa158015610370573d6000803e3d6000fd5b505050506040513d601f19601f820116820180604052508101906103949190610cfd565b105b15610425576040517fb72703ac0000000000000000000000000000000000000000000000000000000081526001600160a01b03838116600483015285169063b72703ac90602401602060405180830381865afa1580156103fa573d6000803e3d6000fd5b505050506040513d601f19601f8201168201806040525081019061041e9190610ce0565b91506102f4565b819650876000036104365760001997505b60007f00000000000000000000000000000000000000000000000000000000000000006001600160a01b031663969c24526040518163ffffffff1660e01b8152600401602060405180830381865afa158015610496573d6000803e3d6000fd5b505050506040513d601f19601f820116820180604052508101906104ba9190610cfd565b90505b6001600160a01b038316158015906104d55750600084115b80156104ec57506000896104e881610d45565b9a50115b1561076f576040517fb91af97c0000000000000000000000000000000000000000000000000000000081526001600160a01b03848116600483015260009182918f169063b91af97c90602401608060405180830381865afa158015610555573d6000803e3d6000fd5b505050506040513d601f19601f820116820180604052508101906105799190610d5c565b50509150915060008e6001600160a01b03166355ca38cf87856040518363ffffffff1660e01b81526004016105c39291906001600160a01b03929092168252602082015260400190565b602060405180830381865afa1580156105e0573d6000803e3d6000fd5b505050506040513d601f19601f820116820180604052508101906106049190610cfd565b9050808710156106165750505061076f565b600061062184610b47565b905061062d8289610d92565b8111156106d357848111156106ca57600061065a61064b848b610d92565b6106558885610d92565b610b73565b905060008f670de0b6b3a76400006106728685610da5565b61067c9190610db8565b6106869190610dfe565b6106909086610d92565b9050600061069e8385610d92565b905060006106ab82610b89565b90506106b78382610bb5565b9e506106c3848d610d92565b9b50505050505b5050505061076f565b6106dd8189610d92565b6040517fb72703ac0000000000000000000000000000000000000000000000000000000081526001600160a01b038981166004830152919950908a169063b72703ac90602401602060405180830381865afa158015610740573d6000803e3d6000fd5b505050506040513d601f19601f820116820180604052508101906107649190610ce0565b9650505050506104bd565b610779848c610d92565b955050505050509450945094915050565b6000610797848484610beb565b90505b9392505050565b600080600080876001600160a01b031663ae9187546040518163ffffffff1660e01b8152600401602060405180830381865afa1580156107e5573d6000803e3d6000fd5b505050506040513d601f19601f820116820180604052508101906108099190610ce0565b90506000886001600160a01b03166349eefeee6040518163ffffffff1660e01b8152600401602060405180830381865afa15801561084b573d6000803e3d6000fd5b505050506040513d601f19601f8201168201806040525081019061086f9190610cfd565b90508060000361088a57600080879450945094505050610b28565b816001600160a01b0316634d6228316040518163ffffffff1660e01b8152600401602060405180830381865afa1580156108c8573d6000803e3d6000fd5b505050506040513d601f19601f820116820180604052508101906108ec9190610ce0565b6040517fb0d8e1810000000000000000000000000000000000000000000000000000000081526001600160a01b03808316600483015291965061097e918a91908c169063b0d8e18190602401602060405180830381865afa158015610955573d6000803e3d6000fd5b505050506040513d601f19601f820116820180604052508101906109799190610cfd565b610c1c565b935085925060015b87811015610b2457604080516020810186905201604080517fffffffffffffffffffffffffffffffffffffffffffffffffffffffffffffffe08184030181529190528051602090910120935060006109de8386610e12565b6040517fd9a72444000000000000000000000000000000000000000000000000000000008152600481018290529091506000906001600160a01b038d169063d9a7244490602401602060405180830381865afa158015610a42573d6000803e3d6000fd5b505050506040513d601f19601f82011682018060405250810190610a669190610ce0565b6040517fb0d8e1810000000000000000000000000000000000000000000000000000000081526001600160a01b0380831660048301529192506000918e169063b0d8e18190602401602060405180830381865afa158015610acb573d6000803e3d6000fd5b505050506040513d601f19601f82011682018060405250810190610aef9190610cfd565b90506000610afd828e610c1c565b905088811015610b0e578098508299505b84610b1881610e26565b95505050505050610986565b5050505b9450945094915050565b6000610b3e8383610bb5565b90505b92915050565b6000610b417f000000000000000000000000000000000000000000000000000000000000000083610d92565b6000818310610b825781610b3e565b5090919050565b6000610b417f000000000000000000000000000000000000000000000000000000000000000083610da5565b60008115610be25781610bd168056bc75e2d6310000085610db8565b610bdb9190610dfe565b9050610b41565b50600019610b41565b60008215610c1357600083610c008487610db8565b610c0a9190610dfe565b915061079a9050565b5060001961079a565b600081831015610c3557610c308383610d92565b610b3e565b610b3e8284610d92565b6001600160a01b0381168114610c5457600080fd5b50565b60008060008060808587031215610c6d57600080fd5b8435610c7881610c3f565b966020860135965060408601359560600135945092505050565b600080600060608486031215610ca757600080fd5b505081359360208301359350604090920135919050565b60008060408385031215610cd157600080fd5b50508035926020909101359150565b600060208284031215610cf257600080fd5b815161079a81610c3f565b600060208284031215610d0f57600080fd5b5051919050565b7f4e487b7100000000000000000000000000000000000000000000000000000000600052601160045260246000fd5b600081610d5457610d54610d16565b506000190190565b60008060008060808587031215610d7257600080fd5b505082516020840151604085015160609095015191969095509092509050565b81810381811115610b4157610b41610d16565b80820180821115610b4157610b41610d16565b8082028115828204841417610b4157610b41610d16565b7f4e487b7100000000000000000000000000000000000000000000000000000000600052601260045260246000fd5b600082610e0d57610e0d610dcf565b500490565b600082610e2157610e21610dcf565b500690565b60006000198203610e3957610e39610d16565b506001019056fea2646970667358221220b1e7ec13b18eca469f20820735cd61bd0a5d7d5af11a7a5d31398994b326060c64736f6c63430008130033",
  "devdoc": {
    "kind": "dev",
    "methods": {},
    "version": 1
  },
  "userdoc": {
    "kind": "user",
    "methods": {},
    "version": 1
  },
  "storageLayout": {
    "storage": [],
    "types": null
  }
}