{
  "address": "0x84E167F86d0aFbd109730125D0dd1bfd1e5613a9",
  "abi": [
    {
      "inputs": [
        {
          "internalType": "address[]",
          "name": "owners",
          "type": "address[]"
        },
        {
          "internalType": "uint8",
          "name": "_threshold",
          "type": "uint8"
        }
      ],
      "stateMutability": "nonpayable",
      "type": "constructor"
    },
    {
      "anonymous": false,
      "inputs": [
        {
          "indexed": true,
          "internalType": "address",
          "name": "owner",
          "type": "address"
        }
      ],
      "name": "AddedOwner",
      "type": "event"
    },
    {
      "anonymous": false,
      "inputs": [
        {
          "indexed": true,
          "internalType": "bytes32",
          "name": "approvedHash",
          "type": "bytes32"
        },
        {
          "indexed": true,
          "internalType": "address",
          "name": "owner",
          "type": "address"
        }
      ],
      "name": "ApproveHash",
      "type": "event"
    },
    {
      "anonymous": false,
      "inputs": [
        {
          "indexed": true,
          "internalType": "address",
          "name": "handler",
          "type": "address"
        }
      ],
      "name": "ChangedFallbackHandler",
      "type": "event"
    },
    {
      "anonymous": false,
      "inputs": [
        {
          "indexed": true,
          "internalType": "address",
          "name": "guard",
          "type": "address"
        }
      ],
      "name": "ChangedGuard",
      "type": "event"
    },
    {
      "anonymous": false,
      "inputs": [
        {
          "indexed": false,
          "internalType": "uint256",
          "name": "threshold",
          "type": "uint256"
        }
      ],
      "name": "ChangedThreshold",
      "type": "event"
    },
    {
      "anonymous": false,
      "inputs": [
        {
          "indexed": true,
          "internalType": "address",
          "name": "module",
          "type": "address"
        }
      ],
      "name": "DisabledModule",
      "type": "event"
    },
    {
      "anonymous": false,
      "inputs": [
        {
          "indexed": true,
          "internalType": "address",
          "name": "module",
          "type": "address"
        }
      ],
      "name": "EnabledModule",
      "type": "event"
    },
    {
      "anonymous": false,
      "inputs": [
        {
          "indexed": true,
          "internalType": "bytes32",
          "name": "txHash",
          "type": "bytes32"
        },
        {
          "indexed": false,
          "internalType": "uint256",
          "name": "payment",
          "type": "uint256"
        }
      ],
      "name": "ExecutionFailure",
      "type": "event"
    },
    {
      "anonymous": false,
      "inputs": [
        {
          "indexed": true,
          "internalType": "address",
          "name": "module",
          "type": "address"
        }
      ],
      "name": "ExecutionFromModuleFailure",
      "type": "event"
    },
    {
      "anonymous": false,
      "inputs": [
        {
          "indexed": true,
          "internalType": "address",
          "name": "module",
          "type": "address"
        }
      ],
      "name": "ExecutionFromModuleSuccess",
      "type": "event"
    },
    {
      "anonymous": false,
      "inputs": [
        {
          "indexed": true,
          "internalType": "bytes32",
          "name": "txHash",
          "type": "bytes32"
        },
        {
          "indexed": false,
          "internalType": "uint256",
          "name": "payment",
          "type": "uint256"
        }
      ],
      "name": "ExecutionSuccess",
      "type": "event"
    },
    {
      "anonymous": false,
      "inputs": [
        {
          "indexed": true,
          "internalType": "address",
          "name": "owner",
          "type": "address"
        }
      ],
      "name": "RemovedOwner",
      "type": "event"
    },
    {
      "anonymous": false,
      "inputs": [
        {
          "indexed": false,
          "internalType": "address",
          "name": "module",
          "type": "address"
        },
        {
          "indexed": false,
          "internalType": "address",
          "name": "to",
          "type": "address"
        },
        {
          "indexed": false,
          "internalType": "uint256",
          "name": "value",
          "type": "uint256"
        },
        {
          "indexed": false,
          "internalType": "bytes",
          "name": "data",
          "type": "bytes"
        },
        {
          "indexed": false,
          "internalType": "enum Enum.Operation",
          "name": "operation",
          "type": "uint8"
        }
      ],
      "name": "SafeModuleTransaction",
      "type": "event"
    },
    {
      "anonymous": false,
      "inputs": [
        {
          "indexed": false,
          "internalType": "address",
          "name": "to",
          "type": "address"
        },
        {
          "indexed": false,
          "internalType": "uint256",
          "name": "value",
          "type": "uint256"
        },
        {
          "indexed": false,
          "internalType": "bytes",
          "name": "data",
          "type": "bytes"
        },
        {
          "indexed": false,
          "internalType": "enum Enum.Operation",
          "name": "operation",
          "type": "uint8"
        },
        {
          "indexed": false,
          "internalType": "uint256",
          "name": "safeTxGas",
          "type": "uint256"
        },
        {
          "indexed": false,
          "internalType": "uint256",
          "name": "baseGas",
          "type": "uint256"
        },
        {
          "indexed": false,
          "internalType": "uint256",
          "name": "gasPrice",
          "type": "uint256"
        },
        {
          "indexed": false,
          "internalType": "address",
          "name": "gasToken",
          "type": "address"
        },
        {
          "indexed": false,
          "internalType": "address payable",
          "name": "refundReceiver",
          "type": "address"
        },
        {
          "indexed": false,
          "internalType": "bytes",
          "name": "signatures",
          "type": "bytes"
        },
        {
          "indexed": false,
          "internalType": "bytes",
          "name": "additionalInfo",
          "type": "bytes"
        }
      ],
      "name": "SafeMultiSigTransaction",
      "type": "event"
    },
    {
      "anonymous": false,
      "inputs": [
        {
          "indexed": true,
          "internalType": "address",
          "name": "sender",
          "type": "address"
        },
        {
          "indexed": false,
          "internalType": "uint256",
          "name": "value",
          "type": "uint256"
        }
      ],
      "name": "SafeReceived",
      "type": "event"
    },
    {
      "anonymous": false,
      "inputs": [
        {
          "indexed": true,
          "internalType": "address",
          "name": "initiator",
          "type": "address"
        },
        {
          "indexed": false,
          "internalType": "address[]",
          "name": "owners",
          "type": "address[]"
        },
        {
          "indexed": false,
          "internalType": "uint256",
          "name": "threshold",
          "type": "uint256"
        },
        {
          "indexed": false,
          "internalType": "address",
          "name": "initializer",
          "type": "address"
        },
        {
          "indexed": false,
          "internalType": "address",
          "name": "fallbackHandler",
          "type": "address"
        }
      ],
      "name": "SafeSetup",
      "type": "event"
    },
    {
      "anonymous": false,
      "inputs": [
        {
          "indexed": true,
          "internalType": "bytes32",
          "name": "msgHash",
          "type": "bytes32"
        }
      ],
      "name": "SignMsg",
      "type": "event"
    },
    {
      "stateMutability": "nonpayable",
      "type": "fallback"
    },
    {
      "inputs": [],
      "name": "VERSION",
      "outputs": [
        {
          "internalType": "string",
          "name": "",
          "type": "string"
        }
      ],
      "stateMutability": "view",
      "type": "function"
    },
    {
      "inputs": [
        {
          "internalType": "address",
          "name": "owner",
          "type": "address"
        },
        {
          "internalType": "uint256",
          "name": "_threshold",
          "type": "uint256"
        }
      ],
      "name": "addOwnerWithThreshold",
      "outputs": [],
      "stateMutability": "nonpayable",
      "type": "function"
    },
    {
      "inputs": [
        {
          "internalType": "bytes32",
          "name": "hashToApprove",
          "type": "bytes32"
        }
      ],
      "name": "approveHash",
      "outputs": [],
      "stateMutability": "nonpayable",
      "type": "function"
    },
    {
      "inputs": [
        {
          "internalType": "address",
          "name": "",
          "type": "address"
        },
        {
          "internalType": "bytes32",
          "name": "",
          "type": "bytes32"
        }
      ],
      "name": "approvedHashes",
      "outputs": [
        {
          "internalType": "uint256",
          "name": "",
          "type": "uint256"
        }
      ],
      "stateMutability": "view",
      "type": "function"
    },
    {
      "inputs": [
        {
          "internalType": "uint256",
          "name": "_threshold",
          "type": "uint256"
        }
      ],
      "name": "changeThreshold",
      "outputs": [],
      "stateMutability": "nonpayable",
      "type": "function"
    },
    {
      "inputs": [
        {
          "internalType": "bytes32",
          "name": "dataHash",
          "type": "bytes32"
        },
        {
          "internalType": "bytes",
          "name": "data",
          "type": "bytes"
        },
        {
          "internalType": "bytes",
          "name": "signatures",
          "type": "bytes"
        },
        {
          "internalType": "uint256",
          "name": "requiredSignatures",
          "type": "uint256"
        }
      ],
      "name": "checkNSignatures",
      "outputs": [],
      "stateMutability": "view",
      "type": "function"
    },
    {
      "inputs": [
        {
          "internalType": "bytes32",
          "name": "dataHash",
          "type": "bytes32"
        },
        {
          "internalType": "bytes",
          "name": "data",
          "type": "bytes"
        },
        {
          "internalType": "bytes",
          "name": "signatures",
          "type": "bytes"
        }
      ],
      "name": "checkSignatures",
      "outputs": [],
      "stateMutability": "view",
      "type": "function"
    },
    {
      "inputs": [
        {
          "internalType": "address",
          "name": "prevModule",
          "type": "address"
        },
        {
          "internalType": "address",
          "name": "module",
          "type": "address"
        }
      ],
      "name": "disableModule",
      "outputs": [],
      "stateMutability": "nonpayable",
      "type": "function"
    },
    {
      "inputs": [],
      "name": "domainSeparator",
      "outputs": [
        {
          "internalType": "bytes32",
          "name": "",
          "type": "bytes32"
        }
      ],
      "stateMutability": "view",
      "type": "function"
    },
    {
      "inputs": [
        {
          "internalType": "address",
          "name": "module",
          "type": "address"
        }
      ],
      "name": "enableModule",
      "outputs": [],
      "stateMutability": "nonpayable",
      "type": "function"
    },
    {
      "inputs": [
        {
          "internalType": "address",
          "name": "to",
          "type": "address"
        },
        {
          "internalType": "uint256",
          "name": "value",
          "type": "uint256"
        },
        {
          "internalType": "bytes",
          "name": "data",
          "type": "bytes"
        },
        {
          "internalType": "enum Enum.Operation",
          "name": "operation",
          "type": "uint8"
        },
        {
          "internalType": "uint256",
          "name": "safeTxGas",
          "type": "uint256"
        },
        {
          "internalType": "uint256",
          "name": "baseGas",
          "type": "uint256"
        },
        {
          "internalType": "uint256",
          "name": "gasPrice",
          "type": "uint256"
        },
        {
          "internalType": "address",
          "name": "gasToken",
          "type": "address"
        },
        {
          "internalType": "address",
          "name": "refundReceiver",
          "type": "address"
        },
        {
          "internalType": "uint256",
          "name": "_nonce",
          "type": "uint256"
        }
      ],
      "name": "encodeTransactionData",
      "outputs": [
        {
          "internalType": "bytes",
          "name": "",
          "type": "bytes"
        }
      ],
      "stateMutability": "view",
      "type": "function"
    },
    {
      "inputs": [
        {
          "internalType": "address",
          "name": "to",
          "type": "address"
        },
        {
          "internalType": "uint256",
          "name": "value",
          "type": "uint256"
        },
        {
          "internalType": "bytes",
          "name": "data",
          "type": "bytes"
        },
        {
          "internalType": "enum Enum.Operation",
          "name": "operation",
          "type": "uint8"
        },
        {
          "internalType": "uint256",
          "name": "safeTxGas",
          "type": "uint256"
        },
        {
          "internalType": "uint256",
          "name": "baseGas",
          "type": "uint256"
        },
        {
          "internalType": "uint256",
          "name": "gasPrice",
          "type": "uint256"
        },
        {
          "internalType": "address",
          "name": "gasToken",
          "type": "address"
        },
        {
          "internalType": "address payable",
          "name": "refundReceiver",
          "type": "address"
        },
        {
          "internalType": "bytes",
          "name": "signatures",
          "type": "bytes"
        }
      ],
      "name": "execTransaction",
      "outputs": [
        {
          "internalType": "bool",
          "name": "",
          "type": "bool"
        }
      ],
      "stateMutability": "payable",
      "type": "function"
    },
    {
      "inputs": [
        {
          "internalType": "address",
          "name": "to",
          "type": "address"
        },
        {
          "internalType": "uint256",
          "name": "value",
          "type": "uint256"
        },
        {
          "internalType": "bytes",
          "name": "data",
          "type": "bytes"
        },
        {
          "internalType": "enum Enum.Operation",
          "name": "operation",
          "type": "uint8"
        }
      ],
      "name": "execTransactionFromModule",
      "outputs": [
        {
          "internalType": "bool",
          "name": "success",
          "type": "bool"
        }
      ],
      "stateMutability": "nonpayable",
      "type": "function"
    },
    {
      "inputs": [
        {
          "internalType": "address",
          "name": "to",
          "type": "address"
        },
        {
          "internalType": "uint256",
          "name": "value",
          "type": "uint256"
        },
        {
          "internalType": "bytes",
          "name": "data",
          "type": "bytes"
        },
        {
          "internalType": "enum Enum.Operation",
          "name": "operation",
          "type": "uint8"
        }
      ],
      "name": "execTransactionFromModuleReturnData",
      "outputs": [
        {
          "internalType": "bool",
          "name": "success",
          "type": "bool"
        },
        {
          "internalType": "bytes",
          "name": "returnData",
          "type": "bytes"
        }
      ],
      "stateMutability": "nonpayable",
      "type": "function"
    },
    {
      "inputs": [],
      "name": "getChainId",
      "outputs": [
        {
          "internalType": "uint256",
          "name": "",
          "type": "uint256"
        }
      ],
      "stateMutability": "view",
      "type": "function"
    },
    {
      "inputs": [
        {
          "internalType": "address",
          "name": "start",
          "type": "address"
        },
        {
          "internalType": "uint256",
          "name": "pageSize",
          "type": "uint256"
        }
      ],
      "name": "getModulesPaginated",
      "outputs": [
        {
          "internalType": "address[]",
          "name": "array",
          "type": "address[]"
        },
        {
          "internalType": "address",
          "name": "next",
          "type": "address"
        }
      ],
      "stateMutability": "view",
      "type": "function"
    },
    {
      "inputs": [],
      "name": "getOwners",
      "outputs": [
        {
          "internalType": "address[]",
          "name": "",
          "type": "address[]"
        }
      ],
      "stateMutability": "view",
      "type": "function"
    },
    {
      "inputs": [
        {
          "internalType": "uint256",
          "name": "offset",
          "type": "uint256"
        },
        {
          "internalType": "uint256",
          "name": "length",
          "type": "uint256"
        }
      ],
      "name": "getStorageAt",
      "outputs": [
        {
          "internalType": "bytes",
          "name": "",
          "type": "bytes"
        }
      ],
      "stateMutability": "view",
      "type": "function"
    },
    {
      "inputs": [],
      "name": "getThreshold",
      "outputs": [
        {
          "internalType": "uint256",
          "name": "",
          "type": "uint256"
        }
      ],
      "stateMutability": "view",
      "type": "function"
    },
    {
      "inputs": [
        {
          "internalType": "address",
          "name": "to",
          "type": "address"
        },
        {
          "internalType": "uint256",
          "name": "value",
          "type": "uint256"
        },
        {
          "internalType": "bytes",
          "name": "data",
          "type": "bytes"
        },
        {
          "internalType": "enum Enum.Operation",
          "name": "operation",
          "type": "uint8"
        },
        {
          "internalType": "uint256",
          "name": "safeTxGas",
          "type": "uint256"
        },
        {
          "internalType": "uint256",
          "name": "baseGas",
          "type": "uint256"
        },
        {
          "internalType": "uint256",
          "name": "gasPrice",
          "type": "uint256"
        },
        {
          "internalType": "address",
          "name": "gasToken",
          "type": "address"
        },
        {
          "internalType": "address",
          "name": "refundReceiver",
          "type": "address"
        },
        {
          "internalType": "uint256",
          "name": "_nonce",
          "type": "uint256"
        }
      ],
      "name": "getTransactionHash",
      "outputs": [
        {
          "internalType": "bytes32",
          "name": "",
          "type": "bytes32"
        }
      ],
      "stateMutability": "view",
      "type": "function"
    },
    {
      "inputs": [
        {
          "internalType": "address",
          "name": "module",
          "type": "address"
        }
      ],
      "name": "isModuleEnabled",
      "outputs": [
        {
          "internalType": "bool",
          "name": "",
          "type": "bool"
        }
      ],
      "stateMutability": "view",
      "type": "function"
    },
    {
      "inputs": [
        {
          "internalType": "address",
          "name": "owner",
          "type": "address"
        }
      ],
      "name": "isOwner",
      "outputs": [
        {
          "internalType": "bool",
          "name": "",
          "type": "bool"
        }
      ],
      "stateMutability": "view",
      "type": "function"
    },
    {
      "inputs": [],
      "name": "nonce",
      "outputs": [
        {
          "internalType": "uint256",
          "name": "",
          "type": "uint256"
        }
      ],
      "stateMutability": "view",
      "type": "function"
    },
    {
      "inputs": [
        {
          "internalType": "address",
          "name": "prevOwner",
          "type": "address"
        },
        {
          "internalType": "address",
          "name": "owner",
          "type": "address"
        },
        {
          "internalType": "uint256",
          "name": "_threshold",
          "type": "uint256"
        }
      ],
      "name": "removeOwner",
      "outputs": [],
      "stateMutability": "nonpayable",
      "type": "function"
    },
    {
      "inputs": [
        {
          "internalType": "address",
          "name": "handler",
          "type": "address"
        }
      ],
      "name": "setFallbackHandler",
      "outputs": [],
      "stateMutability": "nonpayable",
      "type": "function"
    },
    {
      "inputs": [
        {
          "internalType": "address",
          "name": "guard",
          "type": "address"
        }
      ],
      "name": "setGuard",
      "outputs": [],
      "stateMutability": "nonpayable",
      "type": "function"
    },
    {
      "inputs": [
        {
          "internalType": "address[]",
          "name": "_owners",
          "type": "address[]"
        },
        {
          "internalType": "uint256",
          "name": "_threshold",
          "type": "uint256"
        },
        {
          "internalType": "address",
          "name": "to",
          "type": "address"
        },
        {
          "internalType": "bytes",
          "name": "data",
          "type": "bytes"
        },
        {
          "internalType": "address",
          "name": "fallbackHandler",
          "type": "address"
        },
        {
          "internalType": "address",
          "name": "paymentToken",
          "type": "address"
        },
        {
          "internalType": "uint256",
          "name": "payment",
          "type": "uint256"
        },
        {
          "internalType": "address payable",
          "name": "paymentReceiver",
          "type": "address"
        }
      ],
      "name": "setup",
      "outputs": [],
      "stateMutability": "nonpayable",
      "type": "function"
    },
    {
      "inputs": [
        {
          "internalType": "bytes32",
          "name": "",
          "type": "bytes32"
        }
      ],
      "name": "signedMessages",
      "outputs": [
        {
          "internalType": "uint256",
          "name": "",
          "type": "uint256"
        }
      ],
      "stateMutability": "view",
      "type": "function"
    },
    {
      "inputs": [
        {
          "internalType": "address",
          "name": "targetContract",
          "type": "address"
        },
        {
          "internalType": "bytes",
          "name": "calldataPayload",
          "type": "bytes"
        }
      ],
      "name": "simulateAndRevert",
      "outputs": [],
      "stateMutability": "nonpayable",
      "type": "function"
    },
    {
      "inputs": [
        {
          "internalType": "address",
          "name": "prevOwner",
          "type": "address"
        },
        {
          "internalType": "address",
          "name": "oldOwner",
          "type": "address"
        },
        {
          "internalType": "address",
          "name": "newOwner",
          "type": "address"
        }
      ],
      "name": "swapOwner",
      "outputs": [],
      "stateMutability": "nonpayable",
      "type": "function"
    },
    {
      "stateMutability": "payable",
      "type": "receive"
    }
  ],
  "transactionHash": "0xc22ed62ce2f71c62e33fad3c99849595ad52a2993e8f8548674f2dd8f7eed60c",
  "args": [
    [
      "0xF1658C608708172655A8e70a1624c29F956Ee63D"
    ],
    1
  ],
  "numDeployments": 1,
  "solcInputHash": "b91301f1a84b6c2e358640cd7d231682",
  "bytecode": "0x60806040523480156200001157600080fd5b5060405162003cb838038062003cb8833981016040819052620000349162000349565b6001600455815160ff82161015620000a15760405162461bcd60e51b815260206004820152602560248201527f4d756c746953696757616c6c65743a20696e76616c6964206f776e657273206c6044820152640cadccee8d60db1b60648201526084015b60405180910390fd5b6000600455620000b58260ff8316620000c2565b60ff16600455506200046d565b60045415620000fc5760405162461bcd60e51b8152602060048201526005602482015264047533230360dc1b604482015260640162000098565b8151811115620001375760405162461bcd60e51b8152602060048201526005602482015264475332303160d81b604482015260640162000098565b6001811015620001725760405162461bcd60e51b815260206004820152600560248201526423a999181960d91b604482015260640162000098565b600160005b8351811015620002d15760008482815181106200019857620001986200042f565b6020026020010151905060006001600160a01b0316816001600160a01b031614158015620001d057506001600160a01b038116600114155b8015620001e657506001600160a01b0381163014155b8015620002055750806001600160a01b0316836001600160a01b031614155b6200023b5760405162461bcd60e51b8152602060048201526005602482015264475332303360d81b604482015260640162000098565b6001600160a01b0381811660009081526002602052604090205416156200028d5760405162461bcd60e51b815260206004820152600560248201526411d4cc8c0d60da1b604482015260640162000098565b6001600160a01b03928316600090815260026020526040902080546001600160a01b0319169382169390931790925580620002c88162000445565b91505062000177565b506001600160a01b0316600090815260026020526040902080546001600160a01b03191660011790559051600355600455565b634e487b7160e01b600052604160045260246000fd5b80516001600160a01b03811681146200033257600080fd5b919050565b805160ff811681146200033257600080fd5b600080604083850312156200035d57600080fd5b82516001600160401b03808211156200037557600080fd5b818501915085601f8301126200038a57600080fd5b8151602082821115620003a157620003a162000304565b8160051b604051601f19603f83011681018181108682111715620003c957620003c962000304565b604052928352818301935084810182019289841115620003e857600080fd5b948201945b83861015620004115762000401866200031a565b85529482019493820193620003ed565b965062000422905087820162000337565b9450505050509250929050565b634e487b7160e01b600052603260045260246000fd5b6000600182016200046657634e487b7160e01b600052601160045260246000fd5b5060010190565b61383b806200047d6000396000f3fe6080604052600436106101d15760003560e01c8063affed0e0116100f7578063e19a9dd911610095578063f08a032311610064578063f08a0323146105f5578063f698da2514610615578063f8dc5dd91461067c578063ffa1ad741461069c5761020d565b8063e19a9dd914610580578063e318b52b146105a0578063e75235b8146105c0578063e86637db146105d55761020d565b8063cc2f8452116100d1578063cc2f8452146104f2578063d4d9bdcd14610520578063d8d11f7814610540578063e009cfde146105605761020d565b8063affed0e01461049c578063b4faba09146104b2578063b63e800d146104d25761020d565b80635624b25b1161016f5780636a7612021161013e5780636a7612021461040f5780637d83297414610422578063934f3a111461045a578063a0e67e2b1461047a5761020d565b80635624b25b146103755780635ae6bd37146103a2578063610b5925146103cf578063694e80c3146103ef5761020d565b80632f54bf6e116101ab5780632f54bf6e146102ea5780633408e4701461030a578063468721a7146103275780635229073f146103475761020d565b80630d582f131461027357806312fb68e0146102955780632d9ad53d146102b55761020d565b3661020d5760405134815233907f3d0ce9bfc3ed7d6862dbb28b2dea94561fe714a1b4d019aa8af39730d1ad7c3d9060200160405180910390a2005b34801561021957600080fd5b507f6c9a6c4a39284e37ed1cf53d337577d14212a4870fb976a4366c693b939918d580548061024457005b36600080373360601b365260008060143601600080855af190503d6000803e8061026d573d6000fd5b503d6000f35b34801561027f57600080fd5b5061029361028e366004612c83565b6106e5565b005b3480156102a157600080fd5b506102936102b0366004612d52565b610876565b3480156102c157600080fd5b506102d56102d0366004612dc7565b610e0f565b60405190151581526020015b60405180910390f35b3480156102f657600080fd5b506102d5610305366004612dc7565b610e4a565b34801561031657600080fd5b50465b6040519081526020016102e1565b34801561033357600080fd5b506102d5610342366004612df3565b610e82565b34801561035357600080fd5b50610367610362366004612df3565b610ed8565b6040516102e1929190612ea3565b34801561038157600080fd5b50610395610390366004612ebe565b610f0e565b6040516102e19190612ee0565b3480156103ae57600080fd5b506103196103bd366004612ef3565b60076020526000908152604090205481565b3480156103db57600080fd5b506102936103ea366004612dc7565b610f94565b3480156103fb57600080fd5b5061029361040a366004612ef3565b61110a565b6102d561041d366004612f55565b6111d8565b34801561042e57600080fd5b5061031961043d366004612c83565b600860209081526000928352604080842090915290825290205481565b34801561046657600080fd5b5061029361047536600461302e565b611280565b34801561048657600080fd5b5061048f6112e2565b6040516102e191906130df565b3480156104a857600080fd5b5061031960055481565b3480156104be57600080fd5b506102936104cd3660046130f2565b6113d3565b3480156104de57600080fd5b506102936104ed366004613142565b6113f6565b3480156104fe57600080fd5b5061051261050d366004612c83565b6114f8565b6040516102e1929190613237565b34801561052c57600080fd5b5061029361053b366004612ef3565b6116e4565b34801561054c57600080fd5b5061031961055b366004613262565b611791565b34801561056c57600080fd5b5061029361057b366004613323565b6117be565b34801561058c57600080fd5b5061029361059b366004612dc7565b61191d565b3480156105ac57600080fd5b506102936105bb36600461335c565b611a7d565b3480156105cc57600080fd5b50600454610319565b3480156105e157600080fd5b506103956105f0366004613262565b611cc5565b34801561060157600080fd5b50610293610610366004612dc7565b611e40565b34801561062157600080fd5b5061031960007f47e79534a245952e8b16893a336b85a3d9ea9fa8c573f3d803afb92a794692184660408051602081019390935282015230606082015260800160405160208183030381529060405280519060200120905090565b34801561068857600080fd5b506102936106973660046133a7565b611e88565b3480156106a857600080fd5b506103956040518060400160405280600581526020017f312e342e3100000000000000000000000000000000000000000000000000000081525081565b6106ed612048565b6001600160a01b0382161580159061070f57506001600160a01b038216600114155b801561072457506001600160a01b0382163014155b61075d5760405162461bcd60e51b8152602060048201526005602482015264475332303360d81b60448201526064015b60405180910390fd5b6001600160a01b0382811660009081526002602052604090205416156107ad5760405162461bcd60e51b815260206004820152600560248201526411d4cc8c0d60da1b6044820152606401610754565b60026020527fe90b7bceb6e7df5418fb78d8ee546e97c83a08bbccc01a0644d599ccd2a7c2e080546001600160a01b0384811660008181526040812080549390941673ffffffffffffffffffffffffffffffffffffffff1993841617909355600183528354909116179091556003805491610827836133fe565b90915550506040516001600160a01b038316907f9465fa0c962cc76958e6373a993326400c1c94f8be2fe3a952adfa7f60b2ea2690600090a28060045414610872576108728161110a565b5050565b610881816041612099565b825110156108d15760405162461bcd60e51b815260206004820152600560248201527f47533032300000000000000000000000000000000000000000000000000000006044820152606401610754565b6000808060008060005b86811015610e03576041818102890160208101516040820151919092015160ff16955090935091506000849003610b9257885160208a01208a146109615760405162461bcd60e51b815260206004820152600560248201527f47533032370000000000000000000000000000000000000000000000000000006044820152606401610754565b9193508391610971876041612099565b8210156109c05760405162461bcd60e51b815260206004820152600560248201527f47533032310000000000000000000000000000000000000000000000000000006044820152606401610754565b87516109cd8360206120d5565b1115610a1b5760405162461bcd60e51b815260206004820152600560248201527f47533032320000000000000000000000000000000000000000000000000000006044820152606401610754565b602082890181015189519091610a3e908390610a389087906120d5565b906120d5565b1115610a8c5760405162461bcd60e51b815260206004820152600560248201527f47533032330000000000000000000000000000000000000000000000000000006044820152606401610754565b6040517f20c13b0b000000000000000000000000000000000000000000000000000000008082528a8501602001916001600160a01b038916906320c13b0b90610adb908f908690600401613418565b602060405180830381865afa158015610af8573d6000803e3d6000fd5b505050506040513d601f19601f82011682018060405250810190610b1c919061343d565b7fffffffff000000000000000000000000000000000000000000000000000000001614610b8b5760405162461bcd60e51b815260206004820152600560248201527f47533032340000000000000000000000000000000000000000000000000000006044820152606401610754565b5050610d51565b8360ff16600103610c2c579193508391336001600160a01b0384161480610bdb57506001600160a01b03851660009081526008602090815260408083208d845290915290205415155b610c275760405162461bcd60e51b815260206004820152600560248201527f47533032350000000000000000000000000000000000000000000000000000006044820152606401610754565b610d51565b601e8460ff161115610cf1576040517f19457468657265756d205369676e6564204d6573736167653a0a3332000000006020820152603c81018b9052600190605c0160405160208183030381529060405280519060200120600486610c91919061347f565b6040805160008152602081018083529390935260ff90911690820152606081018590526080810184905260a0016020604051602081039080840390855afa158015610ce0573d6000803e3d6000fd5b505050602060405103519450610d51565b6040805160008152602081018083528c905260ff861691810191909152606081018490526080810183905260019060a0016020604051602081039080840390855afa158015610d44573d6000803e3d6000fd5b5050506020604051035194505b856001600160a01b0316856001600160a01b0316118015610d8b57506001600160a01b038581166000908152600260205260409020541615155b8015610da157506001600160a01b038516600114155b610ded5760405162461bcd60e51b815260206004820152600560248201527f47533032360000000000000000000000000000000000000000000000000000006044820152606401610754565b8495508080610dfb906133fe565b9150506108db565b50505050505050505050565b600060016001600160a01b03831614801590610e4457506001600160a01b038281166000908152600160205260409020541615155b92915050565b60006001600160a01b038216600114801590610e445750506001600160a01b0390811660009081526002602052604090205416151590565b60007fb648d3644f584ed1c2232d53c46d87e693586486ad0d1175f8656013110b714e3386868686604051610ebb9594939291906134d0565b60405180910390a1610ecf858585856120f1565b95945050505050565b60006060610ee886868686610e82565b915060405160203d0181016040523d81523d6000602083013e8091505094509492505050565b60606000610f1d83602061351b565b67ffffffffffffffff811115610f3557610f35612caf565b6040519080825280601f01601f191660200182016040528015610f5f576020820181803683370190505b50905060005b83811015610f8c578481015460208083028401015280610f84816133fe565b915050610f65565b509392505050565b610f9c612048565b6001600160a01b03811615801590610fbe57506001600160a01b038116600114155b61100a5760405162461bcd60e51b815260206004820152600560248201527f47533130310000000000000000000000000000000000000000000000000000006044820152606401610754565b6001600160a01b0381811660009081526001602052604090205416156110725760405162461bcd60e51b815260206004820152600560248201527f47533130320000000000000000000000000000000000000000000000000000006044820152606401610754565b600160208190527fcc69885fda6bcc1a4ace058b4a62bf5e179ea78fd58a1ccd71c22cc9b688792f80546001600160a01b038481166000818152604080822080549490951673ffffffffffffffffffffffffffffffffffffffff1994851617909455948552835490911681179092555190917fecdf3a3effea5783a3c4c2140e677577666428d44ed9d474a0b3a4c9943f844091a250565b611112612048565b60035481111561114c5760405162461bcd60e51b8152602060048201526005602482015264475332303160d81b6044820152606401610754565b600181101561119d5760405162461bcd60e51b815260206004820152600560248201527f47533230320000000000000000000000000000000000000000000000000000006044820152606401610754565b60048190556040518181527f610f7ff2b304ae8903c3de74c60c6ab1f7d6226b3f52c5161905bb5ad4039c939060200160405180910390a150565b600554600454604080516020810193909352339083015260608281019190915260009160800160405160208183030381529060405290507f66753cd2356569ee081232e3be8909b950e0a76c1f8460c3a5e3c2be32b11bed8d8d8d8d8d8d8d8d8d8d8d8c6040516112549c9b9a9998979695949392919061355d565b60405180910390a161126f8d8d8d8d8d8d8d8d8d8d8d6121e2565b9d9c50505050505050505050505050565b600454806112d05760405162461bcd60e51b815260206004820152600560248201527f47533030310000000000000000000000000000000000000000000000000000006044820152606401610754565b6112dc84848484610876565b50505050565b6060600060035467ffffffffffffffff81111561130157611301612caf565b60405190808252806020026020018201604052801561132a578160200160208202803683370190505b506001600090815260026020527fe90b7bceb6e7df5418fb78d8ee546e97c83a08bbccc01a0644d599ccd2a7c2e054919250906001600160a01b03165b6001600160a01b0381166001146113cb578083838151811061138b5761138b6135f5565b6001600160a01b039283166020918202929092018101919091529181166000908152600290925260409091205416816113c3816133fe565b925050611367565b509092915050565b600080825160208401855af480600052503d6020523d600060403e60403d016000fd5b6114348a8a808060200260200160405190810160405280939291908181526020018383602002808284376000920191909152508c9250612576915050565b6001600160a01b0384161561144c5761144c846127ee565b61148c8787878080601f01602080910402602001604051908101604052809392919081815260200183838082843760009201919091525061286a92505050565b81156114a3576114a1826000600186856129f1565b505b336001600160a01b03167f141df868a6331af528e38c83b7aa03edc19be66e37ae67f9285bf4f8e3c6a1a88b8b8b8b896040516114e495949392919061360b565b60405180910390a250505050505050505050565b606060006001600160a01b03841660011480611518575061151884610e0f565b6115645760405162461bcd60e51b815260206004820152600560248201527f47533130350000000000000000000000000000000000000000000000000000006044820152606401610754565b600083116115b45760405162461bcd60e51b815260206004820152600560248201527f47533130360000000000000000000000000000000000000000000000000000006044820152606401610754565b8267ffffffffffffffff8111156115cd576115cd612caf565b6040519080825280602002602001820160405280156115f6578160200160208202803683370190505b506001600160a01b03808616600090815260016020526040812054929450911691505b6001600160a01b0382161580159061163b57506001600160a01b038216600114155b801561164657508381105b156116a1578183828151811061165e5761165e6135f5565b6001600160a01b03928316602091820292909201810191909152928116600090815260019093526040909220549091169080611699816133fe565b915050611619565b6001600160a01b0382166001146116d957826116be600183613677565b815181106116ce576116ce6135f5565b602002602001015191505b808352509250929050565b336000908152600260205260409020546001600160a01b03166117495760405162461bcd60e51b815260206004820152600560248201527f47533033300000000000000000000000000000000000000000000000000000006044820152606401610754565b336000818152600860209081526040808320858452909152808220600190555183917ff2a0eb156472d1440255b0d7c1e19cc07115d1051fe605b0dce69acfec884d9c91a350565b60006117a68c8c8c8c8c8c8c8c8c8c8c611cc5565b8051906020012090509b9a5050505050505050505050565b6117c6612048565b6001600160a01b038116158015906117e857506001600160a01b038116600114155b6118345760405162461bcd60e51b815260206004820152600560248201527f47533130310000000000000000000000000000000000000000000000000000006044820152606401610754565b6001600160a01b038281166000908152600160205260409020548116908216146118a05760405162461bcd60e51b815260206004820152600560248201527f47533130330000000000000000000000000000000000000000000000000000006044820152606401610754565b6001600160a01b038181166000818152600160205260408082208054878616845282842080549190961673ffffffffffffffffffffffffffffffffffffffff19918216179095558383528054909416909355915190917faab4fa2b463f581b2b32cb3b7e3b704b9ce37cc209b5fb4d77e593ace405427691a25050565b611925612048565b6001600160a01b03811615611a21576040517f01ffc9a70000000000000000000000000000000000000000000000000000000081527fe6d7a83a0000000000000000000000000000000000000000000000000000000060048201526001600160a01b038216906301ffc9a790602401602060405180830381865afa1580156119b1573d6000803e3d6000fd5b505050506040513d601f19601f820116820180604052508101906119d5919061368a565b611a215760405162461bcd60e51b815260206004820152600560248201527f47533330300000000000000000000000000000000000000000000000000000006044820152606401610754565b7f4a204f620c8c5ccdca3fd54d003badd85ba500436a431f0cbda4f558c93c34c88181556040516001600160a01b038316907f1151116914515bc0891ff9047a6cb32cf902546f83066499bcf8ba33d2353fa290600090a25050565b611a85612048565b6001600160a01b03811615801590611aa757506001600160a01b038116600114155b8015611abc57506001600160a01b0381163014155b611af05760405162461bcd60e51b8152602060048201526005602482015264475332303360d81b6044820152606401610754565b6001600160a01b038181166000908152600260205260409020541615611b405760405162461bcd60e51b815260206004820152600560248201526411d4cc8c0d60da1b6044820152606401610754565b6001600160a01b03821615801590611b6257506001600160a01b038216600114155b611b965760405162461bcd60e51b8152602060048201526005602482015264475332303360d81b6044820152606401610754565b6001600160a01b03838116600090815260026020526040902054811690831614611c025760405162461bcd60e51b815260206004820152600560248201527f47533230350000000000000000000000000000000000000000000000000000006044820152606401610754565b6001600160a01b038281166000818152600260205260408082208054868616808552838520805492881673ffffffffffffffffffffffffffffffffffffffff199384161790559589168452828420805482169096179095558383528054909416909355915190917ff8d49fc529812e9a7c5c50e69c20f0dccc0db8fa95c98bc58cc9a4f1c1299eaf91a26040516001600160a01b038216907f9465fa0c962cc76958e6373a993326400c1c94f8be2fe3a952adfa7f60b2ea2690600090a2505050565b606060007fbb8310d486368db6bd6f849402fdd73ad53d316b5a4b2644ad6efe0f941286d860001b8d8d8d8d604051611cff9291906136ac565b604051908190038120611d25949392918e908e908e908e908e908e908e906020016136bc565b60408051601f19818403018152919052805160209091012090507f19000000000000000000000000000000000000000000000000000000000000007f0100000000000000000000000000000000000000000000000000000000000000611ddb60007f47e79534a245952e8b16893a336b85a3d9ea9fa8c573f3d803afb92a794692184660408051602081019390935282015230606082015260800160405160208183030381529060405280519060200120905090565b6040517fff0000000000000000000000000000000000000000000000000000000000000093841660208201529290911660218301526022820152604281018290526062016040516020818303038152906040529150509b9a5050505050505050505050565b611e48612048565b611e51816127ee565b6040516001600160a01b038216907f5ac6c46c93c8d0e53714ba3b53db3e7c046da994313d7ed0d192028bc7c228b090600090a250565b611e90612048565b806001600354611ea09190613677565b1015611ed65760405162461bcd60e51b8152602060048201526005602482015264475332303160d81b6044820152606401610754565b6001600160a01b03821615801590611ef857506001600160a01b038216600114155b611f2c5760405162461bcd60e51b8152602060048201526005602482015264475332303360d81b6044820152606401610754565b6001600160a01b03838116600090815260026020526040902054811690831614611f985760405162461bcd60e51b815260206004820152600560248201527f47533230350000000000000000000000000000000000000000000000000000006044820152606401610754565b6001600160a01b038281166000818152600260205260408082208054888616845291832080549290951673ffffffffffffffffffffffffffffffffffffffff199283161790945591815282549091169091556003805491611ff88361372c565b90915550506040516001600160a01b038316907ff8d49fc529812e9a7c5c50e69c20f0dccc0db8fa95c98bc58cc9a4f1c1299eaf90600090a28060045414612043576120438161110a565b505050565b3330146120975760405162461bcd60e51b815260206004820152600560248201527f47533033310000000000000000000000000000000000000000000000000000006044820152606401610754565b565b6000826000036120ab57506000610e44565b60006120b7838561351b565b9050826120c48583613743565b146120ce57600080fd5b9392505050565b6000806120e28385613765565b9050838110156120ce57600080fd5b60003360011480159061211b5750336000908152600160205260409020546001600160a01b031615155b6121675760405162461bcd60e51b815260206004820152600560248201527f47533130340000000000000000000000000000000000000000000000000000006044820152606401610754565b61217685858585600019612b27565b905080156121ae5760405133907f6895c13664aa4f67288b25d7a21d7aaa34916e355fb9b6fae0a139a9085becb890600090a26121da565b60405133907facd2c8702804128fdb0db2bb49f6d127dd0181c13fd45dbfe16de0930e2bd37590600090a25b949350505050565b60008060006121fc8e8e8e8e8e8e8e8e8e8e600554611cc5565b60058054919250600061220e836133fe565b9091555050805160208201209150612227828286611280565b5060006122527f4a204f620c8c5ccdca3fd54d003badd85ba500436a431f0cbda4f558c93c34c85490565b90506001600160a01b038116156122d857806001600160a01b03166375f0bb528f8f8f8f8f8f8f8f8f8f8f336040518d63ffffffff1660e01b81526004016122a59c9b9a99989796959493929190613778565b600060405180830381600087803b1580156122bf57600080fd5b505af11580156122d3573d6000803e3d6000fd5b505050505b6123046122e78a6109c4613765565b603f6122f48c604061351b565b6122fe9190613743565b90612b6c565b612310906101f4613765565b5a101561235f5760405162461bcd60e51b815260206004820152600560248201527f47533031300000000000000000000000000000000000000000000000000000006044820152606401610754565b60005a90506123d08f8f8f8f8080601f016020809104026020016040519081016040528093929190818152602001838380828437600081840152601f19601f820116905080830192505050505050508e8c6000146123bd578e612b27565b6109c45a6123cb9190613677565b612b27565b93506123dd5a8290612b83565b905083806123ea57508915155b806123f457508715155b6124405760405162461bcd60e51b815260206004820152600560248201527f47533031330000000000000000000000000000000000000000000000000000006044820152606401610754565b6000881561245857612455828b8b8b8b6129f1565b90505b841561249d57837f442e715f626346e8c54381002da614f62bee8d27386535b2521ec8540898556e8260405161249091815260200190565b60405180910390a26124d8565b837f23428b18acfb3ea64b08dc0c1d296ea9c09702c09083ca5272e64d115b687d23826040516124cf91815260200190565b60405180910390a25b50506001600160a01b03811615612565576040517f932713680000000000000000000000000000000000000000000000000000000081526004810183905283151560248201526001600160a01b03821690639327136890604401600060405180830381600087803b15801561254c57600080fd5b505af1158015612560573d6000803e3d6000fd5b505050505b50509b9a5050505050505050505050565b600454156125c65760405162461bcd60e51b815260206004820152600560248201527f47533230300000000000000000000000000000000000000000000000000000006044820152606401610754565b81518111156125ff5760405162461bcd60e51b8152602060048201526005602482015264475332303160d81b6044820152606401610754565b60018110156126505760405162461bcd60e51b815260206004820152600560248201527f47533230320000000000000000000000000000000000000000000000000000006044820152606401610754565b600160005b83518110156127ae576000848281518110612672576126726135f5565b6020026020010151905060006001600160a01b0316816001600160a01b0316141580156126a957506001600160a01b038116600114155b80156126be57506001600160a01b0381163014155b80156126dc5750806001600160a01b0316836001600160a01b031614155b6127105760405162461bcd60e51b8152602060048201526005602482015264475332303360d81b6044820152606401610754565b6001600160a01b0381811660009081526002602052604090205416156127605760405162461bcd60e51b815260206004820152600560248201526411d4cc8c0d60da1b6044820152606401610754565b6001600160a01b039283166000908152600260205260409020805473ffffffffffffffffffffffffffffffffffffffff191693821693909317909255806127a6816133fe565b915050612655565b506001600160a01b03166000908152600260205260409020805473ffffffffffffffffffffffffffffffffffffffff191660011790559051600355600455565b306001600160a01b038216036128465760405162461bcd60e51b815260206004820152600560248201527f47533430300000000000000000000000000000000000000000000000000000006044820152606401610754565b7f6c9a6c4a39284e37ed1cf53d337577d14212a4870fb976a4366c693b939918d555565b600160008190526020527fcc69885fda6bcc1a4ace058b4a62bf5e179ea78fd58a1ccd71c22cc9b688792f546001600160a01b0316156128ec5760405162461bcd60e51b815260206004820152600560248201527f47533130300000000000000000000000000000000000000000000000000000006044820152606401610754565b6001600081905260208190527fcc69885fda6bcc1a4ace058b4a62bf5e179ea78fd58a1ccd71c22cc9b688792f805473ffffffffffffffffffffffffffffffffffffffff191690911790556001600160a01b0382161561087257813b6129945760405162461bcd60e51b815260206004820152600560248201527f47533030320000000000000000000000000000000000000000000000000000006044820152606401610754565b6129a5826000836001600019612b27565b6108725760405162461bcd60e51b815260206004820152600560248201527f47533030300000000000000000000000000000000000000000000000000000006044820152606401610754565b6000806001600160a01b03831615612a095782612a0b565b325b90506001600160a01b038416612ab657612a3d3a8610612a2b573a612a2d565b855b612a3789896120d5565b90612099565b6040519092506001600160a01b0382169083156108fc029084906000818181858888f19350505050612ab15760405162461bcd60e51b815260206004820152600560248201527f47533031310000000000000000000000000000000000000000000000000000006044820152606401610754565b612b1d565b612ac485612a3789896120d5565b9150612ad1848284612b9e565b612b1d5760405162461bcd60e51b815260206004820152600560248201527f47533031320000000000000000000000000000000000000000000000000000006044820152606401610754565b5095945050505050565b60006001836001811115612b3d57612b3d613498565b03612b55576000808551602087018986f49050610ecf565b600080855160208701888a87f19695505050505050565b600081831015612b7c57816120ce565b5090919050565b600082821115612b9257600080fd5b60006121da8385613677565b604080516001600160a01b03841660248201526044808201849052825180830390910181526064909101909152602080820180517bffffffffffffffffffffffffffffffffffffffffffffffffffffffff167fa9059cbb000000000000000000000000000000000000000000000000000000001781528251600093929184919082896127105a03f13d8015612c3e5760208114612c465760009350612c51565b819350612c51565b600051158215171593505b5050509392505050565b6001600160a01b0381168114612c7057600080fd5b50565b8035612c7e81612c5b565b919050565b60008060408385031215612c9657600080fd5b8235612ca181612c5b565b946020939093013593505050565b634e487b7160e01b600052604160045260246000fd5b600082601f830112612cd657600080fd5b813567ffffffffffffffff80821115612cf157612cf1612caf565b604051601f8301601f19908116603f01168101908282118183101715612d1957612d19612caf565b81604052838152866020858801011115612d3257600080fd5b836020870160208301376000602085830101528094505050505092915050565b60008060008060808587031215612d6857600080fd5b84359350602085013567ffffffffffffffff80821115612d8757600080fd5b612d9388838901612cc5565b94506040870135915080821115612da957600080fd5b50612db687828801612cc5565b949793965093946060013593505050565b600060208284031215612dd957600080fd5b81356120ce81612c5b565b803560028110612c7e57600080fd5b60008060008060808587031215612e0957600080fd5b8435612e1481612c5b565b935060208501359250604085013567ffffffffffffffff811115612e3757600080fd5b612e4387828801612cc5565b925050612e5260608601612de4565b905092959194509250565b6000815180845260005b81811015612e8357602081850181015186830182015201612e67565b506000602082860101526020601f19601f83011685010191505092915050565b82151581526040602082015260006121da6040830184612e5d565b60008060408385031215612ed157600080fd5b50508035926020909101359150565b6020815260006120ce6020830184612e5d565b600060208284031215612f0557600080fd5b5035919050565b60008083601f840112612f1e57600080fd5b50813567ffffffffffffffff811115612f3657600080fd5b602083019150836020828501011115612f4e57600080fd5b9250929050565b60008060008060008060008060008060006101408c8e031215612f7757600080fd5b612f808c612c73565b9a5060208c0135995067ffffffffffffffff8060408e01351115612fa357600080fd5b612fb38e60408f01358f01612f0c565b909a509850612fc460608e01612de4565b975060808d0135965060a08d0135955060c08d01359450612fe760e08e01612c73565b9350612ff66101008e01612c73565b9250806101208e0135111561300a57600080fd5b5061301c8d6101208e01358e01612cc5565b90509295989b509295989b9093969950565b60008060006060848603121561304357600080fd5b83359250602084013567ffffffffffffffff8082111561306257600080fd5b61306e87838801612cc5565b9350604086013591508082111561308457600080fd5b5061309186828701612cc5565b9150509250925092565b600081518084526020808501945080840160005b838110156130d45781516001600160a01b0316875295820195908201906001016130af565b509495945050505050565b6020815260006120ce602083018461309b565b6000806040838503121561310557600080fd5b823561311081612c5b565b9150602083013567ffffffffffffffff81111561312c57600080fd5b61313885828601612cc5565b9150509250929050565b6000806000806000806000806000806101008b8d03121561316257600080fd5b8a3567ffffffffffffffff8082111561317a57600080fd5b818d0191508d601f83011261318e57600080fd5b81358181111561319d57600080fd5b8e60208260051b85010111156131b257600080fd5b60208381019d50909b508d013599506131cd60408e01612c73565b985060608d01359150808211156131e357600080fd5b506131f08d828e01612f0c565b9097509550613203905060808c01612c73565b935061321160a08c01612c73565b925060c08b0135915061322660e08c01612c73565b90509295989b9194979a5092959850565b60408152600061324a604083018561309b565b90506001600160a01b03831660208301529392505050565b60008060008060008060008060008060006101408c8e03121561328457600080fd5b8b3561328f81612c5b565b9a5060208c0135995060408c013567ffffffffffffffff8111156132b257600080fd5b6132be8e828f01612f0c565b909a5098506132d1905060608d01612de4565b965060808c0135955060a08c0135945060c08c0135935060e08c01356132f681612c5b565b92506101008c013561330781612c5b565b809250506101208c013590509295989b509295989b9093969950565b6000806040838503121561333657600080fd5b823561334181612c5b565b9150602083013561335181612c5b565b809150509250929050565b60008060006060848603121561337157600080fd5b833561337c81612c5b565b9250602084013561338c81612c5b565b9150604084013561339c81612c5b565b809150509250925092565b6000806000606084860312156133bc57600080fd5b83356133c781612c5b565b925060208401356133d781612c5b565b929592945050506040919091013590565b634e487b7160e01b600052601160045260246000fd5b60006000198203613411576134116133e8565b5060010190565b60408152600061342b6040830185612e5d565b8281036020840152610ecf8185612e5d565b60006020828403121561344f57600080fd5b81517fffffffff00000000000000000000000000000000000000000000000000000000811681146120ce57600080fd5b60ff8281168282160390811115610e4457610e446133e8565b634e487b7160e01b600052602160045260246000fd5b600281106134cc57634e487b7160e01b600052602160045260246000fd5b9052565b60006001600160a01b03808816835280871660208401525084604083015260a0606083015261350260a0830185612e5d565b905061351160808301846134ae565b9695505050505050565b8082028115828204841417610e4457610e446133e8565b818352818160208501375060006020828401015260006020601f19601f840116840101905092915050565b60006001600160a01b03808f1683528d6020840152610160604084015261358961016084018d8f613532565b613596606085018d6134ae565b8a60808501528960a08501528860c085015281881660e08501528187166101008501528381036101208501526135cc8187612e5d565b9150508281036101408401526135e28185612e5d565b9f9e505050505050505050505050505050565b634e487b7160e01b600052603260045260246000fd5b6080808252810185905260008660a08301825b8881101561364e57823561363181612c5b565b6001600160a01b031682526020928301929091019060010161361e565b50602084019690965250506001600160a01b039283166040820152911660609091015292915050565b81810381811115610e4457610e446133e8565b60006020828403121561369c57600080fd5b815180151581146120ce57600080fd5b8183823760009101908152919050565b6000610160820190508c82526001600160a01b03808d1660208401528b60408401528a60608401526136f1608084018b6134ae565b60a083019890985260c082019690965260e0810194909452918516610100840152909316610120820152610140019190915295945050505050565b60008161373b5761373b6133e8565b506000190190565b60008261376057634e487b7160e01b600052601260045260246000fd5b500490565b80820180821115610e4457610e446133e8565b60006001600160a01b03808f1683528d602084015261016060408401526137a461016084018d8f613532565b6137b1606085018d6134ae565b8a60808501528960a08501528860c085015281881660e08501528187166101008501528381036101208501526137e78187612e5d565b925050808416610140840152509d9c5050505050505050505050505056fea264697066735822122083623032e0735b5bf82cf81a7e0d8fc21d1ca764f00d6def99aded85620130b764736f6c63430008130033",
  "devdoc": {
    "kind": "dev",
    "methods": {
      "addOwnerWithThreshold(address,uint256)": {
        "details": "This can only be done via a Safe transaction.",
        "params": {
          "_threshold": "New threshold.",
          "owner": "New owner address."
        }
      },
      "approveHash(bytes32)": {
        "details": "This can be used with a pre-approved hash transaction signature.      IMPORTANT: The approved hash stays approved forever. There's no revocation mechanism, so it behaves similarly to ECDSA signatures",
        "params": {
          "hashToApprove": "The hash to mark as approved for signatures that are verified by this contract."
        }
      },
      "changeThreshold(uint256)": {
        "details": "This can only be done via a Safe transaction.",
        "params": {
          "_threshold": "New threshold."
        }
      },
      "checkNSignatures(bytes32,bytes,bytes,uint256)": {
        "details": "Since the EIP-1271 does an external call, be mindful of reentrancy attacks.",
        "params": {
          "data": "That should be signed (this is passed to an external validator contract)",
          "dataHash": "Hash of the data (could be either a message hash or transaction hash)",
          "requiredSignatures": "Amount of required valid signatures.",
          "signatures": "Signature data that should be verified.                   Can be packed ECDSA signature ({bytes32 r}{bytes32 s}{uint8 v}), contract signature (EIP-1271) or approved hash."
        }
      },
      "checkSignatures(bytes32,bytes,bytes)": {
        "params": {
          "data": "That should be signed (this is passed to an external validator contract)",
          "dataHash": "Hash of the data (could be either a message hash or transaction hash)",
          "signatures": "Signature data that should be verified.                   Can be packed ECDSA signature ({bytes32 r}{bytes32 s}{uint8 v}), contract signature (EIP-1271) or approved hash."
        }
      },
      "disableModule(address,address)": {
        "details": "This can only be done via a Safe transaction.",
        "params": {
          "module": "Module to be removed.",
          "prevModule": "Previous module in the modules linked list."
        }
      },
      "domainSeparator()": {
        "details": "Returns the domain separator for this contract, as defined in the EIP-712 standard.",
        "returns": {
          "_0": "bytes32 The domain separator hash."
        }
      },
      "enableModule(address)": {
        "details": "This can only be done via a Safe transaction.",
        "params": {
          "module": "Module to be whitelisted."
        }
      },
      "encodeTransactionData(address,uint256,bytes,uint8,uint256,uint256,uint256,address,address,uint256)": {
        "params": {
          "_nonce": "Transaction nonce.",
          "baseGas": "Gas costs for that are independent of the transaction execution(e.g. base transaction fee, signature check, payment of the refund)",
          "data": "Data payload.",
          "gasPrice": "Maximum gas price that should be used for this transaction.",
          "gasToken": "Token address (or 0 if ETH) that is used for the payment.",
          "operation": "Operation type.",
          "refundReceiver": "Address of receiver of gas payment (or 0 if tx.origin).",
          "safeTxGas": "Gas that should be used for the safe transaction.",
          "to": "Destination address.",
          "value": "Ether value."
        },
        "returns": {
          "_0": "Transaction hash bytes."
        }
      },
      "execTransaction(address,uint256,bytes,uint8,uint256,uint256,uint256,address,address,bytes)": {
        "details": "The fees are always transferred, even if the user transaction fails.      This method doesn't perform any sanity check of the transaction, such as:      - if the contract at `to` address has code or not      - if the `gasToken` is a contract or not      It is the responsibility of the caller to perform such checks.",
        "params": {
          "baseGas": "Gas costs that are independent of the transaction execution(e.g. base transaction fee, signature check, payment of the refund)",
          "data": "Data payload of Safe transaction.",
          "gasPrice": "Gas price that should be used for the payment calculation.",
          "gasToken": "Token address (or 0 if ETH) that is used for the payment.",
          "operation": "Operation type of Safe transaction.",
          "refundReceiver": "Address of receiver of gas payment (or 0 if tx.origin).",
          "safeTxGas": "Gas that should be used for the Safe transaction.",
          "signatures": "Signature data that should be verified.                   Can be packed ECDSA signature ({bytes32 r}{bytes32 s}{uint8 v}), contract signature (EIP-1271) or approved hash.",
          "to": "Destination address of Safe transaction.",
          "value": "Ether value of Safe transaction."
        },
        "returns": {
          "_0": "Boolean indicating transaction's success."
        }
      },
      "execTransactionFromModule(address,uint256,bytes,uint8)": {
        "details": "Function is virtual to allow overriding for L2 singleton to emit an event for indexing.",
        "params": {
          "data": "Data payload of module transaction.",
          "operation": "Operation type of module transaction.",
          "to": "Destination address of module transaction.",
          "value": "Ether value of module transaction."
        },
        "returns": {
          "success": "Boolean flag indicating if the call succeeded."
        }
      },
      "execTransactionFromModuleReturnData(address,uint256,bytes,uint8)": {
        "params": {
          "data": "Data payload of module transaction.",
          "operation": "Operation type of module transaction.",
          "to": "Destination address of module transaction.",
          "value": "Ether value of module transaction."
        },
        "returns": {
          "returnData": "Data returned by the call.",
          "success": "Boolean flag indicating if the call succeeded."
        }
      },
      "getChainId()": {
        "returns": {
          "_0": "The ID of the current chain as a uint256."
        }
      },
      "getModulesPaginated(address,uint256)": {
        "params": {
          "pageSize": "Maximum number of modules that should be returned. Has to be > 0",
          "start": "Start of the page. Has to be a module or start pointer (0x1 address)"
        },
        "returns": {
          "array": "Array of modules.",
          "next": "Start of the next page."
        }
      },
      "getOwners()": {
        "returns": {
          "_0": "Array of Safe owners."
        }
      },
      "getStorageAt(uint256,uint256)": {
        "params": {
          "length": "- the number of words (32 bytes) of data to read",
          "offset": "- the offset in the current contract's storage in words to start reading from"
        },
        "returns": {
          "_0": "the bytes that were read."
        }
      },
      "getThreshold()": {
        "returns": {
          "_0": "Threshold number."
        }
      },
      "getTransactionHash(address,uint256,bytes,uint8,uint256,uint256,uint256,address,address,uint256)": {
        "params": {
          "_nonce": "Transaction nonce.",
          "baseGas": "Gas costs for data used to trigger the safe transaction.",
          "data": "Data payload.",
          "gasPrice": "Maximum gas price that should be used for this transaction.",
          "gasToken": "Token address (or 0 if ETH) that is used for the payment.",
          "operation": "Operation type.",
          "refundReceiver": "Address of receiver of gas payment (or 0 if tx.origin).",
          "safeTxGas": "Fas that should be used for the safe transaction.",
          "to": "Destination address.",
          "value": "Ether value."
        },
        "returns": {
          "_0": "Transaction hash."
        }
      },
      "isModuleEnabled(address)": {
        "returns": {
          "_0": "True if the module is enabled"
        }
      },
      "isOwner(address)": {
        "returns": {
          "_0": "Boolean if owner is an owner of the Safe."
        }
      },
      "removeOwner(address,address,uint256)": {
        "details": "This can only be done via a Safe transaction.",
        "params": {
          "_threshold": "New threshold.",
          "owner": "Owner address to be removed.",
          "prevOwner": "Owner that pointed to the owner to be removed in the linked list"
        }
      },
      "setFallbackHandler(address)": {
        "details": "Only fallback calls without value and with data will be forwarded.      This can only be done via a Safe transaction.      Cannot be set to the Safe itself.",
        "params": {
          "handler": "contract to handle fallback calls."
        }
      },
      "setGuard(address)": {
        "details": "Set a guard that checks transactions before execution      This can only be done via a Safe transaction.       IMPORTANT: Since a guard has full power to block Safe transaction execution,        a broken guard can cause a denial of service for the Safe. Make sure to carefully        audit the guard code and design recovery mechanisms.",
        "params": {
          "guard": "The address of the guard to be used or the 0 address to disable the guard"
        }
      },
      "setup(address[],uint256,address,bytes,address,address,uint256,address)": {
        "details": "This method can only be called once.      If a proxy was created without setting up, anyone can call setup and claim the proxy.",
        "params": {
          "_owners": "List of Safe owners.",
          "_threshold": "Number of required confirmations for a Safe transaction.",
          "data": "Data payload for optional delegate call.",
          "fallbackHandler": "Handler for fallback calls to this contract",
          "payment": "Value that should be paid",
          "paymentReceiver": "Address that should receive the payment (or 0 if tx.origin)",
          "paymentToken": "Token that should be used for the payment (0 is ETH)",
          "to": "Contract address for optional delegate call."
        }
      },
      "simulateAndRevert(address,bytes)": {
        "details": "Performs a delegatecall on a targetContract in the context of self. Internally reverts execution to avoid side effects (making it static). This method reverts with data equal to `abi.encode(bool(success), bytes(response))`. Specifically, the `returndata` after a call to this method will be: `success:bool || response.length:uint256 || response:bytes`.",
        "params": {
          "calldataPayload": "Calldata that should be sent to the target contract (encoded method name and arguments).",
          "targetContract": "Address of the contract containing the code to execute."
        }
      },
      "swapOwner(address,address,address)": {
        "details": "This can only be done via a Safe transaction.",
        "params": {
          "newOwner": "New owner address.",
          "oldOwner": "Owner address to be replaced.",
          "prevOwner": "Owner that pointed to the owner to be replaced in the linked list"
        }
      }
    },
    "version": 1
  },
  "userdoc": {
    "kind": "user",
    "methods": {
      "addOwnerWithThreshold(address,uint256)": {
        "notice": "Adds the owner `owner` to the Safe and updates the threshold to `_threshold`."
      },
      "approveHash(bytes32)": {
        "notice": "Marks hash `hashToApprove` as approved."
      },
      "changeThreshold(uint256)": {
        "notice": "Changes the threshold of the Safe to `_threshold`."
      },
      "checkNSignatures(bytes32,bytes,bytes,uint256)": {
        "notice": "Checks whether the signature provided is valid for the provided data and hash. Reverts otherwise."
      },
      "checkSignatures(bytes32,bytes,bytes)": {
        "notice": "Checks whether the signature provided is valid for the provided data and hash. Reverts otherwise."
      },
      "disableModule(address,address)": {
        "notice": "Disables the module `module` for the Safe."
      },
      "enableModule(address)": {
        "notice": "Enables the module `module` for the Safe."
      },
      "encodeTransactionData(address,uint256,bytes,uint8,uint256,uint256,uint256,address,address,uint256)": {
        "notice": "Returns the pre-image of the transaction hash (see getTransactionHash)."
      },
      "execTransaction(address,uint256,bytes,uint8,uint256,uint256,uint256,address,address,bytes)": {
        "notice": "Executes a `operation` {0: Call, 1: DelegateCall}} transaction to `to` with `value` (Native Currency)          and pays `gasPrice` * `gasLimit` in `gasToken` token to `refundReceiver`."
      },
      "execTransactionFromModule(address,uint256,bytes,uint8)": {
        "notice": "Execute `operation` (0: Call, 1: DelegateCall) to `to` with `value` (Native Token)"
      },
      "execTransactionFromModuleReturnData(address,uint256,bytes,uint8)": {
        "notice": "Execute `operation` (0: Call, 1: DelegateCall) to `to` with `value` (Native Token) and return data"
      },
      "getChainId()": {
        "notice": "Returns the ID of the chain the contract is currently deployed on."
      },
      "getModulesPaginated(address,uint256)": {
        "notice": "Returns an array of modules.         If all entries fit into a single page, the next pointer will be 0x1.         If another page is present, next will be the last element of the returned array."
      },
      "getOwners()": {
        "notice": "Returns a list of Safe owners."
      },
      "getStorageAt(uint256,uint256)": {
        "notice": "Reads `length` bytes of storage in the currents contract"
      },
      "getThreshold()": {
        "notice": "Returns the number of required confirmations for a Safe transaction aka the threshold."
      },
      "getTransactionHash(address,uint256,bytes,uint8,uint256,uint256,uint256,address,address,uint256)": {
        "notice": "Returns transaction hash to be signed by owners."
      },
      "isModuleEnabled(address)": {
        "notice": "Returns if an module is enabled"
      },
      "isOwner(address)": {
        "notice": "Returns if `owner` is an owner of the Safe."
      },
      "removeOwner(address,address,uint256)": {
        "notice": "Removes the owner `owner` from the Safe and updates the threshold to `_threshold`."
      },
      "setFallbackHandler(address)": {
        "notice": "Set Fallback Handler to `handler` for the Safe."
      },
      "setGuard(address)": {
        "notice": "Set Transaction Guard `guard` for the Safe. Make sure you trust the guard."
      },
      "setup(address[],uint256,address,bytes,address,address,uint256,address)": {
        "notice": "Sets an initial storage of the Safe contract."
      },
      "swapOwner(address,address,address)": {
        "notice": "Replaces the owner `oldOwner` in the Safe with `newOwner`."
      }
    },
    "version": 1
  },
  "storageLayout": {
    "storage": [
      {
        "astId": 9938,
        "contract": "contracts/test/MultiSigWallet.sol:MultiSigWallet",
        "label": "singleton",
        "offset": 0,
        "slot": "0",
        "type": "t_address"
      },
      {
        "astId": 8928,
        "contract": "contracts/test/MultiSigWallet.sol:MultiSigWallet",
        "label": "modules",
        "offset": 0,
        "slot": "1",
        "type": "t_mapping(t_address,t_address)"
      },
      {
        "astId": 9346,
        "contract": "contracts/test/MultiSigWallet.sol:MultiSigWallet",
        "label": "owners",
        "offset": 0,
        "slot": "2",
        "type": "t_mapping(t_address,t_address)"
      },
      {
        "astId": 9348,
        "contract": "contracts/test/MultiSigWallet.sol:MultiSigWallet",
        "label": "ownerCount",
        "offset": 0,
        "slot": "3",
        "type": "t_uint256"
      },
      {
        "astId": 9350,
        "contract": "contracts/test/MultiSigWallet.sol:MultiSigWallet",
        "label": "threshold",
        "offset": 0,
        "slot": "4",
        "type": "t_uint256"
      },
      {
        "astId": 7686,
        "contract": "contracts/test/MultiSigWallet.sol:MultiSigWallet",
        "label": "nonce",
        "offset": 0,
        "slot": "5",
        "type": "t_uint256"
      },
      {
        "astId": 7688,
        "contract": "contracts/test/MultiSigWallet.sol:MultiSigWallet",
        "label": "_deprecatedDomainSeparator",
        "offset": 0,
        "slot": "6",
        "type": "t_bytes32"
      },
      {
        "astId": 7692,
        "contract": "contracts/test/MultiSigWallet.sol:MultiSigWallet",
        "label": "signedMessages",
        "offset": 0,
        "slot": "7",
        "type": "t_mapping(t_bytes32,t_uint256)"
      },
      {
        "astId": 7698,
        "contract": "contracts/test/MultiSigWallet.sol:MultiSigWallet",
        "label": "approvedHashes",
        "offset": 0,
        "slot": "8",
        "type": "t_mapping(t_address,t_mapping(t_bytes32,t_uint256))"
      }
    ],
    "types": {
      "t_address": {
        "encoding": "inplace",
        "label": "address",
        "numberOfBytes": "20"
      },
      "t_bytes32": {
        "encoding": "inplace",
        "label": "bytes32",
        "numberOfBytes": "32"
      },
      "t_mapping(t_address,t_address)": {
        "encoding": "mapping",
        "key": "t_address",
        "label": "mapping(address => address)",
        "numberOfBytes": "32",
        "value": "t_address"
      },
      "t_mapping(t_address,t_mapping(t_bytes32,t_uint256))": {
        "encoding": "mapping",
        "key": "t_address",
        "label": "mapping(address => mapping(bytes32 => uint256))",
        "numberOfBytes": "32",
        "value": "t_mapping(t_bytes32,t_uint256)"
      },
      "t_mapping(t_bytes32,t_uint256)": {
        "encoding": "mapping",
        "key": "t_bytes32",
        "label": "mapping(bytes32 => uint256)",
        "numberOfBytes": "32",
        "value": "t_uint256"
      },
      "t_uint256": {
        "encoding": "inplace",
        "label": "uint256",
        "numberOfBytes": "32"
      }
    }
  }
}