{
  "address": "0x27f700aE7Ae22e2D783303Da00975b9276d03FAA",
  "abi": [
    {
      "inputs": [
        {
          "internalType": "contract IZebraCore",
          "name": "_zebraCore",
          "type": "address"
        }
      ],
      "stateMutability": "nonpayable",
      "type": "constructor"
    },
    {
      "inputs": [
        {
          "internalType": "address",
          "name": "token",
          "type": "address"
        }
      ],
      "name": "PriceFeed__FeedFrozenError",
      "type": "error"
    },
    {
      "inputs": [],
      "name": "PriceFeed__HeartbeatOutOfBoundsError",
      "type": "error"
    },
    {
      "inputs": [
        {
          "internalType": "address",
          "name": "token",
          "type": "address"
        }
      ],
      "name": "PriceFeed__InvalidFeedResponseError",
      "type": "error"
    },
    {
      "anonymous": false,
      "inputs": [
        {
          "indexed": false,
          "internalType": "address",
          "name": "token",
          "type": "address"
        },
        {
          "indexed": false,
          "internalType": "address",
          "name": "pyth",
          "type": "address"
        }
      ],
      "name": "NewOracleRegistered",
      "type": "event"
    },
    {
      "anonymous": false,
      "inputs": [
        {
          "indexed": false,
          "internalType": "address",
          "name": "token",
          "type": "address"
        },
        {
          "indexed": false,
          "internalType": "address",
          "name": "oracle",
          "type": "address"
        },
        {
          "indexed": false,
          "internalType": "bool",
          "name": "isWorking",
          "type": "bool"
        }
      ],
      "name": "PriceFeedStatusUpdated",
      "type": "event"
    },
    {
      "anonymous": false,
      "inputs": [
        {
          "indexed": true,
          "internalType": "address",
          "name": "token",
          "type": "address"
        },
        {
          "indexed": false,
          "internalType": "uint256",
          "name": "_price",
          "type": "uint256"
        }
      ],
      "name": "PriceRecordUpdated",
      "type": "event"
    },
    {
      "inputs": [],
      "name": "RESPONSE_TIMEOUT_BUFFER",
      "outputs": [
        {
          "internalType": "uint256",
          "name": "",
          "type": "uint256"
        }
      ],
      "stateMutability": "view",
      "type": "function"
    },
    {
      "inputs": [],
      "name": "TARGET_DIGITS",
      "outputs": [
        {
          "internalType": "uint256",
          "name": "",
          "type": "uint256"
        }
      ],
      "stateMutability": "view",
      "type": "function"
    },
    {
      "inputs": [],
      "name": "ZETAUSDFEED",
      "outputs": [
        {
          "internalType": "bytes32",
          "name": "",
          "type": "bytes32"
        }
      ],
      "stateMutability": "view",
      "type": "function"
    },
    {
      "inputs": [],
      "name": "ZebraCore",
      "outputs": [
        {
          "internalType": "contract IZebraCore",
          "name": "",
          "type": "address"
        }
      ],
      "stateMutability": "view",
      "type": "function"
    },
    {
      "inputs": [
        {
          "internalType": "address",
          "name": "_token",
          "type": "address"
        }
      ],
      "name": "fetchPrice",
      "outputs": [
        {
          "internalType": "uint256",
          "name": "",
          "type": "uint256"
        }
      ],
      "stateMutability": "nonpayable",
      "type": "function"
    },
    {
      "inputs": [],
      "name": "guardian",
      "outputs": [
        {
          "internalType": "address",
          "name": "",
          "type": "address"
        }
      ],
      "stateMutability": "view",
      "type": "function"
    },
    {
      "inputs": [
        {
          "internalType": "address",
          "name": "",
          "type": "address"
        }
      ],
      "name": "oracleRecords",
      "outputs": [
        {
          "internalType": "contract IPyth",
          "name": "pyth",
          "type": "address"
        },
        {
          "internalType": "uint32",
          "name": "decimals",
          "type": "uint32"
        },
        {
          "internalType": "uint32",
          "name": "heartbeat",
          "type": "uint32"
        },
        {
          "internalType": "address",
          "name": "exchangeTarget",
          "type": "address"
        },
        {
          "internalType": "uint8",
          "name": "exchangeDecimals",
          "type": "uint8"
        },
        {
          "internalType": "bytes",
          "name": "exchangeRateDataWithSig",
          "type": "bytes"
        }
      ],
      "stateMutability": "view",
      "type": "function"
    },
    {
      "inputs": [],
      "name": "owner",
      "outputs": [
        {
          "internalType": "address",
          "name": "",
          "type": "address"
        }
      ],
      "stateMutability": "view",
      "type": "function"
    },
    {
      "inputs": [
        {
          "internalType": "address",
          "name": "",
          "type": "address"
        }
      ],
      "name": "priceRecords",
      "outputs": [
        {
          "internalType": "uint96",
          "name": "scaledPrice",
          "type": "uint96"
        },
        {
          "internalType": "uint32",
          "name": "timestamp",
          "type": "uint32"
        },
        {
          "internalType": "uint32",
          "name": "lastUpdated",
          "type": "uint32"
        }
      ],
      "stateMutability": "view",
      "type": "function"
    },
    {
      "inputs": [
        {
          "internalType": "address",
          "name": "_token",
          "type": "address"
        },
        {
          "internalType": "address",
          "name": "_pyth",
          "type": "address"
        },
        {
          "internalType": "address",
          "name": "exchangeTarget",
          "type": "address"
        },
        {
          "internalType": "uint8",
          "name": "exchangeDecimals",
          "type": "uint8"
        },
        {
          "internalType": "bytes",
          "name": "exchangeRateDataWithSig",
          "type": "bytes"
        },
        {
          "internalType": "uint32",
          "name": "_heartbeat",
          "type": "uint32"
        }
      ],
      "name": "setOracle",
      "outputs": [],
      "stateMutability": "nonpayable",
      "type": "function"
    }
  ],
  "transactionHash": "0x03dc376b4f7358fdbf2ceec4c2de0235b840aaba2a47305c95d3f3d49a086b0d",
  "args": [
    "0xD478C3dD7482FF5b1a6D4bcCAfA85Fa405792F24"
  ],
  "numDeployments": 1,
  "solcInputHash": "b91301f1a84b6c2e358640cd7d231682",
  "bytecode": "0x60a060405234801561001057600080fd5b5060405161150c38038061150c83398101604081905261002f91610040565b6001600160a01b0316608052610070565b60006020828403121561005257600080fd5b81516001600160a01b038116811461006957600080fd5b9392505050565b6080516114746100986000396000818160eb0152818161023b01526103c401526114746000f3fe608060405234801561001057600080fd5b50600436106100be5760003560e01c80637cdde50611610076578063a2a870a91161005b578063a2a870a914610181578063ace1798e1461020f578063db5cb56e1461022257600080fd5b80637cdde506146101545780638da5cb5b1461017957600080fd5b80632fbea014116100a75780632fbea014146100e6578063452a93201461012557806361bcaf2d1461012d57600080fd5b80631be5c92f146100c357806325838f23146100de575b600080fd5b6100cb601281565b6040519081526020015b60405180910390f35b6100cb600081565b61010d7f000000000000000000000000000000000000000000000000000000000000000081565b6040516001600160a01b0390911681526020016100d5565b61010d610237565b6100cb7fb70656181007f487e392bf0d92e55358e9f0da5da6531c7c4ce7828aa11277fe81565b610167610162366004610e68565b6102c0565b6040516100d596959493929190610ea9565b61010d6103c0565b6101de61018f366004610e68565b6001602052600090815260409020546bffffffffffffffffffffffff81169063ffffffff6c01000000000000000000000000820481169170010000000000000000000000000000000090041683565b604080516bffffffffffffffffffffffff909416845263ffffffff92831660208501529116908201526060016100d5565b6100cb61021d366004610e68565b610420565b610235610230366004610f74565b610603565b005b60007f00000000000000000000000000000000000000000000000000000000000000006001600160a01b031663452a93206040518163ffffffff1660e01b8152600401602060405180830381865afa158015610297573d6000803e3d6000fd5b505050506040513d601f19601f820116820180604052508101906102bb9190611069565b905090565b6000602081905290815260409020805460018201546002830180546001600160a01b03808516957401000000000000000000000000000000000000000080870463ffffffff9081169778010000000000000000000000000000000000000000000000009004169592831694920460ff169290919061033d90611086565b80601f016020809104026020016040519081016040528092919081815260200182805461036990611086565b80156103b65780601f1061038b576101008083540402835291602001916103b6565b820191906000526020600020905b81548152906001019060200180831161039957829003601f168201915b5050505050905086565b60007f00000000000000000000000000000000000000000000000000000000000000006001600160a01b0316638da5cb5b6040518163ffffffff1660e01b8152600401602060405180830381865afa158015610297573d6000803e3d6000fd5b6001600160a01b0381166000908152600160209081526040808320815160608101835290546bffffffffffffffffffffffff8116825263ffffffff6c01000000000000000000000000820481169483019490945270010000000000000000000000000000000090049092169082018190524290036104ad57516bffffffffffffffffffffffff1692915050565b6001600160a01b038084166000908152602081905260408120805490926104d4911661089b565b6040805160c08101825284546001600160a01b03808216835263ffffffff7401000000000000000000000000000000000000000080840482166020860152780100000000000000000000000000000000000000000000000090930416938301939093526001860154928316606083015260ff92049190911660808201526002840180549293506105fa92889291869160a08401919061057290611086565b80601f016020809104026020016040519081016040528092919081815260200182805461059e90611086565b80156105eb5780601f106105c0576101008083540402835291602001916105eb565b820191906000526020600020905b8154815290600101906020018083116105ce57829003601f168201915b505050505081525050836108d5565b95945050505050565b61060b6103c0565b6001600160a01b0316336001600160a01b03161461068a576040517f08c379a000000000000000000000000000000000000000000000000000000000815260206004820152600a60248201527f4f6e6c79206f776e65720000000000000000000000000000000000000000000060448201526064015b60405180910390fd5b620151808163ffffffff1611156106cd576040517f8a03522c00000000000000000000000000000000000000000000000000000000815260040160405180910390fd5b8460006106d98261089b565b905060006040518060c00160405280846001600160a01b031681526020018360400151610705906110d6565b63ffffffff1681526020018563ffffffff168152602001886001600160a01b031681526020018760ff168152602001868152509050806000808b6001600160a01b03166001600160a01b0316815260200190815260200160002060008201518160000160006101000a8154816001600160a01b0302191690836001600160a01b0316021790555060208201518160000160146101000a81548163ffffffff021916908363ffffffff16021790555060408201518160000160186101000a81548163ffffffff021916908363ffffffff16021790555060608201518160010160006101000a8154816001600160a01b0302191690836001600160a01b0316021790555060808201518160010160146101000a81548160ff021916908360ff16021790555060a082015181600201908161083d9190611163565b5090505061084c8982846108d5565b50604080516001600160a01b03808c1682528a1660208201527fd47c7275e633726e4e34f435fd883a2c6bbc8b65a35278390d2ee37075651400910160405180910390a1505050505050505050565b6040805160a0810182526000808252602082018190529181018290526060810182905260808101919091526108cf82610a00565b92915050565b60006108e082610b08565b610921576040517f4ac9ca340000000000000000000000000000000000000000000000000000000081526001600160a01b0385166004820152602401610681565b6109398260600151846040015163ffffffff16610b13565b1561097b576040517f77d682da0000000000000000000000000000000000000000000000000000000081526001600160a01b0385166004820152602401610681565b602083015182516000906109959063ffffffff8416610b31565b60608601519091506001600160a01b0316156109e6576109b76012600a611307565b816109cf87606001518860a001518960800151610bb0565b6109d99190611313565b6109e3919061132a565b90505b6109f586828660600151610d02565b9150505b9392505050565b6040805160a08101825260008082526020820181905281830181905260608201819052608082015290517f96834ad30000000000000000000000000000000000000000000000000000000081527fb70656181007f487e392bf0d92e55358e9f0da5da6531c7c4ce7828aa11277fe60048201526001600160a01b038316906396834ad390602401608060405180830381865afa925050508015610ac0575060408051601f3d908101601f19168201909252610abd9181019061134c565b60015b610ac957919050565b805160070b825260208082015167ffffffffffffffff169083015260408082015160030b9083015260609081015190820152600160808201525b919050565b60006108cf82610e14565b6000610b1f81836113e3565b610b2984426113f6565b119392505050565b600060128203610b4c575067ffffffffffffffff82166108cf565b6012821015610b8657610b608260126113f6565b610b6b90600a611307565b610b7f9067ffffffffffffffff8516611313565b90506108cf565b610b916012836113f6565b610b9c90600a611307565b610b7f9067ffffffffffffffff851661132a565b6000806000856001600160a01b031685604051610bcd9190611409565b600060405180830381855afa9150503d8060008114610c08576040519150601f19603f3d011682016040523d82523d6000602084013e610c0d565b606091505b509150915081610c79576040517f08c379a000000000000000000000000000000000000000000000000000000000815260206004820152601460248201527f63616c6c2065786368616e6765206661696c65640000000000000000000000006044820152606401610681565b600081806020019051810190610c8f9190611425565b905060128560ff1603610ca65792506109f9915050565b60128560ff161015610cdf57610cc060ff861660126113f6565b610ccb90600a611307565b610cd59082611313565b93505050506109f9565b610ced601260ff87166113f6565b610cf890600a611307565b610cd5908261132a565b604080516060810182526bffffffffffffffffffffffff808516825263ffffffff80851660208085019182524283168587019081526001600160a01b038a16600081815260019093529187902095518654935191518516700100000000000000000000000000000000027fffffffffffffffffffffffff00000000ffffffffffffffffffffffffffffffff929095166c01000000000000000000000000027fffffffffffffffffffffffffffffffff0000000000000000000000000000000090941695169490941791909117929092161790915590517f07529ee41a2aab62dbd5cc22c9f45bd6db300404e0a697d2e80349b69ca3087e90610e079085815260200190565b60405180910390a2505050565b600081608001518015610e2b575060008260600151115b8015610e3b575042826060015111155b80156108cf57505051600060079190910b1390565b6001600160a01b0381168114610e6557600080fd5b50565b600060208284031215610e7a57600080fd5b81356109f981610e50565b60005b83811015610ea0578181015183820152602001610e88565b50506000910152565b60006001600160a01b03808916835263ffffffff808916602085015280881660408501525080861660608401525060ff8416608083015260c060a083015282518060c0840152610f008160e0850160208701610e85565b601f01601f19169190910160e001979650505050505050565b634e487b7160e01b600052604160045260246000fd5b604051601f8201601f1916810167ffffffffffffffff81118282101715610f5857610f58610f19565b604052919050565b803563ffffffff81168114610b0357600080fd5b60008060008060008060c08789031215610f8d57600080fd5b8635610f9881610e50565b9550602087810135610fa981610e50565b95506040880135610fb981610e50565b9450606088013560ff81168114610fcf57600080fd5b9350608088013567ffffffffffffffff80821115610fec57600080fd5b818a0191508a601f83011261100057600080fd5b81358181111561101257611012610f19565b61102484601f19601f84011601610f2f565b91508082528b8482850101111561103a57600080fd5b808484018584013760008482840101525080945050505061105d60a08801610f60565b90509295509295509295565b60006020828403121561107b57600080fd5b81516109f981610e50565b600181811c9082168061109a57607f821691505b6020821081036110ba57634e487b7160e01b600052602260045260246000fd5b50919050565b634e487b7160e01b600052601160045260246000fd5b60008160030b7fffffffffffffffffffffffffffffffffffffffffffffffffffffffff80000000810361110b5761110b6110c0565b60000392915050565b601f82111561115e57600081815260208120601f850160051c8101602086101561113b5750805b601f850160051c820191505b8181101561115a57828155600101611147565b5050505b505050565b815167ffffffffffffffff81111561117d5761117d610f19565b6111918161118b8454611086565b84611114565b602080601f8311600181146111c657600084156111ae5750858301515b600019600386901b1c1916600185901b17855561115a565b600085815260208120601f198616915b828110156111f5578886015182559484019460019091019084016111d6565b50858210156112135787850151600019600388901b60f8161c191681555b5050505050600190811b01905550565b600181815b8085111561125e578160001904821115611244576112446110c0565b8085161561125157918102915b93841c9390800290611228565b509250929050565b600082611275575060016108cf565b81611282575060006108cf565b816001811461129857600281146112a2576112be565b60019150506108cf565b60ff8411156112b3576112b36110c0565b50506001821b6108cf565b5060208310610133831016604e8410600b84101617156112e1575081810a6108cf565b6112eb8383611223565b80600019048211156112ff576112ff6110c0565b029392505050565b60006109f98383611266565b80820281158282048414176108cf576108cf6110c0565b60008261134757634e487b7160e01b600052601260045260246000fd5b500490565b60006080828403121561135e57600080fd5b6040516080810167ffffffffffffffff828210818311171561138257611382610f19565b81604052845191508160070b821461139957600080fd5b90825260208401519080821682146113b057600080fd5b5060208201526040830151600381900b81146113cb57600080fd5b60408201526060928301519281019290925250919050565b808201808211156108cf576108cf6110c0565b818103818111156108cf576108cf6110c0565b6000825161141b818460208701610e85565b9190910192915050565b60006020828403121561143757600080fd5b505191905056fea26469706673582212204345b329ded7bcebd6816a5e2143398e5845ea11ea33777e7020db52d5c314d664736f6c63430008130033",
  "devdoc": {
    "kind": "dev",
    "methods": {
      "fetchPrice(address)": {
        "details": "You can obtain these values by calling `TroveManager.fetchPrice()` rather than directly interacting with this contract.",
        "params": {
          "_token": "Token to fetch the price for"
        },
        "returns": {
          "_0": "The latest valid price for the requested token"
        }
      },
      "setOracle(address,address,address,uint8,bytes,uint32)": {
        "params": {
          "_heartbeat": "Oracle heartbeat, in seconds",
          "_pyth": "Address of the pyth oracle for this LST",
          "_token": "Address of the LST to set the oracle for"
        }
      }
    },
    "title": "Zebra Multi Token Price Feed",
    "version": 1
  },
  "userdoc": {
    "kind": "user",
    "methods": {
      "TARGET_DIGITS()": {
        "notice": "Constants ---------------------------------------------------------------------------------------------------- "
      },
      "fetchPrice(address)": {
        "notice": "Get the latest price returned from the oracle"
      },
      "setOracle(address,address,address,uint8,bytes,uint32)": {
        "notice": "Set the oracle for a specific token"
      }
    },
    "notice": "Based on Gravita's PriceFeed: https://github.com/Gravita-Protocol/Gravita-SmartContracts/blob/9b69d555f3567622b0f84df8c7f1bb5cd9323573/contracts/PriceFeed.sol Zebra's implementation additionally caches price values within a block and incorporates exchange rate settings for derivative tokens",
    "version": 1
  },
  "storageLayout": {
    "storage": [
      {
        "astId": 15086,
        "contract": "contracts/core/PriceFeed.sol:PriceFeed",
        "label": "oracleRecords",
        "offset": 0,
        "slot": "0",
        "type": "t_mapping(t_address,t_struct(OracleRecord)15023_storage)"
      },
      {
        "astId": 15091,
        "contract": "contracts/core/PriceFeed.sol:PriceFeed",
        "label": "priceRecords",
        "offset": 0,
        "slot": "1",
        "type": "t_mapping(t_address,t_struct(PriceRecord)15030_storage)"
      }
    ],
    "types": {
      "t_address": {
        "encoding": "inplace",
        "label": "address",
        "numberOfBytes": "20"
      },
      "t_bytes_storage": {
        "encoding": "bytes",
        "label": "bytes",
        "numberOfBytes": "32"
      },
      "t_contract(IPyth)36723": {
        "encoding": "inplace",
        "label": "contract IPyth",
        "numberOfBytes": "20"
      },
      "t_mapping(t_address,t_struct(OracleRecord)15023_storage)": {
        "encoding": "mapping",
        "key": "t_address",
        "label": "mapping(address => struct PriceFeed.OracleRecord)",
        "numberOfBytes": "32",
        "value": "t_struct(OracleRecord)15023_storage"
      },
      "t_mapping(t_address,t_struct(PriceRecord)15030_storage)": {
        "encoding": "mapping",
        "key": "t_address",
        "label": "mapping(address => struct PriceFeed.PriceRecord)",
        "numberOfBytes": "32",
        "value": "t_struct(PriceRecord)15030_storage"
      },
      "t_struct(OracleRecord)15023_storage": {
        "encoding": "inplace",
        "label": "struct PriceFeed.OracleRecord",
        "members": [
          {
            "astId": 15012,
            "contract": "contracts/core/PriceFeed.sol:PriceFeed",
            "label": "pyth",
            "offset": 0,
            "slot": "0",
            "type": "t_contract(IPyth)36723"
          },
          {
            "astId": 15014,
            "contract": "contracts/core/PriceFeed.sol:PriceFeed",
            "label": "decimals",
            "offset": 20,
            "slot": "0",
            "type": "t_uint32"
          },
          {
            "astId": 15016,
            "contract": "contracts/core/PriceFeed.sol:PriceFeed",
            "label": "heartbeat",
            "offset": 24,
            "slot": "0",
            "type": "t_uint32"
          },
          {
            "astId": 15018,
            "contract": "contracts/core/PriceFeed.sol:PriceFeed",
            "label": "exchangeTarget",
            "offset": 0,
            "slot": "1",
            "type": "t_address"
          },
          {
            "astId": 15020,
            "contract": "contracts/core/PriceFeed.sol:PriceFeed",
            "label": "exchangeDecimals",
            "offset": 20,
            "slot": "1",
            "type": "t_uint8"
          },
          {
            "astId": 15022,
            "contract": "contracts/core/PriceFeed.sol:PriceFeed",
            "label": "exchangeRateDataWithSig",
            "offset": 0,
            "slot": "2",
            "type": "t_bytes_storage"
          }
        ],
        "numberOfBytes": "96"
      },
      "t_struct(PriceRecord)15030_storage": {
        "encoding": "inplace",
        "label": "struct PriceFeed.PriceRecord",
        "members": [
          {
            "astId": 15025,
            "contract": "contracts/core/PriceFeed.sol:PriceFeed",
            "label": "scaledPrice",
            "offset": 0,
            "slot": "0",
            "type": "t_uint96"
          },
          {
            "astId": 15027,
            "contract": "contracts/core/PriceFeed.sol:PriceFeed",
            "label": "timestamp",
            "offset": 12,
            "slot": "0",
            "type": "t_uint32"
          },
          {
            "astId": 15029,
            "contract": "contracts/core/PriceFeed.sol:PriceFeed",
            "label": "lastUpdated",
            "offset": 16,
            "slot": "0",
            "type": "t_uint32"
          }
        ],
        "numberOfBytes": "32"
      },
      "t_uint32": {
        "encoding": "inplace",
        "label": "uint32",
        "numberOfBytes": "4"
      },
      "t_uint8": {
        "encoding": "inplace",
        "label": "uint8",
        "numberOfBytes": "1"
      },
      "t_uint96": {
        "encoding": "inplace",
        "label": "uint96",
        "numberOfBytes": "12"
      }
    }
  }
}