{
  "address": "0xc5ED6Bd52c5Fb9C716Ef6Caf6a35b4f4B858bab5",
  "abi": [
    {
      "inputs": [
        {
          "internalType": "contract IFactory",
          "name": "_factory",
          "type": "address"
        }
      ],
      "stateMutability": "nonpayable",
      "type": "constructor"
    },
    {
      "inputs": [],
      "name": "factory",
      "outputs": [
        {
          "internalType": "contract IFactory",
          "name": "",
          "type": "address"
        }
      ],
      "stateMutability": "view",
      "type": "function"
    },
    {
      "inputs": [
        {
          "internalType": "address",
          "name": "account",
          "type": "address"
        }
      ],
      "name": "getActiveTroveManagersForAccount",
      "outputs": [
        {
          "internalType": "address[]",
          "name": "",
          "type": "address[]"
        }
      ],
      "stateMutability": "view",
      "type": "function"
    },
    {
      "inputs": [],
      "name": "getAllCollateralsAndTroveManagers",
      "outputs": [
        {
          "components": [
            {
              "internalType": "contract IERC20",
              "name": "collateral",
              "type": "address"
            },
            {
              "internalType": "address[]",
              "name": "troveManagers",
              "type": "address[]"
            }
          ],
          "internalType": "struct TroveManagerGetters.Collateral[]",
          "name": "",
          "type": "tuple[]"
        }
      ],
      "stateMutability": "view",
      "type": "function"
    }
  ],
  "transactionHash": "0xad6735e97212ef02ed3c5ba9fc5ded748ab4e4861d0ddac230689aeedb1823c7",
  "args": [
    "0xa99Da54fCa0Fe561a0233D05D0Af022D9703DB6A"
  ],
  "numDeployments": 1,
  "solcInputHash": "b91301f1a84b6c2e358640cd7d231682",
  "bytecode": "0x60a060405234801561001057600080fd5b50604051610c71380380610c7183398101604081905261002f91610040565b6001600160a01b0316608052610070565b60006020828403121561005257600080fd5b81516001600160a01b038116811461006957600080fd5b9392505050565b608051610bcc6100a56000396000818160690152818160c9015281816102270152818161071b01526108220152610bcc6000f3fe608060405234801561001057600080fd5b50600436106100415760003560e01c8063a8ea80f714610046578063c45a015514610064578063d5df056e146100a3575b600080fd5b61004e6100c3565b60405161005b9190610998565b60405180910390f35b61008b7f000000000000000000000000000000000000000000000000000000000000000081565b6040516001600160a01b03909116815260200161005b565b6100b66100b1366004610a7d565b610715565b60405161005b9190610aa1565b606060007f00000000000000000000000000000000000000000000000000000000000000006001600160a01b031663679df0d96040518163ffffffff1660e01b8152600401602060405180830381865afa158015610125573d6000803e3d6000fd5b505050506040513d601f19601f820116820180604052508101906101499190610aee565b905060008167ffffffffffffffff81111561016657610166610b07565b60405190808252806020026020018201604052801561019f57816020015b61018c61097a565b8152602001906001900390816101845790505b50905060008267ffffffffffffffff8111156101bd576101bd610b07565b6040519080825280602002602001820160405280156101e6578160200160208202803683370190505b5090506000805b8481101561042e576040517f3b707478000000000000000000000000000000000000000000000000000000008152600481018290526000907f00000000000000000000000000000000000000000000000000000000000000006001600160a01b031690633b70747890602401602060405180830381865afa158015610276573d6000803e3d6000fd5b505050506040513d601f19601f8201168201806040525081019061029a9190610b1d565b90506000816001600160a01b031663b2016bd46040518163ffffffff1660e01b8152600401602060405180830381865afa1580156102dc573d6000803e3d6000fd5b505050506040513d601f19601f820116820180604052508101906103009190610b1d565b90506040518060400160405280836001600160a01b03166001600160a01b03168152602001826001600160a01b03166001600160a01b031681525086848151811061034d5761034d610b3a565b602002602001018190525060005b8781101561041857816001600160a01b031686828151811061037f5761037f610b3a565b60200260200101516001600160a01b031603156104185760006001600160a01b03168682815181106103b3576103b3610b3a565b60200260200101516001600160a01b03160361040657818682815181106103dc576103dc610b3a565b6001600160a01b0390921660209283029190910190910152846103fe81610b50565b955050610418565b8061041081610b50565b91505061035b565b505050808061042690610b50565b9150506101ed565b5060008167ffffffffffffffff81111561044a5761044a610b07565b60405190808252806020026020018201604052801561049057816020015b6040805180820190915260008152606060208201528152602001906001900390816104685790505b50905060005b8281101561070b578381815181106104b0576104b0610b3a565b60200260200101518282815181106104ca576104ca610b3a565b60209081029190910101516001600160a01b0390911690526000808767ffffffffffffffff8111156104fe576104fe610b07565b604051908082528060200260200182016040528015610527578160200160208202803683370190505b50905060005b888110156106125786848151811061054757610547610b3a565b60200260200101516001600160a01b031688828151811061056a5761056a610b3a565b602002602001015160016002811061058457610584610b3a565b60200201516001600160a01b031603610600578781815181106105a9576105a9610b3a565b60200260200101516000600281106105c3576105c3610b3a565b60200201518284815181106105da576105da610b3a565b6001600160a01b0390921660209283029190910190910152826105fc81610b50565b9350505b8061060a81610b50565b91505061052d565b508167ffffffffffffffff81111561062c5761062c610b07565b604051908082528060200260200182016040528015610655578160200160208202803683370190505b5084848151811061066857610668610b3a565b60200260200101516020018190525060005b828110156106f55781818151811061069457610694610b3a565b60200260200101518585815181106106ae576106ae610b3a565b60200260200101516020015182815181106106cb576106cb610b3a565b6001600160a01b0390921660209283029190910190910152806106ed81610b50565b91505061067a565b505050808061070390610b50565b915050610496565b5095945050505050565b606060007f00000000000000000000000000000000000000000000000000000000000000006001600160a01b031663679df0d96040518163ffffffff1660e01b8152600401602060405180830381865afa158015610777573d6000803e3d6000fd5b505050506040513d601f19601f8201168201806040525081019061079b9190610aee565b905060008167ffffffffffffffff8111156107b8576107b8610b07565b6040519080825280602002602001820160405280156107e1578160200160208202803683370190505b5090506000805b83811015610970576040517f3b707478000000000000000000000000000000000000000000000000000000008152600481018290526000907f00000000000000000000000000000000000000000000000000000000000000006001600160a01b031690633b70747890602401602060405180830381865afa158015610871573d6000803e3d6000fd5b505050506040513d601f19601f820116820180604052508101906108959190610b1d565b6040517f21e378010000000000000000000000000000000000000000000000000000000081526001600160a01b0389811660048301529192506000918316906321e3780190602401602060405180830381865afa1580156108fa573d6000803e3d6000fd5b505050506040513d601f19601f8201168201806040525081019061091e9190610aee565b111561095d578084848151811061093757610937610b3a565b6001600160a01b03909216602092830291909101909101528261095981610b50565b9350505b508061096881610b50565b9150506107e8565b5081529392505050565b60405180604001604052806002906020820280368337509192915050565b60006020808301818452808551808352604092508286019150828160051b8701018488016000805b84811015610a56578984037fffffffffffffffffffffffffffffffffffffffffffffffffffffffffffffffc0018652825180516001600160a01b039081168652908901518986018990528051898701819052908a0191849160608801905b80841015610a4057845183168252938c019360019390930192908c0190610a1e565b50988b01989650505092880192506001016109c0565b50919998505050505050505050565b6001600160a01b0381168114610a7a57600080fd5b50565b600060208284031215610a8f57600080fd5b8135610a9a81610a65565b9392505050565b6020808252825182820181905260009190848201906040850190845b81811015610ae25783516001600160a01b031683529284019291840191600101610abd565b50909695505050505050565b600060208284031215610b0057600080fd5b5051919050565b634e487b7160e01b600052604160045260246000fd5b600060208284031215610b2f57600080fd5b8151610a9a81610a65565b634e487b7160e01b600052603260045260246000fd5b60007fffffffffffffffffffffffffffffffffffffffffffffffffffffffffffffffff8203610b8f57634e487b7160e01b600052601160045260246000fd5b506001019056fea2646970667358221220a323efc10b1c8eb43b9634eaa75fc641815e4ba6a9780baa11579181e49af92264736f6c63430008130033",
  "devdoc": {
    "kind": "dev",
    "methods": {},
    "version": 1
  },
  "userdoc": {
    "kind": "user",
    "methods": {
      "getActiveTroveManagersForAccount(address)": {
        "notice": "Returns a list of trove managers where `account` has an existing trove"
      },
      "getAllCollateralsAndTroveManagers()": {
        "notice": "Returns all active system trove managers and collaterals, as an `       array of tuples of [(collateral, [troveManager, ...]), ...]"
      }
    },
    "version": 1
  },
  "storageLayout": {
    "storage": [],
    "types": null
  }
}