{
  "address": "0x6fD4Bc528A83726Fb2664F133394aB86417D307F",
  "abi": [
    {
      "anonymous": false,
      "inputs": [
        {
          "indexed": false,
          "internalType": "address",
          "name": "account",
          "type": "address"
        },
        {
          "indexed": false,
          "internalType": "uint256",
          "name": "id",
          "type": "uint256"
        },
        {
          "indexed": false,
          "internalType": "uint256",
          "name": "amount",
          "type": "uint256"
        }
      ],
      "name": "Claimed",
      "type": "event"
    },
    {
      "anonymous": false,
      "inputs": [
        {
          "indexed": false,
          "internalType": "uint8",
          "name": "version",
          "type": "uint8"
        }
      ],
      "name": "Initialized",
      "type": "event"
    },
    {
      "anonymous": false,
      "inputs": [
        {
          "indexed": false,
          "internalType": "address",
          "name": "account",
          "type": "address"
        },
        {
          "indexed": false,
          "internalType": "uint256",
          "name": "id",
          "type": "uint256"
        },
        {
          "indexed": false,
          "internalType": "uint256",
          "name": "amount",
          "type": "uint256"
        }
      ],
      "name": "Staked",
      "type": "event"
    },
    {
      "inputs": [],
      "name": "Zebra",
      "outputs": [
        {
          "internalType": "contract IZebra",
          "name": "",
          "type": "address"
        }
      ],
      "stateMutability": "view",
      "type": "function"
    },
    {
      "inputs": [],
      "name": "ZebraCore",
      "outputs": [
        {
          "internalType": "contract IZebraCore",
          "name": "",
          "type": "address"
        }
      ],
      "stateMutability": "view",
      "type": "function"
    },
    {
      "inputs": [
        {
          "internalType": "address",
          "name": "account",
          "type": "address"
        },
        {
          "internalType": "uint256[]",
          "name": "ids",
          "type": "uint256[]"
        }
      ],
      "name": "batchEarned",
      "outputs": [
        {
          "internalType": "uint256[]",
          "name": "earneds",
          "type": "uint256[]"
        }
      ],
      "stateMutability": "view",
      "type": "function"
    },
    {
      "inputs": [
        {
          "internalType": "uint256",
          "name": "id",
          "type": "uint256"
        }
      ],
      "name": "claim",
      "outputs": [],
      "stateMutability": "nonpayable",
      "type": "function"
    },
    {
      "inputs": [
        {
          "internalType": "uint256[]",
          "name": "ids",
          "type": "uint256[]"
        }
      ],
      "name": "claimAll",
      "outputs": [],
      "stateMutability": "nonpayable",
      "type": "function"
    },
    {
      "inputs": [],
      "name": "cliffTime",
      "outputs": [
        {
          "internalType": "uint64",
          "name": "",
          "type": "uint64"
        }
      ],
      "stateMutability": "view",
      "type": "function"
    },
    {
      "inputs": [
        {
          "internalType": "address",
          "name": "",
          "type": "address"
        }
      ],
      "name": "currentIds",
      "outputs": [
        {
          "internalType": "uint256",
          "name": "",
          "type": "uint256"
        }
      ],
      "stateMutability": "view",
      "type": "function"
    },
    {
      "inputs": [
        {
          "internalType": "address",
          "name": "account",
          "type": "address"
        },
        {
          "internalType": "uint256",
          "name": "id",
          "type": "uint256"
        }
      ],
      "name": "earned",
      "outputs": [
        {
          "internalType": "uint256",
          "name": "",
          "type": "uint256"
        }
      ],
      "stateMutability": "view",
      "type": "function"
    },
    {
      "inputs": [],
      "name": "esZebra",
      "outputs": [
        {
          "internalType": "contract IEsZebra",
          "name": "",
          "type": "address"
        }
      ],
      "stateMutability": "view",
      "type": "function"
    },
    {
      "inputs": [],
      "name": "guardian",
      "outputs": [
        {
          "internalType": "address",
          "name": "",
          "type": "address"
        }
      ],
      "stateMutability": "view",
      "type": "function"
    },
    {
      "inputs": [
        {
          "internalType": "contract IZebraCore",
          "name": "_ZebraCore",
          "type": "address"
        },
        {
          "internalType": "contract IZebra",
          "name": "_Zebra",
          "type": "address"
        },
        {
          "internalType": "contract IEsZebra",
          "name": "_esZebra",
          "type": "address"
        }
      ],
      "name": "initialize",
      "outputs": [],
      "stateMutability": "nonpayable",
      "type": "function"
    },
    {
      "inputs": [],
      "name": "minDeposits",
      "outputs": [
        {
          "internalType": "uint64",
          "name": "",
          "type": "uint64"
        }
      ],
      "stateMutability": "view",
      "type": "function"
    },
    {
      "inputs": [
        {
          "internalType": "address",
          "name": "",
          "type": "address"
        },
        {
          "internalType": "uint256",
          "name": "",
          "type": "uint256"
        }
      ],
      "name": "orderInfos",
      "outputs": [
        {
          "internalType": "uint64",
          "name": "start",
          "type": "uint64"
        },
        {
          "internalType": "uint64",
          "name": "cliffEnd",
          "type": "uint64"
        },
        {
          "internalType": "uint64",
          "name": "releaseEnd",
          "type": "uint64"
        },
        {
          "internalType": "uint64",
          "name": "released",
          "type": "uint64"
        },
        {
          "internalType": "uint256",
          "name": "amount",
          "type": "uint256"
        }
      ],
      "stateMutability": "view",
      "type": "function"
    },
    {
      "inputs": [],
      "name": "owner",
      "outputs": [
        {
          "internalType": "address",
          "name": "",
          "type": "address"
        }
      ],
      "stateMutability": "view",
      "type": "function"
    },
    {
      "inputs": [],
      "name": "releaseTime",
      "outputs": [
        {
          "internalType": "uint64",
          "name": "",
          "type": "uint64"
        }
      ],
      "stateMutability": "view",
      "type": "function"
    },
    {
      "inputs": [
        {
          "internalType": "uint256",
          "name": "amount",
          "type": "uint256"
        }
      ],
      "name": "stake",
      "outputs": [],
      "stateMutability": "nonpayable",
      "type": "function"
    },
    {
      "inputs": [
        {
          "internalType": "address",
          "name": "account",
          "type": "address"
        },
        {
          "internalType": "uint256",
          "name": "id",
          "type": "uint256"
        }
      ],
      "name": "stateOf",
      "outputs": [
        {
          "internalType": "enum Vest.State",
          "name": "",
          "type": "uint8"
        }
      ],
      "stateMutability": "view",
      "type": "function"
    },
    {
      "inputs": [
        {
          "internalType": "address",
          "name": "account",
          "type": "address"
        },
        {
          "internalType": "uint256[]",
          "name": "ids",
          "type": "uint256[]"
        }
      ],
      "name": "totalEarned",
      "outputs": [
        {
          "internalType": "uint256",
          "name": "total",
          "type": "uint256"
        }
      ],
      "stateMutability": "view",
      "type": "function"
    }
  ],
  "transactionHash": "0xcfa5c5e092505e5c8efbf10d11bb1b46dcaed49234f5e91593eca898424c4245",
  "args": [],
  "numDeployments": 1,
  "solcInputHash": "b91301f1a84b6c2e358640cd7d231682",
  "bytecode": "0x608060405234801561001057600080fd5b50611bd8806100206000396000f3fe608060405234801561001057600080fd5b50600436106101365760003560e01c80638da5cb5b116100b2578063c0c53b8b11610081578063cf888ec311610066578063cf888ec31461035c578063d30fa0051461037c578063e311455f1461038f57600080fd5b8063c0c53b8b14610329578063cd23bcf61461033c57600080fd5b80638da5cb5b146102da578063a694fc3a146102e2578063b4bb2285146102f5578063b91d40011461031557600080fd5b80633e491d471161010957806360a1cbd7116100ee57806360a1cbd71461020757806363c18396146102a757806381a94573146102ba57600080fd5b80633e491d47146101de578063452a9320146101ff57600080fd5b80630f1a64441461013b57806328c77820146101855780632fbea0141461019a578063379607f5146101cb575b600080fd5b6002546101679074010000000000000000000000000000000000000000900467ffffffffffffffff1681565b60405167ffffffffffffffff90911681526020015b60405180910390f35b6101986101933660046118c6565b6103a2565b005b6000546101b3906201000090046001600160a01b031681565b6040516001600160a01b03909116815260200161017c565b6101986101d9366004611903565b610889565b6101f16101ec366004611934565b610d95565b60405190815260200161017c565b6101b3611023565b61026b610215366004611934565b60056020908152600092835260408084209091529082529020805460019091015467ffffffffffffffff80831692680100000000000000008104821692600160801b8204831692600160c01b9092049091169085565b6040805167ffffffffffffffff96871681529486166020860152928516928401929092529092166060820152608081019190915260a00161017c565b6001546101b3906001600160a01b031681565b6003546101679068010000000000000000900467ffffffffffffffff1681565b6101b36110a0565b6101986102f0366004611903565b6110f4565b6101f1610303366004611960565b60046020526000908152604090205481565b6003546101679067ffffffffffffffff1681565b610198610337366004611984565b6113e4565b61034f61034a3660046119cf565b61160c565b60405161017c9190611a1f565b61036f61036a366004611934565b6116b9565b60405161017c9190611a79565b6101f161038a3660046119cf565b6117b6565b6002546101b3906001600160a01b031681565b3360005b82518110156108845760008382815181106103c3576103c3611aa1565b6020026020010151905060046000846001600160a01b03166001600160a01b031681526020019081526020016000205481106104465760405162461bcd60e51b815260206004820152601060248201527f566573743a20696e76616c69642069640000000000000000000000000000000060448201526064015b60405180910390fd5b600061045284836116b9565b6001600160a01b0385166000908152600560209081526040808320868452909152812054919250906104a39067ffffffffffffffff680100000000000000008204811691600160801b900416611acd565b6001600160a01b038616600090815260056020908152604080832087845290915290205490915067ffffffffffffffff808316600160c01b90920416036104ec57505050610872565b600082600281111561050057610500611a63565b0361050d57505050610872565b600182600281111561052157610521611a63565b036106df576001600160a01b038516600090815260056020908152604080832086845290915281205461056a9068010000000000000000900467ffffffffffffffff1642611aee565b6001600160a01b0387166000908152600560209081526040808320888452909152812060018101549054929350909167ffffffffffffffff85811692916105ba91600160c01b9091041685611acd565b67ffffffffffffffff166105ce9190611b01565b6105d89190611b18565b6001600160a01b0388811660008181526005602090815260408083208b845290915290819020805477ffffffffffffffffffffffffffffffffffffffffffffffff16600160c01b67ffffffffffffffff8916021790556002549051636d75007760e01b8152600481019290925260248201849052929350911690636d75007790604401600060405180830381600087803b15801561067557600080fd5b505af1158015610689573d6000803e3d6000fd5b5050604080516001600160a01b038b168152602081018990529081018490527f987d620f307ff6b94d58743cb7a7509f24071586a77759b77c2d4e29f75a2f9a9250606001905060405180910390a1505061086e565b6001600160a01b038516600090815260056020908152604080832086845290915281205461071e90600160c01b900467ffffffffffffffff1683611acd565b6001600160a01b03871660009081526005602090815260408083208884529091528120600101549192509067ffffffffffffffff80851691610761918516611b01565b61076b9190611b18565b6001600160a01b0388811660008181526005602090815260408083208b845290915290819020805477ffffffffffffffffffffffffffffffffffffffffffffffff16600160c01b67ffffffffffffffff8a16021790556002549051636d75007760e01b8152600481019290925260248201849052929350911690636d75007790604401600060405180830381600087803b15801561080857600080fd5b505af115801561081c573d6000803e3d6000fd5b5050604080516001600160a01b038b168152602081018990529081018490527f987d620f307ff6b94d58743cb7a7509f24071586a77759b77c2d4e29f75a2f9a9250606001905060405180910390a150505b5050505b8061087c81611b3a565b9150506103a6565b505050565b3360008181526004602052604090205482106108e75760405162461bcd60e51b815260206004820152601060248201527f566573743a20696e76616c696420696400000000000000000000000000000000604482015260640161043d565b60006108f382846116b9565b6001600160a01b0383166000908152600560209081526040808320878452909152812054919250906109449067ffffffffffffffff680100000000000000008204811691600160801b900416611acd565b6001600160a01b038416600090815260056020908152604080832088845290915290205490915067ffffffffffffffff808316600160c01b90920416106109cd5760405162461bcd60e51b815260206004820152601360248201527f566573743a206f7264657220636c61696d656400000000000000000000000000604482015260640161043d565b60008260028111156109e1576109e1611a63565b03610a2e5760405162461bcd60e51b815260206004820152600e60248201527f566573743a20696e20636c696666000000000000000000000000000000000000604482015260640161043d565b6001826002811115610a4257610a42611a63565b03610c00576001600160a01b0383166000908152600560209081526040808320878452909152812054610a8b9068010000000000000000900467ffffffffffffffff1642611aee565b6001600160a01b0385166000908152600560209081526040808320898452909152812060018101549054929350909167ffffffffffffffff8581169291610adb91600160c01b9091041685611acd565b67ffffffffffffffff16610aef9190611b01565b610af99190611b18565b6001600160a01b0386811660008181526005602090815260408083208c845290915290819020805477ffffffffffffffffffffffffffffffffffffffffffffffff16600160c01b67ffffffffffffffff8916021790556002549051636d75007760e01b8152600481019290925260248201849052929350911690636d75007790604401600060405180830381600087803b158015610b9657600080fd5b505af1158015610baa573d6000803e3d6000fd5b5050604080516001600160a01b0389168152602081018a90529081018490527f987d620f307ff6b94d58743cb7a7509f24071586a77759b77c2d4e29f75a2f9a9250606001905060405180910390a15050610d8f565b6001600160a01b0383166000908152600560209081526040808320878452909152812054610c3f90600160c01b900467ffffffffffffffff1683611acd565b6001600160a01b03851660009081526005602090815260408083208984529091528120600101549192509067ffffffffffffffff80851691610c82918516611b01565b610c8c9190611b18565b6001600160a01b0386811660008181526005602090815260408083208c845290915290819020805477ffffffffffffffffffffffffffffffffffffffffffffffff16600160c01b67ffffffffffffffff8a16021790556002549051636d75007760e01b8152600481019290925260248201849052929350911690636d75007790604401600060405180830381600087803b158015610d2957600080fd5b505af1158015610d3d573d6000803e3d6000fd5b5050604080516001600160a01b0389168152602081018a90529081018490527f987d620f307ff6b94d58743cb7a7509f24071586a77759b77c2d4e29f75a2f9a9250606001905060405180910390a150505b50505050565b6001600160a01b0382166000908152600460205260408120548210610dfc5760405162461bcd60e51b815260206004820152601060248201527f566573743a20696e76616c696420696400000000000000000000000000000000604482015260640161043d565b6000610e0884846116b9565b6001600160a01b038516600090815260056020908152604080832087845290915281205491925090610e599067ffffffffffffffff680100000000000000008204811691600160801b900416611acd565b6001600160a01b038616600090815260056020908152604080832088845290915290205490915067ffffffffffffffff600160c01b909104811690821603610ea65760009250505061101d565b6000826002811115610eba57610eba611a63565b03610eca5760009250505061101d565b6001826002811115610ede57610ede611a63565b03610f9c576001600160a01b0385166000908152600560209081526040808320878452909152812054610f279068010000000000000000900467ffffffffffffffff1642611aee565b6001600160a01b038716600090815260056020908152604080832089845290915290206001810154905491925067ffffffffffffffff84811692610f7491600160c01b9091041684611acd565b67ffffffffffffffff16610f889190611b01565b610f929190611b18565b935050505061101d565b6001600160a01b0385166000908152600560209081526040808320878452909152812054610fdb90600160c01b900467ffffffffffffffff1683611acd565b6001600160a01b038716600090815260056020908152604080832089845290915290206001015490915067ffffffffffffffff80841691610f88918416611b01565b92915050565b60008060029054906101000a90046001600160a01b03166001600160a01b031663452a93206040518163ffffffff1660e01b8152600401602060405180830381865afa158015611077573d6000803e3d6000fd5b505050506040513d601f19601f8201168201806040525081019061109b9190611b72565b905090565b60008060029054906101000a90046001600160a01b03166001600160a01b0316638da5cb5b6040518163ffffffff1660e01b8152600401602060405180830381865afa158015611077573d6000803e3d6000fd5b60035468010000000000000000900467ffffffffffffffff168110156111825760405162461bcd60e51b815260206004820152602260248201527f566573743a20746f6f206c6974746c65206465706f7369747320746f2073746160448201527f6b65000000000000000000000000000000000000000000000000000000000000606482015260840161043d565b6001546040517f412664ae000000000000000000000000000000000000000000000000000000008152336004820181905260248201849052916001600160a01b03169063412664ae90604401600060405180830381600087803b1580156111e857600080fd5b505af11580156111fc573d6000803e3d6000fd5b505050506001600160a01b03811660009081526004602052604081208054908261122583611b3a565b9190505590506040518060a001604052804267ffffffffffffffff168152602001600260149054906101000a900467ffffffffffffffff1667ffffffffffffffff16426112729190611b8f565b67ffffffffffffffff9081168252600354600254602090930192908216916112b3917401000000000000000000000000000000000000000090041642611b8f565b6112bd9190611b8f565b67ffffffffffffffff90811682526000602080840182905260409384018890526001600160a01b038716808352600582528483208784528252918490208551815487840151888801516060808b01518916600160c01b0277ffffffffffffffffffffffffffffffffffffffffffffffff928a16600160801b02929092166fffffffffffffffffffffffffffffffff938a1668010000000000000000027fffffffffffffffffffffffffffffffff00000000000000000000000000000000909516959099169490941792909217169590951794909417815560809095015160019095019490945582519081529283018490529082018590527f1449c6dd7851abc30abf37f57715f492010519147cc2652fbc38202c18a6ee90910160405180910390a1505050565b600054610100900460ff16158080156114045750600054600160ff909116105b8061141e5750303b15801561141e575060005460ff166001145b6114905760405162461bcd60e51b815260206004820152602e60248201527f496e697469616c697a61626c653a20636f6e747261637420697320616c72656160448201527f647920696e697469616c697a6564000000000000000000000000000000000000606482015260840161043d565b600080547fffffffffffffffffffffffffffffffffffffffffffffffffffffffffffffff0016600117905580156114d1576000805461ff0019166101001790555b600080547fffffffffffffffffffff0000000000000000000000000000000000000000ffff16620100006001600160a01b0387160217905560028054600180547fffffffffffffffffffffffff0000000000000000000000000000000000000000166001600160a01b038681169190911790915585167fffffffff0000000000000000000000000000000000000000000000000000000090911617761275000000000000000000000000000000000000000000179055600380547fffffffffffffffffffffffffffffffff00000000000000000000000000000000166f0de0b6b3a764000000000000001275001790558015610d8f576000805461ff0019169055604051600181527f7f26b83ff96e1f2b6a682f133852f6798a09c465da95921460cefb38474024989060200160405180910390a150505050565b6060815167ffffffffffffffff811115611628576116286117f7565b604051908082528060200260200182016040528015611651578160200160208202803683370190505b50905060005b82518110156116b2576116838484838151811061167657611676611aa1565b6020026020010151610d95565b82828151811061169557611695611aa1565b6020908102919091010152806116aa81611b3a565b915050611657565b5092915050565b6001600160a01b03821660009081526004602052604081205482106117205760405162461bcd60e51b815260206004820152601660248201527f566573743a20696e76616c6964206f7264657220696400000000000000000000604482015260640161043d565b6001600160a01b038316600090815260056020908152604080832085845290915290205468010000000000000000900467ffffffffffffffff164210156117695750600061101d565b6001600160a01b0383166000908152600560209081526040808320858452909152902054600160801b900467ffffffffffffffff164210156117ad5750600161101d565b50600292915050565b6000805b82518110156116b2576117d98484838151811061167657611676611aa1565b6117e39083611b8f565b9150806117ef81611b3a565b9150506117ba565b634e487b7160e01b600052604160045260246000fd5b600082601f83011261181e57600080fd5b8135602067ffffffffffffffff8083111561183b5761183b6117f7565b8260051b6040517fffffffffffffffffffffffffffffffffffffffffffffffffffffffffffffffe0603f8301168101818110848211171561187e5761187e6117f7565b60405293845285810183019383810192508785111561189c57600080fd5b83870191505b848210156118bb578135835291830191908301906118a2565b979650505050505050565b6000602082840312156118d857600080fd5b813567ffffffffffffffff8111156118ef57600080fd5b6118fb8482850161180d565b949350505050565b60006020828403121561191557600080fd5b5035919050565b6001600160a01b038116811461193157600080fd5b50565b6000806040838503121561194757600080fd5b82356119528161191c565b946020939093013593505050565b60006020828403121561197257600080fd5b813561197d8161191c565b9392505050565b60008060006060848603121561199957600080fd5b83356119a48161191c565b925060208401356119b48161191c565b915060408401356119c48161191c565b809150509250925092565b600080604083850312156119e257600080fd5b82356119ed8161191c565b9150602083013567ffffffffffffffff811115611a0957600080fd5b611a158582860161180d565b9150509250929050565b6020808252825182820181905260009190848201906040850190845b81811015611a5757835183529284019291840191600101611a3b565b50909695505050505050565b634e487b7160e01b600052602160045260246000fd5b6020810160038310611a9b57634e487b7160e01b600052602160045260246000fd5b91905290565b634e487b7160e01b600052603260045260246000fd5b634e487b7160e01b600052601160045260246000fd5b67ffffffffffffffff8281168282160390808211156116b2576116b2611ab7565b8181038181111561101d5761101d611ab7565b808202811582820484141761101d5761101d611ab7565b600082611b3557634e487b7160e01b600052601260045260246000fd5b500490565b60007fffffffffffffffffffffffffffffffffffffffffffffffffffffffffffffffff8203611b6b57611b6b611ab7565b5060010190565b600060208284031215611b8457600080fd5b815161197d8161191c565b8082018082111561101d5761101d611ab756fea2646970667358221220b805d556c6cc504eadcc4cce905adb8f5fa3dfd94aa485f320dfba1640d5631464736f6c63430008130033",
  "devdoc": {
    "events": {
      "Initialized(uint8)": {
        "details": "Triggered when the contract has been initialized or reinitialized."
      }
    },
    "kind": "dev",
    "methods": {},
    "version": 1
  },
  "userdoc": {
    "kind": "user",
    "methods": {},
    "version": 1
  },
  "storageLayout": {
    "storage": [
      {
        "astId": 6,
        "contract": "contracts/core/Vest.sol:Vest",
        "label": "_initialized",
        "offset": 0,
        "slot": "0",
        "type": "t_uint8"
      },
      {
        "astId": 9,
        "contract": "contracts/core/Vest.sol:Vest",
        "label": "_initializing",
        "offset": 1,
        "slot": "0",
        "type": "t_bool"
      },
      {
        "astId": 24511,
        "contract": "contracts/core/Vest.sol:Vest",
        "label": "ZebraCore",
        "offset": 2,
        "slot": "0",
        "type": "t_contract(IZebraCore)37932"
      },
      {
        "astId": 22338,
        "contract": "contracts/core/Vest.sol:Vest",
        "label": "esZebra",
        "offset": 0,
        "slot": "1",
        "type": "t_contract(IEsZebra)36329"
      },
      {
        "astId": 22341,
        "contract": "contracts/core/Vest.sol:Vest",
        "label": "Zebra",
        "offset": 0,
        "slot": "2",
        "type": "t_contract(IZebra)37799"
      },
      {
        "astId": 22343,
        "contract": "contracts/core/Vest.sol:Vest",
        "label": "cliffTime",
        "offset": 20,
        "slot": "2",
        "type": "t_uint64"
      },
      {
        "astId": 22345,
        "contract": "contracts/core/Vest.sol:Vest",
        "label": "releaseTime",
        "offset": 0,
        "slot": "3",
        "type": "t_uint64"
      },
      {
        "astId": 22347,
        "contract": "contracts/core/Vest.sol:Vest",
        "label": "minDeposits",
        "offset": 8,
        "slot": "3",
        "type": "t_uint64"
      },
      {
        "astId": 22351,
        "contract": "contracts/core/Vest.sol:Vest",
        "label": "currentIds",
        "offset": 0,
        "slot": "4",
        "type": "t_mapping(t_address,t_uint256)"
      },
      {
        "astId": 22358,
        "contract": "contracts/core/Vest.sol:Vest",
        "label": "orderInfos",
        "offset": 0,
        "slot": "5",
        "type": "t_mapping(t_address,t_mapping(t_uint256,t_struct(OrderInfo)22335_storage))"
      }
    ],
    "types": {
      "t_address": {
        "encoding": "inplace",
        "label": "address",
        "numberOfBytes": "20"
      },
      "t_bool": {
        "encoding": "inplace",
        "label": "bool",
        "numberOfBytes": "1"
      },
      "t_contract(IEsZebra)36329": {
        "encoding": "inplace",
        "label": "contract IEsZebra",
        "numberOfBytes": "20"
      },
      "t_contract(IZebra)37799": {
        "encoding": "inplace",
        "label": "contract IZebra",
        "numberOfBytes": "20"
      },
      "t_contract(IZebraCore)37932": {
        "encoding": "inplace",
        "label": "contract IZebraCore",
        "numberOfBytes": "20"
      },
      "t_mapping(t_address,t_mapping(t_uint256,t_struct(OrderInfo)22335_storage))": {
        "encoding": "mapping",
        "key": "t_address",
        "label": "mapping(address => mapping(uint256 => struct Vest.OrderInfo))",
        "numberOfBytes": "32",
        "value": "t_mapping(t_uint256,t_struct(OrderInfo)22335_storage)"
      },
      "t_mapping(t_address,t_uint256)": {
        "encoding": "mapping",
        "key": "t_address",
        "label": "mapping(address => uint256)",
        "numberOfBytes": "32",
        "value": "t_uint256"
      },
      "t_mapping(t_uint256,t_struct(OrderInfo)22335_storage)": {
        "encoding": "mapping",
        "key": "t_uint256",
        "label": "mapping(uint256 => struct Vest.OrderInfo)",
        "numberOfBytes": "32",
        "value": "t_struct(OrderInfo)22335_storage"
      },
      "t_struct(OrderInfo)22335_storage": {
        "encoding": "inplace",
        "label": "struct Vest.OrderInfo",
        "members": [
          {
            "astId": 22326,
            "contract": "contracts/core/Vest.sol:Vest",
            "label": "start",
            "offset": 0,
            "slot": "0",
            "type": "t_uint64"
          },
          {
            "astId": 22328,
            "contract": "contracts/core/Vest.sol:Vest",
            "label": "cliffEnd",
            "offset": 8,
            "slot": "0",
            "type": "t_uint64"
          },
          {
            "astId": 22330,
            "contract": "contracts/core/Vest.sol:Vest",
            "label": "releaseEnd",
            "offset": 16,
            "slot": "0",
            "type": "t_uint64"
          },
          {
            "astId": 22332,
            "contract": "contracts/core/Vest.sol:Vest",
            "label": "released",
            "offset": 24,
            "slot": "0",
            "type": "t_uint64"
          },
          {
            "astId": 22334,
            "contract": "contracts/core/Vest.sol:Vest",
            "label": "amount",
            "offset": 0,
            "slot": "1",
            "type": "t_uint256"
          }
        ],
        "numberOfBytes": "64"
      },
      "t_uint256": {
        "encoding": "inplace",
        "label": "uint256",
        "numberOfBytes": "32"
      },
      "t_uint64": {
        "encoding": "inplace",
        "label": "uint64",
        "numberOfBytes": "8"
      },
      "t_uint8": {
        "encoding": "inplace",
        "label": "uint8",
        "numberOfBytes": "1"
      }
    }
  }
}