{
  "address": "0x2F11Ea32d8efBedA77777683A51fECc83B6C7555",
  "abi": [
    {
      "inputs": [
        {
          "internalType": "contract IZebraCore",
          "name": "_zebraCore",
          "type": "address"
        },
        {
          "internalType": "contract IEsZebra",
          "name": "_esZebra",
          "type": "address"
        },
        {
          "internalType": "address",
          "name": "_vest",
          "type": "address"
        }
      ],
      "stateMutability": "nonpayable",
      "type": "constructor"
    },
    {
      "inputs": [],
      "name": "InvalidShortString",
      "type": "error"
    },
    {
      "inputs": [
        {
          "internalType": "string",
          "name": "str",
          "type": "string"
        }
      ],
      "name": "StringTooLong",
      "type": "error"
    },
    {
      "anonymous": false,
      "inputs": [
        {
          "indexed": true,
          "internalType": "address",
          "name": "owner",
          "type": "address"
        },
        {
          "indexed": true,
          "internalType": "address",
          "name": "spender",
          "type": "address"
        },
        {
          "indexed": false,
          "internalType": "uint256",
          "name": "value",
          "type": "uint256"
        }
      ],
      "name": "Approval",
      "type": "event"
    },
    {
      "anonymous": false,
      "inputs": [],
      "name": "EIP712DomainChanged",
      "type": "event"
    },
    {
      "anonymous": false,
      "inputs": [
        {
          "indexed": false,
          "internalType": "address",
          "name": "account",
          "type": "address"
        },
        {
          "indexed": false,
          "internalType": "uint256",
          "name": "amount",
          "type": "uint256"
        }
      ],
      "name": "EsZebraToZebra",
      "type": "event"
    },
    {
      "anonymous": false,
      "inputs": [
        {
          "indexed": true,
          "internalType": "address",
          "name": "from",
          "type": "address"
        },
        {
          "indexed": true,
          "internalType": "address",
          "name": "to",
          "type": "address"
        },
        {
          "indexed": false,
          "internalType": "uint256",
          "name": "value",
          "type": "uint256"
        }
      ],
      "name": "Transfer",
      "type": "event"
    },
    {
      "anonymous": false,
      "inputs": [
        {
          "indexed": false,
          "internalType": "address",
          "name": "account",
          "type": "address"
        },
        {
          "indexed": false,
          "internalType": "uint256",
          "name": "amount",
          "type": "uint256"
        }
      ],
      "name": "ZebraToEsZebra",
      "type": "event"
    },
    {
      "inputs": [],
      "name": "DOMAIN_SEPARATOR",
      "outputs": [
        {
          "internalType": "bytes32",
          "name": "",
          "type": "bytes32"
        }
      ],
      "stateMutability": "view",
      "type": "function"
    },
    {
      "inputs": [],
      "name": "MaxCap",
      "outputs": [
        {
          "internalType": "uint256",
          "name": "",
          "type": "uint256"
        }
      ],
      "stateMutability": "view",
      "type": "function"
    },
    {
      "inputs": [],
      "name": "ZebraCore",
      "outputs": [
        {
          "internalType": "contract IZebraCore",
          "name": "",
          "type": "address"
        }
      ],
      "stateMutability": "view",
      "type": "function"
    },
    {
      "inputs": [
        {
          "internalType": "address",
          "name": "owner",
          "type": "address"
        },
        {
          "internalType": "address",
          "name": "spender",
          "type": "address"
        }
      ],
      "name": "allowance",
      "outputs": [
        {
          "internalType": "uint256",
          "name": "",
          "type": "uint256"
        }
      ],
      "stateMutability": "view",
      "type": "function"
    },
    {
      "inputs": [
        {
          "internalType": "address",
          "name": "spender",
          "type": "address"
        },
        {
          "internalType": "uint256",
          "name": "amount",
          "type": "uint256"
        }
      ],
      "name": "approve",
      "outputs": [
        {
          "internalType": "bool",
          "name": "",
          "type": "bool"
        }
      ],
      "stateMutability": "nonpayable",
      "type": "function"
    },
    {
      "inputs": [
        {
          "internalType": "address",
          "name": "account",
          "type": "address"
        }
      ],
      "name": "balanceOf",
      "outputs": [
        {
          "internalType": "uint256",
          "name": "",
          "type": "uint256"
        }
      ],
      "stateMutability": "view",
      "type": "function"
    },
    {
      "inputs": [
        {
          "internalType": "uint256",
          "name": "amount",
          "type": "uint256"
        }
      ],
      "name": "burn",
      "outputs": [],
      "stateMutability": "nonpayable",
      "type": "function"
    },
    {
      "inputs": [
        {
          "internalType": "address",
          "name": "account",
          "type": "address"
        },
        {
          "internalType": "uint256",
          "name": "amount",
          "type": "uint256"
        }
      ],
      "name": "burnFrom",
      "outputs": [],
      "stateMutability": "nonpayable",
      "type": "function"
    },
    {
      "inputs": [],
      "name": "decimals",
      "outputs": [
        {
          "internalType": "uint8",
          "name": "",
          "type": "uint8"
        }
      ],
      "stateMutability": "view",
      "type": "function"
    },
    {
      "inputs": [
        {
          "internalType": "address",
          "name": "spender",
          "type": "address"
        },
        {
          "internalType": "uint256",
          "name": "subtractedValue",
          "type": "uint256"
        }
      ],
      "name": "decreaseAllowance",
      "outputs": [
        {
          "internalType": "bool",
          "name": "",
          "type": "bool"
        }
      ],
      "stateMutability": "nonpayable",
      "type": "function"
    },
    {
      "inputs": [],
      "name": "eip712Domain",
      "outputs": [
        {
          "internalType": "bytes1",
          "name": "fields",
          "type": "bytes1"
        },
        {
          "internalType": "string",
          "name": "name",
          "type": "string"
        },
        {
          "internalType": "string",
          "name": "version",
          "type": "string"
        },
        {
          "internalType": "uint256",
          "name": "chainId",
          "type": "uint256"
        },
        {
          "internalType": "address",
          "name": "verifyingContract",
          "type": "address"
        },
        {
          "internalType": "bytes32",
          "name": "salt",
          "type": "bytes32"
        },
        {
          "internalType": "uint256[]",
          "name": "extensions",
          "type": "uint256[]"
        }
      ],
      "stateMutability": "view",
      "type": "function"
    },
    {
      "inputs": [],
      "name": "esZebra",
      "outputs": [
        {
          "internalType": "contract IEsZebra",
          "name": "",
          "type": "address"
        }
      ],
      "stateMutability": "view",
      "type": "function"
    },
    {
      "inputs": [
        {
          "internalType": "address",
          "name": "account",
          "type": "address"
        },
        {
          "internalType": "uint256",
          "name": "amount",
          "type": "uint256"
        }
      ],
      "name": "esZebra2Zebra",
      "outputs": [],
      "stateMutability": "nonpayable",
      "type": "function"
    },
    {
      "inputs": [],
      "name": "guardian",
      "outputs": [
        {
          "internalType": "address",
          "name": "",
          "type": "address"
        }
      ],
      "stateMutability": "view",
      "type": "function"
    },
    {
      "inputs": [
        {
          "internalType": "address",
          "name": "spender",
          "type": "address"
        },
        {
          "internalType": "uint256",
          "name": "addedValue",
          "type": "uint256"
        }
      ],
      "name": "increaseAllowance",
      "outputs": [
        {
          "internalType": "bool",
          "name": "",
          "type": "bool"
        }
      ],
      "stateMutability": "nonpayable",
      "type": "function"
    },
    {
      "inputs": [
        {
          "internalType": "address",
          "name": "account",
          "type": "address"
        },
        {
          "internalType": "uint256",
          "name": "amount",
          "type": "uint256"
        }
      ],
      "name": "mint",
      "outputs": [],
      "stateMutability": "nonpayable",
      "type": "function"
    },
    {
      "inputs": [
        {
          "internalType": "address",
          "name": "account",
          "type": "address"
        },
        {
          "internalType": "uint256",
          "name": "amount",
          "type": "uint256"
        }
      ],
      "name": "mintEsZebra",
      "outputs": [],
      "stateMutability": "nonpayable",
      "type": "function"
    },
    {
      "inputs": [],
      "name": "name",
      "outputs": [
        {
          "internalType": "string",
          "name": "",
          "type": "string"
        }
      ],
      "stateMutability": "view",
      "type": "function"
    },
    {
      "inputs": [
        {
          "internalType": "address",
          "name": "owner",
          "type": "address"
        }
      ],
      "name": "nonces",
      "outputs": [
        {
          "internalType": "uint256",
          "name": "",
          "type": "uint256"
        }
      ],
      "stateMutability": "view",
      "type": "function"
    },
    {
      "inputs": [],
      "name": "owner",
      "outputs": [
        {
          "internalType": "address",
          "name": "",
          "type": "address"
        }
      ],
      "stateMutability": "view",
      "type": "function"
    },
    {
      "inputs": [
        {
          "internalType": "address",
          "name": "owner",
          "type": "address"
        },
        {
          "internalType": "address",
          "name": "spender",
          "type": "address"
        },
        {
          "internalType": "uint256",
          "name": "value",
          "type": "uint256"
        },
        {
          "internalType": "uint256",
          "name": "deadline",
          "type": "uint256"
        },
        {
          "internalType": "uint8",
          "name": "v",
          "type": "uint8"
        },
        {
          "internalType": "bytes32",
          "name": "r",
          "type": "bytes32"
        },
        {
          "internalType": "bytes32",
          "name": "s",
          "type": "bytes32"
        }
      ],
      "name": "permit",
      "outputs": [],
      "stateMutability": "nonpayable",
      "type": "function"
    },
    {
      "inputs": [],
      "name": "symbol",
      "outputs": [
        {
          "internalType": "string",
          "name": "",
          "type": "string"
        }
      ],
      "stateMutability": "view",
      "type": "function"
    },
    {
      "inputs": [],
      "name": "totalSupply",
      "outputs": [
        {
          "internalType": "uint256",
          "name": "",
          "type": "uint256"
        }
      ],
      "stateMutability": "view",
      "type": "function"
    },
    {
      "inputs": [
        {
          "internalType": "address",
          "name": "to",
          "type": "address"
        },
        {
          "internalType": "uint256",
          "name": "amount",
          "type": "uint256"
        }
      ],
      "name": "transfer",
      "outputs": [
        {
          "internalType": "bool",
          "name": "",
          "type": "bool"
        }
      ],
      "stateMutability": "nonpayable",
      "type": "function"
    },
    {
      "inputs": [
        {
          "internalType": "address",
          "name": "from",
          "type": "address"
        },
        {
          "internalType": "address",
          "name": "to",
          "type": "address"
        },
        {
          "internalType": "uint256",
          "name": "amount",
          "type": "uint256"
        }
      ],
      "name": "transferFrom",
      "outputs": [
        {
          "internalType": "bool",
          "name": "",
          "type": "bool"
        }
      ],
      "stateMutability": "nonpayable",
      "type": "function"
    },
    {
      "inputs": [],
      "name": "vest",
      "outputs": [
        {
          "internalType": "address",
          "name": "",
          "type": "address"
        }
      ],
      "stateMutability": "view",
      "type": "function"
    },
    {
      "inputs": [
        {
          "internalType": "address",
          "name": "account",
          "type": "address"
        },
        {
          "internalType": "uint256",
          "name": "amount",
          "type": "uint256"
        }
      ],
      "name": "zebra2EsZebra",
      "outputs": [],
      "stateMutability": "nonpayable",
      "type": "function"
    }
  ],
  "transactionHash": "0x7f3c366606ed5a3a6e378baffe4b179ef4d2aecff6cdecd0978007be6d55f9b2",
  "args": [
    "0x2E87D8DBF642523d5e31d60aC68317933c28bEA7",
    "0x7e5daae8701a0367b3f833b9f64efb63341ba74d",
    "0x4165911a7a71394cd389b4e674c35433d2e48971"
  ],
  "numDeployments": 1,
  "solcInputHash": "b91301f1a84b6c2e358640cd7d231682",
  "bytecode": "0x6101a06040526b033b2e3c9fd0803ce8000000610180523480156200002357600080fd5b50604051620022663803806200226683398101604081905262000046916200027a565b826040518060400160405280600a8152602001692d32b139309021b7b4b760b11b81525080604051806040016040528060018152602001603160f81b8152506040518060400160405280600a8152602001692d32b139309021b7b4b760b11b815250604051806040016040528060058152602001645a6562726160d81b8152508160039081620000d7919062000373565b506004620000e6828262000373565b50620000f891508390506005620001dc565b6101205262000109816006620001dc565b61014052815160208084019190912060e052815190820120610100524660a0526200019760e05161010051604080517f8b73c3c69bb8fe3d512ecc4cf759cc79239f7b179b0ffacaa9a75d522b39400f60208201529081019290925260608201524660808201523060a082015260009060c00160405160208183030381529060405280519060200120905090565b60805250503060c052506001600160a01b0390811661016052600980549382166001600160a01b0319948516179055600a8054929091169190921617905550620004b4565b6000602083511015620001fc57620001f48362000215565b90506200020f565b8162000209848262000373565b5060ff90505b92915050565b600080829050601f815111156200024c578260405163305a27a960e01b81526004016200024391906200043f565b60405180910390fd5b805162000259826200048f565b179392505050565b6001600160a01b03811681146200027757600080fd5b50565b6000806000606084860312156200029057600080fd5b83516200029d8162000261565b6020850151909350620002b08162000261565b6040850151909250620002c38162000261565b809150509250925092565b634e487b7160e01b600052604160045260246000fd5b600181811c90821680620002f957607f821691505b6020821081036200031a57634e487b7160e01b600052602260045260246000fd5b50919050565b601f8211156200036e57600081815260208120601f850160051c81016020861015620003495750805b601f850160051c820191505b818110156200036a5782815560010162000355565b5050505b505050565b81516001600160401b038111156200038f576200038f620002ce565b620003a781620003a08454620002e4565b8462000320565b602080601f831160018114620003df5760008415620003c65750858301515b600019600386901b1c1916600185901b1785556200036a565b600085815260208120601f198616915b828110156200041057888601518255948401946001909101908401620003ef565b50858210156200042f5787850151600019600388901b60f8161c191681555b5050505050600190811b01905550565b600060208083528351808285015260005b818110156200046e5785810183015185820160400152820162000450565b506000604082860101526040601f19601f8301168501019250505092915050565b805160208083015191908110156200031a5760001960209190910360031b1b16919050565b60805160a05160c05160e0516101005161012051610140516101605161018051611d256200054160003960008181610229015281816105bc0152610adc015260008181610250015281816106d6015261094f015260006108df015260006108b401526000611358015260006113300152600061128b015260006112b5015260006112df0152611d256000f3fe608060405234801561001057600080fd5b50600436106101b95760003560e01c806363c18396116100f957806395d89b4111610097578063cf8509d511610071578063cf8509d5146103bd578063d505accf146103d0578063dd62ed3e146103e3578063e11606b91461041c57600080fd5b806395d89b411461038f578063a457c2d714610397578063a9059cbb146103aa57600080fd5b806379cc6790116100d357806379cc6790146103465780637ecebe001461035957806384b0196e1461036c5780638da5cb5b1461038757600080fd5b806363c18396146102f75780636d7500771461030a57806370a082311461031d57600080fd5b8063313ce5671161016657806340c10f191161014057806340c10f19146102b457806342966c68146102c9578063452a9320146102dc578063458efde3146102e457600080fd5b8063313ce5671461028a5780633644e5151461029957806339509351146102a157600080fd5b806323b872dd1161019757806323b872dd146102115780632b676364146102245780632fbea0141461024b57600080fd5b806306fdde03146101be578063095ea7b3146101dc57806318160ddd146101ff575b600080fd5b6101c661042f565b6040516101d39190611a1a565b60405180910390f35b6101ef6101ea366004611a49565b6104c1565b60405190151581526020016101d3565b6002545b6040519081526020016101d3565b6101ef61021f366004611a75565b6104db565b6102037f000000000000000000000000000000000000000000000000000000000000000081565b6102727f000000000000000000000000000000000000000000000000000000000000000081565b6040516001600160a01b0390911681526020016101d3565b604051601281526020016101d3565b6102036104ff565b6101ef6102af366004611a49565b61050e565b6102c76102c2366004611a49565b61054d565b005b6102c76102d7366004611ab6565b6106c6565b6102726106d2565b600a54610272906001600160a01b031681565b600954610272906001600160a01b031681565b6102c7610318366004611a49565b610756565b61020361032b366004611acf565b6001600160a01b031660009081526020819052604090205490565b6102c7610354366004611a49565b61087e565b610203610367366004611acf565b610888565b6103746108a6565b6040516101d39796959493929190611aec565b61027261094b565b6101c66109ab565b6101ef6103a5366004611a49565b6109ba565b6101ef6103b8366004611a49565b610a64565b6102c76103cb366004611a49565b610a72565b6102c76103de366004611b9e565b610c5b565b6102036103f1366004611c15565b6001600160a01b03918216600090815260016020908152604080832093909416825291909152205490565b6102c761042a366004611a49565b610dbf565b60606003805461043e90611c4e565b80601f016020809104026020016040519081016040528092919081815260200182805461046a90611c4e565b80156104b75780601f1061048c576101008083540402835291602001916104b7565b820191906000526020600020905b81548152906001019060200180831161049a57829003601f168201915b5050505050905090565b6000336104cf818585610e88565b60019150505b92915050565b6000336104e9858285610fe1565b6104f4858585611091565b506001949350505050565b600061050961127e565b905090565b3360008181526001602090815260408083206001600160a01b03871684529091528120549091906104cf9082908690610548908790611c82565b610e88565b61055561094b565b6001600160a01b0316336001600160a01b0316146105ba5760405162461bcd60e51b815260206004820152600a60248201527f4f6e6c79206f776e65720000000000000000000000000000000000000000000060448201526064015b60405180910390fd5b7f000000000000000000000000000000000000000000000000000000000000000081600960009054906101000a90046001600160a01b03166001600160a01b03166318160ddd6040518163ffffffff1660e01b8152600401602060405180830381865afa15801561062f573d6000803e3d6000fd5b505050506040513d601f19601f820116820180604052508101906106539190611ca3565b6002546106609190611c82565b61066a9190611c82565b11156106b85760405162461bcd60e51b815260206004820152601560248201527f5a656272613a2065786365656473204d6178436170000000000000000000000060448201526064016105b1565b6106c282826113a9565b5050565b6106cf81611468565b50565b60007f00000000000000000000000000000000000000000000000000000000000000006001600160a01b031663452a93206040518163ffffffff1660e01b8152600401602060405180830381865afa158015610732573d6000803e3d6000fd5b505050506040513d601f19601f820116820180604052508101906105099190611cbc565b600a546001600160a01b031633146107b05760405162461bcd60e51b815260206004820152601960248201527f5a656272613a2043616c6c6572206973206e6f7420566573740000000000000060448201526064016105b1565b6009546040517fc253d469000000000000000000000000000000000000000000000000000000008152336004820152602481018390526001600160a01b039091169063c253d46990604401600060405180830381600087803b15801561081557600080fd5b505af1158015610829573d6000803e3d6000fd5b5050505061083782826113a9565b604080516001600160a01b0384168152602081018390527fe927ce7cc5a8905964e036aca98e0773467ea8ef55d8527eff928e555a042be591015b60405180910390a15050565b6106c28282611472565b6001600160a01b0381166000908152600760205260408120546104d5565b6000606080828080836108da7f00000000000000000000000000000000000000000000000000000000000000006005611487565b6109057f00000000000000000000000000000000000000000000000000000000000000006006611487565b604080516000808252602082019092527f0f000000000000000000000000000000000000000000000000000000000000009b939a50919850469750309650945092509050565b60007f00000000000000000000000000000000000000000000000000000000000000006001600160a01b0316638da5cb5b6040518163ffffffff1660e01b8152600401602060405180830381865afa158015610732573d6000803e3d6000fd5b60606004805461043e90611c4e565b3360008181526001602090815260408083206001600160a01b038716845290915281205490919083811015610a575760405162461bcd60e51b815260206004820152602560248201527f45524332303a2064656372656173656420616c6c6f77616e63652062656c6f7760448201527f207a65726f00000000000000000000000000000000000000000000000000000060648201526084016105b1565b6104f48286868403610e88565b6000336104cf818585611091565b610a7a61094b565b6001600160a01b0316336001600160a01b031614610ada5760405162461bcd60e51b815260206004820152600a60248201527f4f6e6c79206f776e65720000000000000000000000000000000000000000000060448201526064016105b1565b7f000000000000000000000000000000000000000000000000000000000000000081600960009054906101000a90046001600160a01b03166001600160a01b03166318160ddd6040518163ffffffff1660e01b8152600401602060405180830381865afa158015610b4f573d6000803e3d6000fd5b505050506040513d601f19601f82011682018060405250810190610b739190611ca3565b600254610b809190611c82565b610b8a9190611c82565b1115610bd85760405162461bcd60e51b815260206004820152601560248201527f5a656272613a2065786365656473204d6178436170000000000000000000000060448201526064016105b1565b6009546040517f40c10f190000000000000000000000000000000000000000000000000000000081526001600160a01b03848116600483015260248201849052909116906340c10f1990604401600060405180830381600087803b158015610c3f57600080fd5b505af1158015610c53573d6000803e3d6000fd5b505050505050565b83421115610cab5760405162461bcd60e51b815260206004820152601d60248201527f45524332305065726d69743a206578706972656420646561646c696e6500000060448201526064016105b1565b60007f6e71edae12b1b97f4d1f60370fef10105fa2faae0126114a169c64845d6126c9888888610cda8c611532565b6040805160208101969096526001600160a01b0394851690860152929091166060840152608083015260a082015260c0810186905260e0016040516020818303038152906040528051906020012090506000610d358261155a565b90506000610d45828787876115a2565b9050896001600160a01b0316816001600160a01b031614610da85760405162461bcd60e51b815260206004820152601e60248201527f45524332305065726d69743a20696e76616c6964207369676e6174757265000060448201526064016105b1565b610db38a8a8a610e88565b50505050505050505050565b610dc933826115ca565b6009546040517f40c10f190000000000000000000000000000000000000000000000000000000081526001600160a01b03848116600483015260248201849052909116906340c10f1990604401600060405180830381600087803b158015610e3057600080fd5b505af1158015610e44573d6000803e3d6000fd5b5050604080516001600160a01b0386168152602081018590527f3b131162a0be337d43ac9c619386f747819e1aabefc9ac6a15e16b94b8ca504e9350019050610872565b6001600160a01b038316610f035760405162461bcd60e51b8152602060048201526024808201527f45524332303a20617070726f76652066726f6d20746865207a65726f2061646460448201527f726573730000000000000000000000000000000000000000000000000000000060648201526084016105b1565b6001600160a01b038216610f7f5760405162461bcd60e51b815260206004820152602260248201527f45524332303a20617070726f766520746f20746865207a65726f20616464726560448201527f737300000000000000000000000000000000000000000000000000000000000060648201526084016105b1565b6001600160a01b0383811660008181526001602090815260408083209487168084529482529182902085905590518481527f8c5be1e5ebec7d5bd14f71427d1e84f3dd0314c0f7b2291e5b200ac8c7c3b92591015b60405180910390a3505050565b6001600160a01b038381166000908152600160209081526040808320938616835292905220547fffffffffffffffffffffffffffffffffffffffffffffffffffffffffffffffff811461108b578181101561107e5760405162461bcd60e51b815260206004820152601d60248201527f45524332303a20696e73756666696369656e7420616c6c6f77616e636500000060448201526064016105b1565b61108b8484848403610e88565b50505050565b6001600160a01b03831661110d5760405162461bcd60e51b815260206004820152602560248201527f45524332303a207472616e736665722066726f6d20746865207a65726f20616460448201527f647265737300000000000000000000000000000000000000000000000000000060648201526084016105b1565b6001600160a01b0382166111895760405162461bcd60e51b815260206004820152602360248201527f45524332303a207472616e7366657220746f20746865207a65726f206164647260448201527f657373000000000000000000000000000000000000000000000000000000000060648201526084016105b1565b6001600160a01b038316600090815260208190526040902054818110156112185760405162461bcd60e51b815260206004820152602660248201527f45524332303a207472616e7366657220616d6f756e742065786365656473206260448201527f616c616e6365000000000000000000000000000000000000000000000000000060648201526084016105b1565b6001600160a01b03848116600081815260208181526040808320878703905593871680835291849020805487019055925185815290927fddf252ad1be2c89b69c2b068fc378daa952ba7f163c4a11628f55a4df523b3ef910160405180910390a361108b565b6000306001600160a01b037f0000000000000000000000000000000000000000000000000000000000000000161480156112d757507f000000000000000000000000000000000000000000000000000000000000000046145b1561130157507f000000000000000000000000000000000000000000000000000000000000000090565b610509604080517f8b73c3c69bb8fe3d512ecc4cf759cc79239f7b179b0ffacaa9a75d522b39400f60208201527f0000000000000000000000000000000000000000000000000000000000000000918101919091527f000000000000000000000000000000000000000000000000000000000000000060608201524660808201523060a082015260009060c00160405160208183030381529060405280519060200120905090565b6001600160a01b0382166113ff5760405162461bcd60e51b815260206004820152601f60248201527f45524332303a206d696e7420746f20746865207a65726f20616464726573730060448201526064016105b1565b80600260008282546114119190611c82565b90915550506001600160a01b038216600081815260208181526040808320805486019055518481527fddf252ad1be2c89b69c2b068fc378daa952ba7f163c4a11628f55a4df523b3ef910160405180910390a35050565b6106cf33826115ca565b61147d823383610fe1565b6106c282826115ca565b606060ff83146114a15761149a8361172b565b90506104d5565b8180546114ad90611c4e565b80601f01602080910402602001604051908101604052809291908181526020018280546114d990611c4e565b80156115265780601f106114fb57610100808354040283529160200191611526565b820191906000526020600020905b81548152906001019060200180831161150957829003601f168201915b505050505090506104d5565b6001600160a01b03811660009081526007602052604090208054600181018255905b50919050565b60006104d561156761127e565b836040517f19010000000000000000000000000000000000000000000000000000000000008152600281019290925260228201526042902090565b60008060006115b38787878761176a565b915091506115c08161182e565b5095945050505050565b6001600160a01b0382166116465760405162461bcd60e51b815260206004820152602160248201527f45524332303a206275726e2066726f6d20746865207a65726f2061646472657360448201527f730000000000000000000000000000000000000000000000000000000000000060648201526084016105b1565b6001600160a01b038216600090815260208190526040902054818110156116d55760405162461bcd60e51b815260206004820152602260248201527f45524332303a206275726e20616d6f756e7420657863656564732062616c616e60448201527f636500000000000000000000000000000000000000000000000000000000000060648201526084016105b1565b6001600160a01b0383166000818152602081815260408083208686039055600280548790039055518581529192917fddf252ad1be2c89b69c2b068fc378daa952ba7f163c4a11628f55a4df523b3ef9101610fd4565b6060600061173883611993565b604080516020808252818301909252919250600091906020820181803683375050509182525060208101929092525090565b6000807f7fffffffffffffffffffffffffffffff5d576e7357a4501ddfe92f46681b20a08311156117a15750600090506003611825565b6040805160008082526020820180845289905260ff881692820192909252606081018690526080810185905260019060a0016020604051602081039080840390855afa1580156117f5573d6000803e3d6000fd5b5050604051601f1901519150506001600160a01b03811661181e57600060019250925050611825565b9150600090505b94509492505050565b600081600481111561184257611842611cd9565b0361184a5750565b600181600481111561185e5761185e611cd9565b036118ab5760405162461bcd60e51b815260206004820152601860248201527f45434453413a20696e76616c6964207369676e6174757265000000000000000060448201526064016105b1565b60028160048111156118bf576118bf611cd9565b0361190c5760405162461bcd60e51b815260206004820152601f60248201527f45434453413a20696e76616c6964207369676e6174757265206c656e6774680060448201526064016105b1565b600381600481111561192057611920611cd9565b036106cf5760405162461bcd60e51b815260206004820152602260248201527f45434453413a20696e76616c6964207369676e6174757265202773272076616c60448201527f756500000000000000000000000000000000000000000000000000000000000060648201526084016105b1565b600060ff8216601f8111156104d5576040517fb3512b0c00000000000000000000000000000000000000000000000000000000815260040160405180910390fd5b6000815180845260005b818110156119fa576020818501810151868301820152016119de565b506000602082860101526020601f19601f83011685010191505092915050565b602081526000611a2d60208301846119d4565b9392505050565b6001600160a01b03811681146106cf57600080fd5b60008060408385031215611a5c57600080fd5b8235611a6781611a34565b946020939093013593505050565b600080600060608486031215611a8a57600080fd5b8335611a9581611a34565b92506020840135611aa581611a34565b929592945050506040919091013590565b600060208284031215611ac857600080fd5b5035919050565b600060208284031215611ae157600080fd5b8135611a2d81611a34565b7fff00000000000000000000000000000000000000000000000000000000000000881681526000602060e081840152611b2860e084018a6119d4565b8381036040850152611b3a818a6119d4565b606085018990526001600160a01b038816608086015260a0850187905284810360c0860152855180825283870192509083019060005b81811015611b8c57835183529284019291840191600101611b70565b50909c9b505050505050505050505050565b600080600080600080600060e0888a031215611bb957600080fd5b8735611bc481611a34565b96506020880135611bd481611a34565b95506040880135945060608801359350608088013560ff81168114611bf857600080fd5b9699959850939692959460a0840135945060c09093013592915050565b60008060408385031215611c2857600080fd5b8235611c3381611a34565b91506020830135611c4381611a34565b809150509250929050565b600181811c90821680611c6257607f821691505b60208210810361155457634e487b7160e01b600052602260045260246000fd5b808201808211156104d557634e487b7160e01b600052601160045260246000fd5b600060208284031215611cb557600080fd5b5051919050565b600060208284031215611cce57600080fd5b8151611a2d81611a34565b634e487b7160e01b600052602160045260246000fdfea264697066735822122032d5ea47e5e226e1e9a9ef313dc8840464a21189f648a66dea7fd3fb1efec8c664736f6c63430008130033",
  "devdoc": {
    "events": {
      "Approval(address,address,uint256)": {
        "details": "Emitted when the allowance of a `spender` for an `owner` is set by a call to {approve}. `value` is the new allowance."
      },
      "EIP712DomainChanged()": {
        "details": "MAY be emitted to signal that the domain could have changed."
      },
      "Transfer(address,address,uint256)": {
        "details": "Emitted when `value` tokens are moved from one account (`from`) to another (`to`). Note that `value` may be zero."
      }
    },
    "kind": "dev",
    "methods": {
      "DOMAIN_SEPARATOR()": {
        "details": "Returns the domain separator used in the encoding of the signature for {permit}, as defined by {EIP712}."
      },
      "allowance(address,address)": {
        "details": "See {IERC20-allowance}."
      },
      "approve(address,uint256)": {
        "details": "See {IERC20-approve}. NOTE: If `amount` is the maximum `uint256`, the allowance is not updated on `transferFrom`. This is semantically equivalent to an infinite approval. Requirements: - `spender` cannot be the zero address."
      },
      "balanceOf(address)": {
        "details": "See {IERC20-balanceOf}."
      },
      "decimals()": {
        "details": "Returns the number of decimals used to get its user representation. For example, if `decimals` equals `2`, a balance of `505` tokens should be displayed to a user as `5.05` (`505 / 10 ** 2`). Tokens usually opt for a value of 18, imitating the relationship between Ether and Wei. This is the default value returned by this function, unless it's overridden. NOTE: This information is only used for _display_ purposes: it in no way affects any of the arithmetic of the contract, including {IERC20-balanceOf} and {IERC20-transfer}."
      },
      "decreaseAllowance(address,uint256)": {
        "details": "Atomically decreases the allowance granted to `spender` by the caller. This is an alternative to {approve} that can be used as a mitigation for problems described in {IERC20-approve}. Emits an {Approval} event indicating the updated allowance. Requirements: - `spender` cannot be the zero address. - `spender` must have allowance for the caller of at least `subtractedValue`."
      },
      "eip712Domain()": {
        "details": "See {EIP-5267}. _Available since v4.9._"
      },
      "increaseAllowance(address,uint256)": {
        "details": "Atomically increases the allowance granted to `spender` by the caller. This is an alternative to {approve} that can be used as a mitigation for problems described in {IERC20-approve}. Emits an {Approval} event indicating the updated allowance. Requirements: - `spender` cannot be the zero address."
      },
      "name()": {
        "details": "Returns the name of the token."
      },
      "nonces(address)": {
        "details": "Returns the current nonce for `owner`. This value must be included whenever a signature is generated for {permit}. Every successful call to {permit} increases ``owner``'s nonce by one. This prevents a signature from being used multiple times."
      },
      "permit(address,address,uint256,uint256,uint8,bytes32,bytes32)": {
        "details": "Sets `value` as the allowance of `spender` over ``owner``'s tokens, given ``owner``'s signed approval. IMPORTANT: The same issues {IERC20-approve} has related to transaction ordering also apply here. Emits an {Approval} event. Requirements: - `spender` cannot be the zero address. - `deadline` must be a timestamp in the future. - `v`, `r` and `s` must be a valid `secp256k1` signature from `owner` over the EIP712-formatted function arguments. - the signature must use ``owner``'s current nonce (see {nonces}). For more information on the signature format, see the https://eips.ethereum.org/EIPS/eip-2612#specification[relevant EIP section]. CAUTION: See Security Considerations above."
      },
      "symbol()": {
        "details": "Returns the symbol of the token, usually a shorter version of the name."
      },
      "totalSupply()": {
        "details": "See {IERC20-totalSupply}."
      },
      "transfer(address,uint256)": {
        "details": "See {IERC20-transfer}. Requirements: - `to` cannot be the zero address. - the caller must have a balance of at least `amount`."
      },
      "transferFrom(address,address,uint256)": {
        "details": "See {IERC20-transferFrom}. Emits an {Approval} event indicating the updated allowance. This is not required by the EIP. See the note at the beginning of {ERC20}. NOTE: Does not update the allowance if the current allowance is the maximum `uint256`. Requirements: - `from` and `to` cannot be the zero address. - `from` must have a balance of at least `amount`. - the caller must have allowance for ``from``'s tokens of at least `amount`."
      }
    },
    "version": 1
  },
  "userdoc": {
    "kind": "user",
    "methods": {},
    "version": 1
  },
  "storageLayout": {
    "storage": [
      {
        "astId": 1683,
        "contract": "contracts/core/Zebra.sol:Zebra",
        "label": "_balances",
        "offset": 0,
        "slot": "0",
        "type": "t_mapping(t_address,t_uint256)"
      },
      {
        "astId": 1689,
        "contract": "contracts/core/Zebra.sol:Zebra",
        "label": "_allowances",
        "offset": 0,
        "slot": "1",
        "type": "t_mapping(t_address,t_mapping(t_address,t_uint256))"
      },
      {
        "astId": 1691,
        "contract": "contracts/core/Zebra.sol:Zebra",
        "label": "_totalSupply",
        "offset": 0,
        "slot": "2",
        "type": "t_uint256"
      },
      {
        "astId": 1693,
        "contract": "contracts/core/Zebra.sol:Zebra",
        "label": "_name",
        "offset": 0,
        "slot": "3",
        "type": "t_string_storage"
      },
      {
        "astId": 1695,
        "contract": "contracts/core/Zebra.sol:Zebra",
        "label": "_symbol",
        "offset": 0,
        "slot": "4",
        "type": "t_string_storage"
      },
      {
        "astId": 4590,
        "contract": "contracts/core/Zebra.sol:Zebra",
        "label": "_nameFallback",
        "offset": 0,
        "slot": "5",
        "type": "t_string_storage"
      },
      {
        "astId": 4592,
        "contract": "contracts/core/Zebra.sol:Zebra",
        "label": "_versionFallback",
        "offset": 0,
        "slot": "6",
        "type": "t_string_storage"
      },
      {
        "astId": 2616,
        "contract": "contracts/core/Zebra.sol:Zebra",
        "label": "_nonces",
        "offset": 0,
        "slot": "7",
        "type": "t_mapping(t_address,t_struct(Counter)3568_storage)"
      },
      {
        "astId": 2624,
        "contract": "contracts/core/Zebra.sol:Zebra",
        "label": "_PERMIT_TYPEHASH_DEPRECATED_SLOT",
        "offset": 0,
        "slot": "8",
        "type": "t_bytes32"
      },
      {
        "astId": 23133,
        "contract": "contracts/core/Zebra.sol:Zebra",
        "label": "esZebra",
        "offset": 0,
        "slot": "9",
        "type": "t_contract(IEsZebra)36329"
      },
      {
        "astId": 23135,
        "contract": "contracts/core/Zebra.sol:Zebra",
        "label": "vest",
        "offset": 0,
        "slot": "10",
        "type": "t_address"
      }
    ],
    "types": {
      "t_address": {
        "encoding": "inplace",
        "label": "address",
        "numberOfBytes": "20"
      },
      "t_bytes32": {
        "encoding": "inplace",
        "label": "bytes32",
        "numberOfBytes": "32"
      },
      "t_contract(IEsZebra)36329": {
        "encoding": "inplace",
        "label": "contract IEsZebra",
        "numberOfBytes": "20"
      },
      "t_mapping(t_address,t_mapping(t_address,t_uint256))": {
        "encoding": "mapping",
        "key": "t_address",
        "label": "mapping(address => mapping(address => uint256))",
        "numberOfBytes": "32",
        "value": "t_mapping(t_address,t_uint256)"
      },
      "t_mapping(t_address,t_struct(Counter)3568_storage)": {
        "encoding": "mapping",
        "key": "t_address",
        "label": "mapping(address => struct Counters.Counter)",
        "numberOfBytes": "32",
        "value": "t_struct(Counter)3568_storage"
      },
      "t_mapping(t_address,t_uint256)": {
        "encoding": "mapping",
        "key": "t_address",
        "label": "mapping(address => uint256)",
        "numberOfBytes": "32",
        "value": "t_uint256"
      },
      "t_string_storage": {
        "encoding": "bytes",
        "label": "string",
        "numberOfBytes": "32"
      },
      "t_struct(Counter)3568_storage": {
        "encoding": "inplace",
        "label": "struct Counters.Counter",
        "members": [
          {
            "astId": 3567,
            "contract": "contracts/core/Zebra.sol:Zebra",
            "label": "_value",
            "offset": 0,
            "slot": "0",
            "type": "t_uint256"
          }
        ],
        "numberOfBytes": "32"
      },
      "t_uint256": {
        "encoding": "inplace",
        "label": "uint256",
        "numberOfBytes": "32"
      }
    }
  }
}