{
  "address": "0x2123fdcFeCd78d3abaB4A96862eaFaEb2103a6fC",
  "abi": [
    {
      "inputs": [
        {
          "internalType": "contract IZebraCore",
          "name": "_zebraCore",
          "type": "address"
        },
        {
          "internalType": "address",
          "name": "_stabilityPoolAddress",
          "type": "address"
        },
        {
          "internalType": "address",
          "name": "_borrowerOperationsAddress",
          "type": "address"
        },
        {
          "internalType": "address",
          "name": "_factory",
          "type": "address"
        },
        {
          "internalType": "address",
          "name": "_gasPool",
          "type": "address"
        },
        {
          "internalType": "uint256",
          "name": "_gasCompensation",
          "type": "uint256"
        }
      ],
      "stateMutability": "nonpayable",
      "type": "constructor"
    },
    {
      "inputs": [],
      "name": "InvalidShortString",
      "type": "error"
    },
    {
      "inputs": [
        {
          "internalType": "string",
          "name": "str",
          "type": "string"
        }
      ],
      "name": "StringTooLong",
      "type": "error"
    },
    {
      "anonymous": false,
      "inputs": [
        {
          "indexed": true,
          "internalType": "address",
          "name": "owner",
          "type": "address"
        },
        {
          "indexed": true,
          "internalType": "address",
          "name": "spender",
          "type": "address"
        },
        {
          "indexed": false,
          "internalType": "uint256",
          "name": "value",
          "type": "uint256"
        }
      ],
      "name": "Approval",
      "type": "event"
    },
    {
      "anonymous": false,
      "inputs": [],
      "name": "EIP712DomainChanged",
      "type": "event"
    },
    {
      "anonymous": false,
      "inputs": [
        {
          "indexed": true,
          "internalType": "address",
          "name": "from",
          "type": "address"
        },
        {
          "indexed": true,
          "internalType": "address",
          "name": "to",
          "type": "address"
        },
        {
          "indexed": false,
          "internalType": "uint256",
          "name": "value",
          "type": "uint256"
        }
      ],
      "name": "Transfer",
      "type": "event"
    },
    {
      "inputs": [],
      "name": "DEBT_GAS_COMPENSATION",
      "outputs": [
        {
          "internalType": "uint256",
          "name": "",
          "type": "uint256"
        }
      ],
      "stateMutability": "view",
      "type": "function"
    },
    {
      "inputs": [],
      "name": "DOMAIN_SEPARATOR",
      "outputs": [
        {
          "internalType": "bytes32",
          "name": "",
          "type": "bytes32"
        }
      ],
      "stateMutability": "view",
      "type": "function"
    },
    {
      "inputs": [],
      "name": "FLASH_LOAN_FEE",
      "outputs": [
        {
          "internalType": "uint256",
          "name": "",
          "type": "uint256"
        }
      ],
      "stateMutability": "view",
      "type": "function"
    },
    {
      "inputs": [
        {
          "internalType": "address",
          "name": "owner",
          "type": "address"
        },
        {
          "internalType": "address",
          "name": "spender",
          "type": "address"
        }
      ],
      "name": "allowance",
      "outputs": [
        {
          "internalType": "uint256",
          "name": "",
          "type": "uint256"
        }
      ],
      "stateMutability": "view",
      "type": "function"
    },
    {
      "inputs": [
        {
          "internalType": "address",
          "name": "spender",
          "type": "address"
        },
        {
          "internalType": "uint256",
          "name": "amount",
          "type": "uint256"
        }
      ],
      "name": "approve",
      "outputs": [
        {
          "internalType": "bool",
          "name": "",
          "type": "bool"
        }
      ],
      "stateMutability": "nonpayable",
      "type": "function"
    },
    {
      "inputs": [
        {
          "internalType": "address",
          "name": "account",
          "type": "address"
        }
      ],
      "name": "balanceOf",
      "outputs": [
        {
          "internalType": "uint256",
          "name": "",
          "type": "uint256"
        }
      ],
      "stateMutability": "view",
      "type": "function"
    },
    {
      "inputs": [],
      "name": "borrowerOperationsAddress",
      "outputs": [
        {
          "internalType": "address",
          "name": "",
          "type": "address"
        }
      ],
      "stateMutability": "view",
      "type": "function"
    },
    {
      "inputs": [
        {
          "internalType": "uint256",
          "name": "amount",
          "type": "uint256"
        }
      ],
      "name": "burn",
      "outputs": [],
      "stateMutability": "nonpayable",
      "type": "function"
    },
    {
      "inputs": [
        {
          "internalType": "address",
          "name": "_account",
          "type": "address"
        },
        {
          "internalType": "uint256",
          "name": "_amount",
          "type": "uint256"
        }
      ],
      "name": "burn",
      "outputs": [],
      "stateMutability": "nonpayable",
      "type": "function"
    },
    {
      "inputs": [
        {
          "internalType": "address",
          "name": "account",
          "type": "address"
        },
        {
          "internalType": "uint256",
          "name": "amount",
          "type": "uint256"
        }
      ],
      "name": "burnFrom",
      "outputs": [],
      "stateMutability": "nonpayable",
      "type": "function"
    },
    {
      "inputs": [
        {
          "internalType": "address",
          "name": "_account",
          "type": "address"
        },
        {
          "internalType": "uint256",
          "name": "_amount",
          "type": "uint256"
        }
      ],
      "name": "burnWithGasCompensation",
      "outputs": [
        {
          "internalType": "bool",
          "name": "",
          "type": "bool"
        }
      ],
      "stateMutability": "nonpayable",
      "type": "function"
    },
    {
      "inputs": [],
      "name": "decimals",
      "outputs": [
        {
          "internalType": "uint8",
          "name": "",
          "type": "uint8"
        }
      ],
      "stateMutability": "view",
      "type": "function"
    },
    {
      "inputs": [
        {
          "internalType": "address",
          "name": "spender",
          "type": "address"
        },
        {
          "internalType": "uint256",
          "name": "subtractedValue",
          "type": "uint256"
        }
      ],
      "name": "decreaseAllowance",
      "outputs": [
        {
          "internalType": "bool",
          "name": "",
          "type": "bool"
        }
      ],
      "stateMutability": "nonpayable",
      "type": "function"
    },
    {
      "inputs": [],
      "name": "eip712Domain",
      "outputs": [
        {
          "internalType": "bytes1",
          "name": "fields",
          "type": "bytes1"
        },
        {
          "internalType": "string",
          "name": "name",
          "type": "string"
        },
        {
          "internalType": "string",
          "name": "version",
          "type": "string"
        },
        {
          "internalType": "uint256",
          "name": "chainId",
          "type": "uint256"
        },
        {
          "internalType": "address",
          "name": "verifyingContract",
          "type": "address"
        },
        {
          "internalType": "bytes32",
          "name": "salt",
          "type": "bytes32"
        },
        {
          "internalType": "uint256[]",
          "name": "extensions",
          "type": "uint256[]"
        }
      ],
      "stateMutability": "view",
      "type": "function"
    },
    {
      "inputs": [
        {
          "internalType": "address",
          "name": "_troveManager",
          "type": "address"
        }
      ],
      "name": "enableTroveManager",
      "outputs": [],
      "stateMutability": "nonpayable",
      "type": "function"
    },
    {
      "inputs": [],
      "name": "factory",
      "outputs": [
        {
          "internalType": "address",
          "name": "",
          "type": "address"
        }
      ],
      "stateMutability": "view",
      "type": "function"
    },
    {
      "inputs": [
        {
          "internalType": "address",
          "name": "token",
          "type": "address"
        },
        {
          "internalType": "uint256",
          "name": "amount",
          "type": "uint256"
        }
      ],
      "name": "flashFee",
      "outputs": [
        {
          "internalType": "uint256",
          "name": "",
          "type": "uint256"
        }
      ],
      "stateMutability": "view",
      "type": "function"
    },
    {
      "inputs": [
        {
          "internalType": "contract IERC3156FlashBorrower",
          "name": "receiver",
          "type": "address"
        },
        {
          "internalType": "address",
          "name": "token",
          "type": "address"
        },
        {
          "internalType": "uint256",
          "name": "amount",
          "type": "uint256"
        },
        {
          "internalType": "bytes",
          "name": "data",
          "type": "bytes"
        }
      ],
      "name": "flashLoan",
      "outputs": [
        {
          "internalType": "bool",
          "name": "",
          "type": "bool"
        }
      ],
      "stateMutability": "nonpayable",
      "type": "function"
    },
    {
      "inputs": [],
      "name": "gasPool",
      "outputs": [
        {
          "internalType": "address",
          "name": "",
          "type": "address"
        }
      ],
      "stateMutability": "view",
      "type": "function"
    },
    {
      "inputs": [
        {
          "internalType": "address",
          "name": "spender",
          "type": "address"
        },
        {
          "internalType": "uint256",
          "name": "addedValue",
          "type": "uint256"
        }
      ],
      "name": "increaseAllowance",
      "outputs": [
        {
          "internalType": "bool",
          "name": "",
          "type": "bool"
        }
      ],
      "stateMutability": "nonpayable",
      "type": "function"
    },
    {
      "inputs": [
        {
          "internalType": "address",
          "name": "token",
          "type": "address"
        }
      ],
      "name": "maxFlashLoan",
      "outputs": [
        {
          "internalType": "uint256",
          "name": "",
          "type": "uint256"
        }
      ],
      "stateMutability": "view",
      "type": "function"
    },
    {
      "inputs": [
        {
          "internalType": "address",
          "name": "_account",
          "type": "address"
        },
        {
          "internalType": "uint256",
          "name": "_amount",
          "type": "uint256"
        }
      ],
      "name": "mint",
      "outputs": [],
      "stateMutability": "nonpayable",
      "type": "function"
    },
    {
      "inputs": [
        {
          "internalType": "address",
          "name": "_account",
          "type": "address"
        },
        {
          "internalType": "uint256",
          "name": "_amount",
          "type": "uint256"
        }
      ],
      "name": "mintWithGasCompensation",
      "outputs": [
        {
          "internalType": "bool",
          "name": "",
          "type": "bool"
        }
      ],
      "stateMutability": "nonpayable",
      "type": "function"
    },
    {
      "inputs": [],
      "name": "name",
      "outputs": [
        {
          "internalType": "string",
          "name": "",
          "type": "string"
        }
      ],
      "stateMutability": "view",
      "type": "function"
    },
    {
      "inputs": [
        {
          "internalType": "address",
          "name": "owner",
          "type": "address"
        }
      ],
      "name": "nonces",
      "outputs": [
        {
          "internalType": "uint256",
          "name": "",
          "type": "uint256"
        }
      ],
      "stateMutability": "view",
      "type": "function"
    },
    {
      "inputs": [
        {
          "internalType": "address",
          "name": "owner",
          "type": "address"
        },
        {
          "internalType": "address",
          "name": "spender",
          "type": "address"
        },
        {
          "internalType": "uint256",
          "name": "value",
          "type": "uint256"
        },
        {
          "internalType": "uint256",
          "name": "deadline",
          "type": "uint256"
        },
        {
          "internalType": "uint8",
          "name": "v",
          "type": "uint8"
        },
        {
          "internalType": "bytes32",
          "name": "r",
          "type": "bytes32"
        },
        {
          "internalType": "bytes32",
          "name": "s",
          "type": "bytes32"
        }
      ],
      "name": "permit",
      "outputs": [],
      "stateMutability": "nonpayable",
      "type": "function"
    },
    {
      "inputs": [
        {
          "internalType": "address",
          "name": "_poolAddress",
          "type": "address"
        },
        {
          "internalType": "address",
          "name": "_receiver",
          "type": "address"
        },
        {
          "internalType": "uint256",
          "name": "_amount",
          "type": "uint256"
        }
      ],
      "name": "returnFromPool",
      "outputs": [],
      "stateMutability": "nonpayable",
      "type": "function"
    },
    {
      "inputs": [
        {
          "internalType": "address",
          "name": "_sender",
          "type": "address"
        },
        {
          "internalType": "uint256",
          "name": "_amount",
          "type": "uint256"
        }
      ],
      "name": "sendToSP",
      "outputs": [],
      "stateMutability": "nonpayable",
      "type": "function"
    },
    {
      "inputs": [],
      "name": "stabilityPoolAddress",
      "outputs": [
        {
          "internalType": "address",
          "name": "",
          "type": "address"
        }
      ],
      "stateMutability": "view",
      "type": "function"
    },
    {
      "inputs": [],
      "name": "symbol",
      "outputs": [
        {
          "internalType": "string",
          "name": "",
          "type": "string"
        }
      ],
      "stateMutability": "view",
      "type": "function"
    },
    {
      "inputs": [],
      "name": "totalSupply",
      "outputs": [
        {
          "internalType": "uint256",
          "name": "",
          "type": "uint256"
        }
      ],
      "stateMutability": "view",
      "type": "function"
    },
    {
      "inputs": [
        {
          "internalType": "address",
          "name": "recipient",
          "type": "address"
        },
        {
          "internalType": "uint256",
          "name": "amount",
          "type": "uint256"
        }
      ],
      "name": "transfer",
      "outputs": [
        {
          "internalType": "bool",
          "name": "",
          "type": "bool"
        }
      ],
      "stateMutability": "nonpayable",
      "type": "function"
    },
    {
      "inputs": [
        {
          "internalType": "address",
          "name": "sender",
          "type": "address"
        },
        {
          "internalType": "address",
          "name": "recipient",
          "type": "address"
        },
        {
          "internalType": "uint256",
          "name": "amount",
          "type": "uint256"
        }
      ],
      "name": "transferFrom",
      "outputs": [
        {
          "internalType": "bool",
          "name": "",
          "type": "bool"
        }
      ],
      "stateMutability": "nonpayable",
      "type": "function"
    },
    {
      "inputs": [
        {
          "internalType": "address",
          "name": "",
          "type": "address"
        }
      ],
      "name": "troveManager",
      "outputs": [
        {
          "internalType": "bool",
          "name": "",
          "type": "bool"
        }
      ],
      "stateMutability": "view",
      "type": "function"
    }
  ],
  "transactionHash": "0xe8f51f9da60121b25305ff20b2fecc444547a3a5028a0640a4e37c940171bd56",
  "args": [
    "0xD478C3dD7482FF5b1a6D4bcCAfA85Fa405792F24",
    "0xb5c669124f7088e8d6d2b47a477bed3c7a7d8c81",
    "0x583c66d1281a03005a208b28005bea10e3a16de0",
    "0xa99da54fca0fe561a0233d05d0af022d9703db6a",
    "0x6430576C763Fac7adB502C3B52501ce55Fa35A04",
    "1000000000000000"
  ],
  "numDeployments": 1,
  "solcInputHash": "b91301f1a84b6c2e358640cd7d231682",
  "bytecode": "0x6102206040523480156200001257600080fd5b506040516200291f3803806200291f83398101604081905262000035916200025e565b604051806040016040528060098152602001681699589c98481554d160ba1b81525080604051806040016040528060018152602001603160f81b815250604051806040016040528060098152602001681699589c98481554d160ba1b815250604051806040016040528060068152602001651e989c9554d160d21b8152508160039081620000c491906200038b565b506004620000d382826200038b565b50620000e591508390506005620001c0565b61012052620000f6816006620001c0565b61014052815160208084019190912060e052815190820120610100524660a0526200018460e05161010051604080517f8b73c3c69bb8fe3d512ecc4cf759cc79239f7b179b0ffacaa9a75d522b39400f60208201529081019290925260608201524660808201523060a082015260009060c00160405160208183030381529060405280519060200120905090565b60805250503060c052506001600160a01b039485166101a052948416610180529183166101c05282166101e052166102005261016052620004cc565b6000602083511015620001e057620001d883620001f9565b9050620001f3565b81620001ed84826200038b565b5060ff90505b92915050565b600080829050601f8151111562000230578260405163305a27a960e01b815260040162000227919062000457565b60405180910390fd5b80516200023d82620004a7565b179392505050565b6001600160a01b03811681146200025b57600080fd5b50565b60008060008060008060c087890312156200027857600080fd5b8651620002858162000245565b6020880151909650620002988162000245565b6040880151909550620002ab8162000245565b6060880151909450620002be8162000245565b6080880151909350620002d18162000245565b8092505060a087015190509295509295509295565b634e487b7160e01b600052604160045260246000fd5b600181811c908216806200031157607f821691505b6020821081036200033257634e487b7160e01b600052602260045260246000fd5b50919050565b601f8211156200038657600081815260208120601f850160051c81016020861015620003615750805b601f850160051c820191505b8181101562000382578281556001016200036d565b5050505b505050565b81516001600160401b03811115620003a757620003a7620002e6565b620003bf81620003b88454620002fc565b8462000338565b602080601f831160018114620003f75760008415620003de5750858301515b600019600386901b1c1916600185901b17855562000382565b600085815260208120601f198616915b82811015620004285788860151825594840194600190910190840162000407565b5085821015620004475787850151600019600388901b60f8161c191681555b5050505050600190811b01905550565b600060208083528351808285015260005b81811015620004865785810183015185820160400152820162000468565b506000604082860101526040601f19601f8301168501019250505092915050565b80516020808301519190811015620003325760001960209190910360031b1b16919050565b60805160a05160c05160e05161010051610120516101405161016051610180516101a0516101c0516101e05161020051612362620005bd6000396000818161055601528181610c590152610d300152600081816104bd015261062f015260008181610496015281816107fc01528181610bdd01528181610cb4015261156d015260008181610271015281816106ee0152818161106b015261150b015260006119aa01526000818161034d01528181610c7a0152610d5101526000610b6401526000610b390152600061172d01526000611705015260006116600152600061168a015260006116b401526123626000f3fe608060405234801561001057600080fd5b50600436106102265760003560e01c80637ecebe001161012a578063a49d3993116100bd578063d505accf1161008c578063dd62ed3e11610071578063dd62ed3e14610505578063e75b3ae71461053e578063fa08b0381461055157600080fd5b8063d505accf146104df578063d9d98ce4146104f257600080fd5b8063a49d39931461045b578063a9059cbb1461047e578063b7f8cf9b14610491578063c45a0155146104b857600080fd5b80638ffaacaa116100f95780638ffaacaa1461042557806395d89b411461042d5780639dc29fac14610435578063a457c2d71461044857600080fd5b80637ecebe00146103d157806384b0196e146103e457806385177509146103ff5780638cff5fbe1461041257600080fd5b80633644e515116101bd5780634ba4a28b1161018c578063613255ab11610171578063613255ab1461038257806370a082311461039557806379cc6790146103be57600080fd5b80634ba4a28b146103485780635cffe9de1461036f57600080fd5b80633644e51514610307578063395093511461030f57806340c10f191461032257806342966c681461033557600080fd5b806318160ddd116101f957806318160ddd146102c057806320c582be146102d257806323b872dd146102e5578063313ce567146102f857600080fd5b806306fdde031461022b578063095ea7b3146102495780630b622ab21461026c57806317dd676d146102ab575b600080fd5b610233610578565b6040516102409190611f10565b60405180910390f35b61025c610257366004611f38565b61060a565b6040519015158152602001610240565b6102937f000000000000000000000000000000000000000000000000000000000000000081565b6040516001600160a01b039091168152602001610240565b6102be6102b9366004611f64565b610624565b005b6002545b604051908152602001610240565b6102be6102e0366004611f81565b6106e3565b61025c6102f3366004611f81565b610785565b60405160128152602001610240565b6102c46107a3565b61025c61031d366004611f38565b6107b2565b6102be610330366004611f38565b6107f1565b6102be610343366004611fc2565b610891565b6102c47f000000000000000000000000000000000000000000000000000000000000000081565b61025c61037d366004611fdb565b61089e565b6102c4610390366004611f64565b610ad0565b6102c46103a3366004611f64565b6001600160a01b031660009081526020819052604090205490565b6102be6103cc366004611f38565b610af8565b6102c46103df366004611f64565b610b0d565b6103ec610b2b565b604051610240979695949392919061207a565b61025c61040d366004611f38565b610bd0565b61025c610420366004611f38565b610ca7565b6102c4600981565b610233610d75565b6102be610443366004611f38565b610d84565b61025c610456366004611f38565b610e09565b61025c610469366004611f64565b60096020526000908152604090205460ff1681565b61025c61048c366004611f38565b610ebe565b6102937f000000000000000000000000000000000000000000000000000000000000000081565b6102937f000000000000000000000000000000000000000000000000000000000000000081565b6102be6104ed36600461212c565b610eda565b6102c4610500366004611f38565b61103e565b6102c46105133660046121a3565b6001600160a01b03918216600090815260016020908152604080832093909416825291909152205490565b6102be61054c366004611f38565b611060565b6102937f000000000000000000000000000000000000000000000000000000000000000081565b606060038054610587906121dc565b80601f01602080910402602001604051908101604052809291908181526020018280546105b3906121dc565b80156106005780601f106105d557610100808354040283529160200191610600565b820191906000526020600020905b8154815290600101906020018083116105e357829003601f168201915b5050505050905090565b600033610618818585611109565b60019150505b92915050565b336001600160a01b037f000000000000000000000000000000000000000000000000000000000000000016146106a15760405162461bcd60e51b815260206004820152600860248201527f21466163746f727900000000000000000000000000000000000000000000000060448201526064015b60405180910390fd5b6001600160a01b0316600090815260096020526040902080547fffffffffffffffffffffffffffffffffffffffffffffffffffffffffffffff00166001179055565b336001600160a01b037f000000000000000000000000000000000000000000000000000000000000000016148061072957503360009081526009602052604090205460ff165b6107755760405162461bcd60e51b815260206004820152601a60248201527f5a656272615553443a2043616c6c6572206e6f7420544d2f53500000000000006044820152606401610698565b610780838383611261565b505050565b600061079083611450565b61079b84848461163a565b949350505050565b60006107ad611653565b905090565b3360008181526001602090815260408083206001600160a01b038716845290915281205490919061061890829086906107ec908790612226565b611109565b336001600160a01b037f000000000000000000000000000000000000000000000000000000000000000016148061083757503360009081526009602052604090205460ff165b6108835760405162461bcd60e51b815260206004820152601a60248201527f5a656272615553443a2043616c6c6572206e6f7420424f2f544d0000000000006044820152606401610698565b61088d828261177e565b5050565b61089b338261183d565b50565b60006108a985610ad0565b84111561091e5760405162461bcd60e51b815260206004820152602b60248201527f4552433230466c6173684d696e743a20616d6f756e742065786365656473206d60448201527f6178466c6173684c6f616e0000000000000000000000000000000000000000006064820152608401610698565b600061092a868661103e565b9050610936878661177e565b6040517f23e30c8b0000000000000000000000000000000000000000000000000000000081527f439148f0bbc682ca079e46d6e2c2f0c1e3b820f1a291b069d8882abf8cf18dd9906001600160a01b038916906323e30c8b906109a79033908b908b9088908c908c90600401612239565b6020604051808303816000875af11580156109c6573d6000803e3d6000fd5b505050506040513d601f19601f820116820180604052508101906109ea9190612294565b14610a5c5760405162461bcd60e51b8152602060048201526024808201527f4552433230466c6173684d696e743a20696e76616c69642072657475726e207660448201527f616c7565000000000000000000000000000000000000000000000000000000006064820152608401610698565b6000610a666119a6565b9050610a7c8830610a77858a612226565b611a2a565b811580610a9057506001600160a01b038116155b15610aad57610aa888610aa38489612226565b61183d565b610ac2565b610ab7888761183d565b610ac2888284611261565b506001979650505050505050565b60006001600160a01b0382163014610ae957600061061e565b60025461061e906000196122ad565b610b03823383611a2a565b61088d828261183d565b6001600160a01b03811660009081526007602052604081205461061e565b600060608082808083610b5f7f00000000000000000000000000000000000000000000000000000000000000006005611ab6565b610b8a7f00000000000000000000000000000000000000000000000000000000000000006006611ab6565b604080516000808252602082019092527f0f000000000000000000000000000000000000000000000000000000000000009b939a50919850469750309650945092509050565b6000336001600160a01b037f00000000000000000000000000000000000000000000000000000000000000001614610c4a5760405162461bcd60e51b815260206004820152601760248201527f5a656272615553443a2043616c6c6572206e6f7420424f0000000000000000006044820152606401610698565b610c54838361183d565b610c9e7f00000000000000000000000000000000000000000000000000000000000000007f000000000000000000000000000000000000000000000000000000000000000061183d565b50600192915050565b6000336001600160a01b037f00000000000000000000000000000000000000000000000000000000000000001614610d215760405162461bcd60e51b815260206004820152601760248201527f5a656272615553443a2043616c6c6572206e6f7420424f0000000000000000006044820152606401610698565b610d2b838361177e565b610c9e7f00000000000000000000000000000000000000000000000000000000000000007f000000000000000000000000000000000000000000000000000000000000000061177e565b606060048054610587906121dc565b3360009081526009602052604090205460ff16610b035760405162461bcd60e51b815260206004820152602160248201527f5a656272615553443a2043616c6c6572206e6f742054726f76654d616e61676560448201527f72000000000000000000000000000000000000000000000000000000000000006064820152608401610698565b3360008181526001602090815260408083206001600160a01b038716845290915281205490919083811015610ea65760405162461bcd60e51b815260206004820152602560248201527f45524332303a2064656372656173656420616c6c6f77616e63652062656c6f7760448201527f207a65726f0000000000000000000000000000000000000000000000000000006064820152608401610698565b610eb38286868403611109565b506001949350505050565b6000610ec983611450565b610ed38383611b61565b9392505050565b83421115610f2a5760405162461bcd60e51b815260206004820152601d60248201527f45524332305065726d69743a206578706972656420646561646c696e650000006044820152606401610698565b60007f6e71edae12b1b97f4d1f60370fef10105fa2faae0126114a169c64845d6126c9888888610f598c611b6f565b6040805160208101969096526001600160a01b0394851690860152929091166060840152608083015260a082015260c0810186905260e0016040516020818303038152906040528051906020012090506000610fb482611b97565b90506000610fc482878787611bdf565b9050896001600160a01b0316816001600160a01b0316146110275760405162461bcd60e51b815260206004820152601e60248201527f45524332305065726d69743a20696e76616c6964207369676e617475726500006044820152606401610698565b6110328a8a8a611109565b50505050505050505050565b60006001600160a01b0383163014611057576000610ed3565b610ed382611c07565b336001600160a01b037f000000000000000000000000000000000000000000000000000000000000000016146110fe5760405162461bcd60e51b815260206004820152602260248201527f5a656272615553443a2043616c6c6572206e6f742053746162696c697479506f60448201527f6f6c0000000000000000000000000000000000000000000000000000000000006064820152608401610698565b61088d823383611261565b6001600160a01b0383166111845760405162461bcd60e51b8152602060048201526024808201527f45524332303a20617070726f76652066726f6d20746865207a65726f2061646460448201527f72657373000000000000000000000000000000000000000000000000000000006064820152608401610698565b6001600160a01b0382166112005760405162461bcd60e51b815260206004820152602260248201527f45524332303a20617070726f766520746f20746865207a65726f20616464726560448201527f73730000000000000000000000000000000000000000000000000000000000006064820152608401610698565b6001600160a01b0383811660008181526001602090815260408083209487168084529482529182902085905590518481527f8c5be1e5ebec7d5bd14f71427d1e84f3dd0314c0f7b2291e5b200ac8c7c3b925910160405180910390a3505050565b6001600160a01b0383166112dd5760405162461bcd60e51b815260206004820152602560248201527f45524332303a207472616e736665722066726f6d20746865207a65726f20616460448201527f64726573730000000000000000000000000000000000000000000000000000006064820152608401610698565b6001600160a01b0382166113595760405162461bcd60e51b815260206004820152602360248201527f45524332303a207472616e7366657220746f20746865207a65726f206164647260448201527f65737300000000000000000000000000000000000000000000000000000000006064820152608401610698565b6001600160a01b038316600090815260208190526040902054818110156113e85760405162461bcd60e51b815260206004820152602660248201527f45524332303a207472616e7366657220616d6f756e742065786365656473206260448201527f616c616e636500000000000000000000000000000000000000000000000000006064820152608401610698565b6001600160a01b03848116600081815260208181526040808320878703905593871680835291849020805487019055925185815290927fddf252ad1be2c89b69c2b068fc378daa952ba7f163c4a11628f55a4df523b3ef910160405180910390a35b50505050565b6001600160a01b0381161580159061147157506001600160a01b0381163014155b6115095760405162461bcd60e51b815260206004820152605860248201527f5a656272615553443a2043616e6e6f74207472616e7366657220746f6b656e7360448201527f206469726563746c7920746f20746865204465627420746f6b656e20636f6e7460648201527f72616374206f7220746865207a65726f20616464726573730000000000000000608482015260a401610698565b7f00000000000000000000000000000000000000000000000000000000000000006001600160a01b0316816001600160a01b03161415801561156457506001600160a01b03811660009081526009602052604090205460ff16155b80156115a257507f00000000000000000000000000000000000000000000000000000000000000006001600160a01b0316816001600160a01b031614155b61089b5760405162461bcd60e51b815260206004820152605b60248201527f5a656272615553443a2043616e6e6f74207472616e7366657220746f6b656e7360448201527f206469726563746c7920746f207468652053746162696c697479506f6f6c2c2060648201527f54726f76654d616e61676572206f7220426f72726f7765724f70730000000000608482015260a401610698565b600033611648858285611a2a565b610eb3858585611261565b6000306001600160a01b037f0000000000000000000000000000000000000000000000000000000000000000161480156116ac57507f000000000000000000000000000000000000000000000000000000000000000046145b156116d657507f000000000000000000000000000000000000000000000000000000000000000090565b6107ad604080517f8b73c3c69bb8fe3d512ecc4cf759cc79239f7b179b0ffacaa9a75d522b39400f60208201527f0000000000000000000000000000000000000000000000000000000000000000918101919091527f000000000000000000000000000000000000000000000000000000000000000060608201524660808201523060a082015260009060c00160405160208183030381529060405280519060200120905090565b6001600160a01b0382166117d45760405162461bcd60e51b815260206004820152601f60248201527f45524332303a206d696e7420746f20746865207a65726f2061646472657373006044820152606401610698565b80600260008282546117e69190612226565b90915550506001600160a01b038216600081815260208181526040808320805486019055518481527fddf252ad1be2c89b69c2b068fc378daa952ba7f163c4a11628f55a4df523b3ef910160405180910390a35050565b6001600160a01b0382166118b95760405162461bcd60e51b815260206004820152602160248201527f45524332303a206275726e2066726f6d20746865207a65726f2061646472657360448201527f73000000000000000000000000000000000000000000000000000000000000006064820152608401610698565b6001600160a01b038216600090815260208190526040902054818110156119485760405162461bcd60e51b815260206004820152602260248201527f45524332303a206275726e20616d6f756e7420657863656564732062616c616e60448201527f63650000000000000000000000000000000000000000000000000000000000006064820152608401610698565b6001600160a01b0383166000818152602081815260408083208686039055600280548790039055518581529192917fddf252ad1be2c89b69c2b068fc378daa952ba7f163c4a11628f55a4df523b3ef910160405180910390a3505050565b60007f00000000000000000000000000000000000000000000000000000000000000006001600160a01b031663b3f006746040518163ffffffff1660e01b8152600401602060405180830381865afa158015611a06573d6000803e3d6000fd5b505050506040513d601f19601f820116820180604052508101906107ad91906122c0565b6001600160a01b03838116600090815260016020908152604080832093861683529290522054600019811461144a5781811015611aa95760405162461bcd60e51b815260206004820152601d60248201527f45524332303a20696e73756666696369656e7420616c6c6f77616e63650000006044820152606401610698565b61144a8484848403611109565b606060ff8314611ad057611ac983611c21565b905061061e565b818054611adc906121dc565b80601f0160208091040260200160405190810160405280929190818152602001828054611b08906121dc565b8015611b555780601f10611b2a57610100808354040283529160200191611b55565b820191906000526020600020905b815481529060010190602001808311611b3857829003601f168201915b5050505050905061061e565b600033610618818585611261565b6001600160a01b03811660009081526007602052604090208054600181018255905b50919050565b600061061e611ba4611653565b836040517f19010000000000000000000000000000000000000000000000000000000000008152600281019290925260228201526042902090565b6000806000611bf087878787611c60565b91509150611bfd81611d24565b5095945050505050565b6000612710611c176009846122dd565b61061e91906122f4565b60606000611c2e83611e89565b604080516020808252818301909252919250600091906020820181803683375050509182525060208101929092525090565b6000807f7fffffffffffffffffffffffffffffff5d576e7357a4501ddfe92f46681b20a0831115611c975750600090506003611d1b565b6040805160008082526020820180845289905260ff881692820192909252606081018690526080810185905260019060a0016020604051602081039080840390855afa158015611ceb573d6000803e3d6000fd5b5050604051601f1901519150506001600160a01b038116611d1457600060019250925050611d1b565b9150600090505b94509492505050565b6000816004811115611d3857611d38612316565b03611d405750565b6001816004811115611d5457611d54612316565b03611da15760405162461bcd60e51b815260206004820152601860248201527f45434453413a20696e76616c6964207369676e617475726500000000000000006044820152606401610698565b6002816004811115611db557611db5612316565b03611e025760405162461bcd60e51b815260206004820152601f60248201527f45434453413a20696e76616c6964207369676e6174757265206c656e677468006044820152606401610698565b6003816004811115611e1657611e16612316565b0361089b5760405162461bcd60e51b815260206004820152602260248201527f45434453413a20696e76616c6964207369676e6174757265202773272076616c60448201527f75650000000000000000000000000000000000000000000000000000000000006064820152608401610698565b600060ff8216601f81111561061e576040517fb3512b0c00000000000000000000000000000000000000000000000000000000815260040160405180910390fd5b6000815180845260005b81811015611ef057602081850181015186830182015201611ed4565b506000602082860101526020601f19601f83011685010191505092915050565b602081526000610ed36020830184611eca565b6001600160a01b038116811461089b57600080fd5b60008060408385031215611f4b57600080fd5b8235611f5681611f23565b946020939093013593505050565b600060208284031215611f7657600080fd5b8135610ed381611f23565b600080600060608486031215611f9657600080fd5b8335611fa181611f23565b92506020840135611fb181611f23565b929592945050506040919091013590565b600060208284031215611fd457600080fd5b5035919050565b600080600080600060808688031215611ff357600080fd5b8535611ffe81611f23565b9450602086013561200e81611f23565b935060408601359250606086013567ffffffffffffffff8082111561203257600080fd5b818801915088601f83011261204657600080fd5b81358181111561205557600080fd5b89602082850101111561206757600080fd5b9699959850939650602001949392505050565b7fff00000000000000000000000000000000000000000000000000000000000000881681526000602060e0818401526120b660e084018a611eca565b83810360408501526120c8818a611eca565b606085018990526001600160a01b038816608086015260a0850187905284810360c0860152855180825283870192509083019060005b8181101561211a578351835292840192918401916001016120fe565b50909c9b505050505050505050505050565b600080600080600080600060e0888a03121561214757600080fd5b873561215281611f23565b9650602088013561216281611f23565b95506040880135945060608801359350608088013560ff8116811461218657600080fd5b9699959850939692959460a0840135945060c09093013592915050565b600080604083850312156121b657600080fd5b82356121c181611f23565b915060208301356121d181611f23565b809150509250929050565b600181811c908216806121f057607f821691505b602082108103611b9157634e487b7160e01b600052602260045260246000fd5b634e487b7160e01b600052601160045260246000fd5b8082018082111561061e5761061e612210565b60006001600160a01b03808916835280881660208401525085604083015284606083015260a060808301528260a0830152828460c0840137600060c0848401015260c0601f19601f8501168301019050979650505050505050565b6000602082840312156122a657600080fd5b5051919050565b8181038181111561061e5761061e612210565b6000602082840312156122d257600080fd5b8151610ed381611f23565b808202811582820484141761061e5761061e612210565b60008261231157634e487b7160e01b600052601260045260246000fd5b500490565b634e487b7160e01b600052602160045260246000fdfea2646970667358221220b563d9e4c6cca19ce6140265e1745b99575f09531d75dc779252ef4e6dd6ca9564736f6c63430008130033",
  "devdoc": {
    "events": {
      "Approval(address,address,uint256)": {
        "details": "Emitted when the allowance of a `spender` for an `owner` is set by a call to {approve}. `value` is the new allowance."
      },
      "EIP712DomainChanged()": {
        "details": "MAY be emitted to signal that the domain could have changed."
      },
      "Transfer(address,address,uint256)": {
        "details": "Emitted when `value` tokens are moved from one account (`from`) to another (`to`). Note that `value` may be zero."
      }
    },
    "kind": "dev",
    "methods": {
      "DOMAIN_SEPARATOR()": {
        "details": "Returns the domain separator used in the encoding of the signature for {permit}, as defined by {EIP712}."
      },
      "allowance(address,address)": {
        "details": "See {IERC20-allowance}."
      },
      "approve(address,uint256)": {
        "details": "See {IERC20-approve}. NOTE: If `amount` is the maximum `uint256`, the allowance is not updated on `transferFrom`. This is semantically equivalent to an infinite approval. Requirements: - `spender` cannot be the zero address."
      },
      "balanceOf(address)": {
        "details": "See {IERC20-balanceOf}."
      },
      "burn(uint256)": {
        "details": "Destroys `amount` tokens from the caller. See {ERC20-_burn}."
      },
      "burnFrom(address,uint256)": {
        "details": "Destroys `amount` tokens from `account`, deducting from the caller's allowance. See {ERC20-_burn} and {ERC20-allowance}. Requirements: - the caller must have allowance for ``accounts``'s tokens of at least `amount`."
      },
      "decimals()": {
        "details": "Returns the number of decimals used to get its user representation. For example, if `decimals` equals `2`, a balance of `505` tokens should be displayed to a user as `5.05` (`505 / 10 ** 2`). Tokens usually opt for a value of 18, imitating the relationship between Ether and Wei. This is the default value returned by this function, unless it's overridden. NOTE: This information is only used for _display_ purposes: it in no way affects any of the arithmetic of the contract, including {IERC20-balanceOf} and {IERC20-transfer}."
      },
      "decreaseAllowance(address,uint256)": {
        "details": "Atomically decreases the allowance granted to `spender` by the caller. This is an alternative to {approve} that can be used as a mitigation for problems described in {IERC20-approve}. Emits an {Approval} event indicating the updated allowance. Requirements: - `spender` cannot be the zero address. - `spender` must have allowance for the caller of at least `subtractedValue`."
      },
      "eip712Domain()": {
        "details": "See {EIP-5267}. _Available since v4.9._"
      },
      "flashFee(address,uint256)": {
        "details": "Returns the fee applied when doing flash loans. This function calls the {_flashFee} function which returns the fee applied when doing flash loans.",
        "params": {
          "amount": "The amount of tokens to be loaned.",
          "token": "The token to be flash loaned."
        },
        "returns": {
          "_0": "The fees applied to the corresponding flash loan."
        }
      },
      "flashLoan(address,address,uint256,bytes)": {
        "details": "Performs a flash loan. New tokens are minted and sent to the `receiver`, who is required to implement the {IERC3156FlashBorrower} interface. By the end of the flash loan, the receiver is expected to own amount + fee tokens and have them approved back to the token contract itself so they can be burned.",
        "params": {
          "amount": "The amount of tokens to be loaned.",
          "data": "An arbitrary datafield that is passed to the receiver.",
          "receiver": "The receiver of the flash loan. Should implement the {IERC3156FlashBorrower-onFlashLoan} interface.",
          "token": "The token to be flash loaned. Only `address(this)` is supported."
        },
        "returns": {
          "_0": "`true` if the flash loan was successful."
        }
      },
      "increaseAllowance(address,uint256)": {
        "details": "Atomically increases the allowance granted to `spender` by the caller. This is an alternative to {approve} that can be used as a mitigation for problems described in {IERC20-approve}. Emits an {Approval} event indicating the updated allowance. Requirements: - `spender` cannot be the zero address."
      },
      "maxFlashLoan(address)": {
        "details": "Returns the maximum amount of tokens available for loan.",
        "params": {
          "token": "The address of the token that is requested."
        },
        "returns": {
          "_0": "The amount of token that can be loaned."
        }
      },
      "name()": {
        "details": "Returns the name of the token."
      },
      "nonces(address)": {
        "details": "Returns the current nonce for `owner`. This value must be included whenever a signature is generated for {permit}. Every successful call to {permit} increases ``owner``'s nonce by one. This prevents a signature from being used multiple times."
      },
      "permit(address,address,uint256,uint256,uint8,bytes32,bytes32)": {
        "details": "Sets `value` as the allowance of `spender` over ``owner``'s tokens, given ``owner``'s signed approval. IMPORTANT: The same issues {IERC20-approve} has related to transaction ordering also apply here. Emits an {Approval} event. Requirements: - `spender` cannot be the zero address. - `deadline` must be a timestamp in the future. - `v`, `r` and `s` must be a valid `secp256k1` signature from `owner` over the EIP712-formatted function arguments. - the signature must use ``owner``'s current nonce (see {nonces}). For more information on the signature format, see the https://eips.ethereum.org/EIPS/eip-2612#specification[relevant EIP section]. CAUTION: See Security Considerations above."
      },
      "symbol()": {
        "details": "Returns the symbol of the token, usually a shorter version of the name."
      },
      "totalSupply()": {
        "details": "See {IERC20-totalSupply}."
      }
    },
    "title": "Zebra Debt Token \"ZebraUSD\"",
    "version": 1
  },
  "userdoc": {
    "kind": "user",
    "methods": {},
    "notice": "CDP minted against collateral deposits within `TroveManager`. This contract has a 1:n relationship with multiple deployments of `TroveManager`, each of which hold one collateral type which may be used to mint this token.",
    "version": 1
  },
  "storageLayout": {
    "storage": [
      {
        "astId": 1683,
        "contract": "contracts/core/ZebraUSD.sol:ZebraUSD",
        "label": "_balances",
        "offset": 0,
        "slot": "0",
        "type": "t_mapping(t_address,t_uint256)"
      },
      {
        "astId": 1689,
        "contract": "contracts/core/ZebraUSD.sol:ZebraUSD",
        "label": "_allowances",
        "offset": 0,
        "slot": "1",
        "type": "t_mapping(t_address,t_mapping(t_address,t_uint256))"
      },
      {
        "astId": 1691,
        "contract": "contracts/core/ZebraUSD.sol:ZebraUSD",
        "label": "_totalSupply",
        "offset": 0,
        "slot": "2",
        "type": "t_uint256"
      },
      {
        "astId": 1693,
        "contract": "contracts/core/ZebraUSD.sol:ZebraUSD",
        "label": "_name",
        "offset": 0,
        "slot": "3",
        "type": "t_string_storage"
      },
      {
        "astId": 1695,
        "contract": "contracts/core/ZebraUSD.sol:ZebraUSD",
        "label": "_symbol",
        "offset": 0,
        "slot": "4",
        "type": "t_string_storage"
      },
      {
        "astId": 4590,
        "contract": "contracts/core/ZebraUSD.sol:ZebraUSD",
        "label": "_nameFallback",
        "offset": 0,
        "slot": "5",
        "type": "t_string_storage"
      },
      {
        "astId": 4592,
        "contract": "contracts/core/ZebraUSD.sol:ZebraUSD",
        "label": "_versionFallback",
        "offset": 0,
        "slot": "6",
        "type": "t_string_storage"
      },
      {
        "astId": 2616,
        "contract": "contracts/core/ZebraUSD.sol:ZebraUSD",
        "label": "_nonces",
        "offset": 0,
        "slot": "7",
        "type": "t_mapping(t_address,t_struct(Counter)3568_storage)"
      },
      {
        "astId": 2624,
        "contract": "contracts/core/ZebraUSD.sol:ZebraUSD",
        "label": "_PERMIT_TYPEHASH_DEPRECATED_SLOT",
        "offset": 0,
        "slot": "8",
        "type": "t_bytes32"
      },
      {
        "astId": 23630,
        "contract": "contracts/core/ZebraUSD.sol:ZebraUSD",
        "label": "troveManager",
        "offset": 0,
        "slot": "9",
        "type": "t_mapping(t_address,t_bool)"
      }
    ],
    "types": {
      "t_address": {
        "encoding": "inplace",
        "label": "address",
        "numberOfBytes": "20"
      },
      "t_bool": {
        "encoding": "inplace",
        "label": "bool",
        "numberOfBytes": "1"
      },
      "t_bytes32": {
        "encoding": "inplace",
        "label": "bytes32",
        "numberOfBytes": "32"
      },
      "t_mapping(t_address,t_bool)": {
        "encoding": "mapping",
        "key": "t_address",
        "label": "mapping(address => bool)",
        "numberOfBytes": "32",
        "value": "t_bool"
      },
      "t_mapping(t_address,t_mapping(t_address,t_uint256))": {
        "encoding": "mapping",
        "key": "t_address",
        "label": "mapping(address => mapping(address => uint256))",
        "numberOfBytes": "32",
        "value": "t_mapping(t_address,t_uint256)"
      },
      "t_mapping(t_address,t_struct(Counter)3568_storage)": {
        "encoding": "mapping",
        "key": "t_address",
        "label": "mapping(address => struct Counters.Counter)",
        "numberOfBytes": "32",
        "value": "t_struct(Counter)3568_storage"
      },
      "t_mapping(t_address,t_uint256)": {
        "encoding": "mapping",
        "key": "t_address",
        "label": "mapping(address => uint256)",
        "numberOfBytes": "32",
        "value": "t_uint256"
      },
      "t_string_storage": {
        "encoding": "bytes",
        "label": "string",
        "numberOfBytes": "32"
      },
      "t_struct(Counter)3568_storage": {
        "encoding": "inplace",
        "label": "struct Counters.Counter",
        "members": [
          {
            "astId": 3567,
            "contract": "contracts/core/ZebraUSD.sol:ZebraUSD",
            "label": "_value",
            "offset": 0,
            "slot": "0",
            "type": "t_uint256"
          }
        ],
        "numberOfBytes": "32"
      },
      "t_uint256": {
        "encoding": "inplace",
        "label": "uint256",
        "numberOfBytes": "32"
      }
    }
  }
}